{
  "contractName": "ABATLTranslation",
  "abi": [
    {
      "inputs": [
        {
          "internalType": "address",
          "name": "_nidRegistryAddress",
          "type": "address"
        },
        {
          "internalType": "address",
          "name": "_niasRegistryAddress",
          "type": "address"
        }
      ],
      "stateMutability": "nonpayable",
      "type": "constructor"
    },
    {
      "anonymous": false,
      "inputs": [
        {
          "indexed": true,
          "internalType": "bytes32",
          "name": "abatlId",
          "type": "bytes32"
        },
        {
          "indexed": false,
          "internalType": "bytes32",
          "name": "nidId",
          "type": "bytes32"
        },
        {
          "indexed": false,
          "internalType": "bytes32",
          "name": "niasId",
          "type": "bytes32"
        },
        {
          "indexed": false,
          "internalType": "uint8",
          "name": "abatlType",
          "type": "uint8"
        }
      ],
      "name": "ABATLRegistered",
      "type": "event"
    },
    {
      "anonymous": false,
      "inputs": [
        {
          "indexed": true,
          "internalType": "bytes32",
          "name": "abatlId",
          "type": "bytes32"
        },
        {
          "indexed": false,
          "internalType": "uint8",
          "name": "qosLevel",
          "type": "uint8"
        },
        {
          "indexed": false,
          "internalType": "uint16",
          "name": "latency",
          "type": "uint16"
        },
        {
          "indexed": false,
          "internalType": "uint16",
          "name": "bandwidth",
          "type": "uint16"
        },
        {
          "indexed": false,
          "internalType": "uint8",
          "name": "securityLevel",
          "type": "uint8"
        }
      ],
      "name": "ABATLSecondaryAttributesUpdated",
      "type": "event"
    },
    {
      "anonymous": false,
      "inputs": [
        {
          "indexed": true,
          "internalType": "bytes32",
          "name": "abatlId",
          "type": "bytes32"
        },
        {
          "indexed": false,
          "internalType": "bool",
          "name": "isActive",
          "type": "bool"
        }
      ],
      "name": "ABATLStatusChanged",
      "type": "event"
    },
    {
      "inputs": [
        {
          "internalType": "bytes32",
          "name": "",
          "type": "bytes32"
        }
      ],
      "name": "abatlRecords",
      "outputs": [
        {
          "internalType": "bytes32",
          "name": "abatlId",
          "type": "bytes32"
        },
        {
          "internalType": "bytes32",
          "name": "nidId",
          "type": "bytes32"
        },
        {
          "internalType": "bytes32",
          "name": "niasId",
          "type": "bytes32"
        },
        {
          "internalType": "uint8",
          "name": "clusterID",
          "type": "uint8"
        },
        {
          "internalType": "uint8",
          "name": "abatlType",
          "type": "uint8"
        },
        {
          "internalType": "uint256",
          "name": "timestamp",
          "type": "uint256"
        },
        {
          "internalType": "uint8",
          "name": "senderType",
          "type": "uint8"
        },
        {
          "internalType": "bool",
          "name": "isActive",
          "type": "bool"
        }
      ],
      "stateMutability": "view",
      "type": "function",
      "constant": true
    },
    {
      "inputs": [
        {
          "internalType": "bytes32",
          "name": "",
          "type": "bytes32"
        }
      ],
      "name": "abatlSecondaryAttributes",
      "outputs": [
        {
          "internalType": "bytes32",
          "name": "abatlId",
          "type": "bytes32"
        },
        {
          "internalType": "uint8",
          "name": "qosLevel",
          "type": "uint8"
        },
        {
          "internalType": "uint16",
          "name": "latency",
          "type": "uint16"
        },
        {
          "internalType": "uint16",
          "name": "bandwidth",
          "type": "uint16"
        },
        {
          "internalType": "uint8",
          "name": "securityLevel",
          "type": "uint8"
        },
        {
          "internalType": "uint256",
          "name": "lastUpdated",
          "type": "uint256"
        }
      ],
      "stateMutability": "view",
      "type": "function",
      "constant": true
    },
    {
      "inputs": [
        {
          "internalType": "uint256",
          "name": "",
          "type": "uint256"
        }
      ],
      "name": "allAbatlIds",
      "outputs": [
        {
          "internalType": "bytes32",
          "name": "",
          "type": "bytes32"
        }
      ],
      "stateMutability": "view",
      "type": "function",
      "constant": true
    },
    {
      "inputs": [],
      "name": "niasRegistry",
      "outputs": [
        {
          "internalType": "contract NIASRegistry",
          "name": "",
          "type": "address"
        }
      ],
      "stateMutability": "view",
      "type": "function",
      "constant": true
    },
    {
      "inputs": [
        {
          "internalType": "bytes32",
          "name": "",
          "type": "bytes32"
        },
        {
          "internalType": "uint256",
          "name": "",
          "type": "uint256"
        }
      ],
      "name": "niasToAbatl",
      "outputs": [
        {
          "internalType": "bytes32",
          "name": "",
          "type": "bytes32"
        }
      ],
      "stateMutability": "view",
      "type": "function",
      "constant": true
    },
    {
      "inputs": [],
      "name": "nidRegistry",
      "outputs": [
        {
          "internalType": "contract NIDRegistry",
          "name": "",
          "type": "address"
        }
      ],
      "stateMutability": "view",
      "type": "function",
      "constant": true
    },
    {
      "inputs": [
        {
          "internalType": "bytes32",
          "name": "",
          "type": "bytes32"
        },
        {
          "internalType": "uint256",
          "name": "",
          "type": "uint256"
        }
      ],
      "name": "nidToAbatl",
      "outputs": [
        {
          "internalType": "bytes32",
          "name": "",
          "type": "bytes32"
        }
      ],
      "stateMutability": "view",
      "type": "function",
      "constant": true
    },
    {
      "inputs": [
        {
          "internalType": "bytes32",
          "name": "_abatlId",
          "type": "bytes32"
        },
        {
          "internalType": "bytes32",
          "name": "_nidId",
          "type": "bytes32"
        },
        {
          "internalType": "bytes32",
          "name": "_niasId",
          "type": "bytes32"
        },
        {
          "internalType": "uint8",
          "name": "_clusterID",
          "type": "uint8"
        },
        {
          "internalType": "uint8",
          "name": "_abatlType",
          "type": "uint8"
        },
        {
          "internalType": "uint8",
          "name": "_senderType",
          "type": "uint8"
        }
      ],
      "name": "registerABATL",
      "outputs": [],
      "stateMutability": "nonpayable",
      "type": "function"
    },
    {
      "inputs": [
        {
          "internalType": "bytes32",
          "name": "_abatlId",
          "type": "bytes32"
        },
        {
          "internalType": "uint8",
          "name": "_qosLevel",
          "type": "uint8"
        },
        {
          "internalType": "uint16",
          "name": "_latency",
          "type": "uint16"
        },
        {
          "internalType": "uint16",
          "name": "_bandwidth",
          "type": "uint16"
        },
        {
          "internalType": "uint8",
          "name": "_securityLevel",
          "type": "uint8"
        }
      ],
      "name": "updateABATLSecondaryAttributes",
      "outputs": [],
      "stateMutability": "nonpayable",
      "type": "function"
    },
    {
      "inputs": [
        {
          "internalType": "bytes32",
          "name": "_abatlId",
          "type": "bytes32"
        },
        {
          "internalType": "bool",
          "name": "_isActive",
          "type": "bool"
        }
      ],
      "name": "setABATLStatus",
      "outputs": [],
      "stateMutability": "nonpayable",
      "type": "function"
    },
    {
      "inputs": [
        {
          "internalType": "bytes32",
          "name": "_abatlId",
          "type": "bytes32"
        }
      ],
      "name": "getABATLPrimaryDetails",
      "outputs": [
        {
          "internalType": "bytes32",
          "name": "",
          "type": "bytes32"
        },
        {
          "internalType": "bytes32",
          "name": "",
          "type": "bytes32"
        },
        {
          "internalType": "bytes32",
          "name": "",
          "type": "bytes32"
        },
        {
          "internalType": "uint8",
          "name": "",
          "type": "uint8"
        },
        {
          "internalType": "uint8",
          "name": "",
          "type": "uint8"
        },
        {
          "internalType": "uint256",
          "name": "",
          "type": "uint256"
        },
        {
          "internalType": "uint8",
          "name": "",
          "type": "uint8"
        },
        {
          "internalType": "bool",
          "name": "",
          "type": "bool"
        }
      ],
      "stateMutability": "view",
      "type": "function",
      "constant": true
    },
    {
      "inputs": [
        {
          "internalType": "bytes32",
          "name": "_abatlId",
          "type": "bytes32"
        }
      ],
      "name": "getABATLSecondaryAttributes",
      "outputs": [
        {
          "internalType": "bytes32",
          "name": "",
          "type": "bytes32"
        },
        {
          "internalType": "uint8",
          "name": "",
          "type": "uint8"
        },
        {
          "internalType": "uint16",
          "name": "",
          "type": "uint16"
        },
        {
          "internalType": "uint16",
          "name": "",
          "type": "uint16"
        },
        {
          "internalType": "uint8",
          "name": "",
          "type": "uint8"
        },
        {
          "internalType": "uint256",
          "name": "",
          "type": "uint256"
        }
      ],
      "stateMutability": "view",
      "type": "function",
      "constant": true
    },
    {
      "inputs": [
        {
          "internalType": "bytes32",
          "name": "_nidId",
          "type": "bytes32"
        }
      ],
      "name": "getABATLsByNID",
      "outputs": [
        {
          "internalType": "bytes32[]",
          "name": "",
          "type": "bytes32[]"
        }
      ],
      "stateMutability": "view",
      "type": "function",
      "constant": true
    },
    {
      "inputs": [
        {
          "internalType": "bytes32",
          "name": "_niasId",
          "type": "bytes32"
        }
      ],
      "name": "getABATLsByNIAS",
      "outputs": [
        {
          "internalType": "bytes32[]",
          "name": "",
          "type": "bytes32[]"
        }
      ],
      "stateMutability": "view",
      "type": "function",
      "constant": true
    },
    {
      "inputs": [],
      "name": "getABATLCount",
      "outputs": [
        {
          "internalType": "uint256",
          "name": "",
          "type": "uint256"
        }
      ],
      "stateMutability": "view",
      "type": "function",
      "constant": true
    }
  ],
  "bytecode": "0x608060405234801561000f575f80fd5b5060405161103138038061103183398101604081905261002e9161007a565b600580546001600160a01b039384166001600160a01b031991821617909155600680549290931691161790556100ab565b80516001600160a01b0381168114610075575f80fd5b919050565b5f806040838503121561008b575f80fd5b6100948361005f565b91506100a26020840161005f565b90509250929050565b610f79806100b85f395ff3fe608060405234801561000f575f80fd5b50600436106100f0575f3560e01c8063bcbbd1dc11610093578063dc64d29711610063578063dc64d297146102ea578063e1a0e30e146102fd578063f7858df91461031d578063fe18391d14610330575f80fd5b8063bcbbd1dc1461025a578063cb6228f31461026d578063cde92dd014610280578063d78d12c7146102d7575f80fd5b80631e82a139116100ce5780631e82a1391461019b57806335c3b6ee146101a35780637d752c03146101b8578063a88ab4d5146101cb575f80fd5b80630914f429146100f45780630e0815e41461014f5780630ecb021814610170575b5f80fd5b610107610102366004610d60565b610343565b6040805198895260208901979097529587019490945260ff9283166060870152908216608086015260a08501521660c0830152151560e0820152610100015b60405180910390f35b61016261015d366004610d77565b610418565b604051908152602001610146565b600554610183906001600160a01b031681565b6040516001600160a01b039091168152602001610146565b600454610162565b6101b66101b1366004610dbd565b610443565b005b600654610183906001600160a01b031681565b6102226101d9366004610d60565b600160208190525f918252604090912080549181015460029091015460ff8083169261ffff61010082048116936301000000830490911692650100000000009092049091169086565b6040805196875260ff958616602088015261ffff948516908701529190921660608501529116608083015260a082015260c001610146565b610222610268366004610d60565b6105e5565b61016261027b366004610d77565b610698565b61010761028e366004610d60565b5f6020819052908152604090208054600182015460028301546003840154600485015460059095015493949293919260ff80831693610100938490048216938183169291041688565b6101b66102e5366004610e17565b6106b1565b6101b66102f8366004610e82565b610bf1565b61031061030b366004610d60565b610c85565b6040516101469190610eb0565b61031061032b366004610d60565b610ce4565b61016261033e366004610d60565b610d41565b5f805f805f805f805f808a81526020019081526020015f20600401545f036103865760405162461bcd60e51b815260040161037d90610ef3565b60405180910390fd5b5050505f958652505050602083815260409384902084516101008082018752825480835260018401549483018590526002840154978301889052600384015460ff8082166060860181905291849004811660808601819052600487015460a0870181905260059097015480831660c08801819052959004909116151560e0909501859052919995989750955093909190565b6003602052815f5260405f208181548110610431575f80fd5b905f5260205f20015f91509150505481565b5f8581526020819052604081206004015490036104725760405162461bcd60e51b815260040161037d90610ef3565b5f85815260208190526040902060050154610100900460ff166104cd5760405162461bcd60e51b8152602060048201526013602482015272414241544c206973206e6f742061637469766560681b604482015260640161037d565b6040805160c08101825286815260ff808716602080840191825261ffff80891685870190815288821660608701908152888616608088019081524260a089019081525f8f81526001968790528a902098518955955194880180549351925191518816650100000000000265ff0000000000199286166301000000029290921665ffffff00000019939095166101000262ffffff19909416959097169490941791909117161717909155516002909101555185907f7f38e4e1eea811ec8b9180424629ed22371b39de46c1120c9d8bfad1238656a9906105d690879087908790879060ff948516815261ffff93841660208201529190921660408201529116606082015260800190565b60405180910390a25050505050565b5f805f805f805f808881526020019081526020015f20600401545f0361061d5760405162461bcd60e51b815260040161037d90610ef3565b5050505f938452505060016020818152604093849020845160c08101865281548082529382015460ff80821694830185905261ffff6101008304811698840189905263010000008304166060840181905265010000000000909204166080830181905260029093015460a09092018290529396929594509091565b6002602052815f5260405f208181548110610431575f80fd5b60055460405163fc35819760e01b8152600481018790526001600160a01b039091169063fc35819790602401602060405180830381865afa1580156106f8573d5f803e3d5ffd5b505050506040513d601f19601f8201168201806040525081019061071c9190610f21565b61075d5760405162461bcd60e51b815260206004820152601260248201527113925108191bd95cc81b9bdd08195e1a5cdd60721b604482015260640161037d565b600554604051630840733360e41b8152600481018790526001600160a01b0390911690638407333090602401602060405180830381865afa1580156107a4573d5f803e3d5ffd5b505050506040513d601f19601f820116820180604052508101906107c89190610f21565b6108085760405162461bcd60e51b81526020600482015260116024820152704e4944206973206e6f742061637469766560781b604482015260640161037d565b60065460405163a3fa4f8760e01b8152600481018690526001600160a01b039091169063a3fa4f8790602401602060405180830381865afa15801561084f573d5f803e3d5ffd5b505050506040513d601f19601f820116820180604052508101906108739190610f21565b6108b55760405162461bcd60e51b815260206004820152601360248201527213925054c8191bd95cc81b9bdd08195e1a5cdd606a1b604482015260640161037d565b6006546040516313115b2360e11b8152600481018690526001600160a01b0390911690632622b64690602401602060405180830381865afa1580156108fc573d5f803e3d5ffd5b505050506040513d601f19601f820116820180604052508101906109209190610f21565b6109615760405162461bcd60e51b81526020600482015260126024820152714e494153206973206e6f742061637469766560701b604482015260640161037d565b60018160ff1611156109ab5760405162461bcd60e51b8152602060048201526013602482015272496e76616c69642073656e646572207479706560681b604482015260640161037d565b5f8681526020819052604090206004015415610a095760405162461bcd60e51b815260206004820152601860248201527f414241544c20616c726561647920726567697374657265640000000000000000604482015260640161037d565b6040518061010001604052808781526020018681526020018581526020018460ff1681526020018360ff1681526020014281526020018260ff168152602001600115158152505f808881526020019081526020015f205f820151815f015560208201518160010155604082015181600201556060820151816003015f6101000a81548160ff021916908360ff16021790555060808201518160030160016101000a81548160ff021916908360ff16021790555060a0820151816004015560c0820151816005015f6101000a81548160ff021916908360ff16021790555060e08201518160050160016101000a81548160ff02191690831515021790555090505060025f8681526020019081526020015f2086908060018154018082558091505060019003905f5260205f20015f909190919091505560035f8581526020019081526020015f2086908060018154018082558091505060019003905f5260205f20015f9091909190915055600486908060018154018082558091505060019003905f5260205f20015f9091909190915055857f10963bcc3536508b642be6ab59a5e09934839235a3f5a0ff097456133b10281e868685604051610be193929190928352602083019190915260ff16604082015260600190565b60405180910390a2505050505050565b5f828152602081905260408120600401549003610c205760405162461bcd60e51b815260040161037d90610ef3565b5f828152602081905260409081902060050180548315156101000261ff00199091161790555182907f7f5e7054eb6867a0504af365ae21bb74abde6ee28cb5fe6c8a2d30451776704b90610c7990841515815260200190565b60405180910390a25050565b5f81815260036020908152604091829020805483518184028101840190945280845260609392830182828015610cd857602002820191905f5260205f20905b815481526020019060010190808311610cc4575b50505050509050919050565b5f81815260026020908152604091829020805483518184028101840190945280845260609392830182828015610cd857602002820191905f5260205f2090815481526020019060010190808311610cc45750505050509050919050565b60048181548110610d50575f80fd5b5f91825260209091200154905081565b5f60208284031215610d70575f80fd5b5035919050565b5f8060408385031215610d88575f80fd5b50508035926020909101359150565b803560ff81168114610da7575f80fd5b919050565b803561ffff81168114610da7575f80fd5b5f805f805f60a08688031215610dd1575f80fd5b85359450610de160208701610d97565b9350610def60408701610dac565b9250610dfd60608701610dac565b9150610e0b60808701610d97565b90509295509295909350565b5f805f805f8060c08789031215610e2c575f80fd5b863595506020870135945060408701359350610e4a60608801610d97565b9250610e5860808801610d97565b9150610e6660a08801610d97565b90509295509295509295565b8015158114610e7f575f80fd5b50565b5f8060408385031215610e93575f80fd5b823591506020830135610ea581610e72565b809150509250929050565b602080825282518282018190525f9190848201906040850190845b81811015610ee757835183529284019291840191600101610ecb565b50909695505050505050565b602080825260149082015273105090551308191bd95cc81b9bdd08195e1a5cdd60621b604082015260600190565b5f60208284031215610f31575f80fd5b8151610f3c81610e72565b939250505056fea26469706673582212208d51accb1912813e5e95ac9f6644377531af631f1aaebc4a0eafe63c231d7d7564736f6c63430008140033",
  "immutableReferences": {},
  "source": "// SPDX-License-Identifier: MIT\npragma solidity ^0.8.17;\n\nimport \"./NIDRegistry.sol\";\nimport \"./NIASRegistry.sol\";\n\n/**\n * @title ABATLTranslation\n * @dev Contract for facilitating translation between NAP layer and B-BGP layer\n */\ncontract ABATLTranslation {\n    // ABATL Record structure\n    struct ABATLRecord {\n        bytes32 abatlId;             // ABATL ID hash\n        bytes32 nidId;               // NID ID hash\n        bytes32 niasId;              // NIAS ID hash\n        uint8 clusterID;             // Cluster ID\n        uint8 abatlType;             // Type of ABATL (0-255)\n        uint256 timestamp;           // Registration timestamp\n        uint8 senderType;            // 0 = NID_SENDER, 1 = NIAS_SENDER\n        bool isActive;               // Whether the ABATL is active\n    }\n    \n    // Secondary attributes for ABATL (dynamic attributes)\n    struct ABATLSecondaryAttributes {\n        bytes32 abatlId;             // ABATL ID hash\n        uint8 qosLevel;              // QoS level (0-100)\n        uint16 latency;              // Latency in ms\n        uint16 bandwidth;            // Bandwidth in Mbps\n        uint8 securityLevel;         // Security level (0-255)\n        uint256 lastUpdated;         // Last time attributes were updated\n    }\n    \n    // Mapping from ABATL ID to ABATLRecord\n    mapping(bytes32 => ABATLRecord) public abatlRecords;\n    \n    // Mapping from ABATL ID to ABATLSecondaryAttributes\n    mapping(bytes32 => ABATLSecondaryAttributes) public abatlSecondaryAttributes;\n    \n    // Mapping from NID to ABATL IDs\n    mapping(bytes32 => bytes32[]) public nidToAbatl;\n    \n    // Mapping from NIAS to ABATL IDs\n    mapping(bytes32 => bytes32[]) public niasToAbatl;\n    \n    // Array to store all ABATL IDs\n    bytes32[] public allAbatlIds;\n    \n    // NID and NIAS registry contracts\n    NIDRegistry public nidRegistry;\n    NIASRegistry public niasRegistry;\n    \n    // Events\n    event ABATLRegistered(bytes32 indexed abatlId, bytes32 nidId, bytes32 niasId, uint8 abatlType);\n    event ABATLSecondaryAttributesUpdated(bytes32 indexed abatlId, uint8 qosLevel, uint16 latency, uint16 bandwidth, uint8 securityLevel);\n    event ABATLStatusChanged(bytes32 indexed abatlId, bool isActive);\n    \n    /**\n     * @dev Constructor\n     * @param _nidRegistryAddress Address of NIDRegistry contract\n     * @param _niasRegistryAddress Address of NIASRegistry contract\n     */\n    constructor(address _nidRegistryAddress, address _niasRegistryAddress) {\n        nidRegistry = NIDRegistry(_nidRegistryAddress);\n        niasRegistry = NIASRegistry(_niasRegistryAddress);\n    }\n    \n    /**\n     * @dev Register a new ABATL record\n     * @param _abatlId ABATL ID hash\n     * @param _nidId NID ID hash\n     * @param _niasId NIAS ID hash\n     * @param _clusterID Cluster ID\n     * @param _abatlType Type of ABATL\n     * @param _senderType Sender type (0 = NID_SENDER, 1 = NIAS_SENDER)\n     */\n    function registerABATL(\n        bytes32 _abatlId,\n        bytes32 _nidId,\n        bytes32 _niasId,\n        uint8 _clusterID,\n        uint8 _abatlType,\n        uint8 _senderType\n    ) public {\n        // Verify that NID and NIAS exist and are active\n        require(nidRegistry.nodeExists(_nidId), \"NID does not exist\");\n        require(nidRegistry.isNodeActive(_nidId), \"NID is not active\");\n        require(niasRegistry.niasExists(_niasId), \"NIAS does not exist\");\n        require(niasRegistry.isNIASActive(_niasId), \"NIAS is not active\");\n        require(_senderType <= 1, \"Invalid sender type\");\n        \n        // Verify ABATL doesn't already exist\n        require(abatlRecords[_abatlId].timestamp == 0, \"ABATL already registered\");\n        \n        // Create the ABATL record\n        abatlRecords[_abatlId] = ABATLRecord({\n            abatlId: _abatlId,\n            nidId: _nidId,\n            niasId: _niasId,\n            clusterID: _clusterID,\n            abatlType: _abatlType,\n            timestamp: block.timestamp,\n            senderType: _senderType,\n            isActive: true\n        });\n        \n        // Add to mappings\n        nidToAbatl[_nidId].push(_abatlId);\n        niasToAbatl[_niasId].push(_abatlId);\n        allAbatlIds.push(_abatlId);\n        \n        emit ABATLRegistered(_abatlId, _nidId, _niasId, _abatlType);\n    }\n    \n    /**\n     * @dev Update ABATL secondary attributes\n     * @param _abatlId ABATL ID hash\n     * @param _qosLevel QoS level\n     * @param _latency Latency in ms\n     * @param _bandwidth Bandwidth in Mbps\n     * @param _securityLevel Security level\n     */\n    function updateABATLSecondaryAttributes(\n        bytes32 _abatlId,\n        uint8 _qosLevel,\n        uint16 _latency,\n        uint16 _bandwidth,\n        uint8 _securityLevel\n    ) public {\n        require(abatlRecords[_abatlId].timestamp != 0, \"ABATL does not exist\");\n        require(abatlRecords[_abatlId].isActive, \"ABATL is not active\");\n        \n        abatlSecondaryAttributes[_abatlId] = ABATLSecondaryAttributes({\n            abatlId: _abatlId,\n            qosLevel: _qosLevel,\n            latency: _latency,\n            bandwidth: _bandwidth,\n            securityLevel: _securityLevel,\n            lastUpdated: block.timestamp\n        });\n        \n        emit ABATLSecondaryAttributesUpdated(_abatlId, _qosLevel, _latency, _bandwidth, _securityLevel);\n    }\n    \n    /**\n     * @dev Set ABATL active status\n     * @param _abatlId ABATL ID hash\n     * @param _isActive New active status\n     */\n    function setABATLStatus(bytes32 _abatlId, bool _isActive) public {\n        require(abatlRecords[_abatlId].timestamp != 0, \"ABATL does not exist\");\n        \n        abatlRecords[_abatlId].isActive = _isActive;\n        \n        emit ABATLStatusChanged(_abatlId, _isActive);\n    }\n    \n    /**\n     * @dev Get ABATL primary details\n     * @param _abatlId ABATL ID hash\n     * @return ABATL primary details (abatlId, nidId, niasId, clusterID, abatlType, timestamp, senderType, isActive)\n     */\n    function getABATLPrimaryDetails(bytes32 _abatlId) public view returns (\n        bytes32, bytes32, bytes32, uint8, uint8, uint256, uint8, bool\n    ) {\n        require(abatlRecords[_abatlId].timestamp != 0, \"ABATL does not exist\");\n        \n        ABATLRecord memory record = abatlRecords[_abatlId];\n        \n        return (\n            record.abatlId,\n            record.nidId,\n            record.niasId,\n            record.clusterID,\n            record.abatlType,\n            record.timestamp,\n            record.senderType,\n            record.isActive\n        );\n    }\n    \n    /**\n     * @dev Get ABATL secondary attributes\n     * @param _abatlId ABATL ID hash\n     * @return ABATL secondary attributes (abatlId, qosLevel, latency, bandwidth, securityLevel, lastUpdated)\n     */\n    function getABATLSecondaryAttributes(bytes32 _abatlId) public view returns (\n        bytes32, uint8, uint16, uint16, uint8, uint256\n    ) {\n        require(abatlRecords[_abatlId].timestamp != 0, \"ABATL does not exist\");\n        \n        ABATLSecondaryAttributes memory attrs = abatlSecondaryAttributes[_abatlId];\n        \n        return (\n            attrs.abatlId,\n            attrs.qosLevel,\n            attrs.latency,\n            attrs.bandwidth,\n            attrs.securityLevel,\n            attrs.lastUpdated\n        );\n    }\n    \n    /**\n     * @dev Get all ABATL IDs for a NID\n     * @param _nidId NID ID hash\n     * @return Array of ABATL IDs\n     */\n    function getABATLsByNID(bytes32 _nidId) public view returns (bytes32[] memory) {\n        return nidToAbatl[_nidId];\n    }\n    \n    /**\n     * @dev Get all ABATL IDs for a NIAS\n     * @param _niasId NIAS ID hash\n     * @return Array of ABATL IDs\n     */\n    function getABATLsByNIAS(bytes32 _niasId) public view returns (bytes32[] memory) {\n        return niasToAbatl[_niasId];\n    }\n    \n    /**\n     * @dev Get count of all ABATL records\n     * @return Number of ABATL records\n     */\n    function getABATLCount() public view returns (uint256) {\n        return allAbatlIds.length;\n    }\n}",
  "sourcePath": "C:\\Users\\Bonsu\\Documents\\Blockchain Multi Industrial Service Center\\Blockchain MultiIndustrial Projects\\BlockchainMultiIndustryRepo\\contracts\\N2N\\ABATLTranslation.sol",
  "compiler": {
    "name": "solc",
    "version": "0.8.20+commit.a1b79de6.Emscripten.clang"
  },
  "schemaVersion": "3.4.16",
  "updatedAt": "2025-04-16T14:10:53.475Z",
  "networkType": "ethereum",
  "devdoc": {
    "details": "Contract for facilitating translation between NAP layer and B-BGP layer",
    "kind": "dev",
    "methods": {
      "constructor": {
        "details": "Constructor",
        "params": {
          "_niasRegistryAddress": "Address of NIASRegistry contract",
          "_nidRegistryAddress": "Address of NIDRegistry contract"
        }
      },
      "getABATLCount()": {
        "details": "Get count of all ABATL records",
        "returns": {
          "_0": "Number of ABATL records"
        }
      },
      "getABATLPrimaryDetails(bytes32)": {
        "details": "Get ABATL primary details",
        "params": {
          "_abatlId": "ABATL ID hash"
        },
        "returns": {
          "_0": "ABATL primary details (abatlId, nidId, niasId, clusterID, abatlType, timestamp, senderType, isActive)"
        }
      },
      "getABATLSecondaryAttributes(bytes32)": {
        "details": "Get ABATL secondary attributes",
        "params": {
          "_abatlId": "ABATL ID hash"
        },
        "returns": {
          "_0": "ABATL secondary attributes (abatlId, qosLevel, latency, bandwidth, securityLevel, lastUpdated)"
        }
      },
      "getABATLsByNIAS(bytes32)": {
        "details": "Get all ABATL IDs for a NIAS",
        "params": {
          "_niasId": "NIAS ID hash"
        },
        "returns": {
          "_0": "Array of ABATL IDs"
        }
      },
      "getABATLsByNID(bytes32)": {
        "details": "Get all ABATL IDs for a NID",
        "params": {
          "_nidId": "NID ID hash"
        },
        "returns": {
          "_0": "Array of ABATL IDs"
        }
      },
      "registerABATL(bytes32,bytes32,bytes32,uint8,uint8,uint8)": {
        "details": "Register a new ABATL record",
        "params": {
          "_abatlId": "ABATL ID hash",
          "_abatlType": "Type of ABATL",
          "_clusterID": "Cluster ID",
          "_niasId": "NIAS ID hash",
          "_nidId": "NID ID hash",
          "_senderType": "Sender type (0 = NID_SENDER, 1 = NIAS_SENDER)"
        }
      },
      "setABATLStatus(bytes32,bool)": {
        "details": "Set ABATL active status",
        "params": {
          "_abatlId": "ABATL ID hash",
          "_isActive": "New active status"
        }
      },
      "updateABATLSecondaryAttributes(bytes32,uint8,uint16,uint16,uint8)": {
        "details": "Update ABATL secondary attributes",
        "params": {
          "_abatlId": "ABATL ID hash",
          "_bandwidth": "Bandwidth in Mbps",
          "_latency": "Latency in ms",
          "_qosLevel": "QoS level",
          "_securityLevel": "Security level"
        }
      }
    },
    "title": "ABATLTranslation",
    "version": 1
  },
  "userdoc": {
    "kind": "user",
    "methods": {},
    "version": 1
  }
}