{
  "contractName": "AssetTransferProcessor",
  "abi": [
    {
      "anonymous": false,
      "inputs": [
        {
          "indexed": true,
          "internalType": "bytes32",
          "name": "txId",
          "type": "bytes32"
        },
        {
          "indexed": false,
          "internalType": "address",
          "name": "asset",
          "type": "address"
        },
        {
          "indexed": false,
          "internalType": "uint256",
          "name": "amount",
          "type": "uint256"
        }
      ],
      "name": "AssetLocked",
      "type": "event"
    },
    {
      "anonymous": false,
      "inputs": [
        {
          "indexed": true,
          "internalType": "bytes32",
          "name": "txId",
          "type": "bytes32"
        },
        {
          "indexed": false,
          "internalType": "address",
          "name": "asset",
          "type": "address"
        },
        {
          "indexed": false,
          "internalType": "uint256",
          "name": "amount",
          "type": "uint256"
        }
      ],
      "name": "AssetReleased",
      "type": "event"
    },
    {
      "anonymous": false,
      "inputs": [
        {
          "indexed": true,
          "internalType": "bytes32",
          "name": "role",
          "type": "bytes32"
        },
        {
          "indexed": true,
          "internalType": "bytes32",
          "name": "previousAdminRole",
          "type": "bytes32"
        },
        {
          "indexed": true,
          "internalType": "bytes32",
          "name": "newAdminRole",
          "type": "bytes32"
        }
      ],
      "name": "RoleAdminChanged",
      "type": "event"
    },
    {
      "anonymous": false,
      "inputs": [
        {
          "indexed": true,
          "internalType": "bytes32",
          "name": "role",
          "type": "bytes32"
        },
        {
          "indexed": true,
          "internalType": "address",
          "name": "account",
          "type": "address"
        },
        {
          "indexed": true,
          "internalType": "address",
          "name": "sender",
          "type": "address"
        }
      ],
      "name": "RoleGranted",
      "type": "event"
    },
    {
      "anonymous": false,
      "inputs": [
        {
          "indexed": true,
          "internalType": "bytes32",
          "name": "role",
          "type": "bytes32"
        },
        {
          "indexed": true,
          "internalType": "address",
          "name": "account",
          "type": "address"
        },
        {
          "indexed": true,
          "internalType": "address",
          "name": "sender",
          "type": "address"
        }
      ],
      "name": "RoleRevoked",
      "type": "event"
    },
    {
      "inputs": [],
      "name": "DEFAULT_ADMIN_ROLE",
      "outputs": [
        {
          "internalType": "bytes32",
          "name": "",
          "type": "bytes32"
        }
      ],
      "stateMutability": "view",
      "type": "function",
      "constant": true
    },
    {
      "inputs": [
        {
          "internalType": "bytes32",
          "name": "",
          "type": "bytes32"
        }
      ],
      "name": "assetTransfers",
      "outputs": [
        {
          "internalType": "bytes32",
          "name": "txId",
          "type": "bytes32"
        },
        {
          "internalType": "address",
          "name": "asset",
          "type": "address"
        },
        {
          "internalType": "uint256",
          "name": "amount",
          "type": "uint256"
        },
        {
          "internalType": "uint256",
          "name": "lockTime",
          "type": "uint256"
        },
        {
          "internalType": "bytes32",
          "name": "hashLock",
          "type": "bytes32"
        },
        {
          "internalType": "bool",
          "name": "isCompleted",
          "type": "bool"
        }
      ],
      "stateMutability": "view",
      "type": "function",
      "constant": true
    },
    {
      "inputs": [
        {
          "internalType": "bytes32",
          "name": "role",
          "type": "bytes32"
        }
      ],
      "name": "getRoleAdmin",
      "outputs": [
        {
          "internalType": "bytes32",
          "name": "",
          "type": "bytes32"
        }
      ],
      "stateMutability": "view",
      "type": "function",
      "constant": true
    },
    {
      "inputs": [
        {
          "internalType": "bytes32",
          "name": "role",
          "type": "bytes32"
        },
        {
          "internalType": "address",
          "name": "account",
          "type": "address"
        }
      ],
      "name": "grantRole",
      "outputs": [],
      "stateMutability": "nonpayable",
      "type": "function"
    },
    {
      "inputs": [
        {
          "internalType": "bytes32",
          "name": "role",
          "type": "bytes32"
        },
        {
          "internalType": "address",
          "name": "account",
          "type": "address"
        }
      ],
      "name": "hasRole",
      "outputs": [
        {
          "internalType": "bool",
          "name": "",
          "type": "bool"
        }
      ],
      "stateMutability": "view",
      "type": "function",
      "constant": true
    },
    {
      "inputs": [
        {
          "internalType": "bytes32",
          "name": "role",
          "type": "bytes32"
        },
        {
          "internalType": "address",
          "name": "account",
          "type": "address"
        }
      ],
      "name": "renounceRole",
      "outputs": [],
      "stateMutability": "nonpayable",
      "type": "function"
    },
    {
      "inputs": [
        {
          "internalType": "bytes32",
          "name": "role",
          "type": "bytes32"
        },
        {
          "internalType": "address",
          "name": "account",
          "type": "address"
        }
      ],
      "name": "revokeRole",
      "outputs": [],
      "stateMutability": "nonpayable",
      "type": "function"
    },
    {
      "inputs": [
        {
          "internalType": "bytes4",
          "name": "interfaceId",
          "type": "bytes4"
        }
      ],
      "name": "supportsInterface",
      "outputs": [
        {
          "internalType": "bool",
          "name": "",
          "type": "bool"
        }
      ],
      "stateMutability": "view",
      "type": "function",
      "constant": true
    },
    {
      "inputs": [
        {
          "internalType": "bytes32",
          "name": "txId",
          "type": "bytes32"
        },
        {
          "internalType": "address",
          "name": "asset",
          "type": "address"
        },
        {
          "internalType": "uint256",
          "name": "amount",
          "type": "uint256"
        },
        {
          "internalType": "bytes32",
          "name": "hashLock",
          "type": "bytes32"
        }
      ],
      "name": "initiateAssetTransfer",
      "outputs": [],
      "stateMutability": "nonpayable",
      "type": "function"
    }
  ],
  "bytecode": "0x608060405234801561000f575f80fd5b5060015f55610981806100215f395ff3fe608060405234801561000f575f80fd5b5060043610610090575f3560e01c806336568abe1161006357806336568abe146101155780633e1fe4331461012857806391d14854146101af578063a217fddf146101c2578063d547741f146101c9575f80fd5b806301ffc9a714610094578063248a9ca3146100bc578063298eb5f4146100ed5780632f2ff15d14610102575b5f80fd5b6100a76100a236600461074d565b6101dc565b60405190151581526020015b60405180910390f35b6100df6100ca366004610774565b5f908152600160208190526040909120015490565b6040519081526020016100b3565b6101006100fb3660046107a6565b610212565b005b6101006101103660046107de565b610315565b6101006101233660046107de565b61033f565b610178610136366004610774565b600260208190525f918252604090912080546001820154928201546003830154600484015460059094015492946001600160a01b031693919290919060ff1686565b604080519687526001600160a01b0390951660208701529385019290925260608401526080830152151560a082015260c0016100b3565b6100a76101bd3660046107de565b6103c2565b6100df5f81565b6101006101d73660046107de565b6103ec565b5f6001600160e01b03198216637965db0b60e01b148061020c57506301ffc9a760e01b6001600160e01b03198316145b92915050565b61021a610411565b6040518060c00160405280858152602001846001600160a01b0316815260200183815260200142610e1061024e919061081c565b815260208082018490525f604092830181905287815260028083529083902084518155848301516001820180546001600160a01b0319166001600160a01b039283161790558585015192820192909255606085015160038201556080850151600482015560a0909401516005909401805460ff19169415159490941790935581519286168352820184905285917ffc712fbf182c5c3495e9b806924d87d2c2d76347e43f97ad3ea72f1b289abbdf910160405180910390a261030f60015f55565b50505050565b5f828152600160208190526040909120015461033081610468565b61033a8383610475565b505050565b6001600160a01b03811633146103b45760405162461bcd60e51b815260206004820152602f60248201527f416363657373436f6e74726f6c3a2063616e206f6e6c792072656e6f756e636560448201526e103937b632b9903337b91039b2b63360891b60648201526084015b60405180910390fd5b6103be82826104df565b5050565b5f9182526001602090815260408084206001600160a01b0393909316845291905290205460ff1690565b5f828152600160208190526040909120015461040781610468565b61033a83836104df565b60025f54036104625760405162461bcd60e51b815260206004820152601f60248201527f5265656e7472616e637947756172643a207265656e7472616e742063616c6c0060448201526064016103ab565b60025f55565b6104728133610545565b50565b61047f82826103c2565b6103be575f8281526001602081815260408084206001600160a01b0386168086529252808420805460ff19169093179092559051339285917f2f8788117e7eff1d82e926ec794901d17c78024a50270940304540a733656f0d9190a45050565b6104e982826103c2565b156103be575f8281526001602090815260408083206001600160a01b0385168085529252808320805460ff1916905551339285917ff6391f5c32d9c69d2a47ea670b442974b53935d1edc7fd64eb21e047a839171b9190a45050565b61054f82826103c2565b6103be5761055c8161059e565b6105678360206105b0565b604051602001610578929190610851565b60408051601f198184030181529082905262461bcd60e51b82526103ab916004016108c5565b606061020c6001600160a01b03831660145b60605f6105be8360026108f7565b6105c990600261081c565b67ffffffffffffffff8111156105e1576105e161090e565b6040519080825280601f01601f19166020018201604052801561060b576020820181803683370190505b509050600360fc1b815f8151811061062557610625610922565b60200101906001600160f81b03191690815f1a905350600f60fb1b8160018151811061065357610653610922565b60200101906001600160f81b03191690815f1a9053505f6106758460026108f7565b61068090600161081c565b90505b60018111156106f7576f181899199a1a9b1b9c1cb0b131b232b360811b85600f16601081106106b4576106b4610922565b1a60f81b8282815181106106ca576106ca610922565b60200101906001600160f81b03191690815f1a90535060049490941c936106f081610936565b9050610683565b5083156107465760405162461bcd60e51b815260206004820181905260248201527f537472696e67733a20686578206c656e67746820696e73756666696369656e7460448201526064016103ab565b9392505050565b5f6020828403121561075d575f80fd5b81356001600160e01b031981168114610746575f80fd5b5f60208284031215610784575f80fd5b5035919050565b80356001600160a01b03811681146107a1575f80fd5b919050565b5f805f80608085870312156107b9575f80fd5b843593506107c96020860161078b565b93969395505050506040820135916060013590565b5f80604083850312156107ef575f80fd5b823591506107ff6020840161078b565b90509250929050565b634e487b7160e01b5f52601160045260245ffd5b8082018082111561020c5761020c610808565b5f5b83811015610849578181015183820152602001610831565b50505f910152565b7f416363657373436f6e74726f6c3a206163636f756e742000000000000000000081525f835161088881601785016020880161082f565b7001034b99036b4b9b9b4b733903937b6329607d1b60179184019182015283516108b981602884016020880161082f565b01602801949350505050565b602081525f82518060208401526108e381604085016020870161082f565b601f01601f19169190910160400192915050565b808202811582820484141761020c5761020c610808565b634e487b7160e01b5f52604160045260245ffd5b634e487b7160e01b5f52603260045260245ffd5b5f8161094457610944610808565b505f19019056fea26469706673582212203cad2fb8aee47a9ea5f1ea690f6b30b88ad5d78db52ca3f98e2558a5dc7f4a1264736f6c63430008140033",
  "immutableReferences": {},
  "source": "// SPDX-License-Identifier: MIT\npragma solidity ^0.8.0;\n\nimport \"@openzeppelin/contracts/security/ReentrancyGuard.sol\";\nimport \"@openzeppelin/contracts/security/Pausable.sol\";\nimport \"@openzeppelin/contracts/access/AccessControl.sol\";\nimport \"../../library/FixedPointMath.sol\";\nimport \"../../library/TransactionTypes.sol\";\n\n/**\n * @title PacechainChannel\n * @dev Manages transmission channels between blockchains\n */\ncontract PacechainChannel is ReentrancyGuard, Pausable, AccessControl {\n    using TransactionTypes for TransactionTypes.Channel;\n    using FixedPointMath for uint256;\n    \n    bytes32 public constant CHANNEL_OPERATOR = keccak256(\"CHANNEL_OPERATOR\");\n    \n    mapping(bytes32 => TransactionTypes.Channel) public channels;\n    mapping(bytes32 => TransactionTypes.SpeculativeTx) public speculativeTxs;\n    mapping(bytes32 => TransactionTypes.ConfirmableTx) public confirmableTxs;\n    \n    event ChannelCreated(bytes32 indexed channelId, address sourceBridge, address targetBridge);\n    event SpeculativeTxCreated(bytes32 indexed txId, address sender, uint256 anticipatedTime);\n    event ConfirmableTxCreated(bytes32 indexed txId, bytes32 speculativeTxId);\n    \n    constructor() {\n        _setupRole(DEFAULT_ADMIN_ROLE, msg.sender);\n    }\n    \n    function createChannel(\n        address sourceBridge,\n        address targetBridge,\n        uint256 confidenceThreshold\n    ) external onlyRole(CHANNEL_OPERATOR) returns (bytes32) {\n        require(sourceBridge != address(0), \"Invalid source bridge\");\n        require(targetBridge != address(0), \"Invalid target bridge\");\n        require(confidenceThreshold > 0, \"Invalid threshold\");\n\n        bytes32 channelId = keccak256(abi.encodePacked(\n            sourceBridge,\n            targetBridge,\n            block.timestamp\n        ));\n        \n        channels[channelId] = TransactionTypes.Channel({\n            id: channelId,\n            sourceBridge: sourceBridge,\n            targetBridge: targetBridge,\n            creationTime: block.timestamp,\n            isActive: true,\n            confidenceThreshold: confidenceThreshold\n        });\n        \n        emit ChannelCreated(channelId, sourceBridge, targetBridge);\n        return channelId;\n    }\n}\n\n/**\n * @title SpeculativeTransactionHandler\n * @dev Handles creation and management of speculative transactions\n */\ncontract SpeculativeTransactionHandler is ReentrancyGuard, AccessControl {\n    using TransactionTypes for TransactionTypes.SpeculativeTx;\n    \n    struct RBFParams {\n        uint256 beta;\n        uint256 epsilon;\n        bytes interpolationData;\n    }\n    \n    mapping(bytes32 => RBFParams) public rbfParams;\n    \n    event SpeculativeCalculationComplete(bytes32 indexed txId, uint256 beta, uint256 epsilon);\n    \n    struct RBFPoint {\n        uint256 x;\n        uint256 y;\n        uint256 lambda;\n    }\n\n    struct RBFCalculation {\n        uint256 beta;\n        uint256 epsilon;\n        uint256 pointCount;\n        mapping(uint256 => RBFPoint) points;\n    }\n\n    mapping(bytes32 => RBFCalculation) private rbfCalculations;\n\n    uint256 private constant PRECISION = 1e18;\n\n    function calculateRBFInterpolation(\n        bytes32 txId,\n        bytes memory data,\n        uint256 beta\n    ) external nonReentrant returns (bytes memory) {\n        (RBFPoint[] memory inputPoints) = abi.decode(data, (RBFPoint[]));\n        require(inputPoints.length > 0, \"No input points provided\");\n\n        RBFCalculation storage calc = rbfCalculations[txId];\n        calc.beta = beta;\n        calc.pointCount = inputPoints.length;\n\n        uint256[] memory virtualPoints = new uint256[](inputPoints.length);\n        \n        for (uint256 i = 0; i < inputPoints.length; i++) {\n            uint256 sum = 0;\n            \n            for (uint256 j = 0; j < inputPoints.length; j++) {\n                uint256 distance = calculateSquaredDistance(\n                    inputPoints[i].x,\n                    inputPoints[i].y,\n                    inputPoints[j].x,\n                    inputPoints[j].y\n                );\n                \n                uint256 phi = calculateGaussianRBF(distance, beta);\n                sum = addFixedPoint(sum, multiplyFixedPoint(inputPoints[j].lambda, phi));\n            }\n            \n            virtualPoints[i] = sum;\n            calc.points[i] = RBFPoint({\n                x: inputPoints[i].x,\n                y: inputPoints[i].y,\n                lambda: sum\n            });\n        }\n\n        require(monitorConvergence(txId, virtualPoints), \"RBF interpolation did not converge\");\n\n        return abi.encode(virtualPoints);\n    }\n\n    function calculateSquaredDistance(\n        uint256 x1,\n        uint256 y1,\n        uint256 x2,\n        uint256 y2\n    ) internal pure returns (uint256) {\n        uint256 dx = x1 > x2 ? x1 - x2 : x2 - x1;\n        uint256 dy = y1 > y2 ? y1 - y2 : y2 - y1;\n        \n        return addFixedPoint(\n            multiplyFixedPoint(dx, dx),\n            multiplyFixedPoint(dy, dy)\n        );\n    }\n\n    function calculateGaussianRBF(\n        uint256 distance,\n        uint256 beta\n    ) internal pure returns (uint256) {\n        uint256 exponent = multiplyFixedPoint(beta, distance);\n        return exponentialDecay(exponent);\n    }\n\n    function exponentialDecay(uint256 x) internal pure returns (uint256) {\n        uint256 result = PRECISION;\n        uint256 term = PRECISION;\n        \n        for (uint256 i = 1; i <= 5; i++) {\n            term = multiplyFixedPoint(term, x) / i;\n            if (i % 2 == 1) {\n                result = result > term ? result - term : 0;\n            } else {\n                result = addFixedPoint(result, term);\n            }\n        }\n        \n        return result;\n    }\n\n    function monitorConvergence(\n        bytes32 txId,\n        uint256[] memory virtualPoints\n    ) internal view returns (bool) {\n        RBFCalculation storage calc = rbfCalculations[txId];\n        \n        for (uint256 i = 0; i < virtualPoints.length; i++) {\n            uint256 difference = virtualPoints[i] > calc.points[i].lambda ?\n                virtualPoints[i] - calc.points[i].lambda :\n                calc.points[i].lambda - virtualPoints[i];\n                \n            if (difference > calc.epsilon) {\n                return false;\n            }\n        }\n        \n        return true;\n    }\n\n    function multiplyFixedPoint(uint256 a, uint256 b) internal pure returns (uint256) {\n        return (a * b) / PRECISION;\n    }\n\n    function addFixedPoint(uint256 a, uint256 b) internal pure returns (uint256) {\n        return a + b;\n    }\n}\n/**\n * @title ConfidenceScoreCalculator\n * @dev Calculates and manages confidence scores for transactions\n */\n\ncontract ConfidenceScoreCalculator is AccessControl {\n    using FixedPointMath for uint256;\n\n    mapping(address => uint256[]) private transactionFrequencies;\n    mapping(address => ScoreComponents) public scoreComponents;\n    mapping(address => ReputationData) private reputationStore;\n\n    uint256 private constant MAX_FREQUENCY_SAMPLES = 100;\n    uint256 private constant PRECISION = 1e18;\n    \n    uint256 private constant OPTIMAL_LOAD = 700 * 1e15;\n    uint256 private constant LOAD_SENSITIVITY = 50 * 1e15;\n    uint256 private constant DELTA = 800 * 1e15;\n    uint256 private constant K = 100 * 1e15;\n    uint256 private constant TAU = 10;\n    uint256 private constant ALPHA = 600 * 1e15;\n    uint256 private constant BETA = 400 * 1e15;\n    uint256 private constant LAMBDA = 100 * 1e15;\n    uint256 private constant GAMMA = 800 * 1e15;\n\n    uint256 public constant HIGH_CONFIDENCE_THRESHOLD = 800;\n    uint256 public constant LOW_CONFIDENCE_THRESHOLD = 500;\n    \n    uint256 public constant SENDER_REPUTATION_WEIGHT = 300;\n    uint256 public constant TRANSACTION_PATTERN_WEIGHT = 200;\n    uint256 public constant ZK_VERIFICATION_WEIGHT = 300;\n    uint256 public constant NETWORK_STATE_WEIGHT = 200;\n\n    struct ScoreComponents {\n        uint256 senderReputation;\n        uint256 transactionPattern;\n        uint256 zkVerification;\n        uint256 networkState;\n    }\n\n    struct ReputationData {\n        uint256 successfulTx;\n        uint256 totalTx;\n        uint256 failedAttempts;\n    }\n\n    event ConfidenceScoreCalculated(address indexed sender, uint256 score);\n    event ReputationUpdated(address indexed sender, uint256 successfulTx, uint256 totalTx);\n\n    constructor() {\n        _setupRole(DEFAULT_ADMIN_ROLE, msg.sender);\n    }\n\n    function calculateConfidenceScore(\n        address sender,\n        uint256 txFrequency,\n        bool zkProofValid,\n        uint256 networkLoad\n    ) external view returns (uint256) {\n        require(sender != address(0), \"Invalid sender address\");\n        \n        uint256 senderScore = calculateSenderReputation(sender);\n        uint256 patternScore = calculateTransactionPattern(txFrequency);\n        uint256 zkScore = calculateZKScore(zkProofValid, txFrequency);\n        uint256 networkScore = calculateNetworkScore(networkLoad);\n        \n        return (senderScore * SENDER_REPUTATION_WEIGHT +\n                patternScore * TRANSACTION_PATTERN_WEIGHT +\n                zkScore * ZK_VERIFICATION_WEIGHT +\n                networkScore * NETWORK_STATE_WEIGHT) / 1000;\n    }\n\n    function calculateSenderReputation(address sender) internal view returns (uint256) {\n        ReputationData storage repData = reputationStore[sender];\n        \n        if (repData.totalTx == 0) return 0;\n\n        uint256 successRatio = (repData.successfulTx * PRECISION) / repData.totalTx;\n        uint256 weightedSuccess = successRatio.multiplyFixedPoint(ALPHA);\n        \n        uint256 failurePenalty = FixedPointMath.exponentialDecay(\n            uint256(repData.failedAttempts).multiplyFixedPoint(LAMBDA)\n        );\n        uint256 weightedFailure = failurePenalty.multiplyFixedPoint(BETA);\n        \n        return weightedSuccess.addFixedPoint(weightedFailure);\n    }\n\n    function calculateTransactionPattern(uint256 frequency) internal view returns (uint256) {\n        uint256 meanFreq = getMeanFrequency();\n        uint256 variance = getVariance();\n        \n        if (variance == 0) return PRECISION;\n        \n        uint256 diff = frequency > meanFreq ? \n            frequency - meanFreq : \n            meanFreq - frequency;\n        uint256 diffSquared = diff.multiplyFixedPoint(diff);\n        \n        uint256 denominator = 2 * variance;\n        uint256 exponent = diffSquared / denominator;\n        uint256 expValue = FixedPointMath.exponentialDecay(exponent);\n        \n        return GAMMA.multiplyFixedPoint(expValue);\n    }\n\n    function calculateZKScore(\n        bool proofValid,\n        uint256 verificationTime\n    ) internal pure returns (uint256) {\n        if (!proofValid) return 0;\n        \n        uint256 timeScore;\n        if (verificationTime <= TAU) {\n            timeScore = PRECISION;\n        } else {\n            uint256 timeDiff = verificationTime - TAU;\n            uint256 exponent = K.multiplyFixedPoint(timeDiff);\n            timeScore = PRECISION / (PRECISION + FixedPointMath.exponentialGrowth(exponent));\n        }\n        \n        uint256 proofScore = DELTA.multiplyFixedPoint(PRECISION);\n        uint256 timeWeightedScore = (PRECISION - DELTA).multiplyFixedPoint(timeScore);\n        \n        return proofScore.addFixedPoint(timeWeightedScore);\n    }\n\n    function calculateNetworkScore(uint256 networkLoad) internal pure returns (uint256) {\n        if (networkLoad >= PRECISION) return 0;\n        \n        uint256 resourceRatio = PRECISION - networkLoad;\n        uint256 loadDiff = networkLoad > OPTIMAL_LOAD ? \n            networkLoad - OPTIMAL_LOAD : \n            OPTIMAL_LOAD - networkLoad;\n            \n        uint256 exponent = LOAD_SENSITIVITY.multiplyFixedPoint(loadDiff);\n        uint256 loadFactor = PRECISION / (PRECISION + FixedPointMath.exponentialGrowth(exponent));\n        \n        return resourceRatio.multiplyFixedPoint(loadFactor);\n    }\n\n    function getMeanFrequency() internal view returns (uint256) {\n        uint256[] storage frequencies = transactionFrequencies[msg.sender];\n        if (frequencies.length == 0) return 0;\n        \n        uint256 sum = 0;\n        for (uint256 i = 0; i < frequencies.length; i++) {\n            sum = sum.addFixedPoint(frequencies[i]);\n        }\n        return sum / frequencies.length;\n    }\n    \n    function getVariance() internal view returns (uint256) {\n        uint256[] storage frequencies = transactionFrequencies[msg.sender];\n        if (frequencies.length == 0) return 0;\n        \n        uint256 mean = getMeanFrequency();\n        uint256 sumSquaredDiff = 0;\n        \n        for (uint256 i = 0; i < frequencies.length; i++) {\n            uint256 diff = frequencies[i] > mean ? \n                frequencies[i] - mean : \n                mean - frequencies[i];\n            sumSquaredDiff = sumSquaredDiff.addFixedPoint(diff.multiplyFixedPoint(diff));\n        }\n        \n        return sumSquaredDiff / frequencies.length;\n    }\n\n    function updateTransactionFrequency(uint256 frequency) external {\n        uint256[] storage frequencies = transactionFrequencies[msg.sender];\n        \n        if (frequencies.length >= MAX_FREQUENCY_SAMPLES) {\n            // Remove oldest frequency\n            for (uint256 i = 0; i < frequencies.length - 1; i++) {\n                frequencies[i] = frequencies[i + 1];\n            }\n            frequencies[frequencies.length - 1] = frequency;\n        } else {\n            frequencies.push(frequency);\n        }\n    }\n}\n\ncontract AssetTransferProcessor is ReentrancyGuard, AccessControl {\n    struct AssetTransfer {\n        bytes32 txId;\n        address asset;\n        uint256 amount;\n        uint256 lockTime;\n        bytes32 hashLock;\n        bool isCompleted;\n    }\n    \n    mapping(bytes32 => AssetTransfer) public assetTransfers;\n    \n    event AssetLocked(bytes32 indexed txId, address asset, uint256 amount);\n    event AssetReleased(bytes32 indexed txId, address asset, uint256 amount);\n    \n    function initiateAssetTransfer(\n        bytes32 txId,\n        address asset,\n        uint256 amount,\n        bytes32 hashLock\n    ) external nonReentrant {\n        assetTransfers[txId] = AssetTransfer({\n            txId: txId,\n            asset: asset,\n            amount: amount,\n            lockTime: block.timestamp + 1 hours,\n            hashLock: hashLock,\n            isCompleted: false\n        });\n        \n        emit AssetLocked(txId, asset, amount);\n    }\n}",
  "sourcePath": "C:\\Users\\Bonsu\\Documents\\CLEANER PRODUCTION\\renewalclimateproject\\ClimateProjectFull\\contracts\\passchain\\PacechainChannel.sol",
  "compiler": {
    "name": "solc",
    "version": "0.8.20+commit.a1b79de6.Emscripten.clang"
  },
  "schemaVersion": "3.4.16",
  "updatedAt": "2025-04-14T09:45:14.192Z",
  "networkType": "ethereum",
  "devdoc": {
    "events": {
      "RoleAdminChanged(bytes32,bytes32,bytes32)": {
        "details": "Emitted when `newAdminRole` is set as ``role``'s admin role, replacing `previousAdminRole` `DEFAULT_ADMIN_ROLE` is the starting admin for all roles, despite {RoleAdminChanged} not being emitted signaling this. _Available since v3.1._"
      },
      "RoleGranted(bytes32,address,address)": {
        "details": "Emitted when `account` is granted `role`. `sender` is the account that originated the contract call, an admin role bearer except when using {AccessControl-_setupRole}."
      },
      "RoleRevoked(bytes32,address,address)": {
        "details": "Emitted when `account` is revoked `role`. `sender` is the account that originated the contract call:   - if using `revokeRole`, it is the admin role bearer   - if using `renounceRole`, it is the role bearer (i.e. `account`)"
      }
    },
    "kind": "dev",
    "methods": {
      "getRoleAdmin(bytes32)": {
        "details": "Returns the admin role that controls `role`. See {grantRole} and {revokeRole}. To change a role's admin, use {_setRoleAdmin}."
      },
      "grantRole(bytes32,address)": {
        "details": "Grants `role` to `account`. If `account` had not been already granted `role`, emits a {RoleGranted} event. Requirements: - the caller must have ``role``'s admin role. May emit a {RoleGranted} event."
      },
      "hasRole(bytes32,address)": {
        "details": "Returns `true` if `account` has been granted `role`."
      },
      "renounceRole(bytes32,address)": {
        "details": "Revokes `role` from the calling account. Roles are often managed via {grantRole} and {revokeRole}: this function's purpose is to provide a mechanism for accounts to lose their privileges if they are compromised (such as when a trusted device is misplaced). If the calling account had been revoked `role`, emits a {RoleRevoked} event. Requirements: - the caller must be `account`. May emit a {RoleRevoked} event."
      },
      "revokeRole(bytes32,address)": {
        "details": "Revokes `role` from `account`. If `account` had been granted `role`, emits a {RoleRevoked} event. Requirements: - the caller must have ``role``'s admin role. May emit a {RoleRevoked} event."
      },
      "supportsInterface(bytes4)": {
        "details": "See {IERC165-supportsInterface}."
      }
    },
    "version": 1
  },
  "userdoc": {
    "kind": "user",
    "methods": {},
    "version": 1
  }
}