{
  "contractName": "BCADN",
  "abi": [
    {
      "inputs": [],
      "stateMutability": "nonpayable",
      "type": "constructor"
    },
    {
      "anonymous": false,
      "inputs": [
        {
          "indexed": true,
          "internalType": "address",
          "name": "node",
          "type": "address"
        },
        {
          "indexed": false,
          "internalType": "uint256",
          "name": "anomalyScore",
          "type": "uint256"
        },
        {
          "indexed": false,
          "internalType": "string",
          "name": "attackType",
          "type": "string"
        }
      ],
      "name": "AnomalyDetected",
      "type": "event"
    },
    {
      "anonymous": false,
      "inputs": [
        {
          "indexed": true,
          "internalType": "address",
          "name": "node",
          "type": "address"
        },
        {
          "indexed": true,
          "internalType": "uint256",
          "name": "attackIndex",
          "type": "uint256"
        }
      ],
      "name": "AnomalyResolved",
      "type": "event"
    },
    {
      "anonymous": false,
      "inputs": [
        {
          "indexed": true,
          "internalType": "uint256",
          "name": "congestionIndex",
          "type": "uint256"
        },
        {
          "indexed": false,
          "internalType": "uint256",
          "name": "pendingTransactions",
          "type": "uint256"
        },
        {
          "indexed": false,
          "internalType": "uint256",
          "name": "networkCapacity",
          "type": "uint256"
        }
      ],
      "name": "CongestionUpdated",
      "type": "event"
    },
    {
      "anonymous": false,
      "inputs": [
        {
          "indexed": false,
          "internalType": "uint256",
          "name": "newGap",
          "type": "uint256"
        },
        {
          "indexed": false,
          "internalType": "uint256",
          "name": "minProbability",
          "type": "uint256"
        },
        {
          "indexed": false,
          "internalType": "uint256",
          "name": "maxProbability",
          "type": "uint256"
        }
      ],
      "name": "GapUpdated",
      "type": "event"
    },
    {
      "anonymous": false,
      "inputs": [
        {
          "indexed": true,
          "internalType": "uint256",
          "name": "shardId",
          "type": "uint256"
        },
        {
          "indexed": true,
          "internalType": "address",
          "name": "node",
          "type": "address"
        }
      ],
      "name": "NodeAddedToShard",
      "type": "event"
    },
    {
      "anonymous": false,
      "inputs": [
        {
          "indexed": true,
          "internalType": "address",
          "name": "nodeAddress",
          "type": "address"
        }
      ],
      "name": "NodeRegistered",
      "type": "event"
    },
    {
      "anonymous": false,
      "inputs": [
        {
          "indexed": true,
          "internalType": "uint256",
          "name": "shardId",
          "type": "uint256"
        },
        {
          "indexed": true,
          "internalType": "address",
          "name": "node",
          "type": "address"
        }
      ],
      "name": "NodeRemovedFromShard",
      "type": "event"
    },
    {
      "anonymous": false,
      "inputs": [
        {
          "indexed": true,
          "internalType": "address",
          "name": "nodeAddress",
          "type": "address"
        },
        {
          "indexed": false,
          "internalType": "enum BCADN.NodeStatus",
          "name": "newStatus",
          "type": "uint8"
        }
      ],
      "name": "NodeStatusChanged",
      "type": "event"
    },
    {
      "anonymous": false,
      "inputs": [
        {
          "indexed": true,
          "internalType": "address",
          "name": "nodeAddress",
          "type": "address"
        },
        {
          "indexed": false,
          "internalType": "uint256",
          "name": "newWeight",
          "type": "uint256"
        }
      ],
      "name": "NodeWeightUpdated",
      "type": "event"
    },
    {
      "anonymous": false,
      "inputs": [
        {
          "indexed": true,
          "internalType": "address",
          "name": "previousOwner",
          "type": "address"
        },
        {
          "indexed": true,
          "internalType": "address",
          "name": "newOwner",
          "type": "address"
        }
      ],
      "name": "OwnershipTransferred",
      "type": "event"
    },
    {
      "anonymous": false,
      "inputs": [
        {
          "indexed": true,
          "internalType": "uint256",
          "name": "shardId",
          "type": "uint256"
        }
      ],
      "name": "ShardCreated",
      "type": "event"
    },
    {
      "anonymous": false,
      "inputs": [
        {
          "indexed": true,
          "internalType": "bytes32",
          "name": "txHash",
          "type": "bytes32"
        },
        {
          "indexed": true,
          "internalType": "uint256",
          "name": "shardId",
          "type": "uint256"
        }
      ],
      "name": "TransactionAssigned",
      "type": "event"
    },
    {
      "anonymous": false,
      "inputs": [
        {
          "indexed": true,
          "internalType": "bytes32",
          "name": "txHash",
          "type": "bytes32"
        },
        {
          "indexed": false,
          "internalType": "uint256",
          "name": "processingTime",
          "type": "uint256"
        }
      ],
      "name": "TransactionCompleted",
      "type": "event"
    },
    {
      "anonymous": false,
      "inputs": [
        {
          "indexed": true,
          "internalType": "bytes32",
          "name": "txHash",
          "type": "bytes32"
        },
        {
          "indexed": true,
          "internalType": "address",
          "name": "sender",
          "type": "address"
        },
        {
          "indexed": true,
          "internalType": "address",
          "name": "receiver",
          "type": "address"
        },
        {
          "indexed": false,
          "internalType": "uint256",
          "name": "amount",
          "type": "uint256"
        },
        {
          "indexed": false,
          "internalType": "uint256",
          "name": "fee",
          "type": "uint256"
        }
      ],
      "name": "TransactionSubmitted",
      "type": "event"
    },
    {
      "inputs": [],
      "name": "alpha",
      "outputs": [
        {
          "internalType": "uint256",
          "name": "",
          "type": "uint256"
        }
      ],
      "stateMutability": "view",
      "type": "function",
      "constant": true
    },
    {
      "inputs": [],
      "name": "anomalyThreshold",
      "outputs": [
        {
          "internalType": "uint256",
          "name": "",
          "type": "uint256"
        }
      ],
      "stateMutability": "view",
      "type": "function",
      "constant": true
    },
    {
      "inputs": [
        {
          "internalType": "uint256",
          "name": "",
          "type": "uint256"
        }
      ],
      "name": "attackHistory",
      "outputs": [
        {
          "internalType": "address",
          "name": "node",
          "type": "address"
        },
        {
          "internalType": "uint256",
          "name": "timestamp",
          "type": "uint256"
        },
        {
          "internalType": "uint256",
          "name": "anomalyScore",
          "type": "uint256"
        },
        {
          "internalType": "string",
          "name": "attackType",
          "type": "string"
        },
        {
          "internalType": "bool",
          "name": "resolved",
          "type": "bool"
        }
      ],
      "stateMutability": "view",
      "type": "function",
      "constant": true
    },
    {
      "inputs": [],
      "name": "beta",
      "outputs": [
        {
          "internalType": "uint256",
          "name": "",
          "type": "uint256"
        }
      ],
      "stateMutability": "view",
      "type": "function",
      "constant": true
    },
    {
      "inputs": [],
      "name": "congestionIndex",
      "outputs": [
        {
          "internalType": "uint256",
          "name": "",
          "type": "uint256"
        }
      ],
      "stateMutability": "view",
      "type": "function",
      "constant": true
    },
    {
      "inputs": [],
      "name": "currentGap",
      "outputs": [
        {
          "internalType": "uint256",
          "name": "",
          "type": "uint256"
        }
      ],
      "stateMutability": "view",
      "type": "function",
      "constant": true
    },
    {
      "inputs": [],
      "name": "delta",
      "outputs": [
        {
          "internalType": "uint256",
          "name": "",
          "type": "uint256"
        }
      ],
      "stateMutability": "view",
      "type": "function",
      "constant": true
    },
    {
      "inputs": [],
      "name": "gamma",
      "outputs": [
        {
          "internalType": "uint256",
          "name": "",
          "type": "uint256"
        }
      ],
      "stateMutability": "view",
      "type": "function",
      "constant": true
    },
    {
      "inputs": [],
      "name": "maxProbability",
      "outputs": [
        {
          "internalType": "uint256",
          "name": "",
          "type": "uint256"
        }
      ],
      "stateMutability": "view",
      "type": "function",
      "constant": true
    },
    {
      "inputs": [],
      "name": "minProbability",
      "outputs": [
        {
          "internalType": "uint256",
          "name": "",
          "type": "uint256"
        }
      ],
      "stateMutability": "view",
      "type": "function",
      "constant": true
    },
    {
      "inputs": [],
      "name": "mu",
      "outputs": [
        {
          "internalType": "uint256",
          "name": "",
          "type": "uint256"
        }
      ],
      "stateMutability": "view",
      "type": "function",
      "constant": true
    },
    {
      "inputs": [],
      "name": "networkCapacity",
      "outputs": [
        {
          "internalType": "uint256",
          "name": "",
          "type": "uint256"
        }
      ],
      "stateMutability": "view",
      "type": "function",
      "constant": true
    },
    {
      "inputs": [],
      "name": "nextShardId",
      "outputs": [
        {
          "internalType": "uint256",
          "name": "",
          "type": "uint256"
        }
      ],
      "stateMutability": "view",
      "type": "function",
      "constant": true
    },
    {
      "inputs": [
        {
          "internalType": "address",
          "name": "",
          "type": "address"
        },
        {
          "internalType": "uint256",
          "name": "",
          "type": "uint256"
        }
      ],
      "name": "nodeAttackIndices",
      "outputs": [
        {
          "internalType": "uint256",
          "name": "",
          "type": "uint256"
        }
      ],
      "stateMutability": "view",
      "type": "function",
      "constant": true
    },
    {
      "inputs": [
        {
          "internalType": "address",
          "name": "",
          "type": "address"
        }
      ],
      "name": "nodes",
      "outputs": [
        {
          "internalType": "address",
          "name": "nodeAddress",
          "type": "address"
        },
        {
          "internalType": "uint256",
          "name": "performance",
          "type": "uint256"
        },
        {
          "internalType": "uint256",
          "name": "reliability",
          "type": "uint256"
        },
        {
          "internalType": "uint256",
          "name": "anomalyScore",
          "type": "uint256"
        },
        {
          "internalType": "uint256",
          "name": "weight",
          "type": "uint256"
        },
        {
          "internalType": "uint256",
          "name": "isolationTime",
          "type": "uint256"
        },
        {
          "internalType": "enum BCADN.NodeStatus",
          "name": "status",
          "type": "uint8"
        }
      ],
      "stateMutability": "view",
      "type": "function",
      "constant": true
    },
    {
      "inputs": [
        {
          "internalType": "uint256",
          "name": "",
          "type": "uint256"
        }
      ],
      "name": "nodesList",
      "outputs": [
        {
          "internalType": "address",
          "name": "",
          "type": "address"
        }
      ],
      "stateMutability": "view",
      "type": "function",
      "constant": true
    },
    {
      "inputs": [],
      "name": "owner",
      "outputs": [
        {
          "internalType": "address",
          "name": "",
          "type": "address"
        }
      ],
      "stateMutability": "view",
      "type": "function",
      "constant": true
    },
    {
      "inputs": [],
      "name": "pendingTransactions",
      "outputs": [
        {
          "internalType": "uint256",
          "name": "",
          "type": "uint256"
        }
      ],
      "stateMutability": "view",
      "type": "function",
      "constant": true
    },
    {
      "inputs": [],
      "name": "probationPeriod",
      "outputs": [
        {
          "internalType": "uint256",
          "name": "",
          "type": "uint256"
        }
      ],
      "stateMutability": "view",
      "type": "function",
      "constant": true
    },
    {
      "inputs": [],
      "name": "renounceOwnership",
      "outputs": [],
      "stateMutability": "nonpayable",
      "type": "function"
    },
    {
      "inputs": [
        {
          "internalType": "uint256",
          "name": "",
          "type": "uint256"
        }
      ],
      "name": "shardIds",
      "outputs": [
        {
          "internalType": "uint256",
          "name": "",
          "type": "uint256"
        }
      ],
      "stateMutability": "view",
      "type": "function",
      "constant": true
    },
    {
      "inputs": [
        {
          "internalType": "uint256",
          "name": "",
          "type": "uint256"
        }
      ],
      "name": "shards",
      "outputs": [
        {
          "internalType": "uint256",
          "name": "id",
          "type": "uint256"
        },
        {
          "internalType": "uint256",
          "name": "capacity",
          "type": "uint256"
        },
        {
          "internalType": "uint256",
          "name": "currentLoad",
          "type": "uint256"
        },
        {
          "internalType": "bool",
          "name": "active",
          "type": "bool"
        }
      ],
      "stateMutability": "view",
      "type": "function",
      "constant": true
    },
    {
      "inputs": [
        {
          "internalType": "uint256",
          "name": "",
          "type": "uint256"
        }
      ],
      "name": "transactionHashes",
      "outputs": [
        {
          "internalType": "bytes32",
          "name": "",
          "type": "bytes32"
        }
      ],
      "stateMutability": "view",
      "type": "function",
      "constant": true
    },
    {
      "inputs": [
        {
          "internalType": "bytes32",
          "name": "",
          "type": "bytes32"
        }
      ],
      "name": "transactionToShard",
      "outputs": [
        {
          "internalType": "uint256",
          "name": "",
          "type": "uint256"
        }
      ],
      "stateMutability": "view",
      "type": "function",
      "constant": true
    },
    {
      "inputs": [
        {
          "internalType": "bytes32",
          "name": "",
          "type": "bytes32"
        }
      ],
      "name": "transactions",
      "outputs": [
        {
          "internalType": "bytes32",
          "name": "txHash",
          "type": "bytes32"
        },
        {
          "internalType": "address",
          "name": "sender",
          "type": "address"
        },
        {
          "internalType": "address",
          "name": "receiver",
          "type": "address"
        },
        {
          "internalType": "uint256",
          "name": "amount",
          "type": "uint256"
        },
        {
          "internalType": "uint256",
          "name": "fee",
          "type": "uint256"
        },
        {
          "internalType": "uint256",
          "name": "timestamp",
          "type": "uint256"
        },
        {
          "internalType": "uint256",
          "name": "processingTime",
          "type": "uint256"
        },
        {
          "internalType": "bool",
          "name": "completed",
          "type": "bool"
        }
      ],
      "stateMutability": "view",
      "type": "function",
      "constant": true
    },
    {
      "inputs": [
        {
          "internalType": "address",
          "name": "newOwner",
          "type": "address"
        }
      ],
      "name": "transferOwnership",
      "outputs": [],
      "stateMutability": "nonpayable",
      "type": "function"
    },
    {
      "inputs": [
        {
          "internalType": "uint256",
          "name": "_alpha",
          "type": "uint256"
        },
        {
          "internalType": "uint256",
          "name": "_beta",
          "type": "uint256"
        },
        {
          "internalType": "uint256",
          "name": "_gamma",
          "type": "uint256"
        },
        {
          "internalType": "uint256",
          "name": "_delta",
          "type": "uint256"
        },
        {
          "internalType": "uint256",
          "name": "_mu",
          "type": "uint256"
        }
      ],
      "name": "updateNetworkParams",
      "outputs": [],
      "stateMutability": "nonpayable",
      "type": "function"
    },
    {
      "inputs": [
        {
          "internalType": "uint256",
          "name": "_anomalyThreshold",
          "type": "uint256"
        },
        {
          "internalType": "uint256",
          "name": "_probationPeriod",
          "type": "uint256"
        }
      ],
      "name": "updateThresholds",
      "outputs": [],
      "stateMutability": "nonpayable",
      "type": "function"
    },
    {
      "inputs": [
        {
          "internalType": "uint256",
          "name": "_minProbability",
          "type": "uint256"
        },
        {
          "internalType": "uint256",
          "name": "_maxProbability",
          "type": "uint256"
        }
      ],
      "name": "updateProbabilityRange",
      "outputs": [],
      "stateMutability": "nonpayable",
      "type": "function"
    },
    {
      "inputs": [
        {
          "internalType": "uint256",
          "name": "_probability",
          "type": "uint256"
        }
      ],
      "name": "adjustToProbabilityGap",
      "outputs": [
        {
          "internalType": "uint256",
          "name": "",
          "type": "uint256"
        }
      ],
      "stateMutability": "view",
      "type": "function",
      "constant": true
    },
    {
      "inputs": [
        {
          "internalType": "uint256",
          "name": "_probability",
          "type": "uint256"
        }
      ],
      "name": "isWithinGap",
      "outputs": [
        {
          "internalType": "bool",
          "name": "",
          "type": "bool"
        }
      ],
      "stateMutability": "view",
      "type": "function",
      "constant": true
    },
    {
      "inputs": [
        {
          "internalType": "uint256",
          "name": "_capacity",
          "type": "uint256"
        }
      ],
      "name": "setNetworkCapacity",
      "outputs": [],
      "stateMutability": "nonpayable",
      "type": "function"
    },
    {
      "inputs": [
        {
          "internalType": "uint256",
          "name": "_baseFee",
          "type": "uint256"
        }
      ],
      "name": "calculateDynamicFee",
      "outputs": [
        {
          "internalType": "uint256",
          "name": "",
          "type": "uint256"
        }
      ],
      "stateMutability": "view",
      "type": "function",
      "constant": true
    },
    {
      "inputs": [
        {
          "internalType": "address",
          "name": "_nodeAddress",
          "type": "address"
        },
        {
          "internalType": "uint256",
          "name": "_performance",
          "type": "uint256"
        },
        {
          "internalType": "uint256",
          "name": "_reliability",
          "type": "uint256"
        }
      ],
      "name": "registerNode",
      "outputs": [],
      "stateMutability": "nonpayable",
      "type": "function"
    },
    {
      "inputs": [
        {
          "internalType": "address",
          "name": "_nodeAddress",
          "type": "address"
        },
        {
          "internalType": "uint256",
          "name": "_performance",
          "type": "uint256"
        },
        {
          "internalType": "uint256",
          "name": "_reliability",
          "type": "uint256"
        },
        {
          "internalType": "uint256",
          "name": "_anomalyScore",
          "type": "uint256"
        }
      ],
      "name": "updateNodeMetrics",
      "outputs": [],
      "stateMutability": "nonpayable",
      "type": "function"
    },
    {
      "inputs": [
        {
          "internalType": "address",
          "name": "_nodeAddress",
          "type": "address"
        }
      ],
      "name": "checkProbationStatus",
      "outputs": [],
      "stateMutability": "nonpayable",
      "type": "function"
    },
    {
      "inputs": [],
      "name": "getAllNodes",
      "outputs": [
        {
          "internalType": "address[]",
          "name": "",
          "type": "address[]"
        },
        {
          "internalType": "uint256[]",
          "name": "",
          "type": "uint256[]"
        },
        {
          "internalType": "enum BCADN.NodeStatus[]",
          "name": "",
          "type": "uint8[]"
        }
      ],
      "stateMutability": "view",
      "type": "function",
      "constant": true
    },
    {
      "inputs": [
        {
          "internalType": "uint256",
          "name": "_capacity",
          "type": "uint256"
        }
      ],
      "name": "createShard",
      "outputs": [],
      "stateMutability": "nonpayable",
      "type": "function"
    },
    {
      "inputs": [
        {
          "internalType": "uint256",
          "name": "_shardId",
          "type": "uint256"
        },
        {
          "internalType": "address",
          "name": "_node",
          "type": "address"
        }
      ],
      "name": "addNodeToShard",
      "outputs": [],
      "stateMutability": "nonpayable",
      "type": "function"
    },
    {
      "inputs": [
        {
          "internalType": "uint256",
          "name": "_shardId",
          "type": "uint256"
        },
        {
          "internalType": "address",
          "name": "_node",
          "type": "address"
        }
      ],
      "name": "removeNodeFromShard",
      "outputs": [],
      "stateMutability": "nonpayable",
      "type": "function"
    },
    {
      "inputs": [],
      "name": "getAllShards",
      "outputs": [
        {
          "internalType": "uint256[]",
          "name": "",
          "type": "uint256[]"
        }
      ],
      "stateMutability": "view",
      "type": "function",
      "constant": true
    },
    {
      "inputs": [
        {
          "internalType": "bytes32",
          "name": "_txHash",
          "type": "bytes32"
        }
      ],
      "name": "assignTransactionToShard",
      "outputs": [
        {
          "internalType": "uint256",
          "name": "",
          "type": "uint256"
        }
      ],
      "stateMutability": "nonpayable",
      "type": "function"
    },
    {
      "inputs": [
        {
          "internalType": "address",
          "name": "_node",
          "type": "address"
        },
        {
          "internalType": "uint256",
          "name": "_anomalyScore",
          "type": "uint256"
        },
        {
          "internalType": "string",
          "name": "_attackType",
          "type": "string"
        }
      ],
      "name": "recordAnomaly",
      "outputs": [],
      "stateMutability": "nonpayable",
      "type": "function"
    },
    {
      "inputs": [
        {
          "internalType": "uint256",
          "name": "_attackIndex",
          "type": "uint256"
        }
      ],
      "name": "resolveAnomaly",
      "outputs": [],
      "stateMutability": "nonpayable",
      "type": "function"
    },
    {
      "inputs": [],
      "name": "getAttackHistory",
      "outputs": [
        {
          "internalType": "address[]",
          "name": "nodeAddresses",
          "type": "address[]"
        },
        {
          "internalType": "uint256[]",
          "name": "timestamps",
          "type": "uint256[]"
        },
        {
          "internalType": "uint256[]",
          "name": "anomalyScores",
          "type": "uint256[]"
        },
        {
          "internalType": "bool[]",
          "name": "resolved",
          "type": "bool[]"
        }
      ],
      "stateMutability": "view",
      "type": "function",
      "constant": true
    },
    {
      "inputs": [
        {
          "internalType": "address",
          "name": "_receiver",
          "type": "address"
        },
        {
          "internalType": "uint256",
          "name": "_amount",
          "type": "uint256"
        },
        {
          "internalType": "uint256",
          "name": "_baseFee",
          "type": "uint256"
        }
      ],
      "name": "submitTransaction",
      "outputs": [
        {
          "internalType": "bytes32",
          "name": "",
          "type": "bytes32"
        }
      ],
      "stateMutability": "payable",
      "type": "function",
      "payable": true
    },
    {
      "inputs": [
        {
          "internalType": "bytes32",
          "name": "_txHash",
          "type": "bytes32"
        }
      ],
      "name": "processTransaction",
      "outputs": [],
      "stateMutability": "nonpayable",
      "type": "function"
    },
    {
      "inputs": [],
      "name": "getAllTransactionHashes",
      "outputs": [
        {
          "internalType": "bytes32[]",
          "name": "",
          "type": "bytes32[]"
        }
      ],
      "stateMutability": "view",
      "type": "function",
      "constant": true
    },
    {
      "inputs": [],
      "name": "withdrawFees",
      "outputs": [],
      "stateMutability": "nonpayable",
      "type": "function"
    }
  ],
  "bytecode": "0x6080604052600a6002556014600355601e60045560326005556005600655601e600755610e1060085560146009556050600a556103e8600d55600160135534801562000049575f80fd5b50620000553362000074565b60018055600954600a546200006b9190620000c3565b600b55620000e9565b5f80546001600160a01b038381166001600160a01b0319831681178455604051919092169283917f8be0079c531659141344cd1fd0a4f28419497f9722a3daafe3b4186f6b6457e09190a35050565b81810381811115620000e357634e487b7160e01b5f52601160045260245ffd5b92915050565b612c4d80620000f75f395ff3fe6080604052600436106102a5575f3560e01c806381d8cdfd1161016f578063ab4f9718116100d8578063c14b8e9c11610092578063df7356c71161006d578063df7356c71461090f578063ed5cc75514610924578063eea333fc14610943578063f2fde38b14610962575f80fd5b8063c14b8e9c146108bc578063d62a0f81146108db578063db1d0fd5146108fa575f80fd5b8063ab4f971814610816578063b13739291461082b578063b1eadd8e14610840578063b5f10d121461085f578063b6c2461e1461087e578063bbb5a1601461089d575f80fd5b8063987dfabd11610129578063987dfabd146107785780639e74464a1461078d5780639faa3c91146107ac578063a1174e7d146107c1578063a7593f01146107e4578063a88a4c8914610803575f80fd5b806381d8cdfd146106a35780638aa83138146106d25780638da5cb5b146106f1578063948e4bac1461070d57806395c1ff15146107385780639866078014610757575f80fd5b80633ec43aad116102115780636bd3ea9c116101cb5780636bd3ea9c146105df5780636da8757a146105f45780636f83a58614610624578063715018a61461063957806376eb6d651461064d5780637b1d6df214610684575f80fd5b80633ec43aad146104ac5780633ec75eba146104cd578063476343ee146104e25780635b2ce07d146104f65780635b98140a1461050b578063642f2eaf1461052a575f80fd5b8063170503051161026257806317050305146103aa578063189a5a17146103c9578063213dafcd1461043f57806323c2b7231461045e5780632ee5e2eb146104825780633d0a1c0914610497575f80fd5b80630d5d668e146102a95780630d810c1d146102ca57806310a0da68146102e957806312b495a81461031157806314e10c9d1461032657806316faae9014610345575b5f80fd5b3480156102b4575f80fd5b506102c86102c33660046124ee565b610981565b005b3480156102d5575f80fd5b506102c86102e4366004612520565b610b3a565b3480156102f4575f80fd5b506102fe600b5481565b6040519081526020015b60405180910390f35b34801561031c575f80fd5b506102fe60055481565b348015610331575f80fd5b506102c861034036600461254a565b610d4a565b348015610350575f80fd5b5061038861035f3660046124ee565b60116020525f908152604090208054600282015460038301546004909301549192909160ff1684565b6040805194855260208501939093529183015215156060820152608001610308565b3480156103b5575f80fd5b506102fe6103c436600461257a565b610f3d565b3480156103d4575f80fd5b5061042c6103e33660046125a2565b600f6020525f908152604090208054600182015460028301546003840154600485015460058601546006909601546001600160a01b039095169593949293919290919060ff1687565b60405161030897969594939291906125ef565b34801561044a575f80fd5b506102fe6104593660046124ee565b610f68565b348015610469575f80fd5b50610472610f87565b60405161030894939291906126ab565b34801561048d575f80fd5b506102fe600c5481565b3480156104a2575f80fd5b506102fe600a5481565b3480156104b7575f80fd5b506104c06111a6565b6040516103089190612729565b3480156104d8575f80fd5b506102fe60085481565b3480156104ed575f80fd5b506102c86111fc565b348015610501575f80fd5b506102fe60135481565b348015610516575f80fd5b506102fe6105253660046124ee565b61123b565b348015610535575f80fd5b506105966105443660046124ee565b60156020525f90815260409020805460018201546002830154600384015460048501546005860154600687015460079097015495966001600160a01b0395861696949095169492939192909160ff1688565b604080519889526001600160a01b0397881660208a015295909616948701949094526060860192909252608085015260a084015260c0830152151560e082015261010001610308565b3480156105ea575f80fd5b506102fe600e5481565b3480156105ff575f80fd5b5061061361060e3660046124ee565b611345565b60405161030895949392919061273b565b34801561062f575f80fd5b506102fe60075481565b348015610644575f80fd5b506102c861141c565b348015610658575f80fd5b5061066c6106673660046124ee565b61142f565b6040516001600160a01b039091168152602001610308565b34801561068f575f80fd5b506102c861069e3660046127b3565b611457565b3480156106ae575f80fd5b506106c26106bd3660046124ee565b611476565b6040519015158152602001610308565b3480156106dd575f80fd5b506102c86106ec3660046127ea565b611491565b3480156106fc575f80fd5b505f546001600160a01b031661066c565b348015610718575f80fd5b506102fe6107273660046124ee565b60146020525f908152604090205481565b348015610743575f80fd5b506102c861075236600461286a565b61169d565b348015610762575f80fd5b5061076b611797565b60405161030891906128a0565b348015610783575f80fd5b506102fe600d5481565b348015610798575f80fd5b506102c86107a73660046124ee565b6117eb565b3480156107b7575f80fd5b506102fe60035481565b3480156107cc575f80fd5b506107d5611936565b604051610308939291906128e3565b3480156107ef575f80fd5b506102fe6107fe3660046124ee565b611b38565b6102fe61081136600461254a565b611b47565b348015610821575f80fd5b506102fe60065481565b348015610836575f80fd5b506102fe60045481565b34801561084b575f80fd5b506102c861085a3660046124ee565b611d9f565b34801561086a575f80fd5b506102c86108793660046125a2565b611db4565b348015610889575f80fd5b506102fe6108983660046124ee565b611e8c565b3480156108a8575f80fd5b506102c86108b73660046124ee565b611eb5565b3480156108c7575f80fd5b506102c86108d6366004612951565b611fc4565b3480156108e6575f80fd5b506102fe6108f53660046124ee565b611fd7565b348015610905575f80fd5b506102fe60025481565b34801561091a575f80fd5b506102fe60095481565b34801561092f575f80fd5b506102c861093e366004612520565b612018565b34801561094e575f80fd5b506102c861095d366004612951565b612117565b34801561096d575f80fd5b506102c861097c3660046125a2565b6121cf565b610989612245565b61099161229e565b5f818152601560205260409020805482146109f35760405162461bcd60e51b815260206004820152601a60248201527f5472616e73616374696f6e20646f6573206e6f7420657869737400000000000060448201526064015b60405180910390fd5b600781015460ff1615610a485760405162461bcd60e51b815260206004820152601d60248201527f5472616e73616374696f6e20616c726561647920636f6d706c6574656400000060448201526064016109ea565b60078101805460ff191660011790556005810154610a669042612985565b6006820155600c8054905f610a7a83612998565b9190505550610a876122f7565b5f828152601460205260409020548015801590610ab357505f8181526011602052604090206003015415155b15610ada575f818152601160205260408120600301805491610ad483612998565b91905055505b60145f8481526020019081526020015f205f9055827ff698c1d18e531666d86ab9a9062dbc6e994abb53ff9ece034d24d336ce13ed2d8360060154604051610b2491815260200190565b60405180910390a25050610b3760018055565b50565b610b42612245565b5f828152601160205260409020548214610b955760405162461bcd60e51b815260206004820152601460248201527314da185c9908191bd95cc81b9bdd08195e1a5cdd60621b60448201526064016109ea565b5f8281526011602052604081206001810154909180805b83811015610c0a57856001600160a01b0316856001018281548110610bd357610bd36129ad565b5f918252602090912001546001600160a01b031603610bf85760019250809150610c0a565b80610c02816129c1565b915050610bac565b5081610c4c5760405162461bcd60e51b8152602060048201526011602482015270139bd919481b9bdd081a5b881cda185c99607a1b60448201526064016109ea565b610c57600184612985565b811015610cd85783600101600184610c6f9190612985565b81548110610c7f57610c7f6129ad565b5f918252602090912001546001850180546001600160a01b039092169183908110610cac57610cac6129ad565b905f5260205f20015f6101000a8154816001600160a01b0302191690836001600160a01b031602179055505b83600101805480610ceb57610ceb6129d9565b5f8281526020812082015f1990810180546001600160a01b03191690559091019091556040516001600160a01b0387169188917fdc59d94b537de3deab198e8e0c9aef99bc9f37fcdafa8b7734e1ec4bd5c09fb39190a3505050505050565b610d52612245565b6001600160a01b038381165f908152600f60205260409020541615610daf5760405162461bcd60e51b81526020600482015260136024820152724e6f646520616c72656164792065786973747360681b60448201526064016109ea565b5f82600354610dbe91906129ed565b600254610dcc9060646129ed565b610dd69190612a04565b90505f6040518060e00160405280866001600160a01b031681526020018581526020018481526020015f81526020018381526020015f81526020015f6003811115610e2357610e236125bb565b90526001600160a01b038681165f908152600f6020908152604091829020845181546001600160a01b031916941693909317835583015160018084019190915590830151600283015560608301516003808401919091556080840151600484015560a0840151600584015560c084015160068401805495965086959193909260ff19909216918490811115610eba57610eba6125bb565b021790555050601080546001810182555f9182527f1b6847dc741a1b0cd08d278845f9d819d87b734759afb55fe2de5cb82a9ae6720180546001600160a01b0319166001600160a01b0389169081179091556040519092507f564728e6a7c8edd446557d94e0339d5e6ca2e05f42188914efdbdc87bcbbabf69190a25050505050565b6018602052815f5260405f208181548110610f56575f80fd5b905f5260205f20015f91509150505481565b60168181548110610f77575f80fd5b5f91825260209091200154905081565b6017546060908190819081908067ffffffffffffffff811115610fac57610fac612a17565b604051908082528060200260200182016040528015610fd5578160200160208202803683370190505b5094508067ffffffffffffffff811115610ff157610ff1612a17565b60405190808252806020026020018201604052801561101a578160200160208202803683370190505b5093508067ffffffffffffffff81111561103657611036612a17565b60405190808252806020026020018201604052801561105f578160200160208202803683370190505b5092508067ffffffffffffffff81111561107b5761107b612a17565b6040519080825280602002602001820160405280156110a4578160200160208202803683370190505b5091505f5b8181101561119e575f601782815481106110c5576110c56129ad565b5f9182526020909120600590910201805488519192506001600160a01b0316908890849081106110f7576110f76129ad565b60200260200101906001600160a01b031690816001600160a01b031681525050806001015486838151811061112e5761112e6129ad565b6020026020010181815250508060020154858381518110611151576111516129ad565b60209081029190910101526004810154845160ff9091169085908490811061117b5761117b6129ad565b911515602092830291909101909101525080611196816129c1565b9150506110a9565b505090919293565b606060128054806020026020016040519081016040528092919081815260200182805480156111f257602002820191905f5260205f20905b8154815260200190600101908083116111de575b5050505050905090565b611204612245565b5f80546040516001600160a01b03909116914780156108fc02929091818181858888f19350505050158015610b37573d5f803e3d5ffd5b6012545f906112825760405162461bcd60e51b81526020600482015260136024820152724e6f2073686172647320617661696c61626c6560681b60448201526064016109ea565b601254604080514260208201529081018490525f9190606001604051602081830303815290604052805190602001205f1c6112bd9190612a3f565b90505f601282815481106112d3576112d36129ad565b5f91825260208083209091015486835260148252604080842082905581845260119092529082206003018054919350909161130d836129c1565b9091555050604051819085907fa5ef7faf61243bca58b202fff4abaee7193c7bb8c500fa2687c9540de378bce6905f90a39392505050565b60178181548110611354575f80fd5b5f91825260209091206005909102018054600182015460028301546003840180546001600160a01b0390941695509193909290919061139290612a52565b80601f01602080910402602001604051908101604052809291908181526020018280546113be90612a52565b80156114095780601f106113e057610100808354040283529160200191611409565b820191905f5260205f20905b8154815290600101906020018083116113ec57829003601f168201915b5050506004909301549192505060ff1685565b611424612245565b61142d5f612379565b565b6010818154811061143e575f80fd5b5f918252602090912001546001600160a01b0316905081565b61145f612245565b600294909455600392909255600455600555600655565b5f600954821015801561148b5750600a548211155b92915050565b611499612245565b6001600160a01b038481165f908152600f6020526040902054166114cf5760405162461bcd60e51b81526004016109ea90612a8a565b5f6040518060a00160405280866001600160a01b0316815260200142815260200185815260200184848080601f0160208091040260200160405190810160405280939291908181526020018383808284375f920182905250938552505050602091820181905260178054600181018255915282517fc624b66cc0138b8fabc209247f72d758e1cf3343756d543badbf24212bed8c156005830290810180546001600160a01b0319166001600160a01b03909316929092178255928401517fc624b66cc0138b8fabc209247f72d758e1cf3343756d543badbf24212bed8c1684015560408401517fc624b66cc0138b8fabc209247f72d758e1cf3343756d543badbf24212bed8c178401556060840151939450909284927fc624b66cc0138b8fabc209247f72d758e1cf3343756d543badbf24212bed8c1801906116129082612b05565b50608091909101516004909101805460ff19169115159190911790556001600160a01b0386165f81815260186020908152604080832080546001810182559084529190922001839055517f1cee98c67bad1a765999b0844f7b092efd3469ee6c2ac9f0d90225295458e73b9061168d90889088908890612bc1565b60405180910390a2505050505050565b6001600160a01b038481165f908152600f6020526040902054166116d35760405162461bcd60e51b81526004016109ea90612a8a565b6001600160a01b0384165f908152600f602052604090206001810184905560028101839055600381018290556007548211801561172757505f600682015460ff166003811115611725576117256125bb565b145b156117875760068101805460ff191660019081179091554260058301556040516001600160a01b038716917fe35288575ab494303cff1e4fc261402854f4e1821716f9cac17e7fe2237bc92f9161177e9190612bf6565b60405180910390a25b611790856123c8565b5050505050565b606060168054806020026020016040519081016040528092919081815260200182805480156111f257602002820191905f5260205f20908154815260200190600101908083116111de575050505050905090565b6117f3612245565b601754811061183b5760405162461bcd60e51b8152602060048201526014602482015273092dcecc2d8d2c840c2e8e8c2c6d640d2dcc8caf60631b60448201526064016109ea565b6017818154811061184e5761184e6129ad565b5f91825260209091206004600590920201015460ff16156118a45760405162461bcd60e51b815260206004820152601060248201526f105b1c9958591e481c995cdbdb1d995960821b60448201526064016109ea565b6001601782815481106118b9576118b96129ad565b905f5260205f2090600502016004015f6101000a81548160ff02191690831515021790555080601782815481106118f2576118f26129ad565b5f91825260208220600590910201546040516001600160a01b03909116917fa102e82e5f20aa874163e841ad1c1324dc67c41df32d5d70622854942b18744c91a350565b601054606090819081905f8167ffffffffffffffff81111561195a5761195a612a17565b604051908082528060200260200182016040528015611983578160200160208202803683370190505b5090505f8267ffffffffffffffff8111156119a0576119a0612a17565b6040519080825280602002602001820160405280156119c9578160200160208202803683370190505b5090505f5b83811015611acb57600f5f601083815481106119ec576119ec6129ad565b5f9182526020808320909101546001600160a01b031683528201929092526040019020600401548351849083908110611a2757611a276129ad565b602002602001018181525050600f5f60108381548110611a4957611a496129ad565b5f9182526020808320909101546001600160a01b03168352820192909252604001902060060154825160ff90911690839083908110611a8a57611a8a6129ad565b60200260200101906003811115611aa357611aa36125bb565b90816003811115611ab657611ab66125bb565b90525080611ac3816129c1565b9150506119ce565b506010828282805480602002602001604051908101604052809291908181526020018280548015611b2357602002820191905f5260205f20905b81546001600160a01b03168152600190910190602001808311611b05575b50505050509250955095509550505050909192565b60128181548110610f77575f80fd5b5f611b5061229e565b5f611b5a83611fd7565b905080341015611b9f5760405162461bcd60e51b815260206004820152601060248201526f496e73756666696369656e742066656560801b60448201526064016109ea565b6040516bffffffffffffffffffffffff1933606090811b8216602084015287901b16603482015260488101859052606881018290524260888201525f9060a80160408051601f19818403018152828252805160209182012061010084018352808452338483019081526001600160a01b038b8116868601908152606087018c8152608088018a81524260a08a019081525f60c08b0181815260e08c018281528983526015909a529981208b5181559651600188810180549289166001600160a01b0319938416179055955160028901805491909816911617909555915160038601555160048501555160058401559451600683015592516007909101805491151560ff1990921691909117905560168054938401815582527fd833147d7dc355ba459fc788f669e58cfaf9dc25ddcd0702e87d69c7b5124289909201829055600c805492945090611cef836129c1565b9190505550611cfc6122f7565b611d058261123b565b5060408051878152602081018590526001600160a01b03891691339185917f5d1403a6a5c9f8778301b9642e3f119f8f7971fb8134a7c1d8b24074acd6f161910160405180910390a482341115611d8b57336108fc611d648534612985565b6040518115909202915f818181858888f19350505050158015611d89573d5f803e3d5ffd5b505b50915050611d9860018055565b9392505050565b611da7612245565b600d819055610b376122f7565b6001600160a01b038082165f908152600f602052604090208054909116611ded5760405162461bcd60e51b81526004016109ea90612a8a565b6001600682015460ff166003811115611e0857611e086125bb565b03611e88576008546005820154611e1f9042612985565b10158015611e335750600754816003015411155b15611e885760068101805460ff191690556040516001600160a01b038316907fe35288575ab494303cff1e4fc261402854f4e1821716f9cac17e7fe2237bc92f90611e7f905f90612bf6565b60405180910390a25b5050565b5f600954821015611e9f57505060095490565b600a54821115611eb1575050600a5490565b5090565b611ebd612245565b6040805160a08101825260135480825282515f8082526020808301865280850192835284860187905260608501829052600160808601819052938252601181529490208351815590518051939485949293611f1f939085019290910190612480565b506040828101516002830155606083015160038301556080909201516004909101805460ff1916911515919091179055601354601280546001810182555f9182527fbb8a6a4669ba250d26cd7a459eca9d215f8307e33aebe50379bc5a3617ec344401829055915190917fd2945ee098692a48b2bf3f77a82df3f91323ee706dbd45e61705284f711c0bcd91a260138054905f611fbb836129c1565b91905055505050565b611fcc612245565b600791909155600855565b5f600d545f03611fe5575090565b670de0b6b3a7640000600e54670de0b6b3a76400006120049190612a04565b61200e90846129ed565b61148b9190612c04565b612020612245565b5f8281526011602052604090205482146120735760405162461bcd60e51b815260206004820152601460248201527314da185c9908191bd95cc81b9bdd08195e1a5cdd60621b60448201526064016109ea565b6001600160a01b038181165f908152600f6020526040902054166120a95760405162461bcd60e51b81526004016109ea90612a8a565b5f828152601160209081526040808320600190810180549182018155845291832090910180546001600160a01b0319166001600160a01b0385169081179091559051909184917fa9ea05fc91eac29100fcd679b5a1513da3f4fd9f27e0c8be724a9d155dba4dea9190a35050565b61211f612245565b80821061216e5760405162461bcd60e51b815260206004820152601960248201527f496e76616c69642070726f626162696c6974792072616e67650000000000000060448201526064016109ea565b6009829055600a8190556121828282612985565b600b819055600954600a5460408051938452602084019290925282820152517f13ba371e22b9799d48f3f54676a8db73bb955594753d9fe3c51f7d2f768c22049181900360600190a15050565b6121d7612245565b6001600160a01b03811661223c5760405162461bcd60e51b815260206004820152602660248201527f4f776e61626c653a206e6577206f776e657220697320746865207a65726f206160448201526564647265737360d01b60648201526084016109ea565b610b3781612379565b5f546001600160a01b0316331461142d5760405162461bcd60e51b815260206004820181905260248201527f4f776e61626c653a2063616c6c6572206973206e6f7420746865206f776e657260448201526064016109ea565b6002600154036122f05760405162461bcd60e51b815260206004820152601f60248201527f5265656e7472616e637947756172643a207265656e7472616e742063616c6c0060448201526064016109ea565b6002600155565b600d541561232957600d54600c5461231790670de0b6b3a76400006129ed565b6123219190612c04565b600e5561232e565b5f600e555b600e547ff28493761c8f2b3c927dc7de6b4cef40a8ff89f5ceb2e586f1c6f34d41d4fbaa600c54600d5460405161236f929190918252602082015260400190565b60405180910390a2565b5f80546001600160a01b038381166001600160a01b0319831681178455604051919092169283917f8be0079c531659141344cd1fd0a4f28419497f9722a3daafe3b4186f6b6457e09190a35050565b6001600160a01b0381165f908152600f6020526040812060038101546004549192916123f491906129ed565b826001015460035461240691906129ed565b6002546124149060646129ed565b61241e9190612a04565b6124289190612985565b905061243381611e8c565b600483018190556040518181529091506001600160a01b038416907fbdfecfcefc99b55cfd858f46d2935525b193e1f05893d4868a33c90582f6158b9060200160405180910390a2505050565b828054828255905f5260205f209081019282156124d3579160200282015b828111156124d357825182546001600160a01b0319166001600160a01b0390911617825560209092019160019091019061249e565b50611eb19291505b80821115611eb1575f81556001016124db565b5f602082840312156124fe575f80fd5b5035919050565b80356001600160a01b038116811461251b575f80fd5b919050565b5f8060408385031215612531575f80fd5b8235915061254160208401612505565b90509250929050565b5f805f6060848603121561255c575f80fd5b61256584612505565b95602085013595506040909401359392505050565b5f806040838503121561258b575f80fd5b61259483612505565b946020939093013593505050565b5f602082840312156125b2575f80fd5b611d9882612505565b634e487b7160e01b5f52602160045260245ffd5b600481106125eb57634e487b7160e01b5f52602160045260245ffd5b9052565b6001600160a01b03881681526020810187905260408101869052606081018590526080810184905260a0810183905260e0810161262f60c08301846125cf565b98975050505050505050565b5f8151808452602080850194508084015f5b838110156126725781516001600160a01b03168752958201959082019060010161264d565b509495945050505050565b5f8151808452602080850194508084015f5b838110156126725781518752958201959082019060010161268f565b608081525f6126bd608083018761263b565b6020838203818501526126d0828861267d565b915083820360408501526126e4828761267d565b848103606086015285518082528287019350908201905f5b8181101561271a5784511515835293830193918301916001016126fc565b50909998505050505050505050565b602081525f611d98602083018461267d565b60018060a01b03861681525f6020868184015285604084015260a0606084015284518060a08501525f5b818110156127815786810183015185820160c001528201612765565b505f60c0828601015260c0601f19601f830116850101925050506127a9608083018415159052565b9695505050505050565b5f805f805f60a086880312156127c7575f80fd5b505083359560208501359550604085013594606081013594506080013592509050565b5f805f80606085870312156127fd575f80fd5b61280685612505565b935060208501359250604085013567ffffffffffffffff80821115612829575f80fd5b818701915087601f83011261283c575f80fd5b81358181111561284a575f80fd5b88602082850101111561285b575f80fd5b95989497505060200194505050565b5f805f806080858703121561287d575f80fd5b61288685612505565b966020860135965060408601359560600135945092505050565b602080825282518282018190525f9190848201906040850190845b818110156128d7578351835292840192918401916001016128bb565b50909695505050505050565b606081525f6128f5606083018661263b565b602083820381850152612908828761267d565b848103604086015285518082528287019350908201905f5b81811015612943576129338386516125cf565b9383019391830191600101612920565b509098975050505050505050565b5f8060408385031215612962575f80fd5b50508035926020909101359150565b634e487b7160e01b5f52601160045260245ffd5b8181038181111561148b5761148b612971565b5f816129a6576129a6612971565b505f190190565b634e487b7160e01b5f52603260045260245ffd5b5f600182016129d2576129d2612971565b5060010190565b634e487b7160e01b5f52603160045260245ffd5b808202811582820484141761148b5761148b612971565b8082018082111561148b5761148b612971565b634e487b7160e01b5f52604160045260245ffd5b634e487b7160e01b5f52601260045260245ffd5b5f82612a4d57612a4d612a2b565b500690565b600181811c90821680612a6657607f821691505b602082108103612a8457634e487b7160e01b5f52602260045260245ffd5b50919050565b602080825260139082015272139bd91948191bd95cc81b9bdd08195e1a5cdd606a1b604082015260600190565b601f821115612b00575f81815260208120601f850160051c81016020861015612add5750805b601f850160051c820191505b81811015612afc57828155600101612ae9565b5050505b505050565b815167ffffffffffffffff811115612b1f57612b1f612a17565b612b3381612b2d8454612a52565b84612ab7565b602080601f831160018114612b66575f8415612b4f5750858301515b5f19600386901b1c1916600185901b178555612afc565b5f85815260208120601f198616915b82811015612b9457888601518255948401946001909101908401612b75565b5085821015612bb157878501515f19600388901b60f8161c191681555b5050505050600190811b01905550565b83815260406020820152816040820152818360608301375f818301606090810191909152601f909201601f1916010192915050565b6020810161148b82846125cf565b5f82612c1257612c12612a2b565b50049056fea26469706673582212208d8bbc2a0a46becde26e5ebfd81869d5a3535d42f814e2a1d6f5e6f373b244b764736f6c63430008140033",
  "immutableReferences": {},
  "source": "// SPDX-License-Identifier: MIT\npragma solidity ^0.8.0;\n\nimport \"@openzeppelin/contracts/access/Ownable.sol\";\nimport \"@openzeppelin/contracts/security/ReentrancyGuard.sol\";\n\n/**\n * @title BCADN - Blockchain-Cellular Adaptive Decentralized Network\n * @dev Implementation of the BCADN architecture with dynamic node weighting, \n * probability gap, and proactive defense mechanism\n */\ncontract BCADN is Ownable, ReentrancyGuard {\n      \n    // Node status enum\n    enum NodeStatus {\n        Active,\n        Probation,\n        Excluded,\n        Pending\n    }\n\n    // Node structure\n    struct Node {\n        address nodeAddress;\n        uint256 performance;    // Performance metric\n        uint256 reliability;    // Reliability score\n        uint256 anomalyScore;   // Anomaly detection score\n        uint256 weight;         // Dynamic weight\n        uint256 isolationTime;  // Time when node was isolated (if applicable)\n        NodeStatus status;      // Current status of the node\n    }\n\n    // Shard structure\n    struct Shard {\n        uint256 id;\n        address[] nodes;\n        uint256 capacity;\n        uint256 currentLoad;\n        bool active;\n    }\n\n    // Transaction structure\n    struct Transaction {\n        bytes32 txHash;\n        address sender;\n        address receiver;\n        uint256 amount;\n        uint256 fee;\n        uint256 timestamp;\n        uint256 processingTime;\n        bool completed;\n    }\n\n    // Attack data structure\n    struct AttackData {\n        address node;\n        uint256 timestamp;\n        uint256 anomalyScore;\n        string attackType;\n        bool resolved;\n    }\n\n    // Network parameters\n    uint256 public alpha = 10;  // Fee weighting factor\n    uint256 public beta = 20;   // Performance weighting factor\n    uint256 public gamma = 30;  // Anomaly weighting factor\n    uint256 public delta = 50;  // Congestion responsiveness parameter\n    uint256 public mu = 5;      // Transaction age influence parameter\n    \n    uint256 public anomalyThreshold = 30;\n    uint256 public probationPeriod = 3600;  // 1 hour in seconds\n    uint256 public minProbability = 20;     // Probability gap minimum\n    uint256 public maxProbability = 80;     // Probability gap maximum\n    uint256 public currentGap;              // Probability gap size\n\n    // Network metrics\n    uint256 public pendingTransactions;\n    uint256 public networkCapacity = 1000;  // Default capacity\n    uint256 public congestionIndex;         // Calculated as pendingTransactions / networkCapacity\n\n    // Node registry\n    mapping(address => Node) public nodes;\n    address[] public nodesList;\n    \n    // Shards registry\n    mapping(uint256 => Shard) public shards;\n    uint256[] public shardIds;\n    uint256 public nextShardId = 1;\n    \n    // Transaction assignment\n    mapping(bytes32 => uint256) public transactionToShard;\n    \n    // Transactions registry\n    mapping(bytes32 => Transaction) public transactions;\n    bytes32[] public transactionHashes;\n    \n    // Attack history\n    AttackData[] public attackHistory;\n    mapping(address => uint256[]) public nodeAttackIndices;\n\n    // Events\n    event NodeRegistered(address indexed nodeAddress);\n    event NodeWeightUpdated(address indexed nodeAddress, uint256 newWeight);\n    event NodeStatusChanged(address indexed nodeAddress, NodeStatus newStatus);\n    event ShardCreated(uint256 indexed shardId);\n    event NodeAddedToShard(uint256 indexed shardId, address indexed node);\n    event NodeRemovedFromShard(uint256 indexed shardId, address indexed node);\n    event TransactionAssigned(bytes32 indexed txHash, uint256 indexed shardId);\n    event TransactionSubmitted(bytes32 indexed txHash, address indexed sender, address indexed receiver, uint256 amount, uint256 fee);\n    event TransactionCompleted(bytes32 indexed txHash, uint256 processingTime);\n    event AnomalyDetected(address indexed node, uint256 anomalyScore, string attackType);\n    event AnomalyResolved(address indexed node, uint256 indexed attackIndex);\n    event CongestionUpdated(uint256 indexed congestionIndex, uint256 pendingTransactions, uint256 networkCapacity);\n    event GapUpdated(uint256 newGap, uint256 minProbability, uint256 maxProbability);\n\nconstructor() public Ownable() {\n       // Initialize probability gap\n        currentGap = maxProbability - minProbability;\n}\n   \n    /**\n     * @dev Updates network parameters\n     */\n    function updateNetworkParams(\n        uint256 _alpha,\n        uint256 _beta,\n        uint256 _gamma,\n        uint256 _delta,\n        uint256 _mu\n    ) external onlyOwner {\n        alpha = _alpha;\n        beta = _beta;\n        gamma = _gamma;\n        delta = _delta;\n        mu = _mu;\n    }\n    \n    /**\n     * @dev Updates the anomaly threshold and probation period\n     */\n    function updateThresholds(\n        uint256 _anomalyThreshold,\n        uint256 _probationPeriod\n    ) external onlyOwner {\n        anomalyThreshold = _anomalyThreshold;\n        probationPeriod = _probationPeriod;\n    }\n    \n    /**\n     * @dev Updates the probability range for the gap mechanism\n     */\n    function updateProbabilityRange(\n        uint256 _minProbability,\n        uint256 _maxProbability\n    ) external onlyOwner {\n        require(_minProbability < _maxProbability, \"Invalid probability range\");\n        \n        minProbability = _minProbability;\n        maxProbability = _maxProbability;\n        currentGap = _maxProbability - _minProbability;\n        \n        emit GapUpdated(currentGap, minProbability, maxProbability);\n    }\n    \n    /**\n     * @dev Adjusts a probability to fall within the gap if needed\n     */\n    function adjustToProbabilityGap(uint256 _probability) public view returns (uint256) {\n        if (_probability < minProbability) {\n            return minProbability;\n        } else if (_probability > maxProbability) {\n            return maxProbability;\n        }\n        return _probability;\n    }\n    \n    /**\n     * @dev Checks if a given probability falls within the allowed gap\n     */\n    function isWithinGap(uint256 _probability) public view returns (bool) {\n        return _probability >= minProbability && _probability <= maxProbability;\n    }\n    \n    /**\n     * @dev Updates network capacity\n     */\n    function setNetworkCapacity(uint256 _capacity) external onlyOwner {\n        networkCapacity = _capacity;\n        _updateCongestionIndex();\n    }\n    \n    /**\n     * @dev Updates congestion index based on pending transactions and network capacity\n     */\n    function _updateCongestionIndex() internal {\n        if (networkCapacity > 0) {\n            congestionIndex = (pendingTransactions * 1e18) / networkCapacity;\n        } else {\n            congestionIndex = 0;\n        }\n        \n        emit CongestionUpdated(congestionIndex, pendingTransactions, networkCapacity);\n    }\n    \n    /**\n     * @dev Calculates dynamic fee based on current congestion\n     * @param _baseFee Base transaction fee\n     * @return dynamicFee The adjusted transaction fee\n     */\n    function calculateDynamicFee(uint256 _baseFee) public view returns (uint256) {\n        if (networkCapacity == 0) return _baseFee;\n        \n        // Formula: F = Fb * (1 + Tcurrent/Tmax)\n        return _baseFee * (1e18 + congestionIndex) / 1e18;\n    }\n    \n    /**\n     * @dev Registers a new node in the network\n     */\n    function registerNode(\n        address _nodeAddress,\n        uint256 _performance,\n        uint256 _reliability\n    ) external onlyOwner {\n        require(nodes[_nodeAddress].nodeAddress == address(0), \"Node already exists\");\n        \n        // Initial weight calculation: W(0) = alpha * Fee + beta * Performance\n        uint256 initialWeight = (alpha * 100) + (beta * _performance);\n        \n        Node memory newNode = Node({\n            nodeAddress: _nodeAddress,\n            performance: _performance,\n            reliability: _reliability,\n            anomalyScore: 0,\n            weight: initialWeight,\n            isolationTime: 0,\n            status: NodeStatus.Active\n        });\n        \n        nodes[_nodeAddress] = newNode;\n        nodesList.push(_nodeAddress);\n        \n        emit NodeRegistered(_nodeAddress);\n    }\n    \n    /**\n     * @dev Updates a node's performance metrics\n     */\n    function updateNodeMetrics(\n        address _nodeAddress,\n        uint256 _performance,\n        uint256 _reliability,\n        uint256 _anomalyScore\n    ) external {\n        require(nodes[_nodeAddress].nodeAddress != address(0), \"Node does not exist\");\n        \n        Node storage node = nodes[_nodeAddress];\n        node.performance = _performance;\n        node.reliability = _reliability;\n        node.anomalyScore = _anomalyScore;\n        \n        // Check anomaly threshold\n        if (_anomalyScore > anomalyThreshold && node.status == NodeStatus.Active) {\n            node.status = NodeStatus.Probation;\n            node.isolationTime = block.timestamp;\n            emit NodeStatusChanged(_nodeAddress, NodeStatus.Probation);\n        }\n        \n        // Dynamic weight adjustment\n        _updateNodeWeight(_nodeAddress);\n    }\n    \n    /**\n     * @dev Updates the node's weight according to the dynamic weighting formula\n     */\n    function _updateNodeWeight(address _nodeAddress) internal {\n        Node storage node = nodes[_nodeAddress];\n        \n        // Calculate dynamic weight based on Algorithm 1\n        // W(t) = (alpha * Fee + beta * Performance - gamma * AnomalyScore)\n        uint256 newWeight = (alpha * 100) + (beta * node.performance) - (gamma * node.anomalyScore);\n        \n        // Apply probability gap to ensure fairness\n        newWeight = adjustToProbabilityGap(newWeight);\n        \n        node.weight = newWeight;\n        emit NodeWeightUpdated(_nodeAddress, newWeight);\n    }\n    \n    /**\n     * @dev Checks probation status and potentially reintegrates nodes\n     */\n    function checkProbationStatus(address _nodeAddress) external {\n        Node storage node = nodes[_nodeAddress];\n        require(node.nodeAddress != address(0), \"Node does not exist\");\n        \n        if (node.status == NodeStatus.Probation) {\n            if (\n                block.timestamp - node.isolationTime >= probationPeriod &&\n                node.anomalyScore <= anomalyThreshold\n            ) {\n                node.status = NodeStatus.Active;\n                emit NodeStatusChanged(_nodeAddress, NodeStatus.Active);\n            }\n        }\n    }\n    \n    /**\n     * @dev Gets all nodes with their current weights and status\n     */\n    function getAllNodes() external view returns (address[] memory, uint256[] memory, NodeStatus[] memory) {\n        uint256 length = nodesList.length;\n        uint256[] memory weights = new uint256[](length);\n        NodeStatus[] memory statuses = new NodeStatus[](length);\n        \n        for (uint256 i = 0; i < length; i++) {\n            weights[i] = nodes[nodesList[i]].weight;\n            statuses[i] = nodes[nodesList[i]].status;\n        }\n        \n        return (nodesList, weights, statuses);\n    }\n    \n    /**\n     * @dev Creates a new shard\n     */\n    function createShard(uint256 _capacity) external onlyOwner {\n        Shard memory newShard = Shard({\n            id: nextShardId,\n            nodes: new address[](0),\n            capacity: _capacity,\n            currentLoad: 0,\n            active: true\n        });\n        \n        shards[nextShardId] = newShard;\n        shardIds.push(nextShardId);\n        \n        emit ShardCreated(nextShardId);\n        nextShardId++;\n    }\n    \n    /**\n     * @dev Adds a node to a shard\n     */\n    function addNodeToShard(uint256 _shardId, address _node) external onlyOwner {\n        require(shards[_shardId].id == _shardId, \"Shard does not exist\");\n        require(nodes[_node].nodeAddress != address(0), \"Node does not exist\");\n        \n        shards[_shardId].nodes.push(_node);\n        emit NodeAddedToShard(_shardId, _node);\n    }\n    \n    /**\n     * @dev Removes a node from a shard\n     */\n    function removeNodeFromShard(uint256 _shardId, address _node) external onlyOwner {\n        require(shards[_shardId].id == _shardId, \"Shard does not exist\");\n        \n        Shard storage shard = shards[_shardId];\n        uint256 length = shard.nodes.length;\n        bool found = false;\n        uint256 index;\n        \n        for (uint256 i = 0; i < length; i++) {\n            if (shard.nodes[i] == _node) {\n                found = true;\n                index = i;\n                break;\n            }\n        }\n        \n        require(found, \"Node not in shard\");\n        \n        // Remove node by replacing with the last element and popping\n        if (index < length - 1) {\n            shard.nodes[index] = shard.nodes[length - 1];\n        }\n        shard.nodes.pop();\n        \n        emit NodeRemovedFromShard(_shardId, _node);\n    }\n    \n    /**\n     * @dev Returns all shard IDs\n     */\n    function getAllShards() external view returns (uint256[] memory) {\n        return shardIds;\n    }\n    \n    /**\n     * @dev Assigns a transaction to a shard using randomized selection\n     */\n    function assignTransactionToShard(bytes32 _txHash) public returns (uint256) {\n        require(shardIds.length > 0, \"No shards available\");\n        \n        // Implement randomized transaction selection (from Random Selector)\n        uint256 randomShardIndex = uint256(keccak256(abi.encodePacked(block.timestamp, _txHash))) % shardIds.length;\n        uint256 shardId = shardIds[randomShardIndex];\n        \n        // Assign transaction to shard\n        transactionToShard[_txHash] = shardId;\n        shards[shardId].currentLoad++;\n        \n        emit TransactionAssigned(_txHash, shardId);\n        return shardId;\n    }\n    \n    /**\n     * @dev Records a detected anomaly\n     */\n    function recordAnomaly(\n        address _node,\n        uint256 _anomalyScore,\n        string calldata _attackType\n    ) external onlyOwner {\n        require(nodes[_node].nodeAddress != address(0), \"Node does not exist\");\n        \n        AttackData memory newAttack = AttackData({\n            node: _node,\n            timestamp: block.timestamp,\n            anomalyScore: _anomalyScore,\n            attackType: _attackType,\n            resolved: false\n        });\n        \n        uint256 newIndex = attackHistory.length;\n        attackHistory.push(newAttack);\n        nodeAttackIndices[_node].push(newIndex);\n        \n        emit AnomalyDetected(_node, _anomalyScore, _attackType);\n    }\n    \n    /**\n     * @dev Marks an anomaly as resolved\n     */\n    function resolveAnomaly(uint256 _attackIndex) external onlyOwner {\n        require(_attackIndex < attackHistory.length, \"Invalid attack index\");\n        require(!attackHistory[_attackIndex].resolved, \"Already resolved\");\n        \n        attackHistory[_attackIndex].resolved = true;\n        \n        emit AnomalyResolved(attackHistory[_attackIndex].node, _attackIndex);\n    }\n    \n    /**\n     * @dev Gets all attack history\n     */\n    function getAttackHistory() external view returns (\n        address[] memory nodeAddresses,\n        uint256[] memory timestamps,\n        uint256[] memory anomalyScores,\n        bool[] memory resolved\n    ) {\n        uint256 length = attackHistory.length;\n        \n        nodeAddresses = new address[](length);\n        timestamps = new uint256[](length);\n        anomalyScores = new uint256[](length);\n        resolved = new bool[](length);\n        \n        for (uint256 i = 0; i < length; i++) {\n            AttackData storage attack = attackHistory[i];\n            nodeAddresses[i] = attack.node;\n            timestamps[i] = attack.timestamp;\n            anomalyScores[i] = attack.anomalyScore;\n            resolved[i] = attack.resolved;\n        }\n        \n        return (nodeAddresses, timestamps, anomalyScores, resolved);\n    }\n    \n    /**\n     * @dev Submits a new transaction to the network\n     */\n    function submitTransaction(\n        address _receiver,\n        uint256 _amount,\n        uint256 _baseFee\n    ) external payable nonReentrant returns (bytes32) {\n        // Calculate dynamic fee\n        uint256 dynamicFee = calculateDynamicFee(_baseFee);\n        require(msg.value >= dynamicFee, \"Insufficient fee\");\n        \n        // Generate transaction hash\n        bytes32 txHash = keccak256(abi.encodePacked(\n            msg.sender,\n            _receiver,\n            _amount,\n            dynamicFee,\n            block.timestamp\n        ));\n        \n        // Create transaction record\n        Transaction memory newTx = Transaction({\n            txHash: txHash,\n            sender: msg.sender,\n            receiver: _receiver,\n            amount: _amount,\n            fee: dynamicFee,\n            timestamp: block.timestamp,\n            processingTime: 0,\n            completed: false\n        });\n        \n        transactions[txHash] = newTx;\n        transactionHashes.push(txHash);\n        \n        // Update network congestion\n        pendingTransactions++;\n        _updateCongestionIndex();\n        \n        // Assign to shard using randomized selection\n        assignTransactionToShard(txHash);\n        \n        emit TransactionSubmitted(txHash, msg.sender, _receiver, _amount, dynamicFee);\n        \n        // Refund excess fee\n        if (msg.value > dynamicFee) {\n            payable(msg.sender).transfer(msg.value - dynamicFee);\n        }\n        \n        return txHash;\n    }\n    \n    /**\n     * @dev Processes and completes a transaction\n     * @notice This would typically be called by validators/miners\n     */\n    function processTransaction(bytes32 _txHash) external onlyOwner nonReentrant {\n        Transaction storage transaction = transactions[_txHash];\n        require(transaction.txHash == _txHash, \"Transaction does not exist\");\n        require(!transaction.completed, \"Transaction already completed\");\n        \n        // Update transaction status\n        transaction.completed = true;\n        transaction.processingTime = block.timestamp - transaction.timestamp;\n        \n        // Update network and shard status\n        pendingTransactions--;\n        _updateCongestionIndex();\n        \n        // Complete transaction in shard\n        uint256 shardId = transactionToShard[_txHash];\n        if (shardId > 0 && shards[shardId].currentLoad > 0) {\n            shards[shardId].currentLoad--;\n        }\n        delete transactionToShard[_txHash];\n        \n        emit TransactionCompleted(_txHash, transaction.processingTime);\n    }\n    \n    /**\n     * @dev Gets all transaction hashes\n     */\n    function getAllTransactionHashes() external view returns (bytes32[] memory) {\n        return transactionHashes;\n    }\n    \n    /**\n     * @dev Withdraws accumulated fees\n     */\n    function withdrawFees() external onlyOwner {\n        payable(owner()).transfer(address(this).balance);\n    }\n}",
  "sourcePath": "C:\\Users\\Bonsu\\Documents\\Blockchain Multi Industrial Service Center\\Blockchain MultiIndustrial Projects\\BlockchainMultiIndustryRepo\\contracts\\BCADN\\BCADN.sol",
  "compiler": {
    "name": "solc",
    "version": "0.8.20+commit.a1b79de6.Emscripten.clang"
  },
  "schemaVersion": "3.4.16",
  "updatedAt": "2025-04-16T14:10:52.218Z",
  "networkType": "ethereum",
  "devdoc": {
    "details": "Implementation of the BCADN architecture with dynamic node weighting,  probability gap, and proactive defense mechanism",
    "kind": "dev",
    "methods": {
      "addNodeToShard(uint256,address)": {
        "details": "Adds a node to a shard"
      },
      "adjustToProbabilityGap(uint256)": {
        "details": "Adjusts a probability to fall within the gap if needed"
      },
      "assignTransactionToShard(bytes32)": {
        "details": "Assigns a transaction to a shard using randomized selection"
      },
      "calculateDynamicFee(uint256)": {
        "details": "Calculates dynamic fee based on current congestion",
        "params": {
          "_baseFee": "Base transaction fee"
        },
        "returns": {
          "_0": "dynamicFee The adjusted transaction fee"
        }
      },
      "checkProbationStatus(address)": {
        "details": "Checks probation status and potentially reintegrates nodes"
      },
      "createShard(uint256)": {
        "details": "Creates a new shard"
      },
      "getAllNodes()": {
        "details": "Gets all nodes with their current weights and status"
      },
      "getAllShards()": {
        "details": "Returns all shard IDs"
      },
      "getAllTransactionHashes()": {
        "details": "Gets all transaction hashes"
      },
      "getAttackHistory()": {
        "details": "Gets all attack history"
      },
      "isWithinGap(uint256)": {
        "details": "Checks if a given probability falls within the allowed gap"
      },
      "owner()": {
        "details": "Returns the address of the current owner."
      },
      "processTransaction(bytes32)": {
        "details": "Processes and completes a transaction"
      },
      "recordAnomaly(address,uint256,string)": {
        "details": "Records a detected anomaly"
      },
      "registerNode(address,uint256,uint256)": {
        "details": "Registers a new node in the network"
      },
      "removeNodeFromShard(uint256,address)": {
        "details": "Removes a node from a shard"
      },
      "renounceOwnership()": {
        "details": "Leaves the contract without owner. It will not be possible to call `onlyOwner` functions. Can only be called by the current owner. NOTE: Renouncing ownership will leave the contract without an owner, thereby disabling any functionality that is only available to the owner."
      },
      "resolveAnomaly(uint256)": {
        "details": "Marks an anomaly as resolved"
      },
      "setNetworkCapacity(uint256)": {
        "details": "Updates network capacity"
      },
      "submitTransaction(address,uint256,uint256)": {
        "details": "Submits a new transaction to the network"
      },
      "transferOwnership(address)": {
        "details": "Transfers ownership of the contract to a new account (`newOwner`). Can only be called by the current owner."
      },
      "updateNetworkParams(uint256,uint256,uint256,uint256,uint256)": {
        "details": "Updates network parameters"
      },
      "updateNodeMetrics(address,uint256,uint256,uint256)": {
        "details": "Updates a node's performance metrics"
      },
      "updateProbabilityRange(uint256,uint256)": {
        "details": "Updates the probability range for the gap mechanism"
      },
      "updateThresholds(uint256,uint256)": {
        "details": "Updates the anomaly threshold and probation period"
      },
      "withdrawFees()": {
        "details": "Withdraws accumulated fees"
      }
    },
    "title": "BCADN - Blockchain-Cellular Adaptive Decentralized Network",
    "version": 1
  },
  "userdoc": {
    "kind": "user",
    "methods": {
      "processTransaction(bytes32)": {
        "notice": "This would typically be called by validators/miners"
      }
    },
    "version": 1
  }
}