{
  "contractName": "BlockchainRegistryBase",
  "abi": [
    {
      "anonymous": false,
      "inputs": [
        {
          "indexed": true,
          "internalType": "string",
          "name": "blockchainID",
          "type": "string"
        },
        {
          "indexed": false,
          "internalType": "uint256",
          "name": "timestamp",
          "type": "uint256"
        }
      ],
      "name": "BlockchainDeactivated",
      "type": "event"
    },
    {
      "anonymous": false,
      "inputs": [
        {
          "indexed": true,
          "internalType": "string",
          "name": "blockchainID",
          "type": "string"
        },
        {
          "indexed": false,
          "internalType": "uint256",
          "name": "timestamp",
          "type": "uint256"
        }
      ],
      "name": "BlockchainRegistered",
      "type": "event"
    },
    {
      "anonymous": false,
      "inputs": [
        {
          "indexed": true,
          "internalType": "string",
          "name": "blockchainID",
          "type": "string"
        },
        {
          "indexed": false,
          "internalType": "bytes32",
          "name": "requirement",
          "type": "bytes32"
        },
        {
          "indexed": false,
          "internalType": "bool",
          "name": "met",
          "type": "bool"
        }
      ],
      "name": "RequirementUpdated",
      "type": "event"
    },
    {
      "anonymous": false,
      "inputs": [
        {
          "indexed": true,
          "internalType": "string",
          "name": "blockchainID",
          "type": "string"
        },
        {
          "indexed": false,
          "internalType": "string",
          "name": "alertType",
          "type": "string"
        },
        {
          "indexed": false,
          "internalType": "uint256",
          "name": "timestamp",
          "type": "uint256"
        }
      ],
      "name": "SecurityAlertRaised",
      "type": "event"
    },
    {
      "inputs": [
        {
          "internalType": "uint256",
          "name": "",
          "type": "uint256"
        }
      ],
      "name": "allBlockchainIDs",
      "outputs": [
        {
          "internalType": "string",
          "name": "",
          "type": "string"
        }
      ],
      "stateMutability": "view",
      "type": "function",
      "constant": true
    },
    {
      "inputs": [
        {
          "internalType": "string",
          "name": "",
          "type": "string"
        }
      ],
      "name": "registeredBlockchains",
      "outputs": [
        {
          "internalType": "string",
          "name": "blockchainID",
          "type": "string"
        },
        {
          "internalType": "string",
          "name": "dataStructure",
          "type": "string"
        },
        {
          "internalType": "string",
          "name": "programmingLanguage",
          "type": "string"
        },
        {
          "internalType": "string",
          "name": "networkProtocol",
          "type": "string"
        },
        {
          "internalType": "uint256",
          "name": "currentState",
          "type": "uint256"
        },
        {
          "internalType": "uint256",
          "name": "registrationTime",
          "type": "uint256"
        },
        {
          "internalType": "bool",
          "name": "isActive",
          "type": "bool"
        }
      ],
      "stateMutability": "view",
      "type": "function",
      "constant": true
    },
    {
      "inputs": [
        {
          "internalType": "uint256",
          "name": "",
          "type": "uint256"
        }
      ],
      "name": "registrationRequirements",
      "outputs": [
        {
          "internalType": "bytes32",
          "name": "",
          "type": "bytes32"
        }
      ],
      "stateMutability": "view",
      "type": "function",
      "constant": true
    }
  ],
  "bytecode": "0x608060405234801561000f575f80fd5b506105e38061001d5f395ff3fe608060405234801561000f575f80fd5b506004361061003f575f3560e01c80632ae741be1461004357806338cf37f0146100695780635d6cf7681461008f575b5f80fd5b6100566100513660046103d5565b6100af565b6040519081526020015b60405180910390f35b61007c610077366004610400565b6100ce565b60405161006097969594939291906104ee565b6100a261009d3660046103d5565b61032f565b604051610060919061055c565b600281815481106100be575f80fd5b5f91825260209091200154905081565b80516020818301810180515f825292820191909301209152805481906100f390610575565b80601f016020809104026020016040519081016040528092919081815260200182805461011f90610575565b801561016a5780601f106101415761010080835404028352916020019161016a565b820191905f5260205f20905b81548152906001019060200180831161014d57829003601f168201915b50505050509080600101805461017f90610575565b80601f01602080910402602001604051908101604052809291908181526020018280546101ab90610575565b80156101f65780601f106101cd576101008083540402835291602001916101f6565b820191905f5260205f20905b8154815290600101906020018083116101d957829003601f168201915b50505050509080600201805461020b90610575565b80601f016020809104026020016040519081016040528092919081815260200182805461023790610575565b80156102825780601f1061025957610100808354040283529160200191610282565b820191905f5260205f20905b81548152906001019060200180831161026557829003601f168201915b50505050509080600301805461029790610575565b80601f01602080910402602001604051908101604052809291908181526020018280546102c390610575565b801561030e5780601f106102e55761010080835404028352916020019161030e565b820191905f5260205f20905b8154815290600101906020018083116102f157829003601f168201915b50505050600483015460058401546006909401549293909290915060ff1687565b6001818154811061033e575f80fd5b905f5260205f20015f91509050805461035690610575565b80601f016020809104026020016040519081016040528092919081815260200182805461038290610575565b80156103cd5780601f106103a4576101008083540402835291602001916103cd565b820191905f5260205f20905b8154815290600101906020018083116103b057829003601f168201915b505050505081565b5f602082840312156103e5575f80fd5b5035919050565b634e487b7160e01b5f52604160045260245ffd5b5f60208284031215610410575f80fd5b813567ffffffffffffffff80821115610427575f80fd5b818401915084601f83011261043a575f80fd5b81358181111561044c5761044c6103ec565b604051601f8201601f19908116603f01168101908382118183101715610474576104746103ec565b8160405282815287602084870101111561048c575f80fd5b826020860160208301375f928101602001929092525095945050505050565b5f81518084525f5b818110156104cf576020818501810151868301820152016104b3565b505f602082860101526020601f19601f83011685010191505092915050565b60e081525f61050060e083018a6104ab565b8281036020840152610512818a6104ab565b9050828103604084015261052681896104ab565b9050828103606084015261053a81886104ab565b6080840196909652505060a0810192909252151560c090910152949350505050565b602081525f61056e60208301846104ab565b9392505050565b600181811c9082168061058957607f821691505b6020821081036105a757634e487b7160e01b5f52602260045260245ffd5b5091905056fea26469706673582212206eb99b6ca1bf9125b8ed991d2d4e0e6067019bb2ce25258d6cfa6c5d57ddbfa964736f6c63430008140033",
  "immutableReferences": {},
  "source": "// SPDX-License-Identifier: MIT\r\npragma solidity ^0.8.0;\r\n\r\nimport \"@openzeppelin/contracts/access/Ownable.sol\";\r\nimport \"@openzeppelin/contracts/security/Pausable.sol\";\r\nimport \"@openzeppelin/contracts/security/ReentrancyGuard.sol\";\r\n\r\n/**\r\n * @title BlockchainRegistryBase\r\n * @dev Base contract containing shared data structures and events\r\n */\r\ncontract BlockchainRegistryBase {\r\n    struct BlockchainInfo {\r\n        string blockchainID;          // Unique identifier for the blockchain\r\n        string dataStructure;         // Data structure format\r\n        string programmingLanguage;   // Primary programming language\r\n        string networkProtocol;       // Network protocol format\r\n        uint256 currentState;         // Current state of the blockchain\r\n        uint256 registrationTime;     // When the blockchain was registered\r\n        bool isActive;                // Whether the blockchain is currently active\r\n        mapping(bytes32 => bool) metRequirements;  // Track which requirements are met\r\n    }\r\n\r\n    // Events\r\n    event BlockchainRegistered(string indexed blockchainID, uint256 timestamp);\r\n    event BlockchainDeactivated(string indexed blockchainID, uint256 timestamp);\r\n    event RequirementUpdated(string indexed blockchainID, bytes32 requirement, bool met);\r\n    event SecurityAlertRaised(string indexed blockchainID, string alertType, uint256 timestamp);\r\n    \r\n    // Mapping from blockchain ID to its information\r\n    mapping(string => BlockchainInfo) public registeredBlockchains;\r\n    \r\n    // Array to keep track of all registered blockchain IDs\r\n    string[] public allBlockchainIDs;\r\n    \r\n    // Required characteristics for registration\r\n    bytes32[] public registrationRequirements;\r\n}\r\n\r\n/**\r\n * @title BlockchainRegistry\r\n * @dev Handles the registration of blockchains in the PAYS system\r\n */\r\ncontract BlockchainRegistry is BlockchainRegistryBase, Ownable, Pausable, ReentrancyGuard {\r\n    constructor() {\r\n        // Initialize default registration requirements\r\n        registrationRequirements.push(keccak256(\"VALID_CONSENSUS\"));\r\n        registrationRequirements.push(keccak256(\"SECURE_PROTOCOL\"));\r\n        registrationRequirements.push(keccak256(\"HEADER_VERIFICATION\"));\r\n    }\r\n\r\n    /**\r\n     * @dev Register a new blockchain with the system\r\n     */\r\n    function registerBlockchain(\r\n        string memory _blockchainID,\r\n        string memory _dataStructure,\r\n        string memory _programmingLanguage,\r\n        string memory _networkProtocol\r\n    ) external whenNotPaused nonReentrant {\r\n        require(bytes(_blockchainID).length > 0, \"Invalid blockchain ID\");\r\n        require(!registeredBlockchains[_blockchainID].isActive, \"Already registered\");\r\n\r\n        BlockchainInfo storage newChain = registeredBlockchains[_blockchainID];\r\n        newChain.blockchainID = _blockchainID;\r\n        newChain.dataStructure = _dataStructure;\r\n        newChain.programmingLanguage = _programmingLanguage;\r\n        newChain.networkProtocol = _networkProtocol;\r\n        newChain.registrationTime = block.timestamp;\r\n        newChain.isActive = true;\r\n        \r\n        allBlockchainIDs.push(_blockchainID);\r\n        \r\n        emit BlockchainRegistered(_blockchainID, block.timestamp);\r\n    }\r\n\r\n    /**\r\n     * @dev Update requirement status for a blockchain\r\n     */\r\n    function updateRequirementStatus(\r\n        string memory _blockchainID,\r\n        bytes32 _requirement,\r\n        bool _met\r\n    ) external onlyOwner {\r\n        require(registeredBlockchains[_blockchainID].isActive, \"Blockchain not registered\");\r\n        \r\n        registeredBlockchains[_blockchainID].metRequirements[_requirement] = _met;\r\n        emit RequirementUpdated(_blockchainID, _requirement, _met);\r\n    }\r\n\r\n    /**\r\n     * @dev Deactivate a blockchain registration\r\n     */\r\n    function deactivateBlockchain(string memory _blockchainID) external onlyOwner {\r\n        require(registeredBlockchains[_blockchainID].isActive, \"Blockchain not active\");\r\n        \r\n        registeredBlockchains[_blockchainID].isActive = false;\r\n        emit BlockchainDeactivated(_blockchainID, block.timestamp);\r\n    }\r\n}\r\n\r\n/**\r\n * @title BlockchainMonitor\r\n * @dev Monitors registered blockchains for security and connectivity\r\n */\r\ncontract BlockchainMonitor is BlockchainRegistry {\r\n    struct MonitoringInfo {\r\n        uint256 lastCheckTimestamp;\r\n        uint256 connectionQuality;    // 0-100 scale\r\n        uint256 securityScore;        // 0-100 scale\r\n        bool isConnected;\r\n    }\r\n\r\n    mapping(string => MonitoringInfo) public blockchainMonitoring;\r\n\r\n    event ConnectionStatusUpdated(string indexed blockchainID, bool connected, uint256 quality);\r\n    event SecurityScoreUpdated(string indexed blockchainID, uint256 score);\r\n\r\n    /**\r\n     * @dev Update monitoring information for a blockchain\r\n     */\r\n    function updateMonitoringInfo(\r\n        string memory _blockchainID,\r\n        bool _isConnected,\r\n        uint256 _connectionQuality,\r\n        uint256 _securityScore\r\n    ) external onlyOwner {\r\n        require(registeredBlockchains[_blockchainID].isActive, \"Blockchain not active\");\r\n        require(_connectionQuality <= 100, \"Invalid connection quality\");\r\n        require(_securityScore <= 100, \"Invalid security score\");\r\n\r\n        MonitoringInfo storage info = blockchainMonitoring[_blockchainID];\r\n        info.lastCheckTimestamp = block.timestamp;\r\n        info.isConnected = _isConnected;\r\n        info.connectionQuality = _connectionQuality;\r\n        info.securityScore = _securityScore;\r\n\r\n        emit ConnectionStatusUpdated(_blockchainID, _isConnected, _connectionQuality);\r\n        emit SecurityScoreUpdated(_blockchainID, _securityScore);\r\n\r\n        // Raise security alert if score is too low\r\n        if (_securityScore < 50) {\r\n            emit SecurityAlertRaised(_blockchainID, \"LOW_SECURITY_SCORE\", block.timestamp);\r\n        }\r\n    }\r\n\r\n    /**\r\n     * @dev Get monitoring information for a blockchain\r\n     */\r\n    function getMonitoringInfo(string memory _blockchainID) \r\n        external \r\n        view \r\n        returns (\r\n            uint256 lastCheck,\r\n            bool connected,\r\n            uint256 connectionQuality,\r\n            uint256 securityScore\r\n        )\r\n    {\r\n        MonitoringInfo storage info = blockchainMonitoring[_blockchainID];\r\n        return (\r\n            info.lastCheckTimestamp,\r\n            info.isConnected,\r\n            info.connectionQuality,\r\n            info.securityScore\r\n        );\r\n    }\r\n}",
  "sourcePath": "C:\\Users\\Bonsu\\Documents\\Blockchain Multi Industrial Service Center\\Blockchain MultiIndustrial Projects\\BlockchainMultiIndustryRepo\\contracts\\blockchain\\BlockchainRegistryBase.sol",
  "compiler": {
    "name": "solc",
    "version": "0.8.20+commit.a1b79de6.Emscripten.clang"
  },
  "schemaVersion": "3.4.16",
  "updatedAt": "2025-04-16T14:10:40.411Z",
  "networkType": "ethereum",
  "devdoc": {
    "details": "Base contract containing shared data structures and events",
    "kind": "dev",
    "methods": {},
    "title": "BlockchainRegistryBase",
    "version": 1
  },
  "userdoc": {
    "kind": "user",
    "methods": {},
    "version": 1
  }
}