{
  "contractName": "BlockchainRegistry",
  "abi": [
    {
      "inputs": [],
      "stateMutability": "nonpayable",
      "type": "constructor"
    },
    {
      "anonymous": false,
      "inputs": [
        {
          "indexed": true,
          "internalType": "string",
          "name": "blockchainID",
          "type": "string"
        },
        {
          "indexed": false,
          "internalType": "uint256",
          "name": "timestamp",
          "type": "uint256"
        }
      ],
      "name": "BlockchainDeactivated",
      "type": "event"
    },
    {
      "anonymous": false,
      "inputs": [
        {
          "indexed": true,
          "internalType": "string",
          "name": "blockchainID",
          "type": "string"
        },
        {
          "indexed": false,
          "internalType": "uint256",
          "name": "timestamp",
          "type": "uint256"
        }
      ],
      "name": "BlockchainRegistered",
      "type": "event"
    },
    {
      "anonymous": false,
      "inputs": [
        {
          "indexed": true,
          "internalType": "address",
          "name": "previousOwner",
          "type": "address"
        },
        {
          "indexed": true,
          "internalType": "address",
          "name": "newOwner",
          "type": "address"
        }
      ],
      "name": "OwnershipTransferred",
      "type": "event"
    },
    {
      "anonymous": false,
      "inputs": [
        {
          "indexed": false,
          "internalType": "address",
          "name": "account",
          "type": "address"
        }
      ],
      "name": "Paused",
      "type": "event"
    },
    {
      "anonymous": false,
      "inputs": [
        {
          "indexed": true,
          "internalType": "string",
          "name": "blockchainID",
          "type": "string"
        },
        {
          "indexed": false,
          "internalType": "bytes32",
          "name": "requirement",
          "type": "bytes32"
        },
        {
          "indexed": false,
          "internalType": "bool",
          "name": "met",
          "type": "bool"
        }
      ],
      "name": "RequirementUpdated",
      "type": "event"
    },
    {
      "anonymous": false,
      "inputs": [
        {
          "indexed": true,
          "internalType": "string",
          "name": "blockchainID",
          "type": "string"
        },
        {
          "indexed": false,
          "internalType": "string",
          "name": "alertType",
          "type": "string"
        },
        {
          "indexed": false,
          "internalType": "uint256",
          "name": "timestamp",
          "type": "uint256"
        }
      ],
      "name": "SecurityAlertRaised",
      "type": "event"
    },
    {
      "anonymous": false,
      "inputs": [
        {
          "indexed": false,
          "internalType": "address",
          "name": "account",
          "type": "address"
        }
      ],
      "name": "Unpaused",
      "type": "event"
    },
    {
      "inputs": [
        {
          "internalType": "uint256",
          "name": "",
          "type": "uint256"
        }
      ],
      "name": "allBlockchainIDs",
      "outputs": [
        {
          "internalType": "string",
          "name": "",
          "type": "string"
        }
      ],
      "stateMutability": "view",
      "type": "function",
      "constant": true
    },
    {
      "inputs": [],
      "name": "owner",
      "outputs": [
        {
          "internalType": "address",
          "name": "",
          "type": "address"
        }
      ],
      "stateMutability": "view",
      "type": "function",
      "constant": true
    },
    {
      "inputs": [],
      "name": "paused",
      "outputs": [
        {
          "internalType": "bool",
          "name": "",
          "type": "bool"
        }
      ],
      "stateMutability": "view",
      "type": "function",
      "constant": true
    },
    {
      "inputs": [
        {
          "internalType": "string",
          "name": "",
          "type": "string"
        }
      ],
      "name": "registeredBlockchains",
      "outputs": [
        {
          "internalType": "string",
          "name": "blockchainID",
          "type": "string"
        },
        {
          "internalType": "string",
          "name": "dataStructure",
          "type": "string"
        },
        {
          "internalType": "string",
          "name": "programmingLanguage",
          "type": "string"
        },
        {
          "internalType": "string",
          "name": "networkProtocol",
          "type": "string"
        },
        {
          "internalType": "uint256",
          "name": "currentState",
          "type": "uint256"
        },
        {
          "internalType": "uint256",
          "name": "registrationTime",
          "type": "uint256"
        },
        {
          "internalType": "bool",
          "name": "isActive",
          "type": "bool"
        }
      ],
      "stateMutability": "view",
      "type": "function",
      "constant": true
    },
    {
      "inputs": [
        {
          "internalType": "uint256",
          "name": "",
          "type": "uint256"
        }
      ],
      "name": "registrationRequirements",
      "outputs": [
        {
          "internalType": "bytes32",
          "name": "",
          "type": "bytes32"
        }
      ],
      "stateMutability": "view",
      "type": "function",
      "constant": true
    },
    {
      "inputs": [],
      "name": "renounceOwnership",
      "outputs": [],
      "stateMutability": "nonpayable",
      "type": "function"
    },
    {
      "inputs": [
        {
          "internalType": "address",
          "name": "newOwner",
          "type": "address"
        }
      ],
      "name": "transferOwnership",
      "outputs": [],
      "stateMutability": "nonpayable",
      "type": "function"
    },
    {
      "inputs": [
        {
          "internalType": "string",
          "name": "_blockchainID",
          "type": "string"
        },
        {
          "internalType": "string",
          "name": "_dataStructure",
          "type": "string"
        },
        {
          "internalType": "string",
          "name": "_programmingLanguage",
          "type": "string"
        },
        {
          "internalType": "string",
          "name": "_networkProtocol",
          "type": "string"
        }
      ],
      "name": "registerBlockchain",
      "outputs": [],
      "stateMutability": "nonpayable",
      "type": "function"
    },
    {
      "inputs": [
        {
          "internalType": "string",
          "name": "_blockchainID",
          "type": "string"
        },
        {
          "internalType": "bytes32",
          "name": "_requirement",
          "type": "bytes32"
        },
        {
          "internalType": "bool",
          "name": "_met",
          "type": "bool"
        }
      ],
      "name": "updateRequirementStatus",
      "outputs": [],
      "stateMutability": "nonpayable",
      "type": "function"
    },
    {
      "inputs": [
        {
          "internalType": "string",
          "name": "_blockchainID",
          "type": "string"
        }
      ],
      "name": "deactivateBlockchain",
      "outputs": [],
      "stateMutability": "nonpayable",
      "type": "function"
    }
  ],
  "bytecode": "0x608060405234801561000f575f80fd5b50610019336100dd565b6003805460ff60a01b19169055600160048190556002805480830182555f8290527f528df42986b9a769889b14dfe3e72b1122ae9654c0bad54ff789b588ced831007f405787fa12a823e0f2b7631cc41b3ba8828b3321ca811111fa75cd3aa3bb5ace91820155815480840183557f22686843848346ccd56af0a07244c85039147de4f51293187579f736ddaa8c969082015581549283019091557f1a266a7e5fe931dca671b98b043b87f483fe5a44e2f4528836cb2f152c9ba9c991015561012e565b600380546001600160a01b038381166001600160a01b0319831681179093556040519116919082907f8be0079c531659141344cd1fd0a4f28419497f9722a3daafe3b4186f6b6457e0905f90a35050565b610ed68061013b5f395ff3fe608060405234801561000f575f80fd5b506004361061009b575f3560e01c80635c975abb116100635780635c975abb146101265780635d6cf76814610143578063715018a6146101635780638da5cb5b1461016b578063f2fde38b14610186575f80fd5b80630c80de391461009f57806320736b8b146100b45780632ae741be146100c7578063361a750f146100ed57806338cf37f014610100575b5f80fd5b6100b26100ad366004610af7565b610199565b005b6100b26100c2366004610b9d565b610361565b6100da6100d5366004610bd7565b61044e565b6040519081526020015b60405180910390f35b6100b26100fb366004610bee565b61046d565b61011361010e366004610b9d565b610576565b6040516100e49796959493929190610c96565b600354600160a01b900460ff1660405190151581526020016100e4565b610156610151366004610bd7565b6107d7565b6040516100e49190610d04565b6100b261087d565b6003546040516001600160a01b0390911681526020016100e4565b6100b2610194366004610d1d565b610890565b6101a1610909565b6101a9610956565b5f8451116101f65760405162461bcd60e51b8152602060048201526015602482015274125b9d985b1a5908189b1bd8dad8da185a5b881251605a1b60448201526064015b60405180910390fd5b5f846040516102059190610d43565b9081526040519081900360200190206006015460ff161561025d5760405162461bcd60e51b8152602060048201526012602482015271105b1c9958591e481c9959da5cdd195c995960721b60448201526064016101ed565b5f808560405161026d9190610d43565b9081526040519081900360200190209050806102898682610de4565b50600181016102988582610de4565b50600281016102a78482610de4565b50600381016102b68382610de4565b5042600582015560068101805460ff19166001908117909155805480820182555f919091527fb10e2d527612073b26eecdfd717e6a320cf44b4afac2b0732d9fcbe2b7fa0cf6016103078682610de4565b50846040516103169190610d43565b604051908190038120428252907fcf2b19499ec1b1490335489ea94fd56b1748d902e7af2ae536a125d545b9ed889060200160405180910390a25061035b6001600455565b50505050565b6103696109af565b5f816040516103789190610d43565b9081526040519081900360200190206006015460ff166103d25760405162461bcd60e51b8152602060048201526015602482015274426c6f636b636861696e206e6f742061637469766560581b60448201526064016101ed565b5f80826040516103e29190610d43565b908152604051908190036020018120600601805492151560ff1990931692909217909155610411908290610d43565b604051908190038120428252907f0f82cb17ee5a2e0b92e9b76e8f3f6ec5925ba87a3a826eeae2c967997f1c56289060200160405180910390a250565b6002818154811061045d575f80fd5b5f91825260209091200154905081565b6104756109af565b5f836040516104849190610d43565b9081526040519081900360200190206006015460ff166104e65760405162461bcd60e51b815260206004820152601960248201527f426c6f636b636861696e206e6f7420726567697374657265640000000000000060448201526064016101ed565b805f846040516104f69190610d43565b90815260408051602092819003830181205f87815260079091019093529120805460ff191692151592909217909155610530908490610d43565b604080519182900382208483528315156020840152917f6660be2e51b659448a4bcad38122afaea200f6104ce7c624b9043de4189318e3910160405180910390a2505050565b80516020818301810180515f8252928201919093012091528054819061059b90610d5e565b80601f01602080910402602001604051908101604052809291908181526020018280546105c790610d5e565b80156106125780601f106105e957610100808354040283529160200191610612565b820191905f5260205f20905b8154815290600101906020018083116105f557829003601f168201915b50505050509080600101805461062790610d5e565b80601f016020809104026020016040519081016040528092919081815260200182805461065390610d5e565b801561069e5780601f106106755761010080835404028352916020019161069e565b820191905f5260205f20905b81548152906001019060200180831161068157829003601f168201915b5050505050908060020180546106b390610d5e565b80601f01602080910402602001604051908101604052809291908181526020018280546106df90610d5e565b801561072a5780601f106107015761010080835404028352916020019161072a565b820191905f5260205f20905b81548152906001019060200180831161070d57829003601f168201915b50505050509080600301805461073f90610d5e565b80601f016020809104026020016040519081016040528092919081815260200182805461076b90610d5e565b80156107b65780601f1061078d576101008083540402835291602001916107b6565b820191905f5260205f20905b81548152906001019060200180831161079957829003601f168201915b50505050600483015460058401546006909401549293909290915060ff1687565b600181815481106107e6575f80fd5b905f5260205f20015f9150905080546107fe90610d5e565b80601f016020809104026020016040519081016040528092919081815260200182805461082a90610d5e565b80156108755780601f1061084c57610100808354040283529160200191610875565b820191905f5260205f20905b81548152906001019060200180831161085857829003601f168201915b505050505081565b6108856109af565b61088e5f610a09565b565b6108986109af565b6001600160a01b0381166108fd5760405162461bcd60e51b815260206004820152602660248201527f4f776e61626c653a206e6577206f776e657220697320746865207a65726f206160448201526564647265737360d01b60648201526084016101ed565b61090681610a09565b50565b600354600160a01b900460ff161561088e5760405162461bcd60e51b815260206004820152601060248201526f14185d5cd8589b194e881c185d5cd95960821b60448201526064016101ed565b6002600454036109a85760405162461bcd60e51b815260206004820152601f60248201527f5265656e7472616e637947756172643a207265656e7472616e742063616c6c0060448201526064016101ed565b6002600455565b6003546001600160a01b0316331461088e5760405162461bcd60e51b815260206004820181905260248201527f4f776e61626c653a2063616c6c6572206973206e6f7420746865206f776e657260448201526064016101ed565b600380546001600160a01b038381166001600160a01b0319831681179093556040519116919082907f8be0079c531659141344cd1fd0a4f28419497f9722a3daafe3b4186f6b6457e0905f90a35050565b634e487b7160e01b5f52604160045260245ffd5b5f82601f830112610a7d575f80fd5b813567ffffffffffffffff80821115610a9857610a98610a5a565b604051601f8301601f19908116603f01168101908282118183101715610ac057610ac0610a5a565b81604052838152866020858801011115610ad8575f80fd5b836020870160208301375f602085830101528094505050505092915050565b5f805f8060808587031215610b0a575f80fd5b843567ffffffffffffffff80821115610b21575f80fd5b610b2d88838901610a6e565b95506020870135915080821115610b42575f80fd5b610b4e88838901610a6e565b94506040870135915080821115610b63575f80fd5b610b6f88838901610a6e565b93506060870135915080821115610b84575f80fd5b50610b9187828801610a6e565b91505092959194509250565b5f60208284031215610bad575f80fd5b813567ffffffffffffffff811115610bc3575f80fd5b610bcf84828501610a6e565b949350505050565b5f60208284031215610be7575f80fd5b5035919050565b5f805f60608486031215610c00575f80fd5b833567ffffffffffffffff811115610c16575f80fd5b610c2286828701610a6e565b9350506020840135915060408401358015158114610c3e575f80fd5b809150509250925092565b5f5b83811015610c63578181015183820152602001610c4b565b50505f910152565b5f8151808452610c82816020860160208601610c49565b601f01601f19169290920160200192915050565b60e081525f610ca860e083018a610c6b565b8281036020840152610cba818a610c6b565b90508281036040840152610cce8189610c6b565b90508281036060840152610ce28188610c6b565b6080840196909652505060a0810192909252151560c090910152949350505050565b602081525f610d166020830184610c6b565b9392505050565b5f60208284031215610d2d575f80fd5b81356001600160a01b0381168114610d16575f80fd5b5f8251610d54818460208701610c49565b9190910192915050565b600181811c90821680610d7257607f821691505b602082108103610d9057634e487b7160e01b5f52602260045260245ffd5b50919050565b601f821115610ddf575f81815260208120601f850160051c81016020861015610dbc5750805b601f850160051c820191505b81811015610ddb57828155600101610dc8565b5050505b505050565b815167ffffffffffffffff811115610dfe57610dfe610a5a565b610e1281610e0c8454610d5e565b84610d96565b602080601f831160018114610e45575f8415610e2e5750858301515b5f19600386901b1c1916600185901b178555610ddb565b5f85815260208120601f198616915b82811015610e7357888601518255948401946001909101908401610e54565b5085821015610e9057878501515f19600388901b60f8161c191681555b5050505050600190811b0190555056fea26469706673582212206c426bcc269141b4f39111cf23dbbbdc98f2695cd0b6c9a9a81a6cdeb3fa856f64736f6c63430008140033",
  "immutableReferences": {},
  "source": "// SPDX-License-Identifier: MIT\npragma solidity ^0.8.0;\n\nimport \"@openzeppelin/contracts/access/Ownable.sol\";\nimport \"@openzeppelin/contracts/security/Pausable.sol\";\nimport \"@openzeppelin/contracts/security/ReentrancyGuard.sol\";\n\n/**\n * @title BlockchainRegistryBase\n * @dev Base contract containing shared data structures and events\n */\ncontract BlockchainRegistryBase {\n    struct BlockchainInfo {\n        string blockchainID;          // Unique identifier for the blockchain\n        string dataStructure;         // Data structure format\n        string programmingLanguage;   // Primary programming language\n        string networkProtocol;       // Network protocol format\n        uint256 currentState;         // Current state of the blockchain\n        uint256 registrationTime;     // When the blockchain was registered\n        bool isActive;                // Whether the blockchain is currently active\n        mapping(bytes32 => bool) metRequirements;  // Track which requirements are met\n    }\n\n    // Events\n    event BlockchainRegistered(string indexed blockchainID, uint256 timestamp);\n    event BlockchainDeactivated(string indexed blockchainID, uint256 timestamp);\n    event RequirementUpdated(string indexed blockchainID, bytes32 requirement, bool met);\n    event SecurityAlertRaised(string indexed blockchainID, string alertType, uint256 timestamp);\n    \n    // Mapping from blockchain ID to its information\n    mapping(string => BlockchainInfo) public registeredBlockchains;\n    \n    // Array to keep track of all registered blockchain IDs\n    string[] public allBlockchainIDs;\n    \n    // Required characteristics for registration\n    bytes32[] public registrationRequirements;\n}\n\n/**\n * @title BlockchainRegistry\n * @dev Handles the registration of blockchains in the PAYS system\n */\ncontract BlockchainRegistry is BlockchainRegistryBase, Ownable, Pausable, ReentrancyGuard {\n    constructor() {\n        // Initialize default registration requirements\n        registrationRequirements.push(keccak256(\"VALID_CONSENSUS\"));\n        registrationRequirements.push(keccak256(\"SECURE_PROTOCOL\"));\n        registrationRequirements.push(keccak256(\"HEADER_VERIFICATION\"));\n    }\n\n    /**\n     * @dev Register a new blockchain with the system\n     */\n    function registerBlockchain(\n        string memory _blockchainID,\n        string memory _dataStructure,\n        string memory _programmingLanguage,\n        string memory _networkProtocol\n    ) external whenNotPaused nonReentrant {\n        require(bytes(_blockchainID).length > 0, \"Invalid blockchain ID\");\n        require(!registeredBlockchains[_blockchainID].isActive, \"Already registered\");\n\n        BlockchainInfo storage newChain = registeredBlockchains[_blockchainID];\n        newChain.blockchainID = _blockchainID;\n        newChain.dataStructure = _dataStructure;\n        newChain.programmingLanguage = _programmingLanguage;\n        newChain.networkProtocol = _networkProtocol;\n        newChain.registrationTime = block.timestamp;\n        newChain.isActive = true;\n        \n        allBlockchainIDs.push(_blockchainID);\n        \n        emit BlockchainRegistered(_blockchainID, block.timestamp);\n    }\n\n    /**\n     * @dev Update requirement status for a blockchain\n     */\n    function updateRequirementStatus(\n        string memory _blockchainID,\n        bytes32 _requirement,\n        bool _met\n    ) external onlyOwner {\n        require(registeredBlockchains[_blockchainID].isActive, \"Blockchain not registered\");\n        \n        registeredBlockchains[_blockchainID].metRequirements[_requirement] = _met;\n        emit RequirementUpdated(_blockchainID, _requirement, _met);\n    }\n\n    /**\n     * @dev Deactivate a blockchain registration\n     */\n    function deactivateBlockchain(string memory _blockchainID) external onlyOwner {\n        require(registeredBlockchains[_blockchainID].isActive, \"Blockchain not active\");\n        \n        registeredBlockchains[_blockchainID].isActive = false;\n        emit BlockchainDeactivated(_blockchainID, block.timestamp);\n    }\n}\n\n/**\n * @title BlockchainMonitor\n * @dev Monitors registered blockchains for security and connectivity\n */\ncontract BlockchainMonitor is BlockchainRegistry {\n    struct MonitoringInfo {\n        uint256 lastCheckTimestamp;\n        uint256 connectionQuality;    // 0-100 scale\n        uint256 securityScore;        // 0-100 scale\n        bool isConnected;\n    }\n\n    mapping(string => MonitoringInfo) public blockchainMonitoring;\n\n    event ConnectionStatusUpdated(string indexed blockchainID, bool connected, uint256 quality);\n    event SecurityScoreUpdated(string indexed blockchainID, uint256 score);\n\n    /**\n     * @dev Update monitoring information for a blockchain\n     */\n    function updateMonitoringInfo(\n        string memory _blockchainID,\n        bool _isConnected,\n        uint256 _connectionQuality,\n        uint256 _securityScore\n    ) external onlyOwner {\n        require(registeredBlockchains[_blockchainID].isActive, \"Blockchain not active\");\n        require(_connectionQuality <= 100, \"Invalid connection quality\");\n        require(_securityScore <= 100, \"Invalid security score\");\n\n        MonitoringInfo storage info = blockchainMonitoring[_blockchainID];\n        info.lastCheckTimestamp = block.timestamp;\n        info.isConnected = _isConnected;\n        info.connectionQuality = _connectionQuality;\n        info.securityScore = _securityScore;\n\n        emit ConnectionStatusUpdated(_blockchainID, _isConnected, _connectionQuality);\n        emit SecurityScoreUpdated(_blockchainID, _securityScore);\n\n        // Raise security alert if score is too low\n        if (_securityScore < 50) {\n            emit SecurityAlertRaised(_blockchainID, \"LOW_SECURITY_SCORE\", block.timestamp);\n        }\n    }\n\n    /**\n     * @dev Get monitoring information for a blockchain\n     */\n    function getMonitoringInfo(string memory _blockchainID) \n        external \n        view \n        returns (\n            uint256 lastCheck,\n            bool connected,\n            uint256 connectionQuality,\n            uint256 securityScore\n        )\n    {\n        MonitoringInfo storage info = blockchainMonitoring[_blockchainID];\n        return (\n            info.lastCheckTimestamp,\n            info.isConnected,\n            info.connectionQuality,\n            info.securityScore\n        );\n    }\n}",
  "sourcePath": "C:\\Users\\Bonsu\\Documents\\CLEANER PRODUCTION\\renewalclimateproject\\ClimateProjectFull\\contracts\\blockchain\\BlockchainRegistryBase.sol",
  "compiler": {
    "name": "solc",
    "version": "0.8.20+commit.a1b79de6.Emscripten.clang"
  },
  "schemaVersion": "3.4.16",
  "updatedAt": "2025-04-14T09:45:13.039Z",
  "networkType": "ethereum",
  "devdoc": {
    "details": "Handles the registration of blockchains in the PAYS system",
    "events": {
      "Paused(address)": {
        "details": "Emitted when the pause is triggered by `account`."
      },
      "Unpaused(address)": {
        "details": "Emitted when the pause is lifted by `account`."
      }
    },
    "kind": "dev",
    "methods": {
      "deactivateBlockchain(string)": {
        "details": "Deactivate a blockchain registration"
      },
      "owner()": {
        "details": "Returns the address of the current owner."
      },
      "paused()": {
        "details": "Returns true if the contract is paused, and false otherwise."
      },
      "registerBlockchain(string,string,string,string)": {
        "details": "Register a new blockchain with the system"
      },
      "renounceOwnership()": {
        "details": "Leaves the contract without owner. It will not be possible to call `onlyOwner` functions. Can only be called by the current owner. NOTE: Renouncing ownership will leave the contract without an owner, thereby disabling any functionality that is only available to the owner."
      },
      "transferOwnership(address)": {
        "details": "Transfers ownership of the contract to a new account (`newOwner`). Can only be called by the current owner."
      },
      "updateRequirementStatus(string,bytes32,bool)": {
        "details": "Update requirement status for a blockchain"
      }
    },
    "title": "BlockchainRegistry",
    "version": 1
  },
  "userdoc": {
    "kind": "user",
    "methods": {},
    "version": 1
  }
}