{
  "contractName": "CityRegister",
  "abi": [
    {
      "inputs": [
        {
          "internalType": "string",
          "name": "name",
          "type": "string"
        },
        {
          "internalType": "string",
          "name": "symbol",
          "type": "string"
        }
      ],
      "stateMutability": "nonpayable",
      "type": "constructor"
    },
    {
      "anonymous": false,
      "inputs": [
        {
          "indexed": true,
          "internalType": "address",
          "name": "owner",
          "type": "address"
        },
        {
          "indexed": true,
          "internalType": "address",
          "name": "spender",
          "type": "address"
        },
        {
          "indexed": false,
          "internalType": "uint256",
          "name": "value",
          "type": "uint256"
        }
      ],
      "name": "Approval",
      "type": "event"
    },
    {
      "anonymous": false,
      "inputs": [
        {
          "indexed": true,
          "internalType": "string",
          "name": "cityName",
          "type": "string"
        },
        {
          "indexed": false,
          "internalType": "uint256",
          "name": "timestamp",
          "type": "uint256"
        }
      ],
      "name": "CityRegistered",
      "type": "event"
    },
    {
      "anonymous": false,
      "inputs": [
        {
          "indexed": true,
          "internalType": "string",
          "name": "cityName",
          "type": "string"
        },
        {
          "indexed": true,
          "internalType": "string",
          "name": "sector",
          "type": "string"
        },
        {
          "indexed": false,
          "internalType": "uint256",
          "name": "timestamp",
          "type": "uint256"
        },
        {
          "indexed": false,
          "internalType": "uint256",
          "name": "value",
          "type": "uint256"
        }
      ],
      "name": "DailyDataRecorded",
      "type": "event"
    },
    {
      "anonymous": false,
      "inputs": [
        {
          "indexed": true,
          "internalType": "address",
          "name": "previousOwner",
          "type": "address"
        },
        {
          "indexed": true,
          "internalType": "address",
          "name": "newOwner",
          "type": "address"
        }
      ],
      "name": "OwnershipTransferred",
      "type": "event"
    },
    {
      "anonymous": false,
      "inputs": [
        {
          "indexed": true,
          "internalType": "string",
          "name": "cityName",
          "type": "string"
        },
        {
          "indexed": true,
          "internalType": "string",
          "name": "sectorName",
          "type": "string"
        },
        {
          "indexed": false,
          "internalType": "uint256",
          "name": "timestamp",
          "type": "uint256"
        }
      ],
      "name": "SectorAdded",
      "type": "event"
    },
    {
      "anonymous": false,
      "inputs": [
        {
          "indexed": true,
          "internalType": "address",
          "name": "from",
          "type": "address"
        },
        {
          "indexed": true,
          "internalType": "address",
          "name": "to",
          "type": "address"
        },
        {
          "indexed": false,
          "internalType": "uint256",
          "name": "value",
          "type": "uint256"
        }
      ],
      "name": "Transfer",
      "type": "event"
    },
    {
      "inputs": [],
      "name": "ROLLING_AVERAGE_DAYS",
      "outputs": [
        {
          "internalType": "uint256",
          "name": "",
          "type": "uint256"
        }
      ],
      "stateMutability": "view",
      "type": "function",
      "constant": true
    },
    {
      "inputs": [],
      "name": "SCALE_FACTOR",
      "outputs": [
        {
          "internalType": "uint256",
          "name": "",
          "type": "uint256"
        }
      ],
      "stateMutability": "view",
      "type": "function",
      "constant": true
    },
    {
      "inputs": [
        {
          "internalType": "address",
          "name": "owner",
          "type": "address"
        },
        {
          "internalType": "address",
          "name": "spender",
          "type": "address"
        }
      ],
      "name": "allowance",
      "outputs": [
        {
          "internalType": "uint256",
          "name": "",
          "type": "uint256"
        }
      ],
      "stateMutability": "view",
      "type": "function",
      "constant": true
    },
    {
      "inputs": [
        {
          "internalType": "address",
          "name": "spender",
          "type": "address"
        },
        {
          "internalType": "uint256",
          "name": "amount",
          "type": "uint256"
        }
      ],
      "name": "approve",
      "outputs": [
        {
          "internalType": "bool",
          "name": "",
          "type": "bool"
        }
      ],
      "stateMutability": "nonpayable",
      "type": "function"
    },
    {
      "inputs": [
        {
          "internalType": "address",
          "name": "account",
          "type": "address"
        }
      ],
      "name": "balanceOf",
      "outputs": [
        {
          "internalType": "uint256",
          "name": "",
          "type": "uint256"
        }
      ],
      "stateMutability": "view",
      "type": "function",
      "constant": true
    },
    {
      "inputs": [
        {
          "internalType": "string",
          "name": "",
          "type": "string"
        }
      ],
      "name": "cities",
      "outputs": [
        {
          "internalType": "string",
          "name": "name",
          "type": "string"
        },
        {
          "internalType": "bool",
          "name": "isRegistered",
          "type": "bool"
        },
        {
          "internalType": "uint256",
          "name": "registrationDate",
          "type": "uint256"
        }
      ],
      "stateMutability": "view",
      "type": "function",
      "constant": true
    },
    {
      "inputs": [],
      "name": "decimals",
      "outputs": [
        {
          "internalType": "uint8",
          "name": "",
          "type": "uint8"
        }
      ],
      "stateMutability": "view",
      "type": "function",
      "constant": true
    },
    {
      "inputs": [
        {
          "internalType": "address",
          "name": "spender",
          "type": "address"
        },
        {
          "internalType": "uint256",
          "name": "subtractedValue",
          "type": "uint256"
        }
      ],
      "name": "decreaseAllowance",
      "outputs": [
        {
          "internalType": "bool",
          "name": "",
          "type": "bool"
        }
      ],
      "stateMutability": "nonpayable",
      "type": "function"
    },
    {
      "inputs": [
        {
          "internalType": "address",
          "name": "spender",
          "type": "address"
        },
        {
          "internalType": "uint256",
          "name": "addedValue",
          "type": "uint256"
        }
      ],
      "name": "increaseAllowance",
      "outputs": [
        {
          "internalType": "bool",
          "name": "",
          "type": "bool"
        }
      ],
      "stateMutability": "nonpayable",
      "type": "function"
    },
    {
      "inputs": [],
      "name": "name",
      "outputs": [
        {
          "internalType": "string",
          "name": "",
          "type": "string"
        }
      ],
      "stateMutability": "view",
      "type": "function",
      "constant": true
    },
    {
      "inputs": [],
      "name": "owner",
      "outputs": [
        {
          "internalType": "address",
          "name": "",
          "type": "address"
        }
      ],
      "stateMutability": "view",
      "type": "function",
      "constant": true
    },
    {
      "inputs": [
        {
          "internalType": "uint256",
          "name": "",
          "type": "uint256"
        }
      ],
      "name": "registeredCityNames",
      "outputs": [
        {
          "internalType": "string",
          "name": "",
          "type": "string"
        }
      ],
      "stateMutability": "view",
      "type": "function",
      "constant": true
    },
    {
      "inputs": [],
      "name": "renounceOwnership",
      "outputs": [],
      "stateMutability": "nonpayable",
      "type": "function"
    },
    {
      "inputs": [],
      "name": "symbol",
      "outputs": [
        {
          "internalType": "string",
          "name": "",
          "type": "string"
        }
      ],
      "stateMutability": "view",
      "type": "function",
      "constant": true
    },
    {
      "inputs": [],
      "name": "totalSupply",
      "outputs": [
        {
          "internalType": "uint256",
          "name": "",
          "type": "uint256"
        }
      ],
      "stateMutability": "view",
      "type": "function",
      "constant": true
    },
    {
      "inputs": [
        {
          "internalType": "address",
          "name": "to",
          "type": "address"
        },
        {
          "internalType": "uint256",
          "name": "amount",
          "type": "uint256"
        }
      ],
      "name": "transfer",
      "outputs": [
        {
          "internalType": "bool",
          "name": "",
          "type": "bool"
        }
      ],
      "stateMutability": "nonpayable",
      "type": "function"
    },
    {
      "inputs": [
        {
          "internalType": "address",
          "name": "from",
          "type": "address"
        },
        {
          "internalType": "address",
          "name": "to",
          "type": "address"
        },
        {
          "internalType": "uint256",
          "name": "amount",
          "type": "uint256"
        }
      ],
      "name": "transferFrom",
      "outputs": [
        {
          "internalType": "bool",
          "name": "",
          "type": "bool"
        }
      ],
      "stateMutability": "nonpayable",
      "type": "function"
    },
    {
      "inputs": [
        {
          "internalType": "address",
          "name": "newOwner",
          "type": "address"
        }
      ],
      "name": "transferOwnership",
      "outputs": [],
      "stateMutability": "nonpayable",
      "type": "function"
    },
    {
      "inputs": [
        {
          "internalType": "string",
          "name": "cityName",
          "type": "string"
        },
        {
          "internalType": "string",
          "name": "date",
          "type": "string"
        },
        {
          "internalType": "string",
          "name": "sector",
          "type": "string"
        },
        {
          "internalType": "uint256",
          "name": "value",
          "type": "uint256"
        }
      ],
      "name": "registerCity",
      "outputs": [],
      "stateMutability": "nonpayable",
      "type": "function"
    },
    {
      "inputs": [
        {
          "internalType": "string",
          "name": "cityName",
          "type": "string"
        },
        {
          "internalType": "string",
          "name": "sectorName",
          "type": "string"
        }
      ],
      "name": "addSector",
      "outputs": [],
      "stateMutability": "nonpayable",
      "type": "function"
    },
    {
      "inputs": [
        {
          "internalType": "string",
          "name": "cityName",
          "type": "string"
        },
        {
          "internalType": "string",
          "name": "sectorName",
          "type": "string"
        },
        {
          "internalType": "uint256",
          "name": "timestamp",
          "type": "uint256"
        },
        {
          "internalType": "uint256",
          "name": "value",
          "type": "uint256"
        }
      ],
      "name": "recordDailyValue",
      "outputs": [],
      "stateMutability": "nonpayable",
      "type": "function"
    },
    {
      "inputs": [
        {
          "internalType": "string",
          "name": "cityName",
          "type": "string"
        },
        {
          "internalType": "string",
          "name": "sectorName",
          "type": "string"
        }
      ],
      "name": "getSectorStats",
      "outputs": [
        {
          "internalType": "uint256",
          "name": "totalRecordings",
          "type": "uint256"
        },
        {
          "internalType": "uint256",
          "name": "maxValue",
          "type": "uint256"
        },
        {
          "internalType": "uint256",
          "name": "rollingAverage",
          "type": "uint256"
        }
      ],
      "stateMutability": "view",
      "type": "function",
      "constant": true
    },
    {
      "inputs": [
        {
          "internalType": "string",
          "name": "cityName",
          "type": "string"
        }
      ],
      "name": "getActiveSectors",
      "outputs": [
        {
          "internalType": "string[]",
          "name": "",
          "type": "string[]"
        }
      ],
      "stateMutability": "view",
      "type": "function",
      "constant": true
    },
    {
      "inputs": [
        {
          "internalType": "string",
          "name": "cityName",
          "type": "string"
        },
        {
          "internalType": "string",
          "name": "sectorName",
          "type": "string"
        },
        {
          "internalType": "uint256",
          "name": "timestamp",
          "type": "uint256"
        }
      ],
      "name": "calculateCarbonCredit",
      "outputs": [
        {
          "internalType": "uint256",
          "name": "",
          "type": "uint256"
        }
      ],
      "stateMutability": "view",
      "type": "function",
      "constant": true
    }
  ],
  "bytecode": "0x608060405234801562000010575f80fd5b506040516200226c3803806200226c833981016040819052620000339162000286565b8181600362000043838262000377565b50600462000052828262000377565b5050506200006f62000069620000aa60201b60201c565b620000ae565b6200009733620000826012600a6200054e565b6200009190620f424062000565565b620000ff565b620000a233620000ae565b505062000595565b3390565b600580546001600160a01b038381166001600160a01b0319831681179093556040519116919082907f8be0079c531659141344cd1fd0a4f28419497f9722a3daafe3b4186f6b6457e0905f90a35050565b6001600160a01b0382166200015a5760405162461bcd60e51b815260206004820152601f60248201527f45524332303a206d696e7420746f20746865207a65726f206164647265737300604482015260640160405180910390fd5b8060025f8282546200016d91906200057f565b90915550506001600160a01b0382165f81815260208181526040808320805486019055518481527fddf252ad1be2c89b69c2b068fc378daa952ba7f163c4a11628f55a4df523b3ef910160405180910390a35050565b505050565b634e487b7160e01b5f52604160045260245ffd5b5f82601f830112620001ec575f80fd5b81516001600160401b0380821115620002095762000209620001c8565b604051601f8301601f19908116603f01168101908282118183101715620002345762000234620001c8565b8160405283815260209250868385880101111562000250575f80fd5b5f91505b8382101562000273578582018301518183018401529082019062000254565b5f93810190920192909252949350505050565b5f806040838503121562000298575f80fd5b82516001600160401b0380821115620002af575f80fd5b620002bd86838701620001dc565b93506020850151915080821115620002d3575f80fd5b50620002e285828601620001dc565b9150509250929050565b600181811c908216806200030157607f821691505b6020821081036200032057634e487b7160e01b5f52602260045260245ffd5b50919050565b601f821115620001c3575f81815260208120601f850160051c810160208610156200034e5750805b601f850160051c820191505b818110156200036f578281556001016200035a565b505050505050565b81516001600160401b03811115620003935762000393620001c8565b620003ab81620003a48454620002ec565b8462000326565b602080601f831160018114620003e1575f8415620003c95750858301515b5f19600386901b1c1916600185901b1785556200036f565b5f85815260208120601f198616915b828110156200041157888601518255948401946001909101908401620003f0565b50858210156200042f57878501515f19600388901b60f8161c191681555b5050505050600190811b01905550565b634e487b7160e01b5f52601160045260245ffd5b600181815b808511156200049357815f19048211156200047757620004776200043f565b808516156200048557918102915b93841c939080029062000458565b509250929050565b5f82620004ab5750600162000548565b81620004b957505f62000548565b8160018114620004d25760028114620004dd57620004fd565b600191505062000548565b60ff841115620004f157620004f16200043f565b50506001821b62000548565b5060208310610133831016604e8410600b841016171562000522575081810a62000548565b6200052e838362000453565b805f19048211156200054457620005446200043f565b0290505b92915050565b5f6200055e60ff8416836200049b565b9392505050565b80820281158282048414176200054857620005486200043f565b808201808211156200054857620005486200043f565b611cc980620005a35f395ff3fe608060405234801561000f575f80fd5b5060043610610153575f3560e01c806387cb40a6116100bf578063b8315d6d11610079578063b8315d6d146102db578063ca7de72e14610309578063cac6ec8414610329578063ce4b5bbe14610331578063dd62ed3e14610340578063f2fde38b14610353575f80fd5b806387cb40a61461026c578063892d56c11461027f5780638da5cb5b1461029257806395d89b41146102ad578063a457c2d7146102b5578063a9059cbb146102c8575f80fd5b8063395093511161011057806339509351146101e15780634ceebf25146101f457806365eae2db1461020757806370a0823114610229578063715018a61461025157806383f4b1f114610259575f80fd5b806306fdde0314610157578063081a8e0614610175578063095ea7b31461018a57806318160ddd146101ad57806323b872dd146101bf578063313ce567146101d2575b5f80fd5b61015f610366565b60405161016c9190611601565b60405180910390f35b6101886101833660046116b0565b6103f6565b005b61019d61019836600461173a565b6106ed565b604051901515815260200161016c565b6002545b60405190815260200161016c565b61019d6101cd366004611762565b610706565b6040516012815260200161016c565b61019d6101ef36600461173a565b61072b565b61015f61020236600461179b565b61074c565b61021a6102153660046117b2565b6107f2565b60405161016c939291906117ec565b6101b1610237366004611810565b6001600160a01b03165f9081526020819052604090205490565b6101886108a9565b610188610267366004611829565b6108bc565b6101b161027a3660046118b3565b610a21565b61018861028d36600461191b565b610b9e565b6005546040516001600160a01b03909116815260200161016c565b61015f610d71565b61019d6102c336600461173a565b610d80565b61019d6102d636600461173a565b610e05565b6102ee6102e936600461191b565b610e12565b6040805193845260208401929092529082015260600161016c565b61031c6103173660046117b2565b610f17565b60405161016c919061197b565b6101b1600781565b6101b1670de0b6b3a764000081565b6101b161034e3660046119db565b61104e565b610188610361366004611810565b611078565b60606003805461037590611a0c565b80601f01602080910402602001604051908101604052809291908181526020018280546103a190611a0c565b80156103ec5780601f106103c3576101008083540402835291602001916103ec565b820191905f5260205f20905b8154815290600101906020018083116103cf57829003601f168201915b5050505050905090565b6103fe6110f1565b835f8151116104285760405162461bcd60e51b815260040161041f90611a44565b60405180910390fd5b6006816040516104389190611a7b565b9081526040519081900360200190206001015460ff1661046a5760405162461bcd60e51b815260040161041f90611a96565b848460068260405161047c9190611a7b565b90815260200160405180910390206002018160405161049b9190611a7b565b9081526040519081900360200190206005015460ff166104cd5760405162461bcd60e51b815260040161041f90611ac3565b4285111561051d5760405162461bcd60e51b815260206004820152601c60248201527f4675747572652074696d657374616d70206e6f7420616c6c6f77656400000000604482015260640161041f565b5f841161056c5760405162461bcd60e51b815260206004820152601c60248201527f56616c7565206d7573742062652067726561746572207468616e203000000000604482015260640161041f565b5f61057f670de0b6b3a764000086611b02565b90505f6006896040516105929190611a7b565b9081526020016040518091039020600201886040516105b19190611a7b565b90815260408051602092819003830190205f8a815292819052912060028101549192509060ff16156106315760405162461bcd60e51b815260206004820152602360248201527f4461746120616c7265616479207265636f7264656420666f722074686973206460448201526261746560e81b606482015260840161041f565b878155600180820184905560028201805460ff191682179055828101805491820181555f9081526020902001889055600482015483111561067457600482018390555b61067d8261114b565b8860405161068b9190611a7b565b60405180910390208a6040516106a19190611a7b565b604080519182900382208b835260208301879052917f897d27f89fed805011457db91608e078c670c44abe9031664c073da4e1999110910160405180910390a350505050505050505050565b5f336106fa818585611200565b60019150505b92915050565b5f33610713858285611323565b61071e85858561139b565b60019150505b9392505050565b5f336106fa81858561073d838361104e565b6107479190611b19565b611200565b6007818154811061075b575f80fd5b905f5260205f20015f91509050805461077390611a0c565b80601f016020809104026020016040519081016040528092919081815260200182805461079f90611a0c565b80156107ea5780601f106107c1576101008083540402835291602001916107ea565b820191905f5260205f20905b8154815290600101906020018083116107cd57829003601f168201915b505050505081565b805160208183018101805160068252928201919093012091528054819061081890611a0c565b80601f016020809104026020016040519081016040528092919081815260200182805461084490611a0c565b801561088f5780601f106108665761010080835404028352916020019161088f565b820191905f5260205f20905b81548152906001019060200180831161087257829003601f168201915b505050506001830154600490930154919260ff1691905083565b6108b16110f1565b6108ba5f61153d565b565b6108c46110f1565b5f8451116108e45760405162461bcd60e51b815260040161041f90611a44565b6006846040516108f49190611a7b565b9081526040519081900360200190206001015460ff16156109575760405162461bcd60e51b815260206004820152601760248201527f4369747920616c72656164792072656769737465726564000000000000000000604482015260640161041f565b5f6006856040516109689190611a7b565b9081526040519081900360200190209050806109848682611b79565b506001818101805460ff1916821790554260048301556007805491820181555f527fa66cc928b5edb82af9bd49922954155ab7b0942694bea4ce44661d9a8736c688016109d18682611b79565b50846040516109e09190611a7b565b604051908190038120428252907fd0f14ee9fb1005a27f2a7812d6d8ade21aea779d58f322cc40ac1202a297da909060200160405180910390a25050505050565b5f600684604051610a329190611a7b565b9081526040519081900360200190206001015460ff16610a645760405162461bcd60e51b815260040161041f90611a96565b600684604051610a749190611a7b565b908152602001604051809103902060020183604051610a939190611a7b565b9081526040519081900360200190206005015460ff16610ac55760405162461bcd60e51b815260040161041f90611ac3565b5f600685604051610ad69190611a7b565b908152602001604051809103902060020184604051610af59190611a7b565b90815260408051602092819003830190205f86815292819052912060028101549192509060ff16610b685760405162461bcd60e51b815260206004820152601e60248201527f4e6f2064617461207265636f7264656420666f72207468697320646174650000604482015260640161041f565b8160040154816001015410610b81575f92505050610724565b60018101546004830154610b949161158e565b9695505050505050565b610ba66110f1565b815f815111610bc75760405162461bcd60e51b815260040161041f90611a44565b600681604051610bd79190611a7b565b9081526040519081900360200190206001015460ff16610c095760405162461bcd60e51b815260040161041f90611a96565b600683604051610c199190611a7b565b908152602001604051809103902060020182604051610c389190611a7b565b9081526040519081900360200190206005015460ff1615610c935760405162461bcd60e51b8152602060048201526015602482015274536563746f7220616c72656164792065786973747360581b604482015260640161041f565b5f600684604051610ca49190611a7b565b908152602001604051809103902090505f8160020184604051610cc79190611a7b565b90815260405160209181900382019020600581018054600160ff19909116811790915560038501805491820181555f9081529290922090925001610d0b8582611b79565b5083604051610d1a9190611a7b565b604051809103902085604051610d309190611a7b565b604051908190038120428252907f0b7076de452ade41a7d5d566862838046f25eee8e442fcf9cbcc748d5d488c0e9060200160405180910390a35050505050565b60606004805461037590611a0c565b5f3381610d8d828661104e565b905083811015610ded5760405162461bcd60e51b815260206004820152602560248201527f45524332303a2064656372656173656420616c6c6f77616e63652062656c6f77604482015264207a65726f60d81b606482015260840161041f565b610dfa8286868403611200565b506001949350505050565b5f336106fa81858561139b565b5f805f600685604051610e259190611a7b565b9081526040519081900360200190206001015460ff16610e575760405162461bcd60e51b815260040161041f90611a96565b600685604051610e679190611a7b565b908152602001604051809103902060020184604051610e869190611a7b565b9081526040519081900360200190206005015460ff16610eb85760405162461bcd60e51b815260040161041f90611ac3565b5f600686604051610ec99190611a7b565b908152602001604051809103902060020185604051610ee89190611a7b565b908152604051908190036020019020600181015460048201546003909201549095509093509150509250925092565b6060600682604051610f299190611a7b565b9081526040519081900360200190206001015460ff16610f5b5760405162461bcd60e51b815260040161041f90611a96565b600682604051610f6b9190611a7b565b9081526020016040518091039020600301805480602002602001604051908101604052809291908181526020015f905b82821015611043578382905f5260205f20018054610fb890611a0c565b80601f0160208091040260200160405190810160405280929190818152602001828054610fe490611a0c565b801561102f5780601f106110065761010080835404028352916020019161102f565b820191905f5260205f20905b81548152906001019060200180831161101257829003601f168201915b505050505081526020019060010190610f9b565b505050509050919050565b6001600160a01b039182165f90815260016020908152604080832093909416825291909152205490565b6110806110f1565b6001600160a01b0381166110e55760405162461bcd60e51b815260206004820152602660248201527f4f776e61626c653a206e6577206f776e657220697320746865207a65726f206160448201526564647265737360d01b606482015260840161041f565b6110ee8161153d565b50565b6005546001600160a01b031633146108ba5760405162461bcd60e51b815260206004820181905260248201527f4f776e61626c653a2063616c6c6572206973206e6f7420746865206f776e6572604482015260640161041f565b60018101545f908190816007821015611164575f61116f565b61116f600783611c35565b9050805b828110156111e2576111c0865f015f88600101848154811061119757611197611c48565b905f5260205f20015481526020019081526020015f20600101548661159990919063ffffffff16565b9450836111cc81611c5c565b94505080806111da90611c5c565b915050611173565b5082156111f9576111f384846115a4565b60038601555b5050505050565b6001600160a01b0383166112625760405162461bcd60e51b8152602060048201526024808201527f45524332303a20617070726f76652066726f6d20746865207a65726f206164646044820152637265737360e01b606482015260840161041f565b6001600160a01b0382166112c35760405162461bcd60e51b815260206004820152602260248201527f45524332303a20617070726f766520746f20746865207a65726f206164647265604482015261737360f01b606482015260840161041f565b6001600160a01b038381165f8181526001602090815260408083209487168084529482529182902085905590518481527f8c5be1e5ebec7d5bd14f71427d1e84f3dd0314c0f7b2291e5b200ac8c7c3b925910160405180910390a3505050565b5f61132e848461104e565b90505f19811461139557818110156113885760405162461bcd60e51b815260206004820152601d60248201527f45524332303a20696e73756666696369656e7420616c6c6f77616e6365000000604482015260640161041f565b6113958484848403611200565b50505050565b6001600160a01b0383166113ff5760405162461bcd60e51b815260206004820152602560248201527f45524332303a207472616e736665722066726f6d20746865207a65726f206164604482015264647265737360d81b606482015260840161041f565b6001600160a01b0382166114615760405162461bcd60e51b815260206004820152602360248201527f45524332303a207472616e7366657220746f20746865207a65726f206164647260448201526265737360e81b606482015260840161041f565b6001600160a01b0383165f90815260208190526040902054818110156114d85760405162461bcd60e51b815260206004820152602660248201527f45524332303a207472616e7366657220616d6f756e7420657863656564732062604482015265616c616e636560d01b606482015260840161041f565b6001600160a01b038481165f81815260208181526040808320878703905593871680835291849020805487019055925185815290927fddf252ad1be2c89b69c2b068fc378daa952ba7f163c4a11628f55a4df523b3ef910160405180910390a3611395565b600580546001600160a01b038381166001600160a01b0319831681179093556040519116919082907f8be0079c531659141344cd1fd0a4f28419497f9722a3daafe3b4186f6b6457e0905f90a35050565b5f6107248284611c35565b5f6107248284611b19565b5f6107248284611c74565b505050565b5f5b838110156115ce5781810151838201526020016115b6565b50505f910152565b5f81518084526115ed8160208601602086016115b4565b601f01601f19169290920160200192915050565b602081525f61072460208301846115d6565b634e487b7160e01b5f52604160045260245ffd5b5f82601f830112611636575f80fd5b813567ffffffffffffffff8082111561165157611651611613565b604051601f8301601f19908116603f0116810190828211818310171561167957611679611613565b81604052838152866020858801011115611691575f80fd5b836020870160208301375f602085830101528094505050505092915050565b5f805f80608085870312156116c3575f80fd5b843567ffffffffffffffff808211156116da575f80fd5b6116e688838901611627565b955060208701359150808211156116fb575f80fd5b5061170887828801611627565b949794965050505060408301359260600135919050565b80356001600160a01b0381168114611735575f80fd5b919050565b5f806040838503121561174b575f80fd5b6117548361171f565b946020939093013593505050565b5f805f60608486031215611774575f80fd5b61177d8461171f565b925061178b6020850161171f565b9150604084013590509250925092565b5f602082840312156117ab575f80fd5b5035919050565b5f602082840312156117c2575f80fd5b813567ffffffffffffffff8111156117d8575f80fd5b6117e484828501611627565b949350505050565b606081525f6117fe60608301866115d6565b93151560208301525060400152919050565b5f60208284031215611820575f80fd5b6107248261171f565b5f805f806080858703121561183c575f80fd5b843567ffffffffffffffff80821115611853575f80fd5b61185f88838901611627565b95506020870135915080821115611874575f80fd5b61188088838901611627565b94506040870135915080821115611895575f80fd5b506118a287828801611627565b949793965093946060013593505050565b5f805f606084860312156118c5575f80fd5b833567ffffffffffffffff808211156118dc575f80fd5b6118e887838801611627565b945060208601359150808211156118fd575f80fd5b5061190a86828701611627565b925050604084013590509250925092565b5f806040838503121561192c575f80fd5b823567ffffffffffffffff80821115611943575f80fd5b61194f86838701611627565b93506020850135915080821115611964575f80fd5b5061197185828601611627565b9150509250929050565b5f602080830181845280855180835260408601915060408160051b87010192508387015f5b828110156119ce57603f198886030184526119bc8583516115d6565b945092850192908501906001016119a0565b5092979650505050505050565b5f80604083850312156119ec575f80fd5b6119f58361171f565b9150611a036020840161171f565b90509250929050565b600181811c90821680611a2057607f821691505b602082108103611a3e57634e487b7160e01b5f52602260045260245ffd5b50919050565b60208082526019908201527f43697479206e616d652063616e6e6f7420626520656d70747900000000000000604082015260600190565b5f8251611a8c8184602087016115b4565b9190910192915050565b60208082526013908201527210da5d1e481b9bdd081c9959da5cdd195c9959606a1b604082015260600190565b602080825260119082015270536563746f72206e6f742061637469766560781b604082015260600190565b634e487b7160e01b5f52601160045260245ffd5b808202811582820484141761070057610700611aee565b8082018082111561070057610700611aee565b601f8211156115af575f81815260208120601f850160051c81016020861015611b525750805b601f850160051c820191505b81811015611b7157828155600101611b5e565b505050505050565b815167ffffffffffffffff811115611b9357611b93611613565b611ba781611ba18454611a0c565b84611b2c565b602080601f831160018114611bda575f8415611bc35750858301515b5f19600386901b1c1916600185901b178555611b71565b5f85815260208120601f198616915b82811015611c0857888601518255948401946001909101908401611be9565b5085821015611c2557878501515f19600388901b60f8161c191681555b5050505050600190811b01905550565b8181038181111561070057610700611aee565b634e487b7160e01b5f52603260045260245ffd5b5f60018201611c6d57611c6d611aee565b5060010190565b5f82611c8e57634e487b7160e01b5f52601260045260245ffd5b50049056fea264697066735822122092435e8e44069ff99e499a414b1ce2cdc90a0049955d2f9899babe173ec6f44d64736f6c63430008140033",
  "immutableReferences": {},
  "source": "// SPDX-License-Identifier: MIT\r\npragma solidity ^0.8.0;\r\n\r\nimport \"@openzeppelin/contracts/token/ERC20/ERC20.sol\";\r\nimport \"@openzeppelin/contracts/access/Ownable.sol\";\r\nimport \"@openzeppelin/contracts/utils/math/SafeMath.sol\";\r\n\r\ncontract CityRegister is ERC20, Ownable {\r\n    using SafeMath for uint256;\r\n\r\n    constructor(string memory name, string memory symbol) ERC20(name, symbol) {\r\n        _mint(msg.sender, 1000000 * 10 ** decimals());\r\n        _transferOwnership(msg.sender);\r\n    }\r\n\r\n    using SafeMath for uint256;\r\n\r\n    // Struct to store daily measurement\r\n    struct DailyMeasurement {\r\n        uint256 timestamp;\r\n        uint256 value;     // Stored as value * 1e18 for precision\r\n        bool recorded;\r\n    }\r\n\r\n    // Struct to store sector data\r\n    struct SectorData {\r\n        mapping(uint256 => DailyMeasurement) dailyData;  // timestamp => measurement\r\n        uint256[] recordedDates;\r\n        uint256 baselineValue;\r\n        uint256 rollingAverage;    // Stored as value * 1e18\r\n        uint256 maxHistoricalValue;\r\n        bool isActive;\r\n    }\r\n\r\n    struct City {\r\n        string name;\r\n        bool isRegistered;\r\n        mapping(string => SectorData) sectors;\r\n        string[] activeSectors;\r\n        uint256 registrationDate;\r\n    }\r\n\r\n    mapping(string => City) public cities;\r\n    string[] public registeredCityNames;\r\n    \r\n    uint256 public constant SCALE_FACTOR = 1e18;\r\n    uint256 public constant ROLLING_AVERAGE_DAYS = 7;\r\n\r\n    // Events\r\n    event CityRegistered(string indexed cityName, uint256 timestamp);\r\n    event SectorAdded(string indexed cityName, string indexed sectorName, uint256 timestamp);\r\n    event DailyDataRecorded(\r\n        string indexed cityName,\r\n        string indexed sector,\r\n        uint256 timestamp,\r\n        uint256 value\r\n    );\r\n\r\n   \r\n\r\n    modifier validCity(string memory cityName) {\r\n        require(bytes(cityName).length > 0, \"City name cannot be empty\");\r\n        require(cities[cityName].isRegistered, \"City not registered\");\r\n        _;\r\n    }\r\n\r\n    modifier validSector(string memory cityName, string memory sectorName) {\r\n        require(cities[cityName].sectors[sectorName].isActive, \"Sector not active\");\r\n        _;\r\n    }\r\n\r\n  function registerCity(\r\n    string memory cityName,\r\n    string memory date,\r\n    string memory sector,\r\n    uint256 value\r\n) external onlyOwner {\r\n    require(bytes(cityName).length > 0, \"City name cannot be empty\");\r\n    require(!cities[cityName].isRegistered, \"City already registered\");\r\n\r\n    City storage newCity = cities[cityName];\r\n    newCity.name = cityName;\r\n    newCity.isRegistered = true;\r\n    newCity.registrationDate = block.timestamp;\r\n\r\n    registeredCityNames.push(cityName);\r\n    \r\n    emit CityRegistered(cityName, block.timestamp);\r\n}\r\n    function addSector(string memory cityName, string memory sectorName) \r\n        external \r\n        onlyOwner \r\n        validCity(cityName) \r\n    {\r\n        require(!cities[cityName].sectors[sectorName].isActive, \"Sector already exists\");\r\n\r\n        City storage city = cities[cityName];\r\n        SectorData storage newSector = city.sectors[sectorName];\r\n        newSector.isActive = true;\r\n        city.activeSectors.push(sectorName);\r\n\r\n        emit SectorAdded(cityName, sectorName, block.timestamp);\r\n    }\r\n\r\n    function recordDailyValue(\r\n        string memory cityName,\r\n        string memory sectorName,\r\n        uint256 timestamp,\r\n        uint256 value\r\n    ) \r\n        external \r\n        onlyOwner \r\n        validCity(cityName)\r\n        validSector(cityName, sectorName)\r\n    {\r\n        require(timestamp <= block.timestamp, \"Future timestamp not allowed\");\r\n        require(value > 0, \"Value must be greater than 0\");\r\n\r\n        uint256 scaledValue = value * SCALE_FACTOR;\r\n        \r\n        SectorData storage sector = cities[cityName].sectors[sectorName];\r\n        \r\n        DailyMeasurement storage measurement = sector.dailyData[timestamp];\r\n        require(!measurement.recorded, \"Data already recorded for this date\");\r\n        \r\n        measurement.timestamp = timestamp;\r\n        measurement.value = scaledValue;\r\n        measurement.recorded = true;\r\n        sector.recordedDates.push(timestamp);\r\n\r\n        if (scaledValue > sector.maxHistoricalValue) {\r\n            sector.maxHistoricalValue = scaledValue;\r\n        }\r\n\r\n        _updateRollingAverage(sector);\r\n\r\n        emit DailyDataRecorded(cityName, sectorName, timestamp, scaledValue);\r\n    }\r\n\r\n    function _updateRollingAverage(SectorData storage sector) private {\r\n        uint256 totalValues = 0;\r\n        uint256 count = 0;\r\n        \r\n        uint256 length = sector.recordedDates.length;\r\n        uint256 startIndex = length >= ROLLING_AVERAGE_DAYS ? length - ROLLING_AVERAGE_DAYS : 0;\r\n        \r\n        for (uint256 i = startIndex; i < length; i++) {\r\n            totalValues = totalValues.add(sector.dailyData[sector.recordedDates[i]].value);\r\n            count++;\r\n        }\r\n        \r\n        if (count > 0) {\r\n            sector.rollingAverage = totalValues.div(count);\r\n        }\r\n    }\r\n\r\n    function getSectorStats(\r\n        string memory cityName,\r\n        string memory sectorName\r\n    ) external view returns (\r\n        uint256 totalRecordings,\r\n        uint256 maxValue,\r\n        uint256 rollingAverage\r\n    ) {\r\n        require(cities[cityName].isRegistered, \"City not registered\");\r\n        require(cities[cityName].sectors[sectorName].isActive, \"Sector not active\");\r\n\r\n        SectorData storage sector = cities[cityName].sectors[sectorName];\r\n        return (\r\n            sector.recordedDates.length,\r\n            sector.maxHistoricalValue,\r\n            sector.rollingAverage\r\n        );\r\n    }\r\n\r\n    function getActiveSectors(string memory cityName) \r\n        external \r\n        view \r\n        returns (string[] memory) \r\n    {\r\n        require(cities[cityName].isRegistered, \"City not registered\");\r\n        return cities[cityName].activeSectors;\r\n    }\r\n\r\n    function calculateCarbonCredit(\r\n        string memory cityName,\r\n        string memory sectorName,\r\n        uint256 timestamp\r\n    ) external view returns (uint256) {\r\n        require(cities[cityName].isRegistered, \"City not registered\");\r\n        require(cities[cityName].sectors[sectorName].isActive, \"Sector not active\");\r\n\r\n        SectorData storage sector = cities[cityName].sectors[sectorName];\r\n        DailyMeasurement storage measurement = sector.dailyData[timestamp];\r\n        require(measurement.recorded, \"No data recorded for this date\");\r\n\r\n        if (measurement.value >= sector.maxHistoricalValue) {\r\n            return 0;\r\n        }\r\n\r\n        return sector.maxHistoricalValue.sub(measurement.value);\r\n    }\r\n}\r\n",
  "sourcePath": "C:\\Users\\Bonsu\\Documents\\Blockchain Multi Industrial Service Center\\Blockchain MultiIndustrial Projects\\BlockchainMultiIndustryRepo\\contracts\\climate\\CityRegister.sol",
  "compiler": {
    "name": "solc",
    "version": "0.8.20+commit.a1b79de6.Emscripten.clang"
  },
  "schemaVersion": "3.4.16",
  "updatedAt": "2025-04-16T14:10:46.585Z",
  "networkType": "ethereum",
  "devdoc": {
    "events": {
      "Approval(address,address,uint256)": {
        "details": "Emitted when the allowance of a `spender` for an `owner` is set by a call to {approve}. `value` is the new allowance."
      },
      "Transfer(address,address,uint256)": {
        "details": "Emitted when `value` tokens are moved from one account (`from`) to another (`to`). Note that `value` may be zero."
      }
    },
    "kind": "dev",
    "methods": {
      "allowance(address,address)": {
        "details": "See {IERC20-allowance}."
      },
      "approve(address,uint256)": {
        "details": "See {IERC20-approve}. NOTE: If `amount` is the maximum `uint256`, the allowance is not updated on `transferFrom`. This is semantically equivalent to an infinite approval. Requirements: - `spender` cannot be the zero address."
      },
      "balanceOf(address)": {
        "details": "See {IERC20-balanceOf}."
      },
      "decimals()": {
        "details": "Returns the number of decimals used to get its user representation. For example, if `decimals` equals `2`, a balance of `505` tokens should be displayed to a user as `5.05` (`505 / 10 ** 2`). Tokens usually opt for a value of 18, imitating the relationship between Ether and Wei. This is the default value returned by this function, unless it's overridden. NOTE: This information is only used for _display_ purposes: it in no way affects any of the arithmetic of the contract, including {IERC20-balanceOf} and {IERC20-transfer}."
      },
      "decreaseAllowance(address,uint256)": {
        "details": "Atomically decreases the allowance granted to `spender` by the caller. This is an alternative to {approve} that can be used as a mitigation for problems described in {IERC20-approve}. Emits an {Approval} event indicating the updated allowance. Requirements: - `spender` cannot be the zero address. - `spender` must have allowance for the caller of at least `subtractedValue`."
      },
      "increaseAllowance(address,uint256)": {
        "details": "Atomically increases the allowance granted to `spender` by the caller. This is an alternative to {approve} that can be used as a mitigation for problems described in {IERC20-approve}. Emits an {Approval} event indicating the updated allowance. Requirements: - `spender` cannot be the zero address."
      },
      "name()": {
        "details": "Returns the name of the token."
      },
      "owner()": {
        "details": "Returns the address of the current owner."
      },
      "renounceOwnership()": {
        "details": "Leaves the contract without owner. It will not be possible to call `onlyOwner` functions. Can only be called by the current owner. NOTE: Renouncing ownership will leave the contract without an owner, thereby disabling any functionality that is only available to the owner."
      },
      "symbol()": {
        "details": "Returns the symbol of the token, usually a shorter version of the name."
      },
      "totalSupply()": {
        "details": "See {IERC20-totalSupply}."
      },
      "transfer(address,uint256)": {
        "details": "See {IERC20-transfer}. Requirements: - `to` cannot be the zero address. - the caller must have a balance of at least `amount`."
      },
      "transferFrom(address,address,uint256)": {
        "details": "See {IERC20-transferFrom}. Emits an {Approval} event indicating the updated allowance. This is not required by the EIP. See the note at the beginning of {ERC20}. NOTE: Does not update the allowance if the current allowance is the maximum `uint256`. Requirements: - `from` and `to` cannot be the zero address. - `from` must have a balance of at least `amount`. - the caller must have allowance for ``from``'s tokens of at least `amount`."
      },
      "transferOwnership(address)": {
        "details": "Transfers ownership of the contract to a new account (`newOwner`). Can only be called by the current owner."
      }
    },
    "version": 1
  },
  "userdoc": {
    "kind": "user",
    "methods": {},
    "version": 1
  }
}