{
  "contractName": "CityHealthCalculator",
  "abi": [
    {
      "inputs": [],
      "stateMutability": "nonpayable",
      "type": "constructor"
    },
    {
      "anonymous": false,
      "inputs": [
        {
          "indexed": true,
          "internalType": "string",
          "name": "cityName",
          "type": "string"
        },
        {
          "indexed": false,
          "internalType": "uint256",
          "name": "healthIndex",
          "type": "uint256"
        },
        {
          "indexed": false,
          "internalType": "bool",
          "name": "isVulnerable",
          "type": "bool"
        },
        {
          "indexed": false,
          "internalType": "uint256",
          "name": "timestamp",
          "type": "uint256"
        }
      ],
      "name": "CityHealthUpdated",
      "type": "event"
    },
    {
      "anonymous": false,
      "inputs": [
        {
          "indexed": true,
          "internalType": "address",
          "name": "previousOwner",
          "type": "address"
        },
        {
          "indexed": true,
          "internalType": "address",
          "name": "newOwner",
          "type": "address"
        }
      ],
      "name": "OwnershipTransferred",
      "type": "event"
    },
    {
      "anonymous": false,
      "inputs": [
        {
          "indexed": true,
          "internalType": "string",
          "name": "cityName",
          "type": "string"
        },
        {
          "indexed": true,
          "internalType": "string",
          "name": "sector",
          "type": "string"
        },
        {
          "indexed": false,
          "internalType": "uint256",
          "name": "value",
          "type": "uint256"
        },
        {
          "indexed": false,
          "internalType": "uint256",
          "name": "timestamp",
          "type": "uint256"
        }
      ],
      "name": "SectorEmissionRecorded",
      "type": "event"
    },
    {
      "anonymous": false,
      "inputs": [
        {
          "indexed": true,
          "internalType": "string",
          "name": "cityName",
          "type": "string"
        },
        {
          "indexed": false,
          "internalType": "uint256",
          "name": "healthIndex",
          "type": "uint256"
        },
        {
          "indexed": false,
          "internalType": "uint256",
          "name": "timestamp",
          "type": "uint256"
        }
      ],
      "name": "VulnerabilityAlert",
      "type": "event"
    },
    {
      "inputs": [],
      "name": "HEALTHY_THRESHOLD",
      "outputs": [
        {
          "internalType": "uint256",
          "name": "",
          "type": "uint256"
        }
      ],
      "stateMutability": "view",
      "type": "function",
      "constant": true
    },
    {
      "inputs": [],
      "name": "MAX_SAFE_EMISSION",
      "outputs": [
        {
          "internalType": "uint256",
          "name": "",
          "type": "uint256"
        }
      ],
      "stateMutability": "view",
      "type": "function",
      "constant": true
    },
    {
      "inputs": [],
      "name": "VULNERABLE_THRESHOLD",
      "outputs": [
        {
          "internalType": "uint256",
          "name": "",
          "type": "uint256"
        }
      ],
      "stateMutability": "view",
      "type": "function",
      "constant": true
    },
    {
      "inputs": [
        {
          "internalType": "string",
          "name": "",
          "type": "string"
        }
      ],
      "name": "cities",
      "outputs": [
        {
          "internalType": "uint256",
          "name": "healthIndex",
          "type": "uint256"
        },
        {
          "internalType": "uint256",
          "name": "rollingHealthScore",
          "type": "uint256"
        },
        {
          "internalType": "bool",
          "name": "isVulnerable",
          "type": "bool"
        },
        {
          "internalType": "bool",
          "name": "exists",
          "type": "bool"
        }
      ],
      "stateMutability": "view",
      "type": "function",
      "constant": true
    },
    {
      "inputs": [],
      "name": "owner",
      "outputs": [
        {
          "internalType": "address",
          "name": "",
          "type": "address"
        }
      ],
      "stateMutability": "view",
      "type": "function",
      "constant": true
    },
    {
      "inputs": [
        {
          "internalType": "uint256",
          "name": "",
          "type": "uint256"
        }
      ],
      "name": "registeredCities",
      "outputs": [
        {
          "internalType": "string",
          "name": "",
          "type": "string"
        }
      ],
      "stateMutability": "view",
      "type": "function",
      "constant": true
    },
    {
      "inputs": [],
      "name": "renounceOwnership",
      "outputs": [],
      "stateMutability": "nonpayable",
      "type": "function"
    },
    {
      "inputs": [
        {
          "internalType": "address",
          "name": "newOwner",
          "type": "address"
        }
      ],
      "name": "transferOwnership",
      "outputs": [],
      "stateMutability": "nonpayable",
      "type": "function"
    },
    {
      "inputs": [
        {
          "internalType": "string",
          "name": "cityName",
          "type": "string"
        }
      ],
      "name": "initializeCity",
      "outputs": [],
      "stateMutability": "nonpayable",
      "type": "function"
    },
    {
      "inputs": [
        {
          "internalType": "string",
          "name": "cityName",
          "type": "string"
        },
        {
          "internalType": "string",
          "name": "sectorName",
          "type": "string"
        },
        {
          "internalType": "uint256",
          "name": "baselineEmission",
          "type": "uint256"
        }
      ],
      "name": "addSector",
      "outputs": [],
      "stateMutability": "nonpayable",
      "type": "function"
    },
    {
      "inputs": [
        {
          "internalType": "string",
          "name": "cityName",
          "type": "string"
        },
        {
          "internalType": "string",
          "name": "sectorName",
          "type": "string"
        },
        {
          "internalType": "uint256",
          "name": "timestamp",
          "type": "uint256"
        },
        {
          "internalType": "uint256",
          "name": "emissionValue",
          "type": "uint256"
        }
      ],
      "name": "recordEmissionAndUpdateHealth",
      "outputs": [],
      "stateMutability": "nonpayable",
      "type": "function"
    },
    {
      "inputs": [
        {
          "internalType": "string",
          "name": "cityName",
          "type": "string"
        }
      ],
      "name": "getCityHealth",
      "outputs": [
        {
          "internalType": "uint256",
          "name": "healthIndex",
          "type": "uint256"
        },
        {
          "internalType": "bool",
          "name": "isVulnerable",
          "type": "bool"
        },
        {
          "internalType": "uint256",
          "name": "numSectors",
          "type": "uint256"
        }
      ],
      "stateMutability": "view",
      "type": "function",
      "constant": true
    },
    {
      "inputs": [
        {
          "internalType": "string",
          "name": "cityName",
          "type": "string"
        },
        {
          "internalType": "string",
          "name": "sectorName",
          "type": "string"
        }
      ],
      "name": "getSectorHealth",
      "outputs": [
        {
          "internalType": "uint256",
          "name": "rollingAverage",
          "type": "uint256"
        },
        {
          "internalType": "uint256",
          "name": "worstEmission",
          "type": "uint256"
        },
        {
          "internalType": "uint256",
          "name": "numReadings",
          "type": "uint256"
        }
      ],
      "stateMutability": "view",
      "type": "function",
      "constant": true
    }
  ],
  "bytecode": "0x608060405234801561000f575f80fd5b5061001933610027565b61002233610027565b610076565b5f80546001600160a01b038381166001600160a01b0319831681178455604051919092169283917f8be0079c531659141344cd1fd0a4f28419497f9722a3daafe3b4186f6b6457e09190a35050565b6113c5806100835f395ff3fe608060405234801561000f575f80fd5b50600436106100cb575f3560e01c8063784ba04d1161008857806387fe4dcc1161006357806387fe4dcc1461021f5780638da5cb5b1461022f578063b7db549814610249578063f2fde38b1461025c575f80fd5b8063784ba04d146101b5578063823da510146101e3578063837246b0146101f1575f80fd5b80631b4abeff146100cf578063330234fc146100f257806339ed75da1461010757806353e7b7321461011a57806365eae2db1461013a578063715018a6146101ad575b5f80fd5b6100df6804563918244f40000081565b6040519081526020015b60405180910390f35b610105610100366004610f4e565b61026f565b005b610105610115366004610f88565b61038c565b61012d610128366004610ff0565b6104fb565b6040516100e99190611029565b610185610148366004610f4e565b80516020818301810180516001808352938301929094019190912092905281549082015460028301546005909301549192909160ff918216911684565b60408051948552602085019390935290151591830191909152151560608201526080016100e9565b6101056105a1565b6101c86101c3366004610f4e565b6105b4565b604080519384529115156020840152908201526060016100e9565b6100df66038d7ea4c6800081565b6102046101ff36600461105b565b61063a565b604080519384526020840192909252908201526060016100e9565b6100df6802b5e3af16b188000081565b5f546040516001600160a01b0390911681526020016100e9565b6101056102573660046110bb565b610763565b61010561026a36600461112a565b6109e7565b610277610a60565b6001816040516102879190611157565b9081526040519081900360200190206005015460ff16156102ef5760405162461bcd60e51b815260206004820152601860248201527f4369747920616c726561647920696e697469616c697a6564000000000000000060448201526064015b60405180910390fd5b600180826040516103009190611157565b908152604051908190036020018120600501805492151560ff199093169290921790915568056bc75e2d631000009060019061033d908490611157565b90815260405190819003602001902055600280546001810182555f919091527f405787fa12a823e0f2b7631cc41b3ba8828b3321ca811111fa75cd3aa3bb5ace0161038882826111f4565b5050565b610394610a60565b6001836040516103a49190611157565b9081526040519081900360200190206005015460ff166103d65760405162461bcd60e51b81526004016102e6906112b0565b6001836040516103e69190611157565b9081526020016040518091039020600301826040516104059190611157565b9081526040519081900360200190206005015460ff16156104605760405162461bcd60e51b8152602060048201526015602482015274536563746f7220616c72656164792065786973747360581b60448201526064016102e6565b5f6001846040516104719190611157565b9081526020016040518091039020600301836040516104909190611157565b90815260405190819003602001812060058101805460ff1916600190811790915560038201859055909250906104c7908690611157565b9081526040516020918190038201902060040180546001810182555f918252919020016104f484826111f4565b5050505050565b6002818154811061050a575f80fd5b905f5260205f20015f91509050805461052290611172565b80601f016020809104026020016040519081016040528092919081815260200182805461054e90611172565b80156105995780601f1061057057610100808354040283529160200191610599565b820191905f5260205f20905b81548152906001019060200180831161057c57829003601f168201915b505050505081565b6105a9610a60565b6105b25f610ab9565b565b5f805f6001846040516105c79190611157565b9081526040519081900360200190206005015460ff166105f95760405162461bcd60e51b81526004016102e6906112b0565b5f60018560405161060a9190611157565b9081526040519081900360200190208054600282015460049092015490955060ff90911693509150509193909250565b5f805f60018560405161064d9190611157565b9081526040519081900360200190206005015460ff1661067f5760405162461bcd60e51b81526004016102e6906112b0565b60018560405161068f9190611157565b9081526020016040518091039020600301846040516106ae9190611157565b9081526040519081900360200190206005015460ff166107045760405162461bcd60e51b8152602060048201526011602482015270536563746f72206e6f742061637469766560781b60448201526064016102e6565b5f6001866040516107159190611157565b9081526020016040518091039020600301856040516107349190611157565b908152604051908190036020019020600281015460048201546001909201549095509093509150509250925092565b61076b610a60565b60018460405161077b9190611157565b9081526040519081900360200190206005015460ff166107ad5760405162461bcd60e51b81526004016102e6906112b0565b6001846040516107bd9190611157565b9081526020016040518091039020600301836040516107dc9190611157565b9081526040519081900360200190206005015460ff166108325760405162461bcd60e51b8152602060048201526011602482015270536563746f72206e6f742061637469766560781b60448201526064016102e6565b5f61084582670de0b6b3a76400006112f2565b90505f6001866040516108589190611157565b9081526020016040518091039020600301856040516108779190611157565b90815260408051602092819003830190205f8781529281905291206002015490915060ff16156108f95760405162461bcd60e51b815260206004820152602760248201527f456d697373696f6e20616c7265616479207265636f7264656420666f722074686044820152666973206461746560c81b60648201526084016102e6565b60408051606081018252858152602080820185815260018385018181525f8a81528785529586209451855591518482015590516002909301805460ff19169315159390931790925583820180549283018155835290912001849055600481015482111561096857600481018290555b6109728686610b08565b61097b86610bf9565b846040516109899190611157565b60405180910390208660405161099f9190611157565b6040805191829003822085835260208301889052917fe281c730c55601ea60cd77b92a6cdf304133843e4ab04641feea0c539da63a3b910160405180910390a3505050505050565b6109ef610a60565b6001600160a01b038116610a545760405162461bcd60e51b815260206004820152602660248201527f4f776e61626c653a206e6577206f776e657220697320746865207a65726f206160448201526564647265737360d01b60648201526084016102e6565b610a5d81610ab9565b50565b5f546001600160a01b031633146105b25760405162461bcd60e51b815260206004820181905260248201527f4f776e61626c653a2063616c6c6572206973206e6f7420746865206f776e657260448201526064016102e6565b5f80546001600160a01b038381166001600160a01b0319831681178455604051919092169283917f8be0079c531659141344cd1fd0a4f28419497f9722a3daafe3b4186f6b6457e09190a35050565b5f600183604051610b199190611157565b908152602001604051809103902060030182604051610b389190611157565b90815260405190819003602001902060018101549091506007905f9081905b5f81118015610b6557508382105b15610bda57610bb8855f600180830190610b7f9086611309565b81548110610b8f57610b8f61131c565b905f5260205f20015481526020019081526020015f206001015484610e9290919063ffffffff16565b925081610bc481611330565b9250508080610bd290611348565b915050610b57565b508015610bf157610beb8282610ea6565b60028501555b505050505050565b5f600182604051610c0a9190611157565b908152602001604051809103902090505f805f5b6004840154811015610d90575f846004018281548110610c4057610c4061131c565b905f5260205f20018054610c5390611172565b80601f0160208091040260200160405190810160405280929190818152602001828054610c7f90611172565b8015610cca5780601f10610ca157610100808354040283529160200191610cca565b820191905f5260205f20905b815481529060010190602001808311610cad57829003601f168201915b505050505090505f8560030182604051610ce49190611157565b908152602001604051809103902090505f81600201541115610d7b575f66038d7ea4c68000826002015411610d23575068056bc75e2d63100000610d59565b6002820154610d5690610d3e66038d7ea4c6800060646112f2565b610d5090670de0b6b3a76400006112f2565b90610ea6565b90505b610d6b86670de0b6b3a7640000610e92565b9550610d778582610e92565b9450505b50508080610d8890611330565b915050610c1e565b508115610e8c575f610da28284610ea6565b80855560028501805460ff1981166802b5e3af16b188000084101790915560405191925060ff1690610dd5908790611157565b60408051918290038220600288015485845260ff16151560208401524283830152905190917f8dca4dd55423ef5a9ee74e18b6beb0c752e5e1f473378e38e102c6eb37758968919081900360600190a280158015610e375750600285015460ff165b15610bf15785604051610e4a9190611157565b60408051918290038220848352426020840152917f1da8019c82592ea2daf24ade21204091bac70febc303cf9448d7a028fed5698b910160405180910390a250505b50505050565b5f610e9d828461135d565b90505b92915050565b5f610e9d8284611370565b634e487b7160e01b5f52604160045260245ffd5b5f82601f830112610ed4575f80fd5b813567ffffffffffffffff80821115610eef57610eef610eb1565b604051601f8301601f19908116603f01168101908282118183101715610f1757610f17610eb1565b81604052838152866020858801011115610f2f575f80fd5b836020870160208301375f602085830101528094505050505092915050565b5f60208284031215610f5e575f80fd5b813567ffffffffffffffff811115610f74575f80fd5b610f8084828501610ec5565b949350505050565b5f805f60608486031215610f9a575f80fd5b833567ffffffffffffffff80821115610fb1575f80fd5b610fbd87838801610ec5565b94506020860135915080821115610fd2575f80fd5b50610fdf86828701610ec5565b925050604084013590509250925092565b5f60208284031215611000575f80fd5b5035919050565b5f5b83811015611021578181015183820152602001611009565b50505f910152565b602081525f8251806020840152611047816040850160208701611007565b601f01601f19169190910160400192915050565b5f806040838503121561106c575f80fd5b823567ffffffffffffffff80821115611083575f80fd5b61108f86838701610ec5565b935060208501359150808211156110a4575f80fd5b506110b185828601610ec5565b9150509250929050565b5f805f80608085870312156110ce575f80fd5b843567ffffffffffffffff808211156110e5575f80fd5b6110f188838901610ec5565b95506020870135915080821115611106575f80fd5b5061111387828801610ec5565b949794965050505060408301359260600135919050565b5f6020828403121561113a575f80fd5b81356001600160a01b0381168114611150575f80fd5b9392505050565b5f8251611168818460208701611007565b9190910192915050565b600181811c9082168061118657607f821691505b6020821081036111a457634e487b7160e01b5f52602260045260245ffd5b50919050565b601f8211156111ef575f81815260208120601f850160051c810160208610156111d05750805b601f850160051c820191505b81811015610bf1578281556001016111dc565b505050565b815167ffffffffffffffff81111561120e5761120e610eb1565b6112228161121c8454611172565b846111aa565b602080601f831160018114611255575f841561123e5750858301515b5f19600386901b1c1916600185901b178555610bf1565b5f85815260208120601f198616915b8281101561128357888601518255948401946001909101908401611264565b50858210156112a057878501515f19600388901b60f8161c191681555b5050505050600190811b01905550565b60208082526014908201527310da5d1e481b9bdd081a5b9a5d1a585b1a5e995960621b604082015260600190565b634e487b7160e01b5f52601160045260245ffd5b8082028115828204841417610ea057610ea06112de565b81810381811115610ea057610ea06112de565b634e487b7160e01b5f52603260045260245ffd5b5f60018201611341576113416112de565b5060010190565b5f81611356576113566112de565b505f190190565b80820180821115610ea057610ea06112de565b5f8261138a57634e487b7160e01b5f52601260045260245ffd5b50049056fea264697066735822122073460098aeee7fb1cf4093578bcbbe123d80ca1d3fa45a7d3bc9f2484de3272364736f6c63430008140033",
  "immutableReferences": {},
  "source": "// SPDX-License-Identifier: MIT\r\npragma solidity ^0.8.0;\r\n\r\nimport \"@openzeppelin/contracts/access/Ownable.sol\";\r\nimport \"@openzeppelin/contracts/utils/math/SafeMath.sol\";\r\n\r\ncontract CityHealthCalculator is Ownable {\r\n    using SafeMath for uint256;\r\n\r\n    constructor() {\r\n        _transferOwnership(msg.sender);\r\n    }\r\n    using SafeMath for uint256;\r\n    using SafeMath for uint256;\r\n\r\n    struct DailyEmission {\r\n        uint256 timestamp;\r\n        uint256 value;      // Scaled by 1e18\r\n        bool recorded;\r\n    }\r\n\r\n    struct SectorHealth {\r\n        mapping(uint256 => DailyEmission) dailyEmissions;\r\n        uint256[] recordedDates;\r\n        uint256 rollingAverage;    // 7-day average, scaled by 1e18\r\n        uint256 baselineEmission;  // Reference point for health calculation\r\n        uint256 worstEmission;     // Highest recorded emission\r\n        bool isActive;\r\n    }\r\n\r\n    struct CityHealth {\r\n        uint256 healthIndex;           // 0-100 scale, 100 being healthiest\r\n        uint256 rollingHealthScore;    // 7-day average health score\r\n        bool isVulnerable;\r\n        mapping(string => SectorHealth) sectors;\r\n        string[] activeSectors;\r\n        bool exists;\r\n    }\r\n\r\n    // State variables\r\n    mapping(string => CityHealth) public cities;\r\n    string[] public registeredCities;\r\n\r\n    // Thresholds (scaled by 1e18)\r\n    uint256 public constant HEALTHY_THRESHOLD = 80 * 1e18;        // 80/100 score\r\n    uint256 public constant VULNERABLE_THRESHOLD = 50 * 1e18;     // 50/100 score\r\n    uint256 public constant MAX_SAFE_EMISSION = 0.001 * 1e18;     // Based on data pattern\r\n\r\n    // Events\r\n    event CityHealthUpdated(\r\n        string indexed cityName,\r\n        uint256 healthIndex,\r\n        bool isVulnerable,\r\n        uint256 timestamp\r\n    );\r\n    event SectorEmissionRecorded(\r\n        string indexed cityName,\r\n        string indexed sector,\r\n        uint256 value,\r\n        uint256 timestamp\r\n    );\r\n    event VulnerabilityAlert(\r\n        string indexed cityName,\r\n        uint256 healthIndex,\r\n        uint256 timestamp\r\n    );\r\n\r\n    // Initialize a city\r\n    function initializeCity(string memory cityName) external onlyOwner {\r\n        require(!cities[cityName].exists, \"City already initialized\");\r\n        \r\n        cities[cityName].exists = true;\r\n        cities[cityName].healthIndex = 100 * 1e18; // Start at perfect health\r\n        registeredCities.push(cityName);\r\n    }\r\n\r\n    // Add sector to city\r\n    function addSector(\r\n        string memory cityName,\r\n        string memory sectorName,\r\n        uint256 baselineEmission\r\n    ) external onlyOwner {\r\n        require(cities[cityName].exists, \"City not initialized\");\r\n        require(!cities[cityName].sectors[sectorName].isActive, \"Sector already exists\");\r\n\r\n        SectorHealth storage newSector = cities[cityName].sectors[sectorName];\r\n        newSector.isActive = true;\r\n        newSector.baselineEmission = baselineEmission;\r\n        cities[cityName].activeSectors.push(sectorName);\r\n    }\r\n\r\n    // Record daily emission and update health\r\n    function recordEmissionAndUpdateHealth(\r\n        string memory cityName,\r\n        string memory sectorName,\r\n        uint256 timestamp,\r\n        uint256 emissionValue\r\n    ) external onlyOwner {\r\n        require(cities[cityName].exists, \"City not initialized\");\r\n        require(cities[cityName].sectors[sectorName].isActive, \"Sector not active\");\r\n\r\n        // Scale the emission value\r\n        uint256 scaledEmission = emissionValue * 1e18;\r\n        \r\n        SectorHealth storage sector = cities[cityName].sectors[sectorName];\r\n        \r\n        // Record emission\r\n        require(!sector.dailyEmissions[timestamp].recorded, \"Emission already recorded for this date\");\r\n        sector.dailyEmissions[timestamp] = DailyEmission({\r\n            timestamp: timestamp,\r\n            value: scaledEmission,\r\n            recorded: true\r\n        });\r\n        sector.recordedDates.push(timestamp);\r\n\r\n        // Update worst emission if necessary\r\n        if (scaledEmission > sector.worstEmission) {\r\n            sector.worstEmission = scaledEmission;\r\n        }\r\n\r\n        // Update rolling average\r\n        updateRollingAverage(cityName, sectorName);\r\n        \r\n        // Calculate new health index\r\n        calculateCityHealth(cityName);\r\n\r\n        emit SectorEmissionRecorded(cityName, sectorName, scaledEmission, timestamp);\r\n    }\r\n\r\n    // Update 7-day rolling average for a sector\r\n    function updateRollingAverage(string memory cityName, string memory sectorName) internal {\r\n        SectorHealth storage sector = cities[cityName].sectors[sectorName];\r\n        \r\n        uint256 daysToAverage = 7;\r\n        uint256 totalEmissions = 0;\r\n        uint256 count = 0;\r\n        \r\n        for (uint256 i = sector.recordedDates.length; i > 0 && count < daysToAverage; i--) {\r\n            totalEmissions = totalEmissions.add(\r\n                sector.dailyEmissions[sector.recordedDates[i-1]].value\r\n            );\r\n            count++;\r\n        }\r\n        \r\n        if (count > 0) {\r\n            sector.rollingAverage = totalEmissions.div(count);\r\n        }\r\n    }\r\n\r\n    // Calculate city health based on sector emissions\r\n    function calculateCityHealth(string memory cityName) internal {\r\n        CityHealth storage city = cities[cityName];\r\n        uint256 totalWeight = 0;\r\n        uint256 weightedHealth = 0;\r\n\r\n        for (uint256 i = 0; i < city.activeSectors.length; i++) {\r\n            string memory sectorName = city.activeSectors[i];\r\n            SectorHealth storage sector = city.sectors[sectorName];\r\n            \r\n            if (sector.rollingAverage > 0) {\r\n                // Calculate sector health (100 = best, 0 = worst)\r\n                uint256 sectorHealth;\r\n                if (sector.rollingAverage <= MAX_SAFE_EMISSION) {\r\n                    sectorHealth = 100 * 1e18;\r\n                } else {\r\n                    // Inverse relationship: higher emissions = lower health\r\n                    sectorHealth = (MAX_SAFE_EMISSION * 100 * 1e18).div(sector.rollingAverage);\r\n                }\r\n                \r\n                // For now, all sectors have equal weight\r\n                totalWeight = totalWeight.add(1e18);\r\n                weightedHealth = weightedHealth.add(sectorHealth);\r\n            }\r\n        }\r\n\r\n        if (totalWeight > 0) {\r\n            uint256 newHealthIndex = weightedHealth.div(totalWeight);\r\n            city.healthIndex = newHealthIndex;\r\n            \r\n            // Update vulnerability status\r\n            bool wasVulnerable = city.isVulnerable;\r\n            city.isVulnerable = newHealthIndex < VULNERABLE_THRESHOLD;\r\n\r\n            emit CityHealthUpdated(cityName, newHealthIndex, city.isVulnerable, block.timestamp);\r\n\r\n            // Emit vulnerability alert if status changed to vulnerable\r\n            if (!wasVulnerable && city.isVulnerable) {\r\n                emit VulnerabilityAlert(cityName, newHealthIndex, block.timestamp);\r\n            }\r\n        }\r\n    }\r\n\r\n    // View functions\r\n    function getCityHealth(string memory cityName) \r\n        external \r\n        view \r\n        returns (\r\n            uint256 healthIndex,\r\n            bool isVulnerable,\r\n            uint256 numSectors\r\n        ) \r\n    {\r\n        require(cities[cityName].exists, \"City not initialized\");\r\n        CityHealth storage city = cities[cityName];\r\n        return (\r\n            city.healthIndex,\r\n            city.isVulnerable,\r\n            city.activeSectors.length\r\n        );\r\n    }\r\n\r\n    function getSectorHealth(string memory cityName, string memory sectorName)\r\n        external\r\n        view\r\n        returns (\r\n            uint256 rollingAverage,\r\n            uint256 worstEmission,\r\n            uint256 numReadings\r\n        )\r\n    {\r\n        require(cities[cityName].exists, \"City not initialized\");\r\n        require(cities[cityName].sectors[sectorName].isActive, \"Sector not active\");\r\n        \r\n        SectorHealth storage sector = cities[cityName].sectors[sectorName];\r\n        return (\r\n            sector.rollingAverage,\r\n            sector.worstEmission,\r\n            sector.recordedDates.length\r\n        );\r\n    }\r\n}\r\n",
  "sourcePath": "C:\\Users\\Bonsu\\Documents\\Blockchain Multi Industrial Service Center\\Blockchain MultiIndustrial Projects\\BlockchainMultiIndustryRepo\\contracts\\climate\\CityHealthCalculator.sol",
  "compiler": {
    "name": "solc",
    "version": "0.8.20+commit.a1b79de6.Emscripten.clang"
  },
  "schemaVersion": "3.4.16",
  "updatedAt": "2025-04-16T14:10:46.619Z",
  "networkType": "ethereum",
  "devdoc": {
    "kind": "dev",
    "methods": {
      "owner()": {
        "details": "Returns the address of the current owner."
      },
      "renounceOwnership()": {
        "details": "Leaves the contract without owner. It will not be possible to call `onlyOwner` functions. Can only be called by the current owner. NOTE: Renouncing ownership will leave the contract without an owner, thereby disabling any functionality that is only available to the owner."
      },
      "transferOwnership(address)": {
        "details": "Transfers ownership of the contract to a new account (`newOwner`). Can only be called by the current owner."
      }
    },
    "version": 1
  },
  "userdoc": {
    "kind": "user",
    "methods": {},
    "version": 1
  }
}