{
  "contractName": "ClusteringContract",
  "abi": [
    {
      "inputs": [
        {
          "internalType": "address",
          "name": "_nidRegistryAddress",
          "type": "address"
        },
        {
          "internalType": "address",
          "name": "_niasRegistryAddress",
          "type": "address"
        },
        {
          "internalType": "address",
          "name": "_abatlTranslationAddress",
          "type": "address"
        }
      ],
      "stateMutability": "nonpayable",
      "type": "constructor"
    },
    {
      "anonymous": false,
      "inputs": [
        {
          "indexed": true,
          "internalType": "uint8",
          "name": "clusterId",
          "type": "uint8"
        },
        {
          "indexed": false,
          "internalType": "string",
          "name": "clusterName",
          "type": "string"
        },
        {
          "indexed": false,
          "internalType": "uint8",
          "name": "clusterType",
          "type": "uint8"
        }
      ],
      "name": "ClusterCreated",
      "type": "event"
    },
    {
      "anonymous": false,
      "inputs": [
        {
          "indexed": true,
          "internalType": "uint8",
          "name": "clusterId",
          "type": "uint8"
        },
        {
          "indexed": false,
          "internalType": "uint16",
          "name": "avgLatency",
          "type": "uint16"
        },
        {
          "indexed": false,
          "internalType": "uint16",
          "name": "avgBandwidth",
          "type": "uint16"
        }
      ],
      "name": "ClusterMetricsUpdated",
      "type": "event"
    },
    {
      "anonymous": false,
      "inputs": [
        {
          "indexed": true,
          "internalType": "uint8",
          "name": "oldClusterId",
          "type": "uint8"
        },
        {
          "indexed": true,
          "internalType": "uint8",
          "name": "newClusterId",
          "type": "uint8"
        }
      ],
      "name": "ClusterReclustered",
      "type": "event"
    },
    {
      "anonymous": false,
      "inputs": [
        {
          "indexed": true,
          "internalType": "uint8",
          "name": "clusterId",
          "type": "uint8"
        },
        {
          "indexed": false,
          "internalType": "uint256",
          "name": "validUntil",
          "type": "uint256"
        },
        {
          "indexed": false,
          "internalType": "bool",
          "name": "isActive",
          "type": "bool"
        }
      ],
      "name": "ClusterUpdated",
      "type": "event"
    },
    {
      "anonymous": false,
      "inputs": [
        {
          "indexed": true,
          "internalType": "bytes32",
          "name": "nodeId",
          "type": "bytes32"
        },
        {
          "indexed": true,
          "internalType": "uint8",
          "name": "clusterId",
          "type": "uint8"
        }
      ],
      "name": "NodeAddedToCluster",
      "type": "event"
    },
    {
      "anonymous": false,
      "inputs": [
        {
          "indexed": true,
          "internalType": "bytes32",
          "name": "nodeId",
          "type": "bytes32"
        },
        {
          "indexed": true,
          "internalType": "uint8",
          "name": "clusterId",
          "type": "uint8"
        }
      ],
      "name": "NodeRemovedFromCluster",
      "type": "event"
    },
    {
      "inputs": [],
      "name": "abatlTranslation",
      "outputs": [
        {
          "internalType": "contract ABATLTranslation",
          "name": "",
          "type": "address"
        }
      ],
      "stateMutability": "view",
      "type": "function",
      "constant": true
    },
    {
      "inputs": [
        {
          "internalType": "uint256",
          "name": "",
          "type": "uint256"
        }
      ],
      "name": "allClusterIds",
      "outputs": [
        {
          "internalType": "uint8",
          "name": "",
          "type": "uint8"
        }
      ],
      "stateMutability": "view",
      "type": "function",
      "constant": true
    },
    {
      "inputs": [
        {
          "internalType": "uint8",
          "name": "",
          "type": "uint8"
        },
        {
          "internalType": "uint256",
          "name": "",
          "type": "uint256"
        }
      ],
      "name": "clusterMembers",
      "outputs": [
        {
          "internalType": "bytes32",
          "name": "",
          "type": "bytes32"
        }
      ],
      "stateMutability": "view",
      "type": "function",
      "constant": true
    },
    {
      "inputs": [
        {
          "internalType": "uint8",
          "name": "",
          "type": "uint8"
        }
      ],
      "name": "clusterMetrics",
      "outputs": [
        {
          "internalType": "uint16",
          "name": "avgLatency",
          "type": "uint16"
        },
        {
          "internalType": "uint16",
          "name": "avgBandwidth",
          "type": "uint16"
        },
        {
          "internalType": "uint8",
          "name": "avgSecurityLevel",
          "type": "uint8"
        },
        {
          "internalType": "uint256",
          "name": "successfulTransmissions",
          "type": "uint256"
        },
        {
          "internalType": "uint256",
          "name": "failedTransmissions",
          "type": "uint256"
        },
        {
          "internalType": "uint256",
          "name": "lastUpdated",
          "type": "uint256"
        }
      ],
      "stateMutability": "view",
      "type": "function",
      "constant": true
    },
    {
      "inputs": [
        {
          "internalType": "uint8",
          "name": "",
          "type": "uint8"
        }
      ],
      "name": "clusters",
      "outputs": [
        {
          "internalType": "uint8",
          "name": "clusterId",
          "type": "uint8"
        },
        {
          "internalType": "string",
          "name": "clusterName",
          "type": "string"
        },
        {
          "internalType": "uint8",
          "name": "clusterType",
          "type": "uint8"
        },
        {
          "internalType": "uint256",
          "name": "creationTime",
          "type": "uint256"
        },
        {
          "internalType": "uint256",
          "name": "validUntil",
          "type": "uint256"
        },
        {
          "internalType": "uint8",
          "name": "securityLevel",
          "type": "uint8"
        },
        {
          "internalType": "uint16",
          "name": "maxLatency",
          "type": "uint16"
        },
        {
          "internalType": "uint16",
          "name": "minBandwidth",
          "type": "uint16"
        },
        {
          "internalType": "bool",
          "name": "isActive",
          "type": "bool"
        },
        {
          "internalType": "uint256",
          "name": "nodeCount",
          "type": "uint256"
        }
      ],
      "stateMutability": "view",
      "type": "function",
      "constant": true
    },
    {
      "inputs": [
        {
          "internalType": "bytes32",
          "name": "",
          "type": "bytes32"
        },
        {
          "internalType": "uint8",
          "name": "",
          "type": "uint8"
        }
      ],
      "name": "memberships",
      "outputs": [
        {
          "internalType": "bytes32",
          "name": "nodeId",
          "type": "bytes32"
        },
        {
          "internalType": "uint8",
          "name": "clusterId",
          "type": "uint8"
        },
        {
          "internalType": "uint256",
          "name": "joinTime",
          "type": "uint256"
        },
        {
          "internalType": "bool",
          "name": "isActive",
          "type": "bool"
        }
      ],
      "stateMutability": "view",
      "type": "function",
      "constant": true
    },
    {
      "inputs": [],
      "name": "niasRegistry",
      "outputs": [
        {
          "internalType": "contract NIASRegistry",
          "name": "",
          "type": "address"
        }
      ],
      "stateMutability": "view",
      "type": "function",
      "constant": true
    },
    {
      "inputs": [],
      "name": "nidRegistry",
      "outputs": [
        {
          "internalType": "contract NIDRegistry",
          "name": "",
          "type": "address"
        }
      ],
      "stateMutability": "view",
      "type": "function",
      "constant": true
    },
    {
      "inputs": [
        {
          "internalType": "bytes32",
          "name": "",
          "type": "bytes32"
        },
        {
          "internalType": "uint256",
          "name": "",
          "type": "uint256"
        }
      ],
      "name": "nodeClusters",
      "outputs": [
        {
          "internalType": "uint8",
          "name": "",
          "type": "uint8"
        }
      ],
      "stateMutability": "view",
      "type": "function",
      "constant": true
    },
    {
      "inputs": [
        {
          "internalType": "uint8",
          "name": "_clusterId",
          "type": "uint8"
        },
        {
          "internalType": "string",
          "name": "_clusterName",
          "type": "string"
        },
        {
          "internalType": "uint8",
          "name": "_clusterType",
          "type": "uint8"
        },
        {
          "internalType": "uint256",
          "name": "_validUntil",
          "type": "uint256"
        },
        {
          "internalType": "uint8",
          "name": "_securityLevel",
          "type": "uint8"
        },
        {
          "internalType": "uint16",
          "name": "_maxLatency",
          "type": "uint16"
        },
        {
          "internalType": "uint16",
          "name": "_minBandwidth",
          "type": "uint16"
        }
      ],
      "name": "createCluster",
      "outputs": [],
      "stateMutability": "nonpayable",
      "type": "function"
    },
    {
      "inputs": [
        {
          "internalType": "uint8",
          "name": "_clusterId",
          "type": "uint8"
        },
        {
          "internalType": "uint256",
          "name": "_validUntil",
          "type": "uint256"
        },
        {
          "internalType": "uint8",
          "name": "_securityLevel",
          "type": "uint8"
        },
        {
          "internalType": "uint16",
          "name": "_maxLatency",
          "type": "uint16"
        },
        {
          "internalType": "uint16",
          "name": "_minBandwidth",
          "type": "uint16"
        },
        {
          "internalType": "bool",
          "name": "_isActive",
          "type": "bool"
        }
      ],
      "name": "updateCluster",
      "outputs": [],
      "stateMutability": "nonpayable",
      "type": "function"
    },
    {
      "inputs": [
        {
          "internalType": "bytes32",
          "name": "_nodeId",
          "type": "bytes32"
        },
        {
          "internalType": "uint8",
          "name": "_clusterId",
          "type": "uint8"
        }
      ],
      "name": "addNodeToCluster",
      "outputs": [],
      "stateMutability": "nonpayable",
      "type": "function"
    },
    {
      "inputs": [
        {
          "internalType": "bytes32",
          "name": "_nodeId",
          "type": "bytes32"
        },
        {
          "internalType": "uint8",
          "name": "_clusterId",
          "type": "uint8"
        }
      ],
      "name": "removeNodeFromCluster",
      "outputs": [],
      "stateMutability": "nonpayable",
      "type": "function"
    },
    {
      "inputs": [
        {
          "internalType": "uint8",
          "name": "_clusterId",
          "type": "uint8"
        },
        {
          "internalType": "uint16",
          "name": "_avgLatency",
          "type": "uint16"
        },
        {
          "internalType": "uint16",
          "name": "_avgBandwidth",
          "type": "uint16"
        },
        {
          "internalType": "uint8",
          "name": "_avgSecurityLevel",
          "type": "uint8"
        },
        {
          "internalType": "uint256",
          "name": "_successfulTransmissions",
          "type": "uint256"
        },
        {
          "internalType": "uint256",
          "name": "_failedTransmissions",
          "type": "uint256"
        }
      ],
      "name": "updateClusterMetrics",
      "outputs": [],
      "stateMutability": "nonpayable",
      "type": "function"
    },
    {
      "inputs": [
        {
          "internalType": "uint8",
          "name": "_oldClusterId",
          "type": "uint8"
        },
        {
          "internalType": "uint8",
          "name": "_newClusterId",
          "type": "uint8"
        }
      ],
      "name": "reclusterNodes",
      "outputs": [],
      "stateMutability": "nonpayable",
      "type": "function"
    },
    {
      "inputs": [
        {
          "internalType": "uint8",
          "name": "_clusterId",
          "type": "uint8"
        }
      ],
      "name": "getClusterDetails",
      "outputs": [
        {
          "internalType": "uint8",
          "name": "",
          "type": "uint8"
        },
        {
          "internalType": "string",
          "name": "",
          "type": "string"
        },
        {
          "internalType": "uint8",
          "name": "",
          "type": "uint8"
        },
        {
          "internalType": "uint256",
          "name": "",
          "type": "uint256"
        },
        {
          "internalType": "uint256",
          "name": "",
          "type": "uint256"
        },
        {
          "internalType": "uint8",
          "name": "",
          "type": "uint8"
        },
        {
          "internalType": "uint16",
          "name": "",
          "type": "uint16"
        },
        {
          "internalType": "uint16",
          "name": "",
          "type": "uint16"
        },
        {
          "internalType": "bool",
          "name": "",
          "type": "bool"
        },
        {
          "internalType": "uint256",
          "name": "",
          "type": "uint256"
        }
      ],
      "stateMutability": "view",
      "type": "function",
      "constant": true
    },
    {
      "inputs": [
        {
          "internalType": "uint8",
          "name": "_clusterId",
          "type": "uint8"
        }
      ],
      "name": "getClusterMetrics",
      "outputs": [
        {
          "internalType": "uint16",
          "name": "",
          "type": "uint16"
        },
        {
          "internalType": "uint16",
          "name": "",
          "type": "uint16"
        },
        {
          "internalType": "uint8",
          "name": "",
          "type": "uint8"
        },
        {
          "internalType": "uint256",
          "name": "",
          "type": "uint256"
        },
        {
          "internalType": "uint256",
          "name": "",
          "type": "uint256"
        },
        {
          "internalType": "uint256",
          "name": "",
          "type": "uint256"
        }
      ],
      "stateMutability": "view",
      "type": "function",
      "constant": true
    },
    {
      "inputs": [
        {
          "internalType": "uint8",
          "name": "_clusterId",
          "type": "uint8"
        }
      ],
      "name": "getClusterMembers",
      "outputs": [
        {
          "internalType": "bytes32[]",
          "name": "",
          "type": "bytes32[]"
        }
      ],
      "stateMutability": "view",
      "type": "function",
      "constant": true
    },
    {
      "inputs": [
        {
          "internalType": "bytes32",
          "name": "_nodeId",
          "type": "bytes32"
        }
      ],
      "name": "getNodeClusters",
      "outputs": [
        {
          "internalType": "uint8[]",
          "name": "",
          "type": "uint8[]"
        }
      ],
      "stateMutability": "view",
      "type": "function",
      "constant": true
    },
    {
      "inputs": [
        {
          "internalType": "bytes32",
          "name": "_nodeId",
          "type": "bytes32"
        },
        {
          "internalType": "uint8",
          "name": "_clusterId",
          "type": "uint8"
        }
      ],
      "name": "isNodeInCluster",
      "outputs": [
        {
          "internalType": "bool",
          "name": "",
          "type": "bool"
        }
      ],
      "stateMutability": "view",
      "type": "function",
      "constant": true
    },
    {
      "inputs": [],
      "name": "getClusterCount",
      "outputs": [
        {
          "internalType": "uint256",
          "name": "",
          "type": "uint256"
        }
      ],
      "stateMutability": "view",
      "type": "function",
      "constant": true
    }
  ],
  "bytecode": "0x608060405234801562000010575f80fd5b50604051620022fd380380620022fd833981016040819052620000339162000091565b5f80546001600160a01b039485166001600160a01b031991821617909155600180549385169382169390931790925560028054919093169116179055620000d8565b80516001600160a01b03811681146200008c575f80fd5b919050565b5f805f60608486031215620000a4575f80fd5b620000af8462000075565b9250620000bf6020850162000075565b9150620000cf6040850162000075565b90509250925092565b61221780620000e65f395ff3fe608060405234801561000f575f80fd5b5060043610610132575f3560e01c80637b4d2cdf116100b45780639486cb6d116100795780639486cb6d146103815780639b60730014610394578063af0e1761146103b7578063c77b606f146103bf578063c7c02e44146103d2578063cb4126eb146103f2575f80fd5b80637b4d2cdf146102c75780637d752c03146102ec57806383628375146102ff5780638459cde51461032057806384fe36df14610333575f80fd5b806344414185116100fa57806344414185146101c057806354a6c2371461022a5780635a4306581461027857806363dc310b146102a157806369a4112b146102b4575f80fd5b80630ecb0218146101365780632220ca0b146101655780632a7af13b146101855780632b9aebb91461019a57806338883c44146101ad575b5f80fd5b5f54610148906001600160a01b031681565b6040516001600160a01b0390911681526020015b60405180910390f35b610178610173366004611b70565b610405565b60405161015c9190611b89565b610198610193366004611bf1565b6104a4565b005b6101986101a8366004611cf6565b61081b565b6101986101bb366004611cf6565b610d58565b6102066101ce366004611cf6565b600660209081525f92835260408084209091529082529020805460018201546002830154600390930154919260ff9182169290911684565b6040805194855260ff9093166020850152918301521515606082015260800161015c565b61023d610238366004611b70565b610ece565b6040805161ffff978816815296909516602087015260ff909316938501939093526060840152608083019190915260a082015260c00161015c565b61028b610286366004611b70565b610f8f565b60405161015c9a99989796959493929190611d63565b6101986102af366004611ddc565b611199565b600254610148906001600160a01b031681565b6102da6102d5366004611e49565b61129e565b60405160ff909116815260200161015c565b600154610148906001600160a01b031681565b61031261030d366004611e60565b6112cf565b60405190815260200161015c565b61028b61032e366004611b70565b6112fa565b61023d610341366004611b70565b60076020525f9081526040902080546001820154600283015460039093015461ffff8084169462010000850490911693640100000000900460ff16929186565b61019861038f366004611e88565b6113e9565b6103a76103a2366004611cf6565b6114b9565b604051901515815260200161015c565b600854610312565b6101986103cd366004611eea565b61150c565b6103e56103e0366004611e49565b6118c6565b60405161015c9190611f12565b6102da610400366004611f4c565b611940565b60ff81165f90815260036020819052604082200154606091036104435760405162461bcd60e51b815260040161043a90611f6c565b60405180910390fd5b60ff82165f908152600460209081526040918290208054835181840281018401909452808452909183018282801561049857602002820191905f5260205f20905b815481526020019060010190808311610484575b50505050509050919050565b60ff87165f9081526003602081905260409091200154156105005760405162461bcd60e51b8152602060048201526016602482015275436c757374657220616c72656164792065786973747360501b604482015260640161043a565b60018560ff16111561054b5760405162461bcd60e51b8152602060048201526014602482015273496e76616c696420636c7573746572207479706560601b604482015260640161043a565b42841161056a5760405162461bcd60e51b815260040161043a90611f9c565b604080516101408101825260ff89811680835260208084018b81528a841685870152426060860152608085018a905288841660a086015261ffff88811660c0870152871660e0860152600161010086018190525f61012087018190529384526003909252949091208351815460ff19169316929092178255925191929091908201906105f69082612063565b506040820151816002015f6101000a81548160ff021916908360ff160217905550606082015181600301556080820151816004015560a0820151816005015f6101000a81548160ff021916908360ff16021790555060c08201518160050160016101000a81548161ffff021916908361ffff16021790555060e08201518160050160036101000a81548161ffff021916908361ffff1602179055506101008201518160050160056101000a81548160ff02191690831515021790555061012082015181600601559050506040518060c001604052805f61ffff1681526020015f61ffff1681526020015f60ff1681526020015f81526020015f81526020014281525060075f8960ff1660ff1681526020019081526020015f205f820151815f015f6101000a81548161ffff021916908361ffff1602179055506020820151815f0160026101000a81548161ffff021916908361ffff1602179055506040820151815f0160046101000a81548160ff021916908360ff160217905550606082015181600101556080820151816002015560a08201518160030155905050600887908060018154018082558091505060019003905f5260205f2090602091828204019190069091909190916101000a81548160ff021916908360ff1602179055508660ff167f9a0f39be4da5836902c84ac2da638c0cc455fa91911483fc429437ae6a2bf58c878760405161080a92919061211f565b60405180910390a250505050505050565b60ff81165f90815260036020819052604082200154900361084e5760405162461bcd60e51b815260040161043a90611f6c565b60ff8082165f90815260036020526040902060050154600160281b9004166108b05760405162461bcd60e51b8152602060048201526015602482015274436c7573746572206973206e6f742061637469766560581b604482015260640161043a565b60ff81165f9081526003602052604090206004015442106109095760405162461bcd60e51b815260206004820152601360248201527210db1d5cdd195c881a185cc8195e1c1a5c9959606a1b604482015260640161043a565b60ff8082165f9081526003602052604081206002015490911690819003610a86575f5460405163fc35819760e01b8152600481018590526001600160a01b039091169063fc35819790602401602060405180830381865afa158015610970573d5f803e3d5ffd5b505050506040513d601f19601f820116820180604052508101906109949190612143565b6109d65760405162461bcd60e51b8152602060048201526013602482015272139bd91948191bd95cc81b9bdd08195e1a5cdd606a1b604482015260640161043a565b5f54604051630840733360e41b8152600481018590526001600160a01b0390911690638407333090602401602060405180830381865afa158015610a1c573d5f803e3d5ffd5b505050506040513d601f19601f82011682018060405250810190610a409190612143565b610a815760405162461bcd60e51b81526020600482015260126024820152714e6f6465206973206e6f742061637469766560701b604482015260640161043a565b610bdf565b60015460405163a3fa4f8760e01b8152600481018590526001600160a01b039091169063a3fa4f8790602401602060405180830381865afa158015610acd573d5f803e3d5ffd5b505050506040513d601f19601f82011682018060405250810190610af19190612143565b610b335760405162461bcd60e51b815260206004820152601360248201527213925054c8191bd95cc81b9bdd08195e1a5cdd606a1b604482015260640161043a565b6001546040516313115b2360e11b8152600481018590526001600160a01b0390911690632622b64690602401602060405180830381865afa158015610b7a573d5f803e3d5ffd5b505050506040513d601f19601f82011682018060405250810190610b9e9190612143565b610bdf5760405162461bcd60e51b81526020600482015260126024820152714e494153206973206e6f742061637469766560701b604482015260640161043a565b5f83815260066020908152604080832060ff8616845290915290206002015415610c4b5760405162461bcd60e51b815260206004820152601e60248201527f4e6f646520697320616c726561647920696e2074686520636c75737465720000604482015260640161043a565b6040805160808101825284815260ff8085166020808401828152428587019081526001606087018181525f8c815260068087528a822088835287528a822099518a5594518984018054918a1660ff19928316179055935160028a015590516003988901805491151591909416179092556004845287822080548083018255908352848320018b90558a825260058452878220805491820181558252838220848204018054601f9092166101000a808702970219909116959095179094559183529290925291822001805491610d1f83612179565b909155505060405160ff83169084907f3edcf1c636e8775090f6e4337de2a17029ded202995a5740ec8f558023192986905f90a3505050565b5f82815260066020908152604080832060ff851684529091528120600201549003610dc55760405162461bcd60e51b815260206004820152601a60248201527f4e6f6465206973206e6f7420696e2074686520636c7573746572000000000000604482015260640161043a565b5f82815260066020908152604080832060ff808616855292529091206003015416610e3c5760405162461bcd60e51b815260206004820152602160248201527f4e6f6465206973206e6f742061637469766520696e2074686520636c757374656044820152603960f91b606482015260840161043a565b5f82815260066020908152604080832060ff851684529091529020600301805460ff19169055610e6c828261197e565b610e768183611a42565b60ff81165f908152600360205260408120600601805491610e9683612191565b909155505060405160ff82169083907fa439df8fc96310bd0d792e2fe152c3cd6926fa72a46a36811995dbc8b3b0dfcb905f90a35050565b5f805f805f8060035f8860ff1660ff1681526020019081526020015f20600301545f03610f0d5760405162461bcd60e51b815260040161043a90611f6c565b5050505060ff9283165f90815260076020908152604091829020825160c081018452815461ffff80821680845262010000830490911694830185905264010000000090910490971693810184905260018201546060820181905260028301546080830181905260039093015460a0909201829052969792969395509293509190565b5f60605f805f805f805f8060035f8c60ff1660ff1681526020019081526020015f20600301545f03610fd35760405162461bcd60e51b815260040161043a90611f6c565b60ff808c165f908152600360209081526040808320815161014081019092528054909416815260018401805493949193919284019161101190611fdd565b80601f016020809104026020016040519081016040528092919081815260200182805461103d90611fdd565b80156110885780601f1061105f57610100808354040283529160200191611088565b820191905f5260205f20905b81548152906001019060200180831161106b57829003601f168201915b50505050508152602001600282015f9054906101000a900460ff1660ff1660ff1681526020016003820154815260200160048201548152602001600582015f9054906101000a900460ff1660ff1660ff1681526020016005820160019054906101000a900461ffff1661ffff1661ffff1681526020016005820160039054906101000a900461ffff1661ffff1661ffff1681526020016005820160059054906101000a900460ff161515151581526020016006820154815250509050805f015181602001518260400151836060015184608001518560a001518660c001518760e001518861010001518961012001519a509a509a509a509a509a509a509a509a509a50509193959799509193959799565b60ff86165f9081526003602081905260408220015490036111cc5760405162461bcd60e51b815260040161043a90611f6c565b4285116111eb5760405162461bcd60e51b815260040161043a90611f9c565b60ff8681165f81815260036020908152604091829020600481018a90556005018054861515600160281b810265ff00000000001961ffff8b81166301000000029190911665ffffff00000019918d166101000262ffffff19909516998e169990991793909317929092169690961717905581518981529081019390935290917f79b9bb3864fea3182ad7fb0358efcc7a815b9050c3e254d56bcda26761eefdc491015b60405180910390a2505050505050565b600881815481106112ad575f80fd5b905f5260205f209060209182820401919006915054906101000a900460ff1681565b6004602052815f5260405f2081815481106112e8575f80fd5b905f5260205f20015f91509150505481565b60036020525f90815260409020805460018201805460ff909216929161131f90611fdd565b80601f016020809104026020016040519081016040528092919081815260200182805461134b90611fdd565b80156113965780601f1061136d57610100808354040283529160200191611396565b820191905f5260205f20905b81548152906001019060200180831161137957829003601f168201915b5050506002840154600385015460048601546005870154600690970154959660ff938416969295509093508083169261ffff61010083048116936301000000840490911692600160281b9004909116908a565b60ff86165f90815260036020819052604082200154900361141c5760405162461bcd60e51b815260040161043a90611f6c565b60ff8681165f81815260076020908152604091829020805461ffff8b811663ffffffff19909216821762010000918c169182021764ff000000001916640100000000978b169790970296909617825560018201889055600282018790554260039092019190915582519081529081019390935290917fc84500583268c0e83ee4eec8fcb830bd50e3a40ccfb2beed3e0263cb55914017910161128e565b5f82815260066020908152604080832060ff851684529091528120600201541580159061150357505f83815260066020908152604080832060ff8087168552925290912060030154165b90505b92915050565b60ff82165f90815260036020819052604082200154900361156f5760405162461bcd60e51b815260206004820152601a60248201527f4f6c6420636c757374657220646f6573206e6f74206578697374000000000000604482015260640161043a565b60ff81165f9081526003602081905260408220015490036115d25760405162461bcd60e51b815260206004820152601a60248201527f4e657720636c757374657220646f6573206e6f74206578697374000000000000604482015260640161043a565b60ff8082165f90815260036020526040902060050154600160281b90041661163c5760405162461bcd60e51b815260206004820152601960248201527f4e657720636c7573746572206973206e6f742061637469766500000000000000604482015260640161043a565b60ff81165f90815260036020526040902060040154421061169f5760405162461bcd60e51b815260206004820152601760248201527f4e657720636c7573746572206861732065787069726564000000000000000000604482015260640161043a565b60ff82165f908152600460209081526040808320805482518185028101850190935280835291929091908301828280156116f657602002820191905f5260205f20905b8154815260200190600101908083116116e2575b505050505090505f5b8151811015611874575f82828151811061171b5761171b6121a6565b6020908102919091018101515f81815260068352604080822060ff891683529093529190912060020154909150156117535750611862565b6040805160808101825282815260ff8087166020808401828152428587019081526001606087018181525f8a815260068087528a822088835287528a822099518a5594518984018054918a1660ff19928316179055935160028a015590516003988901805491151591909416179092558882526005845287822080548083018255908352848320858204018054601f9092166101000a8088029802199091169690961790955583815260048352868120805495860181558152828120909401879055918352929092529182200180549161182c83612179565b909155505060405160ff85169082907f3edcf1c636e8775090f6e4337de2a17029ded202995a5740ec8f558023192986905f90a3505b8061186c81612179565b9150506116ff565b5060ff8084165f81815260036020526040808220600501805465ff00000000001916905551928516927f64604326bbbc09b9323bdcce3ec0197dba2f77a9a33eae5d4572cd3a6a6ab99e9190a3505050565b5f8181526005602090815260409182902080548351818402810184019094528084526060939283018282801561049857602002820191905f5260205f20905f905b825461010083900a900460ff16815260206001928301818104948501949093039092029101808411611907575094979650505050505050565b6005602052815f5260405f208181548110611959575f80fd5b905f5260205f209060209182820401919006915091509054906101000a900460ff1681565b60ff81165f908152600460205260408120905b8154811015611a3c57838282815481106119ad576119ad6121a6565b905f5260205f20015403611a2a57815482906119cb906001906121ba565b815481106119db576119db6121a6565b905f5260205f2001548282815481106119f6576119f66121a6565b905f5260205f20018190555081805480611a1257611a126121cd565b600190038181905f5260205f20015f90559055611a3c565b80611a3481612179565b915050611991565b50505050565b5f818152600560205260408120905b8154811015611a3c578360ff16828281548110611a7057611a706121a6565b5f9182526020918290209181049091015460ff601f9092166101000a90041603611b495781548290611aa4906001906121ba565b81548110611ab457611ab46121a6565b905f5260205f2090602091828204019190069054906101000a900460ff16828281548110611ae457611ae46121a6565b905f5260205f2090602091828204019190066101000a81548160ff021916908360ff16021790555081805480611b1c57611b1c6121cd565b600190038181905f5260205f2090602091828204019190066101000a81549060ff02191690559055611a3c565b80611b5381612179565b915050611a51565b803560ff81168114611b6b575f80fd5b919050565b5f60208284031215611b80575f80fd5b61150382611b5b565b602080825282518282018190525f9190848201906040850190845b81811015611bc057835183529284019291840191600101611ba4565b50909695505050505050565b634e487b7160e01b5f52604160045260245ffd5b803561ffff81168114611b6b575f80fd5b5f805f805f805f60e0888a031215611c07575f80fd5b611c1088611b5b565b9650602088013567ffffffffffffffff80821115611c2c575f80fd5b818a0191508a601f830112611c3f575f80fd5b813581811115611c5157611c51611bcc565b604051601f8201601f19908116603f01168101908382118183101715611c7957611c79611bcc565b816040528281528d6020848701011115611c91575f80fd5b826020860160208301375f60208483010152809a505050505050611cb760408901611b5b565b945060608801359350611ccc60808901611b5b565b9250611cda60a08901611be0565b9150611ce860c08901611be0565b905092959891949750929550565b5f8060408385031215611d07575f80fd5b82359150611d1760208401611b5b565b90509250929050565b5f81518084525f5b81811015611d4457602081850181015186830182015201611d28565b505f602082860101526020601f19601f83011685010191505092915050565b5f61014060ff8d168352806020840152611d7f8184018d611d20565b60ff9b8c166040850152606084019a909a52505060808101969096529390961660a085015261ffff91821660c08501521660e0830152921515610100820152610120019190915292915050565b8015158114611dd9575f80fd5b50565b5f805f805f8060c08789031215611df1575f80fd5b611dfa87611b5b565b955060208701359450611e0f60408801611b5b565b9350611e1d60608801611be0565b9250611e2b60808801611be0565b915060a0870135611e3b81611dcc565b809150509295509295509295565b5f60208284031215611e59575f80fd5b5035919050565b5f8060408385031215611e71575f80fd5b611e7a83611b5b565b946020939093013593505050565b5f805f805f8060c08789031215611e9d575f80fd5b611ea687611b5b565b9550611eb460208801611be0565b9450611ec260408801611be0565b9350611ed060608801611b5b565b92506080870135915060a087013590509295509295509295565b5f8060408385031215611efb575f80fd5b611f0483611b5b565b9150611d1760208401611b5b565b602080825282518282018190525f9190848201906040850190845b81811015611bc057835160ff1683529284019291840191600101611f2d565b5f8060408385031215611f5d575f80fd5b50508035926020909101359150565b60208082526016908201527510db1d5cdd195c88191bd95cc81b9bdd08195e1a5cdd60521b604082015260600190565b60208082526021908201527f56616c696420756e74696c206d75737420626520696e207468652066757475726040820152606560f81b606082015260800190565b600181811c90821680611ff157607f821691505b60208210810361200f57634e487b7160e01b5f52602260045260245ffd5b50919050565b601f82111561205e575f81815260208120601f850160051c8101602086101561203b5750805b601f850160051c820191505b8181101561205a57828155600101612047565b5050505b505050565b815167ffffffffffffffff81111561207d5761207d611bcc565b6120918161208b8454611fdd565b84612015565b602080601f8311600181146120c4575f84156120ad5750858301515b5f19600386901b1c1916600185901b17855561205a565b5f85815260208120601f198616915b828110156120f2578886015182559484019460019091019084016120d3565b508582101561210f57878501515f19600388901b60f8161c191681555b5050505050600190811b01905550565b604081525f6121316040830185611d20565b905060ff831660208301529392505050565b5f60208284031215612153575f80fd5b815161215e81611dcc565b9392505050565b634e487b7160e01b5f52601160045260245ffd5b5f6001820161218a5761218a612165565b5060010190565b5f8161219f5761219f612165565b505f190190565b634e487b7160e01b5f52603260045260245ffd5b8181038181111561150657611506612165565b634e487b7160e01b5f52603160045260245ffdfea26469706673582212202f11df77021d07a3a5a6af2b70ddd95f67766c6e5aa5c9433e82dd276f96c98e64736f6c63430008140033",
  "immutableReferences": {},
  "source": "// SPDX-License-Identifier: MIT\npragma solidity ^0.8.17;\n\nimport \"./NIDRegistry.sol\";\nimport \"./NIASRegistry.sol\";\nimport \"./ABATLTranslation.sol\";\n\n/**\n * @title ClusteringContract\n * @dev Contract for clustering nodes based on attributes and managing cluster dynamics\n */\ncontract ClusteringContract {\n    // Cluster structure\n    struct Cluster {\n        uint8 clusterId;              // Unique cluster identifier\n        string clusterName;           // Human-readable name\n        uint8 clusterType;            // 0 = NAP cluster, 1 = B-BGP cluster\n        uint256 creationTime;         // When the cluster was created\n        uint256 validUntil;           // Expiration time for the cluster\n        uint8 securityLevel;          // Required security level for members\n        uint16 maxLatency;            // Maximum acceptable latency in ms\n        uint16 minBandwidth;          // Minimum required bandwidth in Mbps\n        bool isActive;                // Whether the cluster is active\n        uint256 nodeCount;            // Number of nodes in the cluster\n    }\n    \n    // ClusterMembership record\n    struct ClusterMembership {\n        bytes32 nodeId;              // Node ID (NID or NIAS)\n        uint8 clusterId;             // Cluster ID\n        uint256 joinTime;            // When the node joined the cluster\n        bool isActive;               // Whether the membership is active\n    }\n    \n    // Metrics structure for cluster\n    struct ClusterMetrics {\n        uint16 avgLatency;           // Average latency across all nodes\n        uint16 avgBandwidth;         // Average bandwidth across all nodes\n        uint8 avgSecurityLevel;      // Average security level across all nodes\n        uint256 successfulTransmissions; // Number of successful transmissions\n        uint256 failedTransmissions;  // Number of failed transmissions\n        uint256 lastUpdated;          // When metrics were last updated\n    }\n    \n    // Core registries\n    NIDRegistry public nidRegistry;\n    NIASRegistry public niasRegistry;\n    ABATLTranslation public abatlTranslation;\n    \n    // Cluster storage\n    mapping(uint8 => Cluster) public clusters;                    // Cluster ID to Cluster\n    mapping(uint8 => bytes32[]) public clusterMembers;            // Cluster ID to member node IDs\n    mapping(bytes32 => uint8[]) public nodeClusters;              // Node ID to array of cluster IDs\n    mapping(bytes32 => mapping(uint8 => ClusterMembership)) public memberships; // Node ID and Cluster ID to ClusterMembership\n    mapping(uint8 => ClusterMetrics) public clusterMetrics;       // Cluster ID to ClusterMetrics\n    \n    // All cluster IDs\n    uint8[] public allClusterIds;\n    \n    // Events\n    event ClusterCreated(uint8 indexed clusterId, string clusterName, uint8 clusterType);\n    event ClusterUpdated(uint8 indexed clusterId, uint256 validUntil, bool isActive);\n    event NodeAddedToCluster(bytes32 indexed nodeId, uint8 indexed clusterId);\n    event NodeRemovedFromCluster(bytes32 indexed nodeId, uint8 indexed clusterId);\n    event ClusterMetricsUpdated(uint8 indexed clusterId, uint16 avgLatency, uint16 avgBandwidth);\n    event ClusterReclustered(uint8 indexed oldClusterId, uint8 indexed newClusterId);\n    \n    /**\n     * @dev Constructor\n     * @param _nidRegistryAddress Address of NIDRegistry contract\n     * @param _niasRegistryAddress Address of NIASRegistry contract\n     * @param _abatlTranslationAddress Address of ABATLTranslation contract\n     */\n    constructor(\n        address _nidRegistryAddress,\n        address _niasRegistryAddress,\n        address _abatlTranslationAddress\n    ) {\n        nidRegistry = NIDRegistry(_nidRegistryAddress);\n        niasRegistry = NIASRegistry(_niasRegistryAddress);\n        abatlTranslation = ABATLTranslation(_abatlTranslationAddress);\n    }\n    \n    /**\n     * @dev Create a new cluster\n     * @param _clusterId Unique cluster identifier\n     * @param _clusterName Human-readable name\n     * @param _clusterType Cluster type (0 = NAP, 1 = B-BGP)\n     * @param _validUntil Expiration time\n     * @param _securityLevel Required security level\n     * @param _maxLatency Maximum acceptable latency\n     * @param _minBandwidth Minimum required bandwidth\n     */\n    function createCluster(\n        uint8 _clusterId,\n        string memory _clusterName,\n        uint8 _clusterType,\n        uint256 _validUntil,\n        uint8 _securityLevel,\n        uint16 _maxLatency,\n        uint16 _minBandwidth\n    ) public {\n        // Verify cluster doesn't already exist\n        require(clusters[_clusterId].creationTime == 0, \"Cluster already exists\");\n        require(_clusterType <= 1, \"Invalid cluster type\");\n        require(_validUntil > block.timestamp, \"Valid until must be in the future\");\n        \n        // Create cluster\n        clusters[_clusterId] = Cluster({\n            clusterId: _clusterId,\n            clusterName: _clusterName,\n            clusterType: _clusterType,\n            creationTime: block.timestamp,\n            validUntil: _validUntil,\n            securityLevel: _securityLevel,\n            maxLatency: _maxLatency,\n            minBandwidth: _minBandwidth,\n            isActive: true,\n            nodeCount: 0\n        });\n        \n        // Initialize cluster metrics\n        clusterMetrics[_clusterId] = ClusterMetrics({\n            avgLatency: 0,\n            avgBandwidth: 0,\n            avgSecurityLevel: 0,\n            successfulTransmissions: 0,\n            failedTransmissions: 0,\n            lastUpdated: block.timestamp\n        });\n        \n        // Add to list of all cluster IDs\n        allClusterIds.push(_clusterId);\n        \n        emit ClusterCreated(_clusterId, _clusterName, _clusterType);\n    }\n    \n    /**\n     * @dev Update cluster parameters\n     * @param _clusterId Cluster ID\n     * @param _validUntil New expiration time\n     * @param _securityLevel New security level\n     * @param _maxLatency New maximum latency\n     * @param _minBandwidth New minimum bandwidth\n     * @param _isActive New active status\n     */\n    function updateCluster(\n        uint8 _clusterId,\n        uint256 _validUntil,\n        uint8 _securityLevel,\n        uint16 _maxLatency,\n        uint16 _minBandwidth,\n        bool _isActive\n    ) public {\n        // Verify cluster exists\n        require(clusters[_clusterId].creationTime != 0, \"Cluster does not exist\");\n        require(_validUntil > block.timestamp, \"Valid until must be in the future\");\n        \n        // Update cluster\n        clusters[_clusterId].validUntil = _validUntil;\n        clusters[_clusterId].securityLevel = _securityLevel;\n        clusters[_clusterId].maxLatency = _maxLatency;\n        clusters[_clusterId].minBandwidth = _minBandwidth;\n        clusters[_clusterId].isActive = _isActive;\n        \n        emit ClusterUpdated(_clusterId, _validUntil, _isActive);\n    }\n    \n    /**\n     * @dev Add a node to a cluster\n     * @param _nodeId Node ID\n     * @param _clusterId Cluster ID\n     */\n    function addNodeToCluster(bytes32 _nodeId, uint8 _clusterId) public {\n        // Verify cluster exists and is active\n        require(clusters[_clusterId].creationTime != 0, \"Cluster does not exist\");\n        require(clusters[_clusterId].isActive, \"Cluster is not active\");\n        require(clusters[_clusterId].validUntil > block.timestamp, \"Cluster has expired\");\n        \n        // Verify node exists and is active based on cluster type\n        uint8 clusterType = clusters[_clusterId].clusterType;\n        if (clusterType == 0) {\n            // NAP cluster, check NID\n            require(nidRegistry.nodeExists(_nodeId), \"Node does not exist\");\n            require(nidRegistry.isNodeActive(_nodeId), \"Node is not active\");\n        } else {\n            // B-BGP cluster, check NIAS\n            require(niasRegistry.niasExists(_nodeId), \"NIAS does not exist\");\n            require(niasRegistry.isNIASActive(_nodeId), \"NIAS is not active\");\n        }\n        \n        // Verify node is not already in the cluster\n        require(memberships[_nodeId][_clusterId].joinTime == 0, \"Node is already in the cluster\");\n        \n        // Add node to cluster\n        memberships[_nodeId][_clusterId] = ClusterMembership({\n            nodeId: _nodeId,\n            clusterId: _clusterId,\n            joinTime: block.timestamp,\n            isActive: true\n        });\n        \n        // Update cluster members and node clusters\n        clusterMembers[_clusterId].push(_nodeId);\n        nodeClusters[_nodeId].push(_clusterId);\n        \n        // Update cluster node count\n        clusters[_clusterId].nodeCount++;\n        \n        emit NodeAddedToCluster(_nodeId, _clusterId);\n    }\n    \n    /**\n     * @dev Remove a node from a cluster\n     * @param _nodeId Node ID\n     * @param _clusterId Cluster ID\n     */\n    function removeNodeFromCluster(bytes32 _nodeId, uint8 _clusterId) public {\n        // Verify node is in the cluster\n        require(memberships[_nodeId][_clusterId].joinTime != 0, \"Node is not in the cluster\");\n        require(memberships[_nodeId][_clusterId].isActive, \"Node is not active in the cluster\");\n        \n        // Update membership\n        memberships[_nodeId][_clusterId].isActive = false;\n        \n        // Remove node from cluster members\n        removeFromClusterMembers(_nodeId, _clusterId);\n        \n        // Remove cluster from node clusters\n        removeFromNodeClusters(_clusterId, _nodeId);\n        \n        // Update cluster node count\n        clusters[_clusterId].nodeCount--;\n        \n        emit NodeRemovedFromCluster(_nodeId, _clusterId);\n    }\n    \n    /**\n     * @dev Helper function to remove node from cluster members\n     * @param _nodeId Node ID\n     * @param _clusterId Cluster ID\n     */\n    function removeFromClusterMembers(bytes32 _nodeId, uint8 _clusterId) internal {\n        bytes32[] storage members = clusterMembers[_clusterId];\n        \n        for (uint i = 0; i < members.length; i++) {\n            if (members[i] == _nodeId) {\n                // Swap with the last element and then remove the last element\n                members[i] = members[members.length - 1];\n                members.pop();\n                break;\n            }\n        }\n    }\n    \n    /**\n     * @dev Helper function to remove cluster from node clusters\n     * @param _clusterId Cluster ID\n     * @param _nodeId Node ID\n     */\n    function removeFromNodeClusters(uint8 _clusterId, bytes32 _nodeId) internal {\n        uint8[] storage clusters = nodeClusters[_nodeId];\n        \n        for (uint i = 0; i < clusters.length; i++) {\n            if (clusters[i] == _clusterId) {\n                // Swap with the last element and then remove the last element\n                clusters[i] = clusters[clusters.length - 1];\n                clusters.pop();\n                break;\n            }\n        }\n    }\n    \n    /**\n     * @dev Update cluster metrics\n     * @param _clusterId Cluster ID\n     * @param _avgLatency Average latency\n     * @param _avgBandwidth Average bandwidth\n     * @param _avgSecurityLevel Average security level\n     * @param _successfulTransmissions Number of successful transmissions\n     * @param _failedTransmissions Number of failed transmissions\n     */\n    function updateClusterMetrics(\n        uint8 _clusterId,\n        uint16 _avgLatency,\n        uint16 _avgBandwidth,\n        uint8 _avgSecurityLevel,\n        uint256 _successfulTransmissions,\n        uint256 _failedTransmissions\n    ) public {\n        // Verify cluster exists\n        require(clusters[_clusterId].creationTime != 0, \"Cluster does not exist\");\n        \n        // Update metrics\n        clusterMetrics[_clusterId].avgLatency = _avgLatency;\n        clusterMetrics[_clusterId].avgBandwidth = _avgBandwidth;\n        clusterMetrics[_clusterId].avgSecurityLevel = _avgSecurityLevel;\n        clusterMetrics[_clusterId].successfulTransmissions = _successfulTransmissions;\n        clusterMetrics[_clusterId].failedTransmissions = _failedTransmissions;\n        clusterMetrics[_clusterId].lastUpdated = block.timestamp;\n        \n        emit ClusterMetricsUpdated(_clusterId, _avgLatency, _avgBandwidth);\n    }\n    \n    /**\n     * @dev Recluster nodes from an old cluster to a new cluster\n     * @param _oldClusterId Old cluster ID\n     * @param _newClusterId New cluster ID\n     */\n    function reclusterNodes(uint8 _oldClusterId, uint8 _newClusterId) public {\n        // Verify both clusters exist\n        require(clusters[_oldClusterId].creationTime != 0, \"Old cluster does not exist\");\n        require(clusters[_newClusterId].creationTime != 0, \"New cluster does not exist\");\n        require(clusters[_newClusterId].isActive, \"New cluster is not active\");\n        require(clusters[_newClusterId].validUntil > block.timestamp, \"New cluster has expired\");\n        \n        // Get nodes from old cluster\n        bytes32[] memory nodesToMove = clusterMembers[_oldClusterId];\n        \n        // Add nodes to new cluster\n        for (uint i = 0; i < nodesToMove.length; i++) {\n            bytes32 nodeId = nodesToMove[i];\n            \n            // Skip if node is already in the new cluster\n            if (memberships[nodeId][_newClusterId].joinTime != 0) {\n                continue;\n            }\n            \n            // Add node to new cluster\n            memberships[nodeId][_newClusterId] = ClusterMembership({\n                nodeId: nodeId,\n                clusterId: _newClusterId,\n                joinTime: block.timestamp,\n                isActive: true\n            });\n            \n            // Update node clusters\n            nodeClusters[nodeId].push(_newClusterId);\n            \n            // Update cluster members\n            clusterMembers[_newClusterId].push(nodeId);\n            \n            // Increment new cluster node count\n            clusters[_newClusterId].nodeCount++;\n            \n            emit NodeAddedToCluster(nodeId, _newClusterId);\n        }\n        \n        // Update old cluster status\n        clusters[_oldClusterId].isActive = false;\n        \n        emit ClusterReclustered(_oldClusterId, _newClusterId);\n    }\n    \n    /**\n     * @dev Get cluster details\n     * @param _clusterId Cluster ID\n     * @return Cluster details (clusterId, clusterName, clusterType, creationTime, validUntil, securityLevel, maxLatency, minBandwidth, isActive, nodeCount)\n     */\n    function getClusterDetails(uint8 _clusterId) public view returns (\n        uint8, string memory, uint8, uint256, uint256, uint8, uint16, uint16, bool, uint256\n    ) {\n        require(clusters[_clusterId].creationTime != 0, \"Cluster does not exist\");\n        \n        Cluster memory cluster = clusters[_clusterId];\n        \n        return (\n            cluster.clusterId,\n            cluster.clusterName,\n            cluster.clusterType,\n            cluster.creationTime,\n            cluster.validUntil,\n            cluster.securityLevel,\n            cluster.maxLatency,\n            cluster.minBandwidth,\n            cluster.isActive,\n            cluster.nodeCount\n        );\n    }\n    \n    /**\n     * @dev Get cluster metrics\n     * @param _clusterId Cluster ID\n     * @return Cluster metrics (avgLatency, avgBandwidth, avgSecurityLevel, successfulTransmissions, failedTransmissions, lastUpdated)\n     */\n    function getClusterMetrics(uint8 _clusterId) public view returns (\n        uint16, uint16, uint8, uint256, uint256, uint256\n    ) {\n        require(clusters[_clusterId].creationTime != 0, \"Cluster does not exist\");\n        \n        ClusterMetrics memory metrics = clusterMetrics[_clusterId];\n        \n        return (\n            metrics.avgLatency,\n            metrics.avgBandwidth,\n            metrics.avgSecurityLevel,\n            metrics.successfulTransmissions,\n            metrics.failedTransmissions,\n            metrics.lastUpdated\n        );\n    }\n    \n    /**\n     * @dev Get cluster members\n     * @param _clusterId Cluster ID\n     * @return Array of node IDs in the cluster\n     */\n    function getClusterMembers(uint8 _clusterId) public view returns (bytes32[] memory) {\n        require(clusters[_clusterId].creationTime != 0, \"Cluster does not exist\");\n        \n        return clusterMembers[_clusterId];\n    }\n    \n    /**\n     * @dev Get clusters for a node\n     * @param _nodeId Node ID\n     * @return Array of cluster IDs the node belongs to\n     */\n    function getNodeClusters(bytes32 _nodeId) public view returns (uint8[] memory) {\n        return nodeClusters[_nodeId];\n    }\n    \n    /**\n     * @dev Check if a node is in a cluster\n     * @param _nodeId Node ID\n     * @param _clusterId Cluster ID\n     * @return Whether the node is in the cluster\n     */\n    function isNodeInCluster(bytes32 _nodeId, uint8 _clusterId) public view returns (bool) {\n        return memberships[_nodeId][_clusterId].joinTime != 0 && memberships[_nodeId][_clusterId].isActive;\n    }\n    \n    /**\n     * @dev Get count of all clusters\n     * @return Number of clusters\n     */\n    function getClusterCount() public view returns (uint256) {\n        return allClusterIds.length;\n    }\n}",
  "sourcePath": "C:\\Users\\Bonsu\\Documents\\Blockchain Multi Industrial Service Center\\Blockchain MultiIndustrial Projects\\BlockchainMultiIndustryRepo\\contracts\\N2N\\ClusteringContract.sol",
  "compiler": {
    "name": "solc",
    "version": "0.8.20+commit.a1b79de6.Emscripten.clang"
  },
  "schemaVersion": "3.4.16",
  "updatedAt": "2025-04-16T14:10:53.502Z",
  "networkType": "ethereum",
  "devdoc": {
    "details": "Contract for clustering nodes based on attributes and managing cluster dynamics",
    "kind": "dev",
    "methods": {
      "addNodeToCluster(bytes32,uint8)": {
        "details": "Add a node to a cluster",
        "params": {
          "_clusterId": "Cluster ID",
          "_nodeId": "Node ID"
        }
      },
      "constructor": {
        "details": "Constructor",
        "params": {
          "_abatlTranslationAddress": "Address of ABATLTranslation contract",
          "_niasRegistryAddress": "Address of NIASRegistry contract",
          "_nidRegistryAddress": "Address of NIDRegistry contract"
        }
      },
      "createCluster(uint8,string,uint8,uint256,uint8,uint16,uint16)": {
        "details": "Create a new cluster",
        "params": {
          "_clusterId": "Unique cluster identifier",
          "_clusterName": "Human-readable name",
          "_clusterType": "Cluster type (0 = NAP, 1 = B-BGP)",
          "_maxLatency": "Maximum acceptable latency",
          "_minBandwidth": "Minimum required bandwidth",
          "_securityLevel": "Required security level",
          "_validUntil": "Expiration time"
        }
      },
      "getClusterCount()": {
        "details": "Get count of all clusters",
        "returns": {
          "_0": "Number of clusters"
        }
      },
      "getClusterDetails(uint8)": {
        "details": "Get cluster details",
        "params": {
          "_clusterId": "Cluster ID"
        },
        "returns": {
          "_0": "Cluster details (clusterId, clusterName, clusterType, creationTime, validUntil, securityLevel, maxLatency, minBandwidth, isActive, nodeCount)"
        }
      },
      "getClusterMembers(uint8)": {
        "details": "Get cluster members",
        "params": {
          "_clusterId": "Cluster ID"
        },
        "returns": {
          "_0": "Array of node IDs in the cluster"
        }
      },
      "getClusterMetrics(uint8)": {
        "details": "Get cluster metrics",
        "params": {
          "_clusterId": "Cluster ID"
        },
        "returns": {
          "_0": "Cluster metrics (avgLatency, avgBandwidth, avgSecurityLevel, successfulTransmissions, failedTransmissions, lastUpdated)"
        }
      },
      "getNodeClusters(bytes32)": {
        "details": "Get clusters for a node",
        "params": {
          "_nodeId": "Node ID"
        },
        "returns": {
          "_0": "Array of cluster IDs the node belongs to"
        }
      },
      "isNodeInCluster(bytes32,uint8)": {
        "details": "Check if a node is in a cluster",
        "params": {
          "_clusterId": "Cluster ID",
          "_nodeId": "Node ID"
        },
        "returns": {
          "_0": "Whether the node is in the cluster"
        }
      },
      "reclusterNodes(uint8,uint8)": {
        "details": "Recluster nodes from an old cluster to a new cluster",
        "params": {
          "_newClusterId": "New cluster ID",
          "_oldClusterId": "Old cluster ID"
        }
      },
      "removeNodeFromCluster(bytes32,uint8)": {
        "details": "Remove a node from a cluster",
        "params": {
          "_clusterId": "Cluster ID",
          "_nodeId": "Node ID"
        }
      },
      "updateCluster(uint8,uint256,uint8,uint16,uint16,bool)": {
        "details": "Update cluster parameters",
        "params": {
          "_clusterId": "Cluster ID",
          "_isActive": "New active status",
          "_maxLatency": "New maximum latency",
          "_minBandwidth": "New minimum bandwidth",
          "_securityLevel": "New security level",
          "_validUntil": "New expiration time"
        }
      },
      "updateClusterMetrics(uint8,uint16,uint16,uint8,uint256,uint256)": {
        "details": "Update cluster metrics",
        "params": {
          "_avgBandwidth": "Average bandwidth",
          "_avgLatency": "Average latency",
          "_avgSecurityLevel": "Average security level",
          "_clusterId": "Cluster ID",
          "_failedTransmissions": "Number of failed transmissions",
          "_successfulTransmissions": "Number of successful transmissions"
        }
      }
    },
    "title": "ClusteringContract",
    "version": 1
  },
  "userdoc": {
    "kind": "user",
    "methods": {},
    "version": 1
  }
}