{
  "contractName": "NIASRegistry",
  "abi": [
    {
      "anonymous": false,
      "inputs": [
        {
          "indexed": true,
          "internalType": "bytes32",
          "name": "primaryId",
          "type": "bytes32"
        },
        {
          "indexed": false,
          "internalType": "uint8",
          "name": "oldClusterID",
          "type": "uint8"
        },
        {
          "indexed": false,
          "internalType": "uint8",
          "name": "newClusterID",
          "type": "uint8"
        }
      ],
      "name": "NIASClusterChanged",
      "type": "event"
    },
    {
      "anonymous": false,
      "inputs": [
        {
          "indexed": true,
          "internalType": "bytes32",
          "name": "primaryId",
          "type": "bytes32"
        },
        {
          "indexed": false,
          "internalType": "uint16",
          "name": "loadBalancingFactor",
          "type": "uint16"
        }
      ],
      "name": "NIASLoadBalancingFactorChanged",
      "type": "event"
    },
    {
      "anonymous": false,
      "inputs": [
        {
          "indexed": true,
          "internalType": "bytes32",
          "name": "primaryId",
          "type": "bytes32"
        },
        {
          "indexed": false,
          "internalType": "uint8",
          "name": "clusterID",
          "type": "uint8"
        },
        {
          "indexed": false,
          "internalType": "string",
          "name": "niasType",
          "type": "string"
        }
      ],
      "name": "NIASRegistered",
      "type": "event"
    },
    {
      "anonymous": false,
      "inputs": [
        {
          "indexed": true,
          "internalType": "bytes32",
          "name": "primaryId",
          "type": "bytes32"
        },
        {
          "indexed": false,
          "internalType": "uint16",
          "name": "routingWeight",
          "type": "uint16"
        }
      ],
      "name": "NIASRoutingWeightChanged",
      "type": "event"
    },
    {
      "anonymous": false,
      "inputs": [
        {
          "indexed": true,
          "internalType": "bytes32",
          "name": "primaryId",
          "type": "bytes32"
        },
        {
          "indexed": false,
          "internalType": "uint8",
          "name": "securityLevel",
          "type": "uint8"
        }
      ],
      "name": "NIASSecurityLevelChanged",
      "type": "event"
    },
    {
      "anonymous": false,
      "inputs": [
        {
          "indexed": true,
          "internalType": "bytes32",
          "name": "primaryId",
          "type": "bytes32"
        },
        {
          "indexed": false,
          "internalType": "bool",
          "name": "isActive",
          "type": "bool"
        }
      ],
      "name": "NIASStatusChanged",
      "type": "event"
    },
    {
      "anonymous": false,
      "inputs": [
        {
          "indexed": true,
          "internalType": "bytes32",
          "name": "primaryId",
          "type": "bytes32"
        },
        {
          "indexed": false,
          "internalType": "bytes32",
          "name": "secondaryId",
          "type": "bytes32"
        }
      ],
      "name": "NIASUpdated",
      "type": "event"
    },
    {
      "inputs": [
        {
          "internalType": "uint256",
          "name": "",
          "type": "uint256"
        }
      ],
      "name": "allNIASIds",
      "outputs": [
        {
          "internalType": "bytes32",
          "name": "",
          "type": "bytes32"
        }
      ],
      "stateMutability": "view",
      "type": "function",
      "constant": true
    },
    {
      "inputs": [
        {
          "internalType": "bytes32",
          "name": "",
          "type": "bytes32"
        }
      ],
      "name": "autonomousSystems",
      "outputs": [
        {
          "internalType": "bytes32",
          "name": "primaryId",
          "type": "bytes32"
        },
        {
          "internalType": "bytes32",
          "name": "secondaryId",
          "type": "bytes32"
        },
        {
          "internalType": "uint256",
          "name": "registrationTime",
          "type": "uint256"
        },
        {
          "internalType": "bool",
          "name": "isActive",
          "type": "bool"
        },
        {
          "internalType": "uint8",
          "name": "securityLevel",
          "type": "uint8"
        },
        {
          "internalType": "uint16",
          "name": "routingWeight",
          "type": "uint16"
        },
        {
          "internalType": "uint16",
          "name": "loadBalancingFactor",
          "type": "uint16"
        },
        {
          "internalType": "uint8",
          "name": "clusterID",
          "type": "uint8"
        },
        {
          "internalType": "string",
          "name": "niasType",
          "type": "string"
        }
      ],
      "stateMutability": "view",
      "type": "function",
      "constant": true
    },
    {
      "inputs": [
        {
          "internalType": "uint8",
          "name": "",
          "type": "uint8"
        },
        {
          "internalType": "uint256",
          "name": "",
          "type": "uint256"
        }
      ],
      "name": "clusterNIAS",
      "outputs": [
        {
          "internalType": "bytes32",
          "name": "",
          "type": "bytes32"
        }
      ],
      "stateMutability": "view",
      "type": "function",
      "constant": true
    },
    {
      "inputs": [
        {
          "internalType": "bytes32",
          "name": "_primaryId",
          "type": "bytes32"
        },
        {
          "internalType": "bytes32",
          "name": "_secondaryId",
          "type": "bytes32"
        },
        {
          "internalType": "uint8",
          "name": "_securityLevel",
          "type": "uint8"
        },
        {
          "internalType": "uint16",
          "name": "_routingWeight",
          "type": "uint16"
        },
        {
          "internalType": "uint16",
          "name": "_loadBalancingFactor",
          "type": "uint16"
        },
        {
          "internalType": "uint8",
          "name": "_clusterID",
          "type": "uint8"
        },
        {
          "internalType": "string",
          "name": "_niasType",
          "type": "string"
        }
      ],
      "name": "registerNIAS",
      "outputs": [],
      "stateMutability": "nonpayable",
      "type": "function"
    },
    {
      "inputs": [
        {
          "internalType": "bytes32",
          "name": "_primaryId",
          "type": "bytes32"
        },
        {
          "internalType": "bytes32",
          "name": "_newSecondaryId",
          "type": "bytes32"
        }
      ],
      "name": "updateSecondaryId",
      "outputs": [],
      "stateMutability": "nonpayable",
      "type": "function"
    },
    {
      "inputs": [
        {
          "internalType": "bytes32",
          "name": "_primaryId",
          "type": "bytes32"
        },
        {
          "internalType": "bool",
          "name": "_isActive",
          "type": "bool"
        }
      ],
      "name": "setNIASStatus",
      "outputs": [],
      "stateMutability": "nonpayable",
      "type": "function"
    },
    {
      "inputs": [
        {
          "internalType": "bytes32",
          "name": "_primaryId",
          "type": "bytes32"
        },
        {
          "internalType": "uint8",
          "name": "_securityLevel",
          "type": "uint8"
        }
      ],
      "name": "setSecurityLevel",
      "outputs": [],
      "stateMutability": "nonpayable",
      "type": "function"
    },
    {
      "inputs": [
        {
          "internalType": "bytes32",
          "name": "_primaryId",
          "type": "bytes32"
        },
        {
          "internalType": "uint16",
          "name": "_routingWeight",
          "type": "uint16"
        }
      ],
      "name": "setRoutingWeight",
      "outputs": [],
      "stateMutability": "nonpayable",
      "type": "function"
    },
    {
      "inputs": [
        {
          "internalType": "bytes32",
          "name": "_primaryId",
          "type": "bytes32"
        },
        {
          "internalType": "uint16",
          "name": "_loadBalancingFactor",
          "type": "uint16"
        }
      ],
      "name": "setLoadBalancingFactor",
      "outputs": [],
      "stateMutability": "nonpayable",
      "type": "function"
    },
    {
      "inputs": [
        {
          "internalType": "bytes32",
          "name": "_primaryId",
          "type": "bytes32"
        },
        {
          "internalType": "uint8",
          "name": "_newClusterID",
          "type": "uint8"
        }
      ],
      "name": "changeNIASCluster",
      "outputs": [],
      "stateMutability": "nonpayable",
      "type": "function"
    },
    {
      "inputs": [
        {
          "internalType": "uint8",
          "name": "_clusterID",
          "type": "uint8"
        }
      ],
      "name": "getNIASInCluster",
      "outputs": [
        {
          "internalType": "bytes32[]",
          "name": "",
          "type": "bytes32[]"
        }
      ],
      "stateMutability": "view",
      "type": "function",
      "constant": true
    },
    {
      "inputs": [],
      "name": "getNIASCount",
      "outputs": [
        {
          "internalType": "uint256",
          "name": "",
          "type": "uint256"
        }
      ],
      "stateMutability": "view",
      "type": "function",
      "constant": true
    },
    {
      "inputs": [
        {
          "internalType": "bytes32",
          "name": "_primaryId",
          "type": "bytes32"
        }
      ],
      "name": "getNIASDetails",
      "outputs": [
        {
          "internalType": "bytes32",
          "name": "",
          "type": "bytes32"
        },
        {
          "internalType": "bytes32",
          "name": "",
          "type": "bytes32"
        },
        {
          "internalType": "uint256",
          "name": "",
          "type": "uint256"
        },
        {
          "internalType": "bool",
          "name": "",
          "type": "bool"
        },
        {
          "internalType": "uint8",
          "name": "",
          "type": "uint8"
        },
        {
          "internalType": "uint16",
          "name": "",
          "type": "uint16"
        },
        {
          "internalType": "uint16",
          "name": "",
          "type": "uint16"
        },
        {
          "internalType": "uint8",
          "name": "",
          "type": "uint8"
        },
        {
          "internalType": "string",
          "name": "",
          "type": "string"
        }
      ],
      "stateMutability": "view",
      "type": "function",
      "constant": true
    },
    {
      "inputs": [
        {
          "internalType": "bytes32",
          "name": "_primaryId",
          "type": "bytes32"
        }
      ],
      "name": "niasExists",
      "outputs": [
        {
          "internalType": "bool",
          "name": "",
          "type": "bool"
        }
      ],
      "stateMutability": "view",
      "type": "function",
      "constant": true
    },
    {
      "inputs": [
        {
          "internalType": "bytes32",
          "name": "_primaryId",
          "type": "bytes32"
        }
      ],
      "name": "isNIASActive",
      "outputs": [
        {
          "internalType": "bool",
          "name": "",
          "type": "bool"
        }
      ],
      "stateMutability": "view",
      "type": "function",
      "constant": true
    }
  ],
  "bytecode": "0x608060405234801561000f575f80fd5b506111fb8061001d5f395ff3fe608060405234801561000f575f80fd5b50600436106100ef575f3560e01c80635ed4d5c111610093578063a718a8b311610063578063a718a8b314610211578063c0ae8ce314610224578063f1b065f514610237578063f81ba10a1461024a575f80fd5b80635ed4d5c1146101aa5780637151b530146101d257806374a59c0d146101da578063a3fa4f87146101ed575f80fd5b806306dc8062116100ce57806306dc8062146101415780630cde1c2b146101545780632622b646146101745780635193b1aa14610197575f80fd5b80622ed54b146100f35780630439f65714610108578063055583eb1461012e575b5f80fd5b610106610101366004610cbd565b61025d565b005b61011b610116366004610ce7565b61039d565b6040519081526020015b60405180910390f35b61010661013c366004610cbd565b6103c8565b61010661014f366004610d20565b610458565b610167610162366004610d41565b6104e4565b6040516101259190610d61565b610187610182366004610da4565b610547565b6040519015158152602001610125565b6101066101a5366004610dbb565b61058e565b6101bd6101b8366004610da4565b61060d565b60405161012599989796959493929190610e30565b60015461011b565b61011b6101e8366004610da4565b6107a9565b6101876101fb366004610da4565b5f90815260208190526040902060020154151590565b6101bd61021f366004610da4565b6107c8565b610106610232366004610d20565b6108b0565b610106610245366004610ea8565b610940565b610106610258366004610fa6565b610b71565b5f8281526020819052604081206002015490036102955760405162461bcd60e51b815260040161028c90610fc6565b60405180910390fd5b5f8281526020819052604090206003015460ff600160301b909104811690821681036103035760405162461bcd60e51b815260206004820152601c60248201527f4e49415320616c726561647920696e207468697320636c757374657200000000604482015260640161028c565b61030d8382610be4565b5f83815260208181526040808320600301805466ff0000000000001916600160301b60ff8881169182029290921790925581855260028452828520805460018101825590865294849020909401879055815193851684529183019190915284917f0fb361f92e8c4b309c98d7bc1b7030db3a9ee5187515d0a0a06203246492195e910160405180910390a2505050565b6002602052815f5260405f2081815481106103b6575f80fd5b905f5260205f20015f91509150505481565b5f8281526020819052604081206002015490036103f75760405162461bcd60e51b815260040161028c90610fc6565b5f8281526020818152604091829020600301805461ff00191661010060ff861690810291909117909155915191825283917fc391b856229989465d7e2645d10ebac1ff4d57fe0b1a6ca8d930b54afaf7d91291015b60405180910390a25050565b5f8281526020819052604081206002015490036104875760405162461bcd60e51b815260040161028c90610fc6565b5f8281526020818152604091829020600301805463ffff000019166201000061ffff861690810291909117909155915191825283917fe0f52cda85fb9eb916fa7fa3a15aba928a1a78f199bd532d40dc09f86beb0c81910161044c565b60ff81165f9081526002602090815260409182902080548351818402810184019094528084526060939283018282801561053b57602002820191905f5260205f20905b815481526020019060010190808311610527575b50505050509050919050565b5f8181526020819052604081206002015481036105765760405162461bcd60e51b815260040161028c90610fc6565b505f9081526020819052604090206003015460ff1690565b5f8281526020819052604081206002015490036105bd5760405162461bcd60e51b815260040161028c90610fc6565b5f8281526020818152604091829020600301805460ff1916841515908117909155915191825283917f48506600ac43134a95560b9e941f6dbd67437afc0b1632562441868edb9a9f8a910161044c565b5f8181526020818152604080832081516101208101835281548152600182015493810193909352600281015491830191909152600381015460ff80821615156060858101919091526101008084048316608087015261ffff620100008504811660a088015264010000000085041660c0870152600160301b90930490911660e08501526004830180548695869586958695869586958695929486949092908401916106b790610ff3565b80601f01602080910402602001604051908101604052809291908181526020018280546106e390610ff3565b801561072e5780601f106107055761010080835404028352916020019161072e565b820191905f5260205f20905b81548152906001019060200180831161071157829003601f168201915b505050505081525050905080604001515f0361075c5760405162461bcd60e51b815260040161028c90610fc6565b805f015181602001518260400151836060015184608001518560a001518660c001518760e00151886101000151995099509950995099509950995099509950509193959799909294969850565b600181815481106107b8575f80fd5b5f91825260209091200154905081565b5f602081905290815260409020805460018201546002830154600384015460048501805494959394929360ff80841694610100850482169461ffff620100008204811695640100000000830490911694600160301b90920490931692909161082f90610ff3565b80601f016020809104026020016040519081016040528092919081815260200182805461085b90610ff3565b80156108a65780601f1061087d576101008083540402835291602001916108a6565b820191905f5260205f20905b81548152906001019060200180831161088957829003601f168201915b5050505050905089565b5f8281526020819052604081206002015490036108df5760405162461bcd60e51b815260040161028c90610fc6565b5f8281526020818152604091829020600301805465ffff00000000191664010000000061ffff861690810291909117909155915191825283917f583ac6595d825f507d2fd385e4779a09c7c09e07d459cab7ddd7804da2cb3a56910161044c565b5f878152602081905260409020600201541561099e5760405162461bcd60e51b815260206004820152601760248201527f4e49415320616c72656164792072656769737465726564000000000000000000604482015260640161028c565b6040518061012001604052808881526020018781526020014281526020016001151581526020018660ff1681526020018561ffff1681526020018461ffff1681526020018360ff168152602001828152505f808981526020019081526020015f205f820151815f015560208201518160010155604082015181600201556060820151816003015f6101000a81548160ff02191690831515021790555060808201518160030160016101000a81548160ff021916908360ff16021790555060a08201518160030160026101000a81548161ffff021916908361ffff16021790555060c08201518160030160046101000a81548161ffff021916908361ffff16021790555060e08201518160030160066101000a81548160ff021916908360ff160217905550610100820151816004019081610ad89190611079565b50506001805480820182557fb10e2d527612073b26eecdfd717e6a320cf44b4afac2b0732d9fcbe2b7fa0cf60189905560ff84165f9081526002602090815260408083208054948501815583529120909101899055518891507f9d71c5aaa800617accfe1280f318139d489cd5b0328fa5c439af2cfe1432934490610b609085908590611135565b60405180910390a250505050505050565b5f828152602081905260408120600201549003610ba05760405162461bcd60e51b815260040161028c90610fc6565b5f8281526020818152604091829020600101839055905182815283917fe2635733ab0a9e16a0139f4308726ed3b530455f1f22954d4ff90fd24dcc1aba910161044c565b60ff81165f908152600260205260408120905b8154811015610ca25783828281548110610c1357610c13611158565b905f5260205f20015403610c905781548290610c3190600190611180565b81548110610c4157610c41611158565b905f5260205f200154828281548110610c5c57610c5c611158565b905f5260205f20018190555081805480610c7857610c78611199565b600190038181905f5260205f20015f90559055610ca2565b80610c9a816111ad565b915050610bf7565b50505050565b803560ff81168114610cb8575f80fd5b919050565b5f8060408385031215610cce575f80fd5b82359150610cde60208401610ca8565b90509250929050565b5f8060408385031215610cf8575f80fd5b610d0183610ca8565b946020939093013593505050565b803561ffff81168114610cb8575f80fd5b5f8060408385031215610d31575f80fd5b82359150610cde60208401610d0f565b5f60208284031215610d51575f80fd5b610d5a82610ca8565b9392505050565b602080825282518282018190525f9190848201906040850190845b81811015610d9857835183529284019291840191600101610d7c565b50909695505050505050565b5f60208284031215610db4575f80fd5b5035919050565b5f8060408385031215610dcc575f80fd5b8235915060208301358015158114610de2575f80fd5b809150509250929050565b5f81518084525f5b81811015610e1157602081850181015186830182015201610df5565b505f602082860101526020601f19601f83011685010191505092915050565b5f6101208b83528a6020840152896040840152881515606084015260ff8816608084015261ffff80881660a085015280871660c08501525060ff851660e084015280610100840152610e8481840185610ded565b9c9b505050505050505050505050565b634e487b7160e01b5f52604160045260245ffd5b5f805f805f805f60e0888a031215610ebe575f80fd5b8735965060208801359550610ed560408901610ca8565b9450610ee360608901610d0f565b9350610ef160808901610d0f565b9250610eff60a08901610ca8565b915060c088013567ffffffffffffffff80821115610f1b575f80fd5b818a0191508a601f830112610f2e575f80fd5b813581811115610f4057610f40610e94565b604051601f8201601f19908116603f01168101908382118183101715610f6857610f68610e94565b816040528281528d6020848701011115610f80575f80fd5b826020860160208301375f60208483010152809550505050505092959891949750929550565b5f8060408385031215610fb7575f80fd5b50508035926020909101359150565b60208082526013908201527213925054c81b9bdd081c9959da5cdd195c9959606a1b604082015260600190565b600181811c9082168061100757607f821691505b60208210810361102557634e487b7160e01b5f52602260045260245ffd5b50919050565b601f821115611074575f81815260208120601f850160051c810160208610156110515750805b601f850160051c820191505b818110156110705782815560010161105d565b5050505b505050565b815167ffffffffffffffff81111561109357611093610e94565b6110a7816110a18454610ff3565b8461102b565b602080601f8311600181146110da575f84156110c35750858301515b5f19600386901b1c1916600185901b178555611070565b5f85815260208120601f198616915b82811015611108578886015182559484019460019091019084016110e9565b508582101561112557878501515f19600388901b60f8161c191681555b5050505050600190811b01905550565b60ff83168152604060208201525f6111506040830184610ded565b949350505050565b634e487b7160e01b5f52603260045260245ffd5b634e487b7160e01b5f52601160045260245ffd5b818103818111156111935761119361116c565b92915050565b634e487b7160e01b5f52603160045260245ffd5b5f600182016111be576111be61116c565b506001019056fea264697066735822122009a7ee97bf40c07e8cbc05312e1348f7c04019daedf387a68301bfb133af595f64736f6c63430008140033",
  "immutableReferences": {},
  "source": "// SPDX-License-Identifier: MIT\npragma solidity ^0.8.17;\n\n/**\n * @title NIASRegistry\n * @dev Contract for registering and managing Node Identifiable Autonomous Systems (NIAS) on the B-BGP Layer\n */\ncontract NIASRegistry {\n    // Struct to store NIAS information\n    struct NodeAS {\n        bytes32 primaryId;        // Primary ID hash (static)\n        bytes32 secondaryId;      // Secondary ID hash (dynamic)\n        uint256 registrationTime; // Time when the NIAS was registered\n        bool isActive;            // Whether the NIAS is currently active\n        uint8 securityLevel;      // Security level (0-255)\n        uint16 routingWeight;     // Routing weight for path selection\n        uint16 loadBalancingFactor; // Load balancing factor\n        uint8 clusterID;          // Cluster ID the NIAS belongs to\n        string niasType;          // Type of NIAS (e.g., \"EDGE\", \"RELAY\", \"VALIDATOR\")\n    }\n    \n    // Mapping from NIAS hash to NodeAS struct\n    mapping(bytes32 => NodeAS) public autonomousSystems;\n    \n    // Array to store all registered NIAS primary hashes\n    bytes32[] public allNIASIds;\n    \n    // Mapping from cluster ID to array of NIAS IDs in that cluster\n    mapping(uint8 => bytes32[]) public clusterNIAS;\n    \n    // Events\n    event NIASRegistered(bytes32 indexed primaryId, uint8 clusterID, string niasType);\n    event NIASUpdated(bytes32 indexed primaryId, bytes32 secondaryId);\n    event NIASStatusChanged(bytes32 indexed primaryId, bool isActive);\n    event NIASSecurityLevelChanged(bytes32 indexed primaryId, uint8 securityLevel);\n    event NIASRoutingWeightChanged(bytes32 indexed primaryId, uint16 routingWeight);\n    event NIASLoadBalancingFactorChanged(bytes32 indexed primaryId, uint16 loadBalancingFactor);\n    event NIASClusterChanged(bytes32 indexed primaryId, uint8 oldClusterID, uint8 newClusterID);\n    \n    /**\n     * @dev Register a new NIAS\n     * @param _primaryId Primary ID hash\n     * @param _secondaryId Secondary ID hash\n     * @param _securityLevel Security level\n     * @param _routingWeight Routing weight\n     * @param _loadBalancingFactor Load balancing factor\n     * @param _clusterID Cluster ID\n     * @param _niasType Type of NIAS\n     */\n    function registerNIAS(\n        bytes32 _primaryId,\n        bytes32 _secondaryId,\n        uint8 _securityLevel,\n        uint16 _routingWeight,\n        uint16 _loadBalancingFactor,\n        uint8 _clusterID,\n        string memory _niasType\n    ) public {\n        require(autonomousSystems[_primaryId].registrationTime == 0, \"NIAS already registered\");\n        \n        autonomousSystems[_primaryId] = NodeAS({\n            primaryId: _primaryId,\n            secondaryId: _secondaryId,\n            registrationTime: block.timestamp,\n            isActive: true,\n            securityLevel: _securityLevel,\n            routingWeight: _routingWeight,\n            loadBalancingFactor: _loadBalancingFactor,\n            clusterID: _clusterID,\n            niasType: _niasType\n        });\n        \n        allNIASIds.push(_primaryId);\n        clusterNIAS[_clusterID].push(_primaryId);\n        \n        emit NIASRegistered(_primaryId, _clusterID, _niasType);\n    }\n    \n    /**\n     * @dev Update NIAS's secondary ID (for dynamic attributes)\n     * @param _primaryId Primary ID hash\n     * @param _newSecondaryId New secondary ID hash\n     */\n    function updateSecondaryId(bytes32 _primaryId, bytes32 _newSecondaryId) public {\n        require(autonomousSystems[_primaryId].registrationTime != 0, \"NIAS not registered\");\n        \n        autonomousSystems[_primaryId].secondaryId = _newSecondaryId;\n        \n        emit NIASUpdated(_primaryId, _newSecondaryId);\n    }\n    \n    /**\n     * @dev Change NIAS's active status\n     * @param _primaryId Primary ID hash\n     * @param _isActive New active status\n     */\n    function setNIASStatus(bytes32 _primaryId, bool _isActive) public {\n        require(autonomousSystems[_primaryId].registrationTime != 0, \"NIAS not registered\");\n        \n        autonomousSystems[_primaryId].isActive = _isActive;\n        \n        emit NIASStatusChanged(_primaryId, _isActive);\n    }\n    \n    /**\n     * @dev Change NIAS's security level\n     * @param _primaryId Primary ID hash\n     * @param _securityLevel New security level\n     */\n    function setSecurityLevel(bytes32 _primaryId, uint8 _securityLevel) public {\n        require(autonomousSystems[_primaryId].registrationTime != 0, \"NIAS not registered\");\n        \n        autonomousSystems[_primaryId].securityLevel = _securityLevel;\n        \n        emit NIASSecurityLevelChanged(_primaryId, _securityLevel);\n    }\n    \n    /**\n     * @dev Change NIAS's routing weight\n     * @param _primaryId Primary ID hash\n     * @param _routingWeight New routing weight\n     */\n    function setRoutingWeight(bytes32 _primaryId, uint16 _routingWeight) public {\n        require(autonomousSystems[_primaryId].registrationTime != 0, \"NIAS not registered\");\n        \n        autonomousSystems[_primaryId].routingWeight = _routingWeight;\n        \n        emit NIASRoutingWeightChanged(_primaryId, _routingWeight);\n    }\n    \n    /**\n     * @dev Change NIAS's load balancing factor\n     * @param _primaryId Primary ID hash\n     * @param _loadBalancingFactor New load balancing factor\n     */\n    function setLoadBalancingFactor(bytes32 _primaryId, uint16 _loadBalancingFactor) public {\n        require(autonomousSystems[_primaryId].registrationTime != 0, \"NIAS not registered\");\n        \n        autonomousSystems[_primaryId].loadBalancingFactor = _loadBalancingFactor;\n        \n        emit NIASLoadBalancingFactorChanged(_primaryId, _loadBalancingFactor);\n    }\n    \n    /**\n     * @dev Move NIAS to different cluster\n     * @param _primaryId Primary ID hash\n     * @param _newClusterID New cluster ID\n     */\n    function changeNIASCluster(bytes32 _primaryId, uint8 _newClusterID) public {\n        require(autonomousSystems[_primaryId].registrationTime != 0, \"NIAS not registered\");\n        \n        uint8 oldClusterID = autonomousSystems[_primaryId].clusterID;\n        require(oldClusterID != _newClusterID, \"NIAS already in this cluster\");\n        \n        // Remove from old cluster\n        removeFromCluster(_primaryId, oldClusterID);\n        \n        // Add to new cluster\n        autonomousSystems[_primaryId].clusterID = _newClusterID;\n        clusterNIAS[_newClusterID].push(_primaryId);\n        \n        emit NIASClusterChanged(_primaryId, oldClusterID, _newClusterID);\n    }\n    \n    /**\n     * @dev Helper function to remove NIAS from cluster\n     * @param _primaryId Primary ID hash\n     * @param _clusterID Cluster ID\n     */\n    function removeFromCluster(bytes32 _primaryId, uint8 _clusterID) internal {\n        bytes32[] storage niasInCluster = clusterNIAS[_clusterID];\n        \n        for (uint i = 0; i < niasInCluster.length; i++) {\n            if (niasInCluster[i] == _primaryId) {\n                // Swap with the last element and then remove the last element\n                niasInCluster[i] = niasInCluster[niasInCluster.length - 1];\n                niasInCluster.pop();\n                break;\n            }\n        }\n    }\n    \n    /**\n     * @dev Get all NIAS in a specific cluster\n     * @param _clusterID Cluster ID\n     * @return Array of NIAS primary IDs in the cluster\n     */\n    function getNIASInCluster(uint8 _clusterID) public view returns (bytes32[] memory) {\n        return clusterNIAS[_clusterID];\n    }\n    \n    /**\n     * @dev Get count of all registered NIAS\n     * @return Number of registered NIAS\n     */\n    function getNIASCount() public view returns (uint256) {\n        return allNIASIds.length;\n    }\n    \n    /**\n     * @dev Get NIAS details\n     * @param _primaryId Primary ID hash\n     * @return NIAS details (primaryId, secondaryId, registrationTime, isActive, securityLevel, routingWeight, loadBalancingFactor, clusterID, niasType)\n     */\n    function getNIASDetails(bytes32 _primaryId) public view returns (\n        bytes32, bytes32, uint256, bool, uint8, uint16, uint16, uint8, string memory\n    ) {\n        NodeAS memory nias = autonomousSystems[_primaryId];\n        require(nias.registrationTime != 0, \"NIAS not registered\");\n        \n        return (\n            nias.primaryId,\n            nias.secondaryId,\n            nias.registrationTime,\n            nias.isActive,\n            nias.securityLevel,\n            nias.routingWeight,\n            nias.loadBalancingFactor,\n            nias.clusterID,\n            nias.niasType\n        );\n    }\n    \n    /**\n     * @dev Check if a NIAS exists\n     * @param _primaryId Primary ID hash\n     * @return Whether the NIAS exists\n     */\n    function niasExists(bytes32 _primaryId) public view returns (bool) {\n        return autonomousSystems[_primaryId].registrationTime != 0;\n    }\n    \n    /**\n     * @dev Check if a NIAS is active\n     * @param _primaryId Primary ID hash\n     * @return Whether the NIAS is active\n     */\n    function isNIASActive(bytes32 _primaryId) public view returns (bool) {\n        require(autonomousSystems[_primaryId].registrationTime != 0, \"NIAS not registered\");\n        return autonomousSystems[_primaryId].isActive;\n    }\n}",
  "sourcePath": "C:\\Users\\Bonsu\\Documents\\Blockchain Multi Industrial Service Center\\Blockchain MultiIndustrial Projects\\BlockchainMultiIndustryRepo\\contracts\\N2N\\NIASRegistry.sol",
  "compiler": {
    "name": "solc",
    "version": "0.8.20+commit.a1b79de6.Emscripten.clang"
  },
  "schemaVersion": "3.4.16",
  "updatedAt": "2025-04-16T14:10:53.469Z",
  "networkType": "ethereum",
  "devdoc": {
    "details": "Contract for registering and managing Node Identifiable Autonomous Systems (NIAS) on the B-BGP Layer",
    "kind": "dev",
    "methods": {
      "changeNIASCluster(bytes32,uint8)": {
        "details": "Move NIAS to different cluster",
        "params": {
          "_newClusterID": "New cluster ID",
          "_primaryId": "Primary ID hash"
        }
      },
      "getNIASCount()": {
        "details": "Get count of all registered NIAS",
        "returns": {
          "_0": "Number of registered NIAS"
        }
      },
      "getNIASDetails(bytes32)": {
        "details": "Get NIAS details",
        "params": {
          "_primaryId": "Primary ID hash"
        },
        "returns": {
          "_0": "NIAS details (primaryId, secondaryId, registrationTime, isActive, securityLevel, routingWeight, loadBalancingFactor, clusterID, niasType)"
        }
      },
      "getNIASInCluster(uint8)": {
        "details": "Get all NIAS in a specific cluster",
        "params": {
          "_clusterID": "Cluster ID"
        },
        "returns": {
          "_0": "Array of NIAS primary IDs in the cluster"
        }
      },
      "isNIASActive(bytes32)": {
        "details": "Check if a NIAS is active",
        "params": {
          "_primaryId": "Primary ID hash"
        },
        "returns": {
          "_0": "Whether the NIAS is active"
        }
      },
      "niasExists(bytes32)": {
        "details": "Check if a NIAS exists",
        "params": {
          "_primaryId": "Primary ID hash"
        },
        "returns": {
          "_0": "Whether the NIAS exists"
        }
      },
      "registerNIAS(bytes32,bytes32,uint8,uint16,uint16,uint8,string)": {
        "details": "Register a new NIAS",
        "params": {
          "_clusterID": "Cluster ID",
          "_loadBalancingFactor": "Load balancing factor",
          "_niasType": "Type of NIAS",
          "_primaryId": "Primary ID hash",
          "_routingWeight": "Routing weight",
          "_secondaryId": "Secondary ID hash",
          "_securityLevel": "Security level"
        }
      },
      "setLoadBalancingFactor(bytes32,uint16)": {
        "details": "Change NIAS's load balancing factor",
        "params": {
          "_loadBalancingFactor": "New load balancing factor",
          "_primaryId": "Primary ID hash"
        }
      },
      "setNIASStatus(bytes32,bool)": {
        "details": "Change NIAS's active status",
        "params": {
          "_isActive": "New active status",
          "_primaryId": "Primary ID hash"
        }
      },
      "setRoutingWeight(bytes32,uint16)": {
        "details": "Change NIAS's routing weight",
        "params": {
          "_primaryId": "Primary ID hash",
          "_routingWeight": "New routing weight"
        }
      },
      "setSecurityLevel(bytes32,uint8)": {
        "details": "Change NIAS's security level",
        "params": {
          "_primaryId": "Primary ID hash",
          "_securityLevel": "New security level"
        }
      },
      "updateSecondaryId(bytes32,bytes32)": {
        "details": "Update NIAS's secondary ID (for dynamic attributes)",
        "params": {
          "_newSecondaryId": "New secondary ID hash",
          "_primaryId": "Primary ID hash"
        }
      }
    },
    "title": "NIASRegistry",
    "version": 1
  },
  "userdoc": {
    "kind": "user",
    "methods": {},
    "version": 1
  }
}