{
  "contractName": "NIDRegistry",
  "abi": [
    {
      "anonymous": false,
      "inputs": [
        {
          "indexed": true,
          "internalType": "bytes32",
          "name": "primaryId",
          "type": "bytes32"
        },
        {
          "indexed": false,
          "internalType": "uint8",
          "name": "oldClusterID",
          "type": "uint8"
        },
        {
          "indexed": false,
          "internalType": "uint8",
          "name": "newClusterID",
          "type": "uint8"
        }
      ],
      "name": "NodeClusterChanged",
      "type": "event"
    },
    {
      "anonymous": false,
      "inputs": [
        {
          "indexed": true,
          "internalType": "bytes32",
          "name": "primaryId",
          "type": "bytes32"
        },
        {
          "indexed": false,
          "internalType": "uint8",
          "name": "clusterID",
          "type": "uint8"
        },
        {
          "indexed": false,
          "internalType": "string",
          "name": "nodeType",
          "type": "string"
        }
      ],
      "name": "NodeRegistered",
      "type": "event"
    },
    {
      "anonymous": false,
      "inputs": [
        {
          "indexed": true,
          "internalType": "bytes32",
          "name": "primaryId",
          "type": "bytes32"
        },
        {
          "indexed": false,
          "internalType": "uint8",
          "name": "securityLevel",
          "type": "uint8"
        }
      ],
      "name": "NodeSecurityLevelChanged",
      "type": "event"
    },
    {
      "anonymous": false,
      "inputs": [
        {
          "indexed": true,
          "internalType": "bytes32",
          "name": "primaryId",
          "type": "bytes32"
        },
        {
          "indexed": false,
          "internalType": "bool",
          "name": "isActive",
          "type": "bool"
        }
      ],
      "name": "NodeStatusChanged",
      "type": "event"
    },
    {
      "anonymous": false,
      "inputs": [
        {
          "indexed": true,
          "internalType": "bytes32",
          "name": "primaryId",
          "type": "bytes32"
        },
        {
          "indexed": false,
          "internalType": "bytes32",
          "name": "secondaryId",
          "type": "bytes32"
        }
      ],
      "name": "NodeUpdated",
      "type": "event"
    },
    {
      "inputs": [
        {
          "internalType": "uint256",
          "name": "",
          "type": "uint256"
        }
      ],
      "name": "allNodeIds",
      "outputs": [
        {
          "internalType": "bytes32",
          "name": "",
          "type": "bytes32"
        }
      ],
      "stateMutability": "view",
      "type": "function",
      "constant": true
    },
    {
      "inputs": [
        {
          "internalType": "uint8",
          "name": "",
          "type": "uint8"
        },
        {
          "internalType": "uint256",
          "name": "",
          "type": "uint256"
        }
      ],
      "name": "clusterNodes",
      "outputs": [
        {
          "internalType": "bytes32",
          "name": "",
          "type": "bytes32"
        }
      ],
      "stateMutability": "view",
      "type": "function",
      "constant": true
    },
    {
      "inputs": [
        {
          "internalType": "bytes32",
          "name": "",
          "type": "bytes32"
        }
      ],
      "name": "nodes",
      "outputs": [
        {
          "internalType": "bytes32",
          "name": "primaryId",
          "type": "bytes32"
        },
        {
          "internalType": "bytes32",
          "name": "secondaryId",
          "type": "bytes32"
        },
        {
          "internalType": "uint256",
          "name": "registrationTime",
          "type": "uint256"
        },
        {
          "internalType": "bool",
          "name": "isActive",
          "type": "bool"
        },
        {
          "internalType": "uint8",
          "name": "securityLevel",
          "type": "uint8"
        },
        {
          "internalType": "uint8",
          "name": "clusterID",
          "type": "uint8"
        },
        {
          "internalType": "string",
          "name": "nodeType",
          "type": "string"
        }
      ],
      "stateMutability": "view",
      "type": "function",
      "constant": true
    },
    {
      "inputs": [
        {
          "internalType": "bytes32",
          "name": "_primaryId",
          "type": "bytes32"
        },
        {
          "internalType": "bytes32",
          "name": "_secondaryId",
          "type": "bytes32"
        },
        {
          "internalType": "uint8",
          "name": "_securityLevel",
          "type": "uint8"
        },
        {
          "internalType": "uint8",
          "name": "_clusterID",
          "type": "uint8"
        },
        {
          "internalType": "string",
          "name": "_nodeType",
          "type": "string"
        }
      ],
      "name": "registerNode",
      "outputs": [],
      "stateMutability": "nonpayable",
      "type": "function"
    },
    {
      "inputs": [
        {
          "internalType": "bytes32",
          "name": "_primaryId",
          "type": "bytes32"
        },
        {
          "internalType": "bytes32",
          "name": "_newSecondaryId",
          "type": "bytes32"
        }
      ],
      "name": "updateSecondaryId",
      "outputs": [],
      "stateMutability": "nonpayable",
      "type": "function"
    },
    {
      "inputs": [
        {
          "internalType": "bytes32",
          "name": "_primaryId",
          "type": "bytes32"
        },
        {
          "internalType": "bool",
          "name": "_isActive",
          "type": "bool"
        }
      ],
      "name": "setNodeStatus",
      "outputs": [],
      "stateMutability": "nonpayable",
      "type": "function"
    },
    {
      "inputs": [
        {
          "internalType": "bytes32",
          "name": "_primaryId",
          "type": "bytes32"
        },
        {
          "internalType": "uint8",
          "name": "_securityLevel",
          "type": "uint8"
        }
      ],
      "name": "setSecurityLevel",
      "outputs": [],
      "stateMutability": "nonpayable",
      "type": "function"
    },
    {
      "inputs": [
        {
          "internalType": "bytes32",
          "name": "_primaryId",
          "type": "bytes32"
        },
        {
          "internalType": "uint8",
          "name": "_newClusterID",
          "type": "uint8"
        }
      ],
      "name": "changeNodeCluster",
      "outputs": [],
      "stateMutability": "nonpayable",
      "type": "function"
    },
    {
      "inputs": [
        {
          "internalType": "uint8",
          "name": "_clusterID",
          "type": "uint8"
        }
      ],
      "name": "getNodesInCluster",
      "outputs": [
        {
          "internalType": "bytes32[]",
          "name": "",
          "type": "bytes32[]"
        }
      ],
      "stateMutability": "view",
      "type": "function",
      "constant": true
    },
    {
      "inputs": [],
      "name": "getNodeCount",
      "outputs": [
        {
          "internalType": "uint256",
          "name": "",
          "type": "uint256"
        }
      ],
      "stateMutability": "view",
      "type": "function",
      "constant": true
    },
    {
      "inputs": [
        {
          "internalType": "bytes32",
          "name": "_primaryId",
          "type": "bytes32"
        }
      ],
      "name": "getNodeDetails",
      "outputs": [
        {
          "internalType": "bytes32",
          "name": "",
          "type": "bytes32"
        },
        {
          "internalType": "bytes32",
          "name": "",
          "type": "bytes32"
        },
        {
          "internalType": "uint256",
          "name": "",
          "type": "uint256"
        },
        {
          "internalType": "bool",
          "name": "",
          "type": "bool"
        },
        {
          "internalType": "uint8",
          "name": "",
          "type": "uint8"
        },
        {
          "internalType": "uint8",
          "name": "",
          "type": "uint8"
        },
        {
          "internalType": "string",
          "name": "",
          "type": "string"
        }
      ],
      "stateMutability": "view",
      "type": "function",
      "constant": true
    },
    {
      "inputs": [
        {
          "internalType": "bytes32",
          "name": "_primaryId",
          "type": "bytes32"
        }
      ],
      "name": "nodeExists",
      "outputs": [
        {
          "internalType": "bool",
          "name": "",
          "type": "bool"
        }
      ],
      "stateMutability": "view",
      "type": "function",
      "constant": true
    },
    {
      "inputs": [
        {
          "internalType": "bytes32",
          "name": "_primaryId",
          "type": "bytes32"
        }
      ],
      "name": "isNodeActive",
      "outputs": [
        {
          "internalType": "bool",
          "name": "",
          "type": "bool"
        }
      ],
      "stateMutability": "view",
      "type": "function",
      "constant": true
    }
  ],
  "bytecode": "0x608060405234801561000f575f80fd5b50610f6b8061001d5f395ff3fe608060405234801561000f575f80fd5b50600436106100cb575f3560e01c806388d4489611610088578063d86e697d11610063578063d86e697d146101b0578063eba0b871146101c3578063f81ba10a146101d6578063fc358197146101e9575f80fd5b806388d4489614610177578063999986341461018a578063a58349711461019d575f80fd5b8063055583eb146100cf57806339bf397e146100e457806349687132146100fb57806351a89e001461010e578063840733301461013457806384fffa9e14610157575b5f80fd5b6100e26100dd366004610a98565b61020d565b005b6001545b6040519081526020015b60405180910390f35b6100e2610109366004610ad6565b6102a6565b61012161011c366004610bb4565b610479565b6040516100f29796959493929190610c0e565b610147610142366004610bb4565b6105db565b60405190151581526020016100f2565b61016a610165366004610c59565b610622565b6040516100f29190610c79565b6100e2610185366004610cbc565b610685565b6100e2610198366004610a98565b610704565b6100e86101ab366004610bb4565b610835565b6101216101be366004610bb4565b610854565b6100e86101d1366004610cee565b610921565b6100e26101e4366004610d16565b61094c565b6101476101f7366004610bb4565b5f90815260208190526040902060020154151590565b5f8281526020819052604081206002015490036102455760405162461bcd60e51b815260040161023c90610d36565b60405180910390fd5b5f8281526020818152604091829020600301805461ff00191661010060ff861690810291909117909155915191825283917f24de469e8596cbb626057d5728f01960525bd5f80add4daa3ae814a9db3aca7b91015b60405180910390a25050565b5f85815260208190526040902060020154156103045760405162461bcd60e51b815260206004820152601760248201527f4e6f646520616c72656164792072656769737465726564000000000000000000604482015260640161023c565b6040518060e001604052808681526020018581526020014281526020016001151581526020018460ff1681526020018360ff168152602001828152505f808781526020019081526020015f205f820151815f015560208201518160010155604082015181600201556060820151816003015f6101000a81548160ff02191690831515021790555060808201518160030160016101000a81548160ff021916908360ff16021790555060a08201518160030160026101000a81548160ff021916908360ff16021790555060c08201518160040190816103e29190610de9565b50506001805480820182557fb10e2d527612073b26eecdfd717e6a320cf44b4afac2b0732d9fcbe2b7fa0cf60187905560ff84165f9081526002602090815260408083208054948501815583529120909101879055518691507f8b9431119c9fbb4e13d49ac971914000221170dbc28793bce9475e1fc75b1ea29061046a9085908590610ea5565b60405180910390a25050505050565b5f81815260208181526040808320815160e08101835281548152600182015493810193909352600281015491830191909152600381015460ff8082161515606085810191909152610100830482166080860152620100009092041660a084015260048201805485948594859485948594919385939092909160c08401916104ff90610d63565b80601f016020809104026020016040519081016040528092919081815260200182805461052b90610d63565b80156105765780601f1061054d57610100808354040283529160200191610576565b820191905f5260205f20905b81548152906001019060200180831161055957829003601f168201915b505050505081525050905080604001515f036105a45760405162461bcd60e51b815260040161023c90610d36565b8051602082015160408301516060840151608085015160a086015160c090960151949e939d50919b50995097509195509350915050565b5f81815260208190526040812060020154810361060a5760405162461bcd60e51b815260040161023c90610d36565b505f9081526020819052604090206003015460ff1690565b60ff81165f9081526002602090815260409182902080548351818402810184019094528084526060939283018282801561067957602002820191905f5260205f20905b815481526020019060010190808311610665575b50505050509050919050565b5f8281526020819052604081206002015490036106b45760405162461bcd60e51b815260040161023c90610d36565b5f8281526020818152604091829020600301805460ff1916841515908117909155915191825283917f957f6c73cc55860f19e00c425fbf8653708932313791e1f6242142b8eb207c3c910161029a565b5f8281526020819052604081206002015490036107335760405162461bcd60e51b815260040161023c90610d36565b5f8281526020819052604090206003015460ff62010000909104811690821681036107a05760405162461bcd60e51b815260206004820152601c60248201527f4e6f646520616c726561647920696e207468697320636c757374657200000000604482015260640161023c565b6107aa83826109bf565b5f83815260208181526040808320600301805462ff000019166201000060ff8881169182029290921790925581855260028452828520805460018101825590865294849020909401879055815193851684529183019190915284917f1f84d8b86ff4d33c316ca4ae5d19aeee98035e60d96f3d030dc60c0d50e2f295910160405180910390a2505050565b60018181548110610844575f80fd5b5f91825260209091200154905081565b5f602081905290815260409020805460018201546002830154600384015460048501805494959394929360ff80841694610100850482169462010000900490911692906108a090610d63565b80601f01602080910402602001604051908101604052809291908181526020018280546108cc90610d63565b80156109175780601f106108ee57610100808354040283529160200191610917565b820191905f5260205f20905b8154815290600101906020018083116108fa57829003601f168201915b5050505050905087565b6002602052815f5260405f20818154811061093a575f80fd5b905f5260205f20015f91509150505481565b5f82815260208190526040812060020154900361097b5760405162461bcd60e51b815260040161023c90610d36565b5f8281526020818152604091829020600101839055905182815283917fb69520e877a6afd106e268e1f777d80c1f9cab1402f76eaa3a34220082674a37910161029a565b60ff81165f908152600260205260408120905b8154811015610a7d57838282815481106109ee576109ee610ec8565b905f5260205f20015403610a6b5781548290610a0c90600190610ef0565b81548110610a1c57610a1c610ec8565b905f5260205f200154828281548110610a3757610a37610ec8565b905f5260205f20018190555081805480610a5357610a53610f09565b600190038181905f5260205f20015f90559055610a7d565b80610a7581610f1d565b9150506109d2565b50505050565b803560ff81168114610a93575f80fd5b919050565b5f8060408385031215610aa9575f80fd5b82359150610ab960208401610a83565b90509250929050565b634e487b7160e01b5f52604160045260245ffd5b5f805f805f60a08688031215610aea575f80fd5b8535945060208601359350610b0160408701610a83565b9250610b0f60608701610a83565b9150608086013567ffffffffffffffff80821115610b2b575f80fd5b818801915088601f830112610b3e575f80fd5b813581811115610b5057610b50610ac2565b604051601f8201601f19908116603f01168101908382118183101715610b7857610b78610ac2565b816040528281528b6020848701011115610b90575f80fd5b826020860160208301375f6020848301015280955050505050509295509295909350565b5f60208284031215610bc4575f80fd5b5035919050565b5f81518084525f5b81811015610bef57602081850181015186830182015201610bd3565b505f602082860101526020601f19601f83011685010191505092915050565b878152866020820152856040820152841515606082015260ff8416608082015260ff831660a082015260e060c08201525f610c4c60e0830184610bcb565b9998505050505050505050565b5f60208284031215610c69575f80fd5b610c7282610a83565b9392505050565b602080825282518282018190525f9190848201906040850190845b81811015610cb057835183529284019291840191600101610c94565b50909695505050505050565b5f8060408385031215610ccd575f80fd5b8235915060208301358015158114610ce3575f80fd5b809150509250929050565b5f8060408385031215610cff575f80fd5b610d0883610a83565b946020939093013593505050565b5f8060408385031215610d27575f80fd5b50508035926020909101359150565b602080825260139082015272139bd919481b9bdd081c9959da5cdd195c9959606a1b604082015260600190565b600181811c90821680610d7757607f821691505b602082108103610d9557634e487b7160e01b5f52602260045260245ffd5b50919050565b601f821115610de4575f81815260208120601f850160051c81016020861015610dc15750805b601f850160051c820191505b81811015610de057828155600101610dcd565b5050505b505050565b815167ffffffffffffffff811115610e0357610e03610ac2565b610e1781610e118454610d63565b84610d9b565b602080601f831160018114610e4a575f8415610e335750858301515b5f19600386901b1c1916600185901b178555610de0565b5f85815260208120601f198616915b82811015610e7857888601518255948401946001909101908401610e59565b5085821015610e9557878501515f19600388901b60f8161c191681555b5050505050600190811b01905550565b60ff83168152604060208201525f610ec06040830184610bcb565b949350505050565b634e487b7160e01b5f52603260045260245ffd5b634e487b7160e01b5f52601160045260245ffd5b81810381811115610f0357610f03610edc565b92915050565b634e487b7160e01b5f52603160045260245ffd5b5f60018201610f2e57610f2e610edc565b506001019056fea26469706673582212200ad9280b8cf052ea607057257b4cf377a7c156ffd4a4002022515b47d7902ab364736f6c63430008140033",
  "immutableReferences": {},
  "source": "// SPDX-License-Identifier: MIT\npragma solidity ^0.8.17;\n\n/**\n * @title NIDRegistry\n * @dev Contract for registering and managing Node IDs (NIDs) on the NAP Layer\n */\ncontract NIDRegistry {\n    // Struct to store NID information\n    struct NodeID {\n        bytes32 primaryId;       // Primary ID hash (static)\n        bytes32 secondaryId;     // Secondary ID hash (dynamic)\n        uint256 registrationTime;// Time when the node was registered\n        bool isActive;           // Whether the node is currently active\n        uint8 securityLevel;     // Security level (0-255)\n        uint8 clusterID;         // Cluster ID the node belongs to\n        string nodeType;         // Type of node (e.g., \"VALIDATOR\", \"RELAY\", \"EDGE\")\n    }\n    \n    // Mapping from NID hash to NodeID struct\n    mapping(bytes32 => NodeID) public nodes;\n    \n    // Array to store all registered NID primary hashes\n    bytes32[] public allNodeIds;\n    \n    // Mapping from cluster ID to array of node IDs in that cluster\n    mapping(uint8 => bytes32[]) public clusterNodes;\n    \n    // Events\n    event NodeRegistered(bytes32 indexed primaryId, uint8 clusterID, string nodeType);\n    event NodeUpdated(bytes32 indexed primaryId, bytes32 secondaryId);\n    event NodeStatusChanged(bytes32 indexed primaryId, bool isActive);\n    event NodeSecurityLevelChanged(bytes32 indexed primaryId, uint8 securityLevel);\n    event NodeClusterChanged(bytes32 indexed primaryId, uint8 oldClusterID, uint8 newClusterID);\n    \n    /**\n     * @dev Register a new node\n     * @param _primaryId Primary ID hash\n     * @param _secondaryId Secondary ID hash\n     * @param _securityLevel Security level\n     * @param _clusterID Cluster ID\n     * @param _nodeType Type of node\n     */\n    function registerNode(\n        bytes32 _primaryId,\n        bytes32 _secondaryId,\n        uint8 _securityLevel,\n        uint8 _clusterID,\n        string memory _nodeType\n    ) public {\n        require(nodes[_primaryId].registrationTime == 0, \"Node already registered\");\n        \n        nodes[_primaryId] = NodeID({\n            primaryId: _primaryId,\n            secondaryId: _secondaryId,\n            registrationTime: block.timestamp,\n            isActive: true,\n            securityLevel: _securityLevel,\n            clusterID: _clusterID,\n            nodeType: _nodeType\n        });\n        \n        allNodeIds.push(_primaryId);\n        clusterNodes[_clusterID].push(_primaryId);\n        \n        emit NodeRegistered(_primaryId, _clusterID, _nodeType);\n    }\n    \n    /**\n     * @dev Update node's secondary ID (for dynamic attributes)\n     * @param _primaryId Primary ID hash\n     * @param _newSecondaryId New secondary ID hash\n     */\n    function updateSecondaryId(bytes32 _primaryId, bytes32 _newSecondaryId) public {\n        require(nodes[_primaryId].registrationTime != 0, \"Node not registered\");\n        \n        nodes[_primaryId].secondaryId = _newSecondaryId;\n        \n        emit NodeUpdated(_primaryId, _newSecondaryId);\n    }\n    \n    /**\n     * @dev Change node's active status\n     * @param _primaryId Primary ID hash\n     * @param _isActive New active status\n     */\n    function setNodeStatus(bytes32 _primaryId, bool _isActive) public {\n        require(nodes[_primaryId].registrationTime != 0, \"Node not registered\");\n        \n        nodes[_primaryId].isActive = _isActive;\n        \n        emit NodeStatusChanged(_primaryId, _isActive);\n    }\n    \n    /**\n     * @dev Change node's security level\n     * @param _primaryId Primary ID hash\n     * @param _securityLevel New security level\n     */\n    function setSecurityLevel(bytes32 _primaryId, uint8 _securityLevel) public {\n        require(nodes[_primaryId].registrationTime != 0, \"Node not registered\");\n        \n        nodes[_primaryId].securityLevel = _securityLevel;\n        \n        emit NodeSecurityLevelChanged(_primaryId, _securityLevel);\n    }\n    \n    /**\n     * @dev Move node to different cluster\n     * @param _primaryId Primary ID hash\n     * @param _newClusterID New cluster ID\n     */\n    function changeNodeCluster(bytes32 _primaryId, uint8 _newClusterID) public {\n        require(nodes[_primaryId].registrationTime != 0, \"Node not registered\");\n        \n        uint8 oldClusterID = nodes[_primaryId].clusterID;\n        require(oldClusterID != _newClusterID, \"Node already in this cluster\");\n        \n        // Remove from old cluster\n        removeFromCluster(_primaryId, oldClusterID);\n        \n        // Add to new cluster\n        nodes[_primaryId].clusterID = _newClusterID;\n        clusterNodes[_newClusterID].push(_primaryId);\n        \n        emit NodeClusterChanged(_primaryId, oldClusterID, _newClusterID);\n    }\n    \n    /**\n     * @dev Helper function to remove node from cluster\n     * @param _primaryId Primary ID hash\n     * @param _clusterID Cluster ID\n     */\n    function removeFromCluster(bytes32 _primaryId, uint8 _clusterID) internal {\n        bytes32[] storage nodesInCluster = clusterNodes[_clusterID];\n        \n        for (uint i = 0; i < nodesInCluster.length; i++) {\n            if (nodesInCluster[i] == _primaryId) {\n                // Swap with the last element and then remove the last element\n                nodesInCluster[i] = nodesInCluster[nodesInCluster.length - 1];\n                nodesInCluster.pop();\n                break;\n            }\n        }\n    }\n    \n    /**\n     * @dev Get all nodes in a specific cluster\n     * @param _clusterID Cluster ID\n     * @return Array of node primary IDs in the cluster\n     */\n    function getNodesInCluster(uint8 _clusterID) public view returns (bytes32[] memory) {\n        return clusterNodes[_clusterID];\n    }\n    \n    /**\n     * @dev Get count of all registered nodes\n     * @return Number of registered nodes\n     */\n    function getNodeCount() public view returns (uint256) {\n        return allNodeIds.length;\n    }\n    \n    /**\n     * @dev Get node details\n     * @param _primaryId Primary ID hash\n     * @return Node details (primaryId, secondaryId, registrationTime, isActive, securityLevel, clusterID, nodeType)\n     */\n    function getNodeDetails(bytes32 _primaryId) public view returns (\n        bytes32, bytes32, uint256, bool, uint8, uint8, string memory\n    ) {\n        NodeID memory node = nodes[_primaryId];\n        require(node.registrationTime != 0, \"Node not registered\");\n        \n        return (\n            node.primaryId,\n            node.secondaryId,\n            node.registrationTime,\n            node.isActive,\n            node.securityLevel,\n            node.clusterID,\n            node.nodeType\n        );\n    }\n    \n    /**\n     * @dev Check if a node exists\n     * @param _primaryId Primary ID hash\n     * @return Whether the node exists\n     */\n    function nodeExists(bytes32 _primaryId) public view returns (bool) {\n        return nodes[_primaryId].registrationTime != 0;\n    }\n    \n    /**\n     * @dev Check if a node is active\n     * @param _primaryId Primary ID hash\n     * @return Whether the node is active\n     */\n    function isNodeActive(bytes32 _primaryId) public view returns (bool) {\n        require(nodes[_primaryId].registrationTime != 0, \"Node not registered\");\n        return nodes[_primaryId].isActive;\n    }\n}",
  "sourcePath": "C:\\Users\\Bonsu\\Documents\\Blockchain Multi Industrial Service Center\\Blockchain MultiIndustrial Projects\\BlockchainMultiIndustryRepo\\contracts\\N2N\\NIDRegistry.sol",
  "compiler": {
    "name": "solc",
    "version": "0.8.20+commit.a1b79de6.Emscripten.clang"
  },
  "schemaVersion": "3.4.16",
  "updatedAt": "2025-04-16T14:10:53.464Z",
  "networkType": "ethereum",
  "devdoc": {
    "details": "Contract for registering and managing Node IDs (NIDs) on the NAP Layer",
    "kind": "dev",
    "methods": {
      "changeNodeCluster(bytes32,uint8)": {
        "details": "Move node to different cluster",
        "params": {
          "_newClusterID": "New cluster ID",
          "_primaryId": "Primary ID hash"
        }
      },
      "getNodeCount()": {
        "details": "Get count of all registered nodes",
        "returns": {
          "_0": "Number of registered nodes"
        }
      },
      "getNodeDetails(bytes32)": {
        "details": "Get node details",
        "params": {
          "_primaryId": "Primary ID hash"
        },
        "returns": {
          "_0": "Node details (primaryId, secondaryId, registrationTime, isActive, securityLevel, clusterID, nodeType)"
        }
      },
      "getNodesInCluster(uint8)": {
        "details": "Get all nodes in a specific cluster",
        "params": {
          "_clusterID": "Cluster ID"
        },
        "returns": {
          "_0": "Array of node primary IDs in the cluster"
        }
      },
      "isNodeActive(bytes32)": {
        "details": "Check if a node is active",
        "params": {
          "_primaryId": "Primary ID hash"
        },
        "returns": {
          "_0": "Whether the node is active"
        }
      },
      "nodeExists(bytes32)": {
        "details": "Check if a node exists",
        "params": {
          "_primaryId": "Primary ID hash"
        },
        "returns": {
          "_0": "Whether the node exists"
        }
      },
      "registerNode(bytes32,bytes32,uint8,uint8,string)": {
        "details": "Register a new node",
        "params": {
          "_clusterID": "Cluster ID",
          "_nodeType": "Type of node",
          "_primaryId": "Primary ID hash",
          "_secondaryId": "Secondary ID hash",
          "_securityLevel": "Security level"
        }
      },
      "setNodeStatus(bytes32,bool)": {
        "details": "Change node's active status",
        "params": {
          "_isActive": "New active status",
          "_primaryId": "Primary ID hash"
        }
      },
      "setSecurityLevel(bytes32,uint8)": {
        "details": "Change node's security level",
        "params": {
          "_primaryId": "Primary ID hash",
          "_securityLevel": "New security level"
        }
      },
      "updateSecondaryId(bytes32,bytes32)": {
        "details": "Update node's secondary ID (for dynamic attributes)",
        "params": {
          "_newSecondaryId": "New secondary ID hash",
          "_primaryId": "Primary ID hash"
        }
      }
    },
    "title": "NIDRegistry",
    "version": 1
  },
  "userdoc": {
    "kind": "user",
    "methods": {},
    "version": 1
  }
}