{
  "contractName": "ProactiveDefenseMechanism",
  "abi": [
    {
      "inputs": [
        {
          "internalType": "uint256",
          "name": "_anomalyThreshold",
          "type": "uint256"
        },
        {
          "internalType": "uint256",
          "name": "_baselineUpdateInterval",
          "type": "uint256"
        }
      ],
      "stateMutability": "nonpayable",
      "type": "constructor"
    },
    {
      "anonymous": false,
      "inputs": [
        {
          "indexed": true,
          "internalType": "address",
          "name": "node",
          "type": "address"
        },
        {
          "indexed": true,
          "internalType": "uint256",
          "name": "attackId",
          "type": "uint256"
        },
        {
          "indexed": false,
          "internalType": "uint256",
          "name": "anomalyScore",
          "type": "uint256"
        },
        {
          "indexed": false,
          "internalType": "string",
          "name": "attackType",
          "type": "string"
        }
      ],
      "name": "AnomalyDetected",
      "type": "event"
    },
    {
      "anonymous": false,
      "inputs": [
        {
          "indexed": true,
          "internalType": "address",
          "name": "node",
          "type": "address"
        },
        {
          "indexed": true,
          "internalType": "uint256",
          "name": "attackId",
          "type": "uint256"
        }
      ],
      "name": "AnomalyResolved",
      "type": "event"
    },
    {
      "anonymous": false,
      "inputs": [
        {
          "indexed": true,
          "internalType": "address",
          "name": "node",
          "type": "address"
        },
        {
          "indexed": false,
          "internalType": "uint256",
          "name": "latency",
          "type": "uint256"
        },
        {
          "indexed": false,
          "internalType": "uint256",
          "name": "throughput",
          "type": "uint256"
        }
      ],
      "name": "MetricsUpdated",
      "type": "event"
    },
    {
      "anonymous": false,
      "inputs": [
        {
          "indexed": true,
          "internalType": "address",
          "name": "node",
          "type": "address"
        }
      ],
      "name": "NodeRegistered",
      "type": "event"
    },
    {
      "anonymous": false,
      "inputs": [
        {
          "indexed": true,
          "internalType": "address",
          "name": "previousOwner",
          "type": "address"
        },
        {
          "indexed": true,
          "internalType": "address",
          "name": "newOwner",
          "type": "address"
        }
      ],
      "name": "OwnershipTransferred",
      "type": "event"
    },
    {
      "anonymous": false,
      "inputs": [
        {
          "indexed": false,
          "internalType": "uint256",
          "name": "newThreshold",
          "type": "uint256"
        }
      ],
      "name": "ThresholdUpdated",
      "type": "event"
    },
    {
      "inputs": [],
      "name": "MAX_ANOMALY_SCORE",
      "outputs": [
        {
          "internalType": "uint256",
          "name": "",
          "type": "uint256"
        }
      ],
      "stateMutability": "view",
      "type": "function",
      "constant": true
    },
    {
      "inputs": [],
      "name": "MIN_ANOMALY_SCORE",
      "outputs": [
        {
          "internalType": "uint256",
          "name": "",
          "type": "uint256"
        }
      ],
      "stateMutability": "view",
      "type": "function",
      "constant": true
    },
    {
      "inputs": [],
      "name": "anomalyThreshold",
      "outputs": [
        {
          "internalType": "uint256",
          "name": "",
          "type": "uint256"
        }
      ],
      "stateMutability": "view",
      "type": "function",
      "constant": true
    },
    {
      "inputs": [],
      "name": "attackDetectionCount",
      "outputs": [
        {
          "internalType": "uint256",
          "name": "",
          "type": "uint256"
        }
      ],
      "stateMutability": "view",
      "type": "function",
      "constant": true
    },
    {
      "inputs": [
        {
          "internalType": "uint256",
          "name": "",
          "type": "uint256"
        },
        {
          "internalType": "uint256",
          "name": "",
          "type": "uint256"
        }
      ],
      "name": "attackFeatureContributions",
      "outputs": [
        {
          "internalType": "uint256",
          "name": "",
          "type": "uint256"
        }
      ],
      "stateMutability": "view",
      "type": "function",
      "constant": true
    },
    {
      "inputs": [
        {
          "internalType": "uint256",
          "name": "",
          "type": "uint256"
        }
      ],
      "name": "attackResolved",
      "outputs": [
        {
          "internalType": "bool",
          "name": "",
          "type": "bool"
        }
      ],
      "stateMutability": "view",
      "type": "function",
      "constant": true
    },
    {
      "inputs": [
        {
          "internalType": "uint256",
          "name": "",
          "type": "uint256"
        }
      ],
      "name": "attackToAnomalyScore",
      "outputs": [
        {
          "internalType": "uint256",
          "name": "",
          "type": "uint256"
        }
      ],
      "stateMutability": "view",
      "type": "function",
      "constant": true
    },
    {
      "inputs": [
        {
          "internalType": "uint256",
          "name": "",
          "type": "uint256"
        }
      ],
      "name": "attackToNode",
      "outputs": [
        {
          "internalType": "address",
          "name": "",
          "type": "address"
        }
      ],
      "stateMutability": "view",
      "type": "function",
      "constant": true
    },
    {
      "inputs": [
        {
          "internalType": "uint256",
          "name": "",
          "type": "uint256"
        }
      ],
      "name": "attackToTimestamp",
      "outputs": [
        {
          "internalType": "uint256",
          "name": "",
          "type": "uint256"
        }
      ],
      "stateMutability": "view",
      "type": "function",
      "constant": true
    },
    {
      "inputs": [
        {
          "internalType": "uint256",
          "name": "",
          "type": "uint256"
        }
      ],
      "name": "attackToType",
      "outputs": [
        {
          "internalType": "string",
          "name": "",
          "type": "string"
        }
      ],
      "stateMutability": "view",
      "type": "function",
      "constant": true
    },
    {
      "inputs": [],
      "name": "baselineUpdateInterval",
      "outputs": [
        {
          "internalType": "uint256",
          "name": "",
          "type": "uint256"
        }
      ],
      "stateMutability": "view",
      "type": "function",
      "constant": true
    },
    {
      "inputs": [
        {
          "internalType": "address",
          "name": "",
          "type": "address"
        },
        {
          "internalType": "uint256",
          "name": "",
          "type": "uint256"
        }
      ],
      "name": "nodeAttackHistory",
      "outputs": [
        {
          "internalType": "uint256",
          "name": "",
          "type": "uint256"
        }
      ],
      "stateMutability": "view",
      "type": "function",
      "constant": true
    },
    {
      "inputs": [
        {
          "internalType": "uint256",
          "name": "",
          "type": "uint256"
        }
      ],
      "name": "nodeList",
      "outputs": [
        {
          "internalType": "address",
          "name": "",
          "type": "address"
        }
      ],
      "stateMutability": "view",
      "type": "function",
      "constant": true
    },
    {
      "inputs": [
        {
          "internalType": "address",
          "name": "",
          "type": "address"
        }
      ],
      "name": "nodeMetrics",
      "outputs": [
        {
          "internalType": "uint256",
          "name": "latency",
          "type": "uint256"
        },
        {
          "internalType": "uint256",
          "name": "throughput",
          "type": "uint256"
        },
        {
          "internalType": "uint256",
          "name": "uptime",
          "type": "uint256"
        },
        {
          "internalType": "uint256",
          "name": "errorRate",
          "type": "uint256"
        },
        {
          "internalType": "uint256",
          "name": "cpuUsage",
          "type": "uint256"
        },
        {
          "internalType": "uint256",
          "name": "memoryUsage",
          "type": "uint256"
        },
        {
          "internalType": "uint256",
          "name": "connectionCount",
          "type": "uint256"
        },
        {
          "internalType": "uint256",
          "name": "lastUpdated",
          "type": "uint256"
        }
      ],
      "stateMutability": "view",
      "type": "function",
      "constant": true
    },
    {
      "inputs": [],
      "name": "owner",
      "outputs": [
        {
          "internalType": "address",
          "name": "",
          "type": "address"
        }
      ],
      "stateMutability": "view",
      "type": "function",
      "constant": true
    },
    {
      "inputs": [
        {
          "internalType": "address",
          "name": "",
          "type": "address"
        }
      ],
      "name": "registeredNodes",
      "outputs": [
        {
          "internalType": "bool",
          "name": "",
          "type": "bool"
        }
      ],
      "stateMutability": "view",
      "type": "function",
      "constant": true
    },
    {
      "inputs": [],
      "name": "renounceOwnership",
      "outputs": [],
      "stateMutability": "nonpayable",
      "type": "function"
    },
    {
      "inputs": [
        {
          "internalType": "address",
          "name": "newOwner",
          "type": "address"
        }
      ],
      "name": "transferOwnership",
      "outputs": [],
      "stateMutability": "nonpayable",
      "type": "function"
    },
    {
      "inputs": [
        {
          "internalType": "address",
          "name": "_nodeAddress",
          "type": "address"
        }
      ],
      "name": "registerNode",
      "outputs": [],
      "stateMutability": "nonpayable",
      "type": "function"
    },
    {
      "inputs": [
        {
          "internalType": "address",
          "name": "_nodeAddress",
          "type": "address"
        },
        {
          "internalType": "uint256",
          "name": "_latency",
          "type": "uint256"
        },
        {
          "internalType": "uint256",
          "name": "_throughput",
          "type": "uint256"
        },
        {
          "internalType": "uint256",
          "name": "_uptime",
          "type": "uint256"
        },
        {
          "internalType": "uint256",
          "name": "_errorRate",
          "type": "uint256"
        },
        {
          "internalType": "uint256",
          "name": "_cpuUsage",
          "type": "uint256"
        },
        {
          "internalType": "uint256",
          "name": "_memoryUsage",
          "type": "uint256"
        },
        {
          "internalType": "uint256",
          "name": "_connectionCount",
          "type": "uint256"
        }
      ],
      "name": "updateNodeMetrics",
      "outputs": [],
      "stateMutability": "nonpayable",
      "type": "function"
    },
    {
      "inputs": [
        {
          "internalType": "address",
          "name": "_nodeAddress",
          "type": "address"
        },
        {
          "internalType": "uint256",
          "name": "_anomalyScore",
          "type": "uint256"
        },
        {
          "internalType": "string",
          "name": "_attackType",
          "type": "string"
        },
        {
          "internalType": "uint256[]",
          "name": "_featureIndices",
          "type": "uint256[]"
        },
        {
          "internalType": "uint256[]",
          "name": "_featureContributions",
          "type": "uint256[]"
        }
      ],
      "name": "recordAnomaly",
      "outputs": [],
      "stateMutability": "nonpayable",
      "type": "function"
    },
    {
      "inputs": [
        {
          "internalType": "uint256",
          "name": "_attackId",
          "type": "uint256"
        }
      ],
      "name": "resolveAnomaly",
      "outputs": [],
      "stateMutability": "nonpayable",
      "type": "function"
    },
    {
      "inputs": [
        {
          "internalType": "uint256",
          "name": "_newThreshold",
          "type": "uint256"
        }
      ],
      "name": "updateAnomalyThreshold",
      "outputs": [],
      "stateMutability": "nonpayable",
      "type": "function"
    },
    {
      "inputs": [
        {
          "internalType": "uint256",
          "name": "_newInterval",
          "type": "uint256"
        }
      ],
      "name": "updateBaselineInterval",
      "outputs": [],
      "stateMutability": "nonpayable",
      "type": "function"
    },
    {
      "inputs": [],
      "name": "getAllNodes",
      "outputs": [
        {
          "internalType": "address[]",
          "name": "",
          "type": "address[]"
        }
      ],
      "stateMutability": "view",
      "type": "function",
      "constant": true
    },
    {
      "inputs": [
        {
          "internalType": "address",
          "name": "_nodeAddress",
          "type": "address"
        }
      ],
      "name": "getNodeMetrics",
      "outputs": [
        {
          "internalType": "uint256",
          "name": "latency",
          "type": "uint256"
        },
        {
          "internalType": "uint256",
          "name": "throughput",
          "type": "uint256"
        },
        {
          "internalType": "uint256",
          "name": "uptime",
          "type": "uint256"
        },
        {
          "internalType": "uint256",
          "name": "errorRate",
          "type": "uint256"
        },
        {
          "internalType": "uint256",
          "name": "cpuUsage",
          "type": "uint256"
        },
        {
          "internalType": "uint256",
          "name": "memoryUsage",
          "type": "uint256"
        },
        {
          "internalType": "uint256",
          "name": "connectionCount",
          "type": "uint256"
        },
        {
          "internalType": "uint256",
          "name": "lastUpdated",
          "type": "uint256"
        }
      ],
      "stateMutability": "view",
      "type": "function",
      "constant": true
    },
    {
      "inputs": [
        {
          "internalType": "address",
          "name": "_nodeAddress",
          "type": "address"
        }
      ],
      "name": "getNodeAttackHistory",
      "outputs": [
        {
          "internalType": "uint256[]",
          "name": "attackIds",
          "type": "uint256[]"
        },
        {
          "internalType": "uint256[]",
          "name": "timestamps",
          "type": "uint256[]"
        },
        {
          "internalType": "uint256[]",
          "name": "anomalyScores",
          "type": "uint256[]"
        },
        {
          "internalType": "bool[]",
          "name": "resolved",
          "type": "bool[]"
        }
      ],
      "stateMutability": "view",
      "type": "function",
      "constant": true
    },
    {
      "inputs": [
        {
          "internalType": "uint256",
          "name": "_attackId",
          "type": "uint256"
        }
      ],
      "name": "getAttackDetails",
      "outputs": [
        {
          "internalType": "address",
          "name": "nodeAddress",
          "type": "address"
        },
        {
          "internalType": "uint256",
          "name": "timestamp",
          "type": "uint256"
        },
        {
          "internalType": "uint256",
          "name": "anomalyScore",
          "type": "uint256"
        },
        {
          "internalType": "string",
          "name": "attackType",
          "type": "string"
        },
        {
          "internalType": "bool",
          "name": "resolved",
          "type": "bool"
        }
      ],
      "stateMutability": "view",
      "type": "function",
      "constant": true
    },
    {
      "inputs": [
        {
          "internalType": "uint256",
          "name": "_attackId",
          "type": "uint256"
        },
        {
          "internalType": "uint256[]",
          "name": "_featureIndices",
          "type": "uint256[]"
        }
      ],
      "name": "getAttackFeatureContributions",
      "outputs": [
        {
          "internalType": "uint256[]",
          "name": "contributions",
          "type": "uint256[]"
        }
      ],
      "stateMutability": "view",
      "type": "function",
      "constant": true
    }
  ],
  "bytecode": "0x608060405234801561000f575f80fd5b5060405161191838038061191883398101604081905261002e9161009c565b6100373361004d565b60018055600d91909155600e555f6005556100be565b5f80546001600160a01b038381166001600160a01b0319831681178455604051919092169283917f8be0079c531659141344cd1fd0a4f28419497f9722a3daafe3b4186f6b6457e09190a35050565b5f80604083850312156100ad575f80fd5b505080516020909101519092909150565b61184d806100cb5f395ff3fe608060405234801561000f575f80fd5b50600436106101c6575f3560e01c80637b4f4279116100fe578063a49855b51161009e578063d20fa9101161006e578063d20fa91014610499578063d3d1fb48146104ac578063f2fde38b146104ce578063fdffd5a8146104e1575f80fd5b8063a49855b5146103e3578063a645ac2014610435578063a70eda0414610454578063c023dee314610467575f80fd5b80638da5cb5b116100d95780638da5cb5b146103a25780639c32a135146103b25780639e74464a146103bb578063a1174e7d146103ce575f80fd5b80637b4f427914610364578063825dfc221461036b5780638560be931461038f575f80fd5b806337411da611610169578063672d7a0d11610144578063672d7a0d1461032d5780636c4f84ba146103405780636f83a58614610353578063715018a61461035c575f80fd5b806337411da6146102c3578063397b14bc146102ed5780634e199b661461030d575f80fd5b80632135a872116101a45780632135a872146102395780632896a769146102875780632cd2b8e8146102a657806335f1333d146102ae575f80fd5b806314c2012c146101ca5780631c47a79c1461020f578063208f2a3114610226575b5f80fd5b6101f26101d83660046111fa565b60066020525f90815260409020546001600160a01b031681565b6040516001600160a01b0390911681526020015b60405180910390f35b610218600e5481565b604051908152602001610206565b6101f26102343660046111fa565b610504565b61024c61024736600461122c565b61052c565b604080519889526020890197909752958701949094526060860192909252608085015260a084015260c083015260e082015261010001610206565b6102186102953660046111fa565b60076020525f908152604090205481565b610218606481565b6102c16102bc3660046111fa565b6105cf565b005b6102186102d136600461124c565b600b60209081525f928352604080842090915290825290205481565b6103006102fb3660046111fa565b6105dc565b60405161020691906112af565b61032061031b366004611309565b610673565b604051610206919061138a565b6102c161033b36600461122c565b610751565b6102c161034e3660046111fa565b610895565b610218600d5481565b6102c1610927565b6102185f81565b61037e6103793660046111fa565b61093a565b60405161020695949392919061139c565b6102c161039d3660046113dc565b610a45565b5f546001600160a01b03166101f2565b61021860055481565b6102c16103c93660046111fa565b610c85565b6103d6610d59565b60405161020691906114b3565b61024c6103f136600461122c565b6002602052805f5260405f205f91509050805f0154908060010154908060020154908060030154908060040154908060050154908060060154908060070154905088565b6102186104433660046111fa565b60086020525f908152604090205481565b6102c16104623660046114ff565b610db9565b6104896104753660046111fa565b600a6020525f908152604090205460ff1681565b6040519015158152602001610206565b6102186104a7366004611556565b610e81565b6104896104ba36600461122c565b60036020525f908152604090205460ff1681565b6102c16104dc36600461122c565b610eac565b6104f46104ef36600461122c565b610f25565b604051610206949392919061157e565b60048181548110610513575f80fd5b5f918252602090912001546001600160a01b0316905081565b6001600160a01b0381165f90815260036020526040812054819081908190819081908190819060ff1661057a5760405162461bcd60e51b8152600401610571906115fc565b60405180910390fd5b505050506001600160a01b03949094165f90815260026020819052604090912080546001820154928201546003830154600484015460058501546006860154600790960154949b969a50929850909650945092565b6105d7611152565b600e55565b60096020525f9081526040902080546105f490611629565b80601f016020809104026020016040519081016040528092919081815260200182805461062090611629565b801561066b5780601f106106425761010080835404028352916020019161066b565b820191905f5260205f20905b81548152906001019060200180831161064e57829003601f168201915b505050505081565b606060055484106106965760405162461bcd60e51b815260040161057190611661565b8167ffffffffffffffff8111156106af576106af61168c565b6040519080825280602002602001820160405280156106d8578160200160208202803683370190505b5090505f5b82811015610749575f858152600b6020526040812090858584818110610705576107056116a0565b9050602002013581526020019081526020015f205482828151811061072c5761072c6116a0565b602090810291909101015280610741816116b4565b9150506106dd565b509392505050565b610759611152565b6001600160a01b0381165f9081526003602052604090205460ff16156107c15760405162461bcd60e51b815260206004820152601760248201527f4e6f646520616c726561647920726567697374657265640000000000000000006044820152606401610571565b6001600160a01b0381165f818152600360208181526040808420805460ff191660019081179091556004805480830182557f8a35acfbc15ff81a39ae7d344fd709f28e8600b4aa8c65c6b64bfe7fe36bd19b0180546001600160a01b031916881790556002938490528286206064808255928101929092556103de93820193909355600a93810184905560329281018390556005810192909255600682019290925542600782015590519092917f564728e6a7c8edd446557d94e0339d5e6ca2e05f42188914efdbdc87bcbbabf691a25050565b61089d611152565b5f81116108ec5760405162461bcd60e51b815260206004820152601a60248201527f5468726573686f6c64206d75737420626520706f7369746976650000000000006044820152606401610571565b600d8190556040518181527fadfa8ecb21b6962ebcd0adbd9ab985b7b4c5b5eb3b0dead683171565c7bfe1719060200160405180910390a150565b61092f611152565b6109385f6111ab565b565b5f805f60605f60055486106109615760405162461bcd60e51b815260040161057190611661565b5f868152600660209081526040808320546007835281842054600884528285205460098552838620600a909552929094205483546001600160a01b0390921694939160ff9091169082906109b490611629565b80601f01602080910402602001604051908101604052809291908181526020018280546109e090611629565b8015610a2b5780601f10610a0257610100808354040283529160200191610a2b565b820191905f5260205f20905b815481529060010190602001808311610a0e57829003601f168201915b505050505091509450945094509450945091939590929450565b610a4d611152565b6001600160a01b0388165f9081526003602052604090205460ff16610a845760405162461bcd60e51b8152600401610571906115fc565b6064871115610acd5760405162461bcd60e51b8152602060048201526015602482015274496e76616c696420616e6f6d616c792073636f726560581b6044820152606401610571565b828114610b1c5760405162461bcd60e51b815260206004820152601e60248201527f4665617475726520617272617973206c656e677468206d69736d6174636800006044820152606401610571565b6005545f81815260066020908152604080832080546001600160a01b0319166001600160a01b038e1617905560078252808320429055600882528083208b905560099091529020610b6e878983611726565b505f818152600a60205260408120805460ff191690555b84811015610bf557838382818110610b9f57610b9f6116a0565b90506020020135600b5f8481526020019081526020015f205f888885818110610bca57610bca6116a0565b9050602002013581526020019081526020015f20819055508080610bed906116b4565b915050610b85565b506001600160a01b0389165f908152600c6020908152604082208054600181018255908352908220018290556005805491610c2f836116b4565b919050555080896001600160a01b03167fac803f2026342b4d19c26f0982f727c4f98d04cd76a796bdda59cb56926b38148a8a8a604051610c72939291906117e2565b60405180910390a3505050505050505050565b610c8d611152565b6005548110610cae5760405162461bcd60e51b815260040161057190611661565b5f818152600a602052604090205460ff1615610cff5760405162461bcd60e51b815260206004820152601060248201526f105b1c9958591e481c995cdbdb1d995960821b6044820152606401610571565b5f818152600a60209081526040808320805460ff19166001179055600690915280822054905183926001600160a01b03909216917fa102e82e5f20aa874163e841ad1c1324dc67c41df32d5d70622854942b18744c91a350565b60606004805480602002602001604051908101604052809291908181526020018280548015610daf57602002820191905f5260205f20905b81546001600160a01b03168152600190910190602001808311610d91575b5050505050905090565b6001600160a01b0388165f9081526003602052604090205460ff16610df05760405162461bcd60e51b8152600401610571906115fc565b6001600160a01b0388165f818152600260208181526040928390208b8155600181018b90559182018990556003820188905560048201879055600582018690556006820185905542600783015582518b81529081018a90529092917f79f50eca0b5271175be5e46142efe86fd60e7de6fa43d1eb775db9247843ff49910160405180910390a2505050505050505050565b600c602052815f5260405f208181548110610e9a575f80fd5b905f5260205f20015f91509150505481565b610eb4611152565b6001600160a01b038116610f195760405162461bcd60e51b815260206004820152602660248201527f4f776e61626c653a206e6577206f776e657220697320746865207a65726f206160448201526564647265737360d01b6064820152608401610571565b610f22816111ab565b50565b6060806060805f600c5f876001600160a01b03166001600160a01b031681526020019081526020015f20805480602002602001604051908101604052809291908181526020018280548015610f9757602002820191905f5260205f20905b815481526020019060010190808311610f83575b50508351939450839250505067ffffffffffffffff811115610fbb57610fbb61168c565b604051908082528060200260200182016040528015610fe4578160200160208202803683370190505b5094508067ffffffffffffffff8111156110005761100061168c565b604051908082528060200260200182016040528015611029578160200160208202803683370190505b5093508067ffffffffffffffff8111156110455761104561168c565b60405190808252806020026020018201604052801561106e578160200160208202803683370190505b5092505f5b81811015611146575f83828151811061108e5761108e6116a0565b6020026020010151905060075f8281526020019081526020015f20548783815181106110bc576110bc6116a0565b60200260200101818152505060085f8281526020019081526020015f20548683815181106110ec576110ec6116a0565b6020908102919091018101919091525f828152600a9091526040902054855160ff90911690869084908110611123576111236116a0565b91151560209283029190910190910152508061113e816116b4565b915050611073565b50909450509193509193565b5f546001600160a01b031633146109385760405162461bcd60e51b815260206004820181905260248201527f4f776e61626c653a2063616c6c6572206973206e6f7420746865206f776e65726044820152606401610571565b5f80546001600160a01b038381166001600160a01b0319831681178455604051919092169283917f8be0079c531659141344cd1fd0a4f28419497f9722a3daafe3b4186f6b6457e09190a35050565b5f6020828403121561120a575f80fd5b5035919050565b80356001600160a01b0381168114611227575f80fd5b919050565b5f6020828403121561123c575f80fd5b61124582611211565b9392505050565b5f806040838503121561125d575f80fd5b50508035926020909101359150565b5f81518084525f5b8181101561129057602081850181015186830182015201611274565b505f602082860101526020601f19601f83011685010191505092915050565b602081525f611245602083018461126c565b5f8083601f8401126112d1575f80fd5b50813567ffffffffffffffff8111156112e8575f80fd5b6020830191508360208260051b8501011115611302575f80fd5b9250929050565b5f805f6040848603121561131b575f80fd5b83359250602084013567ffffffffffffffff811115611338575f80fd5b611344868287016112c1565b9497909650939450505050565b5f8151808452602080850194508084015f5b8381101561137f57815187529582019590820190600101611363565b509495945050505050565b602081525f6112456020830184611351565b60018060a01b038616815284602082015283604082015260a060608201525f6113c860a083018561126c565b905082151560808301529695505050505050565b5f805f805f805f8060a0898b0312156113f3575f80fd5b6113fc89611211565b975060208901359650604089013567ffffffffffffffff8082111561141f575f80fd5b818b0191508b601f830112611432575f80fd5b813581811115611440575f80fd5b8c6020828501011115611451575f80fd5b6020830198508097505060608b013591508082111561146e575f80fd5b61147a8c838d016112c1565b909650945060808b0135915080821115611492575f80fd5b5061149f8b828c016112c1565b999c989b5096995094979396929594505050565b602080825282518282018190525f9190848201906040850190845b818110156114f35783516001600160a01b0316835292840192918401916001016114ce565b50909695505050505050565b5f805f805f805f80610100898b031215611517575f80fd5b61152089611211565b9a60208a01359a5060408a013599606081013599506080810135985060a0810135975060c0810135965060e00135945092505050565b5f8060408385031215611567575f80fd5b61157083611211565b946020939093013593505050565b608081525f6115906080830187611351565b6020838203818501526115a38288611351565b915083820360408501526115b78287611351565b848103606086015285518082528287019350908201905f5b818110156115ed5784511515835293830193918301916001016115cf565b50909998505050505050505050565b602080825260139082015272139bd919481b9bdd081c9959da5cdd195c9959606a1b604082015260600190565b600181811c9082168061163d57607f821691505b60208210810361165b57634e487b7160e01b5f52602260045260245ffd5b50919050565b602080825260119082015270125b9d985b1a5908185d1d1858dac81251607a1b604082015260600190565b634e487b7160e01b5f52604160045260245ffd5b634e487b7160e01b5f52603260045260245ffd5b5f600182016116d157634e487b7160e01b5f52601160045260245ffd5b5060010190565b601f821115611721575f81815260208120601f850160051c810160208610156116fe5750805b601f850160051c820191505b8181101561171d5782815560010161170a565b5050505b505050565b67ffffffffffffffff83111561173e5761173e61168c565b6117528361174c8354611629565b836116d8565b5f601f841160018114611783575f851561176c5750838201355b5f19600387901b1c1916600186901b1783556117db565b5f83815260209020601f19861690835b828110156117b35786850135825560209485019460019092019101611793565b50868210156117cf575f1960f88860031b161c19848701351681555b505060018560011b0183555b5050505050565b83815260406020820152816040820152818360608301375f818301606090810191909152601f909201601f191601019291505056fea26469706673582212209d1aa8b5d8de7359d456cfd247e1730b3abe0a09abbaddf47df92e97fb44677164736f6c63430008140033",
  "immutableReferences": {},
  "source": "// SPDX-License-Identifier: MIT\npragma solidity ^0.8.0;\n\nimport \"@openzeppelin/contracts/access/Ownable.sol\";\nimport \"@openzeppelin/contracts/security/ReentrancyGuard.sol\";\n\n/**\n * @title BCADN - Blockchain-Cellular Adaptive Decentralized Network\n * @dev Implementation of the BCADN architecture with dynamic node weighting, \n * probability gap, and proactive defense mechanism\n */\ncontract BCADN is Ownable, ReentrancyGuard {\n    // Node status enum\n    enum NodeStatus {\n        Active,\n        Probation,\n        Excluded,\n        Pending\n    }\n\n    // Node structure\n    struct Node {\n        address nodeAddress;\n        uint256 performance;    // Performance metric\n        uint256 reliability;    // Reliability score\n        uint256 anomalyScore;   // Anomaly detection score\n        uint256 weight;         // Dynamic weight\n        uint256 isolationTime;  // Time when node was isolated (if applicable)\n        NodeStatus status;      // Current status of the node\n    }\n\n    // Shard structure\n    struct Shard {\n        uint256 id;\n        address[] nodes;\n        uint256 capacity;\n        uint256 currentLoad;\n        bool active;\n    }\n\n    // Transaction structure\n    struct Transaction {\n        bytes32 txHash;\n        address sender;\n        address receiver;\n        uint256 amount;\n        uint256 fee;\n        uint256 timestamp;\n        uint256 processingTime;\n        bool completed;\n    }\n\n    // Attack data structure\n    struct AttackData {\n        address node;\n        uint256 timestamp;\n        uint256 anomalyScore;\n        string attackType;\n        bool resolved;\n    }\n\n    // Network parameters\n    uint256 public alpha = 10;  // Fee weighting factor\n    uint256 public beta = 20;   // Performance weighting factor\n    uint256 public gamma = 30;  // Anomaly weighting factor\n    uint256 public delta = 50;  // Congestion responsiveness parameter\n    uint256 public mu = 5;      // Transaction age influence parameter\n    \n    uint256 public anomalyThreshold = 30;\n    uint256 public probationPeriod = 3600;  // 1 hour in seconds\n    uint256 public minProbability = 20;     // Probability gap minimum\n    uint256 public maxProbability = 80;     // Probability gap maximum\n    uint256 public currentGap;              // Probability gap size\n\n    // Network metrics\n    uint256 public pendingTransactions;\n    uint256 public networkCapacity = 1000;  // Default capacity\n    uint256 public congestionIndex;         // Calculated as pendingTransactions / networkCapacity\n\n    // Node registry\n    mapping(address => Node) public nodes;\n    address[] public nodesList;\n    \n    // Shards registry\n    mapping(uint256 => Shard) public shards;\n    uint256[] public shardIds;\n    uint256 public nextShardId = 1;\n    \n    // Transaction assignment\n    mapping(bytes32 => uint256) public transactionToShard;\n    \n    // Transactions registry\n    mapping(bytes32 => Transaction) public transactions;\n    bytes32[] public transactionHashes;\n    \n    // Attack history\n    AttackData[] public attackHistory;\n    mapping(address => uint256[]) public nodeAttackIndices;\n\n    // Events\n    event NodeRegistered(address indexed nodeAddress);\n    event NodeWeightUpdated(address indexed nodeAddress, uint256 newWeight);\n    event NodeStatusChanged(address indexed nodeAddress, NodeStatus newStatus);\n    event ShardCreated(uint256 indexed shardId);\n    event NodeAddedToShard(uint256 indexed shardId, address indexed node);\n    event NodeRemovedFromShard(uint256 indexed shardId, address indexed node);\n    event TransactionAssigned(bytes32 indexed txHash, uint256 indexed shardId);\n    event TransactionSubmitted(bytes32 indexed txHash, address indexed sender, address indexed receiver, uint256 amount, uint256 fee);\n    event TransactionCompleted(bytes32 indexed txHash, uint256 processingTime);\n    event AnomalyDetected(address indexed node, uint256 anomalyScore, string attackType);\n    event AnomalyResolved(address indexed node, uint256 indexed attackIndex);\n    event CongestionUpdated(uint256 indexed congestionIndex, uint256 pendingTransactions, uint256 networkCapacity);\n    event GapUpdated(uint256 newGap, uint256 minProbability, uint256 maxProbability);\n\n    constructor() {\n        // Initialize probability gap\n        currentGap = maxProbability - minProbability;\n    }\n\n    /**\n     * @dev Updates network parameters\n     */\n    function updateNetworkParams(\n        uint256 _alpha,\n        uint256 _beta,\n        uint256 _gamma,\n        uint256 _delta,\n        uint256 _mu\n    ) external onlyOwner {\n        alpha = _alpha;\n        beta = _beta;\n        gamma = _gamma;\n        delta = _delta;\n        mu = _mu;\n    }\n    \n    /**\n     * @dev Updates the anomaly threshold and probation period\n     */\n    function updateThresholds(\n        uint256 _anomalyThreshold,\n        uint256 _probationPeriod\n    ) external onlyOwner {\n        anomalyThreshold = _anomalyThreshold;\n        probationPeriod = _probationPeriod;\n    }\n    \n    /**\n     * @dev Updates the probability range for the gap mechanism\n     */\n    function updateProbabilityRange(\n        uint256 _minProbability,\n        uint256 _maxProbability\n    ) external onlyOwner {\n        require(_minProbability < _maxProbability, \"Invalid probability range\");\n        \n        minProbability = _minProbability;\n        maxProbability = _maxProbability;\n        currentGap = _maxProbability - _minProbability;\n        \n        emit GapUpdated(currentGap, minProbability, maxProbability);\n    }\n    \n    /**\n     * @dev Adjusts a probability to fall within the gap if needed\n     */\n    function adjustToProbabilityGap(uint256 _probability) public view returns (uint256) {\n        if (_probability < minProbability) {\n            return minProbability;\n        } else if (_probability > maxProbability) {\n            return maxProbability;\n        }\n        return _probability;\n    }\n    \n    /**\n     * @dev Checks if a given probability falls within the allowed gap\n     */\n    function isWithinGap(uint256 _probability) public view returns (bool) {\n        return _probability >= minProbability && _probability <= maxProbability;\n    }\n    \n    /**\n     * @dev Updates network capacity\n     */\n    function setNetworkCapacity(uint256 _capacity) external onlyOwner {\n        networkCapacity = _capacity;\n        _updateCongestionIndex();\n    }\n    \n    /**\n     * @dev Updates congestion index based on pending transactions and network capacity\n     */\n    function _updateCongestionIndex() internal {\n        if (networkCapacity > 0) {\n            congestionIndex = (pendingTransactions * 1e18) / networkCapacity;\n        } else {\n            congestionIndex = 0;\n        }\n        \n        emit CongestionUpdated(congestionIndex, pendingTransactions, networkCapacity);\n    }\n    \n    /**\n     * @dev Calculates dynamic fee based on current congestion\n     * @param _baseFee Base transaction fee\n     * @return dynamicFee The adjusted transaction fee\n     */\n    function calculateDynamicFee(uint256 _baseFee) public view returns (uint256) {\n        if (networkCapacity == 0) return _baseFee;\n        \n        // Formula: F = Fb * (1 + Tcurrent/Tmax)\n        return _baseFee * (1e18 + congestionIndex) / 1e18;\n    }\n    \n    /**\n     * @dev Registers a new node in the network\n     */\n    function registerNode(\n        address _nodeAddress,\n        uint256 _performance,\n        uint256 _reliability\n    ) external onlyOwner {\n        require(nodes[_nodeAddress].nodeAddress == address(0), \"Node already exists\");\n        \n        // Initial weight calculation: W(0) = alpha * Fee + beta * Performance\n        uint256 initialWeight = (alpha * 100) + (beta * _performance);\n        \n        Node memory newNode = Node({\n            nodeAddress: _nodeAddress,\n            performance: _performance,\n            reliability: _reliability,\n            anomalyScore: 0,\n            weight: initialWeight,\n            isolationTime: 0,\n            status: NodeStatus.Active\n        });\n        \n        nodes[_nodeAddress] = newNode;\n        nodesList.push(_nodeAddress);\n        \n        emit NodeRegistered(_nodeAddress);\n    }\n    \n    /**\n     * @dev Updates a node's performance metrics\n     */\n    function updateNodeMetrics(\n        address _nodeAddress,\n        uint256 _performance,\n        uint256 _reliability,\n        uint256 _anomalyScore\n    ) external {\n        require(nodes[_nodeAddress].nodeAddress != address(0), \"Node does not exist\");\n        \n        Node storage node = nodes[_nodeAddress];\n        node.performance = _performance;\n        node.reliability = _reliability;\n        node.anomalyScore = _anomalyScore;\n        \n        // Check anomaly threshold\n        if (_anomalyScore > anomalyThreshold && node.status == NodeStatus.Active) {\n            node.status = NodeStatus.Probation;\n            node.isolationTime = block.timestamp;\n            emit NodeStatusChanged(_nodeAddress, NodeStatus.Probation);\n        }\n        \n        // Dynamic weight adjustment\n        _updateNodeWeight(_nodeAddress);\n    }\n    \n    /**\n     * @dev Updates the node's weight according to the dynamic weighting formula\n     */\n    function _updateNodeWeight(address _nodeAddress) internal {\n        Node storage node = nodes[_nodeAddress];\n        \n        // Calculate dynamic weight based on Algorithm 1\n        // W(t) = (alpha * Fee + beta * Performance - gamma * AnomalyScore)\n        uint256 newWeight = (alpha * 100) + (beta * node.performance) - (gamma * node.anomalyScore);\n        \n        // Apply probability gap to ensure fairness\n        newWeight = adjustToProbabilityGap(newWeight);\n        \n        node.weight = newWeight;\n        emit NodeWeightUpdated(_nodeAddress, newWeight);\n    }\n    \n    /**\n     * @dev Checks probation status and potentially reintegrates nodes\n     */\n    function checkProbationStatus(address _nodeAddress) external {\n        Node storage node = nodes[_nodeAddress];\n        require(node.nodeAddress != address(0), \"Node does not exist\");\n        \n        if (node.status == NodeStatus.Probation) {\n            if (\n                block.timestamp - node.isolationTime >= probationPeriod &&\n                node.anomalyScore <= anomalyThreshold\n            ) {\n                node.status = NodeStatus.Active;\n                emit NodeStatusChanged(_nodeAddress, NodeStatus.Active);\n            }\n        }\n    }\n    \n    /**\n     * @dev Gets all nodes with their current weights and status\n     */\n    function getAllNodes() external view returns (address[] memory, uint256[] memory, NodeStatus[] memory) {\n        uint256 length = nodesList.length;\n        uint256[] memory weights = new uint256[](length);\n        NodeStatus[] memory statuses = new NodeStatus[](length);\n        \n        for (uint256 i = 0; i < length; i++) {\n            weights[i] = nodes[nodesList[i]].weight;\n            statuses[i] = nodes[nodesList[i]].status;\n        }\n        \n        return (nodesList, weights, statuses);\n    }\n    \n    /**\n     * @dev Creates a new shard\n     */\n    function createShard(uint256 _capacity) external onlyOwner {\n        Shard memory newShard = Shard({\n            id: nextShardId,\n            nodes: new address[](0),\n            capacity: _capacity,\n            currentLoad: 0,\n            active: true\n        });\n        \n        shards[nextShardId] = newShard;\n        shardIds.push(nextShardId);\n        \n        emit ShardCreated(nextShardId);\n        nextShardId++;\n    }\n    \n    /**\n     * @dev Adds a node to a shard\n     */\n    function addNodeToShard(uint256 _shardId, address _node) external onlyOwner {\n        require(shards[_shardId].id == _shardId, \"Shard does not exist\");\n        require(nodes[_node].nodeAddress != address(0), \"Node does not exist\");\n        \n        shards[_shardId].nodes.push(_node);\n        emit NodeAddedToShard(_shardId, _node);\n    }\n    \n    /**\n     * @dev Removes a node from a shard\n     */\n    function removeNodeFromShard(uint256 _shardId, address _node) external onlyOwner {\n        require(shards[_shardId].id == _shardId, \"Shard does not exist\");\n        \n        Shard storage shard = shards[_shardId];\n        uint256 length = shard.nodes.length;\n        bool found = false;\n        uint256 index;\n        \n        for (uint256 i = 0; i < length; i++) {\n            if (shard.nodes[i] == _node) {\n                found = true;\n                index = i;\n                break;\n            }\n        }\n        \n        require(found, \"Node not in shard\");\n        \n        // Remove node by replacing with the last element and popping\n        if (index < length - 1) {\n            shard.nodes[index] = shard.nodes[length - 1];\n        }\n        shard.nodes.pop();\n        \n        emit NodeRemovedFromShard(_shardId, _node);\n    }\n    \n    /**\n     * @dev Returns all shard IDs\n     */\n    function getAllShards() external view returns (uint256[] memory) {\n        return shardIds;\n    }\n    \n    /**\n     * @dev Assigns a transaction to a shard using randomized selection\n     */\n    function assignTransactionToShard(bytes32 _txHash) public returns (uint256) {\n        require(shardIds.length > 0, \"No shards available\");\n        \n        // Implement randomized transaction selection (from Random Selector)\n        uint256 randomShardIndex = uint256(keccak256(abi.encodePacked(block.timestamp, _txHash))) % shardIds.length;\n        uint256 shardId = shardIds[randomShardIndex];\n        \n        // Assign transaction to shard\n        transactionToShard[_txHash] = shardId;\n        shards[shardId].currentLoad++;\n        \n        emit TransactionAssigned(_txHash, shardId);\n        return shardId;\n    }\n    \n    /**\n     * @dev Records a detected anomaly\n     */\n    function recordAnomaly(\n        address _node,\n        uint256 _anomalyScore,\n        string calldata _attackType\n    ) external onlyOwner {\n        require(nodes[_node].nodeAddress != address(0), \"Node does not exist\");\n        \n        AttackData memory newAttack = AttackData({\n            node: _node,\n            timestamp: block.timestamp,\n            anomalyScore: _anomalyScore,\n            attackType: _attackType,\n            resolved: false\n        });\n        \n        uint256 newIndex = attackHistory.length;\n        attackHistory.push(newAttack);\n        nodeAttackIndices[_node].push(newIndex);\n        \n        emit AnomalyDetected(_node, _anomalyScore, _attackType);\n    }\n    \n    /**\n     * @dev Marks an anomaly as resolved\n     */\n    function resolveAnomaly(uint256 _attackIndex) external onlyOwner {\n        require(_attackIndex < attackHistory.length, \"Invalid attack index\");\n        require(!attackHistory[_attackIndex].resolved, \"Already resolved\");\n        \n        attackHistory[_attackIndex].resolved = true;\n        \n        emit AnomalyResolved(attackHistory[_attackIndex].node, _attackIndex);\n    }\n    \n    /**\n     * @dev Gets all attack history\n     */\n     function getAttackHistory() external view returns (\n        address[] memory nodeAddresses,\n        uint256[] memory timestamps,\n        uint256[] memory anomalyScores,\n        bool[] memory resolved\n    ) {\n        uint256 length = attackHistory.length;\n        \n        nodeAddresses = new address[](length);\n        timestamps = new uint256[](length);\n        anomalyScores = new uint256[](length);\n        resolved = new bool[](length);\n        \n        for (uint256 i = 0; i < length; i++) {\n            AttackData storage attack = attackHistory[i];\n            nodeAddresses[i] = attack.node;\n            timestamps[i] = attack.timestamp;\n            anomalyScores[i] = attack.anomalyScore;\n            resolved[i] = attack.resolved;\n        }\n        \n        return (nodeAddresses, timestamps, anomalyScores, resolved);\n    }\n    /**\n     * @dev Submits a new transaction to the network\n     */\n    function submitTransaction(\n        address _receiver,\n        uint256 _amount,\n        uint256 _baseFee\n    ) external payable nonReentrant returns (bytes32) {\n        // Calculate dynamic fee\n        uint256 dynamicFee = calculateDynamicFee(_baseFee);\n        require(msg.value >= dynamicFee, \"Insufficient fee\");\n        \n        // Generate transaction hash\n        bytes32 txHash = keccak256(abi.encodePacked(\n            msg.sender,\n            _receiver,\n            _amount,\n            dynamicFee,\n            block.timestamp\n        ));\n        \n        // Create transaction record\n        Transaction memory newTx = Transaction({\n            txHash: txHash,\n            sender: msg.sender,\n            receiver: _receiver,\n            amount: _amount,\n            fee: dynamicFee,\n            timestamp: block.timestamp,\n            processingTime: 0,\n            completed: false\n        });\n        \n        transactions[txHash] = newTx;\n        transactionHashes.push(txHash);\n        \n        // Update network congestion\n        pendingTransactions++;\n        _updateCongestionIndex();\n        \n        // Assign to shard using randomized selection\n        assignTransactionToShard(txHash);\n        \n        emit TransactionSubmitted(txHash, msg.sender, _receiver, _amount, dynamicFee);\n        \n        // Refund excess fee\n        if (msg.value > dynamicFee) {\n            payable(msg.sender).transfer(msg.value - dynamicFee);\n        }\n        \n        return txHash;\n    }\n    \n    /**\n     * @dev Processes and completes a transaction\n     * @notice This would typically be called by validators/miners\n     */\n    function processTransaction(bytes32 _txHash) external onlyOwner nonReentrant {\n        Transaction storage transaction = transactions[_txHash];\n        require(transaction.txHash == _txHash, \"Transaction does not exist\");\n        require(!transaction.completed, \"Transaction already completed\");\n        \n        // Update transaction status\n        transaction.completed = true;\n        transaction.processingTime = block.timestamp - transaction.timestamp;\n        \n        // Update network and shard status\n        pendingTransactions--;\n        _updateCongestionIndex();\n        \n        // Complete transaction in shard\n        uint256 shardId = transactionToShard[_txHash];\n        if (shardId > 0 && shards[shardId].currentLoad > 0) {\n            shards[shardId].currentLoad--;\n        }\n        delete transactionToShard[_txHash];\n        \n        emit TransactionCompleted(_txHash, transaction.processingTime);\n    }\n    /**\n     * @dev Gets all transaction hashes\n     */\n    function getAllTransactionHashes() external view returns (bytes32[] memory) {\n        return transactionHashes;\n    }\n    \n    /**\n     * @dev Withdraws accumulated fees\n     */\n    function withdrawFees() external onlyOwner {\n        payable(owner()).transfer(address(this).balance);\n    }\n}\n\n\n\n\npragma solidity ^0.8.0;\n\nimport \"@openzeppelin/contracts/access/Ownable.sol\";\nimport \"@openzeppelin/contracts/security/ReentrancyGuard.sol\";\n\n/**\n * @title ProactiveDefenseMechanism\n * @dev Implementation of BCADN's proactive defense system for anomaly detection\n */\ncontract ProactiveDefenseMechanism is Ownable, ReentrancyGuard {\n    // Constants\n    uint256 public constant MIN_ANOMALY_SCORE = 0;\n    uint256 public constant MAX_ANOMALY_SCORE = 100;\n    \n    // Structures\n    struct NodeMetrics {\n        uint256 latency;         // ms\n        uint256 throughput;      // txns/sec\n        uint256 uptime;          // scaled 0-1000 (0.1% precision)\n        uint256 errorRate;       // scaled 0-1000 (0.1% precision)\n        uint256 cpuUsage;        // 0-100%\n        uint256 memoryUsage;     // 0-100%\n        uint256 connectionCount; // Number of connections\n        uint256 lastUpdated;     // Timestamp\n    }\n    \n    struct AttackDetection {\n        address nodeAddress;\n        uint256 timestamp;\n        uint256 anomalyScore;\n        string attackType;\n        bool resolved;\n        mapping(uint256 => uint256) featureContributions; // Feature index to contribution score\n    }\n    \n    // State variables\n    mapping(address => NodeMetrics) public nodeMetrics;\n    mapping(address => bool) public registeredNodes;\n    address[] public nodeList;\n    \n    // Attack history management\n    uint256 public attackDetectionCount;\n    mapping(uint256 => address) public attackToNode;\n    mapping(uint256 => uint256) public attackToTimestamp;\n    mapping(uint256 => uint256) public attackToAnomalyScore;\n    mapping(uint256 => string) public attackToType;\n    mapping(uint256 => bool) public attackResolved;\n    mapping(uint256 => mapping(uint256 => uint256)) public attackFeatureContributions;\n    \n    // Node attack history\n    mapping(address => uint256[]) public nodeAttackHistory;\n    \n    // Thresholds\n    uint256 public anomalyThreshold;\n    uint256 public baselineUpdateInterval;\n    \n    // Events\n    event NodeRegistered(address indexed node);\n    event MetricsUpdated(address indexed node, uint256 latency, uint256 throughput);\n    event AnomalyDetected(address indexed node, uint256 indexed attackId, uint256 anomalyScore, string attackType);\n    event AnomalyResolved(address indexed node, uint256 indexed attackId);\n    event ThresholdUpdated(uint256 newThreshold);\n    \n    constructor(uint256 _anomalyThreshold, uint256 _baselineUpdateInterval) {\n        anomalyThreshold = _anomalyThreshold;\n        baselineUpdateInterval = _baselineUpdateInterval;\n        attackDetectionCount = 0;\n    }\n    \n    /**\n     * @dev Registers a new node in the defense system\n     */\n    function registerNode(address _nodeAddress) external onlyOwner {\n        require(!registeredNodes[_nodeAddress], \"Node already registered\");\n        \n        registeredNodes[_nodeAddress] = true;\n        nodeList.push(_nodeAddress);\n        \n        // Initialize node metrics with defaults\n        NodeMetrics storage metrics = nodeMetrics[_nodeAddress];\n        metrics.latency = 100;         // 100ms default\n        metrics.throughput = 100;      // 100 txns/sec default\n        metrics.uptime = 990;          // 99.0% default\n        metrics.errorRate = 10;        // 1.0% default\n        metrics.cpuUsage = 50;         // 50% default\n        metrics.memoryUsage = 50;      // 50% default\n        metrics.connectionCount = 10;  // 10 connections default\n        metrics.lastUpdated = block.timestamp;\n        \n        emit NodeRegistered(_nodeAddress);\n    }\n    \n    /**\n     * @dev Updates node metrics\n     */\n    function updateNodeMetrics(\n        address _nodeAddress,\n        uint256 _latency,\n        uint256 _throughput,\n        uint256 _uptime,\n        uint256 _errorRate,\n        uint256 _cpuUsage,\n        uint256 _memoryUsage,\n        uint256 _connectionCount\n    ) external {\n        require(registeredNodes[_nodeAddress], \"Node not registered\");\n        \n        NodeMetrics storage metrics = nodeMetrics[_nodeAddress];\n        metrics.latency = _latency;\n        metrics.throughput = _throughput;\n        metrics.uptime = _uptime;\n        metrics.errorRate = _errorRate;\n        metrics.cpuUsage = _cpuUsage;\n        metrics.memoryUsage = _memoryUsage;\n        metrics.connectionCount = _connectionCount;\n        metrics.lastUpdated = block.timestamp;\n        \n        emit MetricsUpdated(_nodeAddress, _latency, _throughput);\n    }\n    \n    /**\n     * @dev Records detection of an anomaly for a node\n     */\n    function recordAnomaly(\n        address _nodeAddress,\n        uint256 _anomalyScore,\n        string calldata _attackType,\n        uint256[] calldata _featureIndices,\n        uint256[] calldata _featureContributions\n    ) external onlyOwner {\n        require(registeredNodes[_nodeAddress], \"Node not registered\");\n        require(_anomalyScore >= MIN_ANOMALY_SCORE && _anomalyScore <= MAX_ANOMALY_SCORE, \"Invalid anomaly score\");\n        require(_featureIndices.length == _featureContributions.length, \"Feature arrays length mismatch\");\n        \n        uint256 attackId = attackDetectionCount;\n        attackToNode[attackId] = _nodeAddress;\n        attackToTimestamp[attackId] = block.timestamp;\n        attackToAnomalyScore[attackId] = _anomalyScore;\n        attackToType[attackId] = _attackType;\n        attackResolved[attackId] = false;\n        \n        // Record feature contributions\n        for (uint256 i = 0; i < _featureIndices.length; i++) {\n            attackFeatureContributions[attackId][_featureIndices[i]] = _featureContributions[i];\n        }\n        \n        // Add to node's attack history\n        nodeAttackHistory[_nodeAddress].push(attackId);\n        \n        // Increment counter\n        attackDetectionCount++;\n        \n        emit AnomalyDetected(_nodeAddress, attackId, _anomalyScore, _attackType);\n    }\n    \n    /**\n     * @dev Resolves a previously detected anomaly\n     */\n    function resolveAnomaly(uint256 _attackId) external onlyOwner {\n        require(_attackId < attackDetectionCount, \"Invalid attack ID\");\n        require(!attackResolved[_attackId], \"Already resolved\");\n        \n        attackResolved[_attackId] = true;\n        \n        emit AnomalyResolved(attackToNode[_attackId], _attackId);\n    }\n    \n    /**\n     * @dev Updates the anomaly threshold\n     */\n    function updateAnomalyThreshold(uint256 _newThreshold) external onlyOwner {\n        require(_newThreshold > 0, \"Threshold must be positive\");\n        anomalyThreshold = _newThreshold;\n        \n        emit ThresholdUpdated(_newThreshold);\n    }\n    \n    /**\n     * @dev Updates the baseline update interval\n     */\n    function updateBaselineInterval(uint256 _newInterval) external onlyOwner {\n        baselineUpdateInterval = _newInterval;\n    }\n    \n    /**\n     * @dev Gets all registered nodes\n     */\n    function getAllNodes() external view returns (address[] memory) {\n        return nodeList;\n    }\n    \n    /**\n     * @dev Gets node metrics\n     */\n    function getNodeMetrics(address _nodeAddress) external view returns (\n        uint256 latency,\n        uint256 throughput,\n        uint256 uptime,\n        uint256 errorRate,\n        uint256 cpuUsage,\n        uint256 memoryUsage,\n        uint256 connectionCount,\n        uint256 lastUpdated\n    ) {\n        require(registeredNodes[_nodeAddress], \"Node not registered\");\n        \n        NodeMetrics storage metrics = nodeMetrics[_nodeAddress];\n        return (\n            metrics.latency,\n            metrics.throughput,\n            metrics.uptime,\n            metrics.errorRate,\n            metrics.cpuUsage,\n            metrics.memoryUsage,\n            metrics.connectionCount,\n            metrics.lastUpdated\n        );\n    }\n    \n    /**\n     * @dev Gets a node's attack history\n     */\n    function getNodeAttackHistory(address _nodeAddress) external view returns (\n        uint256[] memory attackIds,\n        uint256[] memory timestamps,\n        uint256[] memory anomalyScores,\n        bool[] memory resolved\n    ) {\n        uint256[] memory attacks = nodeAttackHistory[_nodeAddress];\n        uint256 length = attacks.length;\n        \n        timestamps = new uint256[](length);\n        anomalyScores = new uint256[](length);\n        resolved = new bool[](length);\n        \n        for (uint256 i = 0; i < length; i++) {\n            uint256 attackId = attacks[i];\n            timestamps[i] = attackToTimestamp[attackId];\n            anomalyScores[i] = attackToAnomalyScore[attackId];\n            resolved[i] = attackResolved[attackId];\n        }\n        \n        return (attacks, timestamps, anomalyScores, resolved);\n    }\n    \n    /**\n     * @dev Gets attack details\n     */\n    function getAttackDetails(uint256 _attackId) external view returns (\n        address nodeAddress,\n        uint256 timestamp,\n        uint256 anomalyScore,\n        string memory attackType,\n        bool resolved\n    ) {\n        require(_attackId < attackDetectionCount, \"Invalid attack ID\");\n        \n        return (\n            attackToNode[_attackId],\n            attackToTimestamp[_attackId],\n            attackToAnomalyScore[_attackId],\n            attackToType[_attackId],\n            attackResolved[_attackId]\n        );\n    }\n    \n    /**\n     * @dev Gets feature contributions for an attack\n     */\n    function getAttackFeatureContributions(uint256 _attackId, uint256[] calldata _featureIndices) \n        external view returns (uint256[] memory contributions) \n    {\n        require(_attackId < attackDetectionCount, \"Invalid attack ID\");\n        \n        contributions = new uint256[](_featureIndices.length);\n        \n        for (uint256 i = 0; i < _featureIndices.length; i++) {\n            contributions[i] = attackFeatureContributions[_attackId][_featureIndices[i]];\n        }\n        \n        return contributions;\n    }\n}",
  "sourcePath": "C:\\Users\\Bonsu\\Documents\\CLEANER PRODUCTION\\renewalclimateproject\\ClimateProjectFull\\contracts\\BCADN\\BCADN.sol",
  "compiler": {
    "name": "solc",
    "version": "0.8.20+commit.a1b79de6.Emscripten.clang"
  },
  "schemaVersion": "3.4.16",
  "updatedAt": "2025-04-14T09:45:18.116Z",
  "networkType": "ethereum",
  "devdoc": {
    "details": "Implementation of BCADN's proactive defense system for anomaly detection",
    "kind": "dev",
    "methods": {
      "getAllNodes()": {
        "details": "Gets all registered nodes"
      },
      "getAttackDetails(uint256)": {
        "details": "Gets attack details"
      },
      "getAttackFeatureContributions(uint256,uint256[])": {
        "details": "Gets feature contributions for an attack"
      },
      "getNodeAttackHistory(address)": {
        "details": "Gets a node's attack history"
      },
      "getNodeMetrics(address)": {
        "details": "Gets node metrics"
      },
      "owner()": {
        "details": "Returns the address of the current owner."
      },
      "recordAnomaly(address,uint256,string,uint256[],uint256[])": {
        "details": "Records detection of an anomaly for a node"
      },
      "registerNode(address)": {
        "details": "Registers a new node in the defense system"
      },
      "renounceOwnership()": {
        "details": "Leaves the contract without owner. It will not be possible to call `onlyOwner` functions. Can only be called by the current owner. NOTE: Renouncing ownership will leave the contract without an owner, thereby disabling any functionality that is only available to the owner."
      },
      "resolveAnomaly(uint256)": {
        "details": "Resolves a previously detected anomaly"
      },
      "transferOwnership(address)": {
        "details": "Transfers ownership of the contract to a new account (`newOwner`). Can only be called by the current owner."
      },
      "updateAnomalyThreshold(uint256)": {
        "details": "Updates the anomaly threshold"
      },
      "updateBaselineInterval(uint256)": {
        "details": "Updates the baseline update interval"
      },
      "updateNodeMetrics(address,uint256,uint256,uint256,uint256,uint256,uint256,uint256)": {
        "details": "Updates node metrics"
      }
    },
    "title": "ProactiveDefenseMechanism",
    "version": 1
  },
  "userdoc": {
    "kind": "user",
    "methods": {},
    "version": 1
  }
}