{
  "contractName": "ProofOfStakeValidator",
  "abi": [
    {
      "inputs": [],
      "stateMutability": "nonpayable",
      "type": "constructor"
    },
    {
      "anonymous": false,
      "inputs": [
        {
          "indexed": true,
          "internalType": "bytes32",
          "name": "role",
          "type": "bytes32"
        },
        {
          "indexed": true,
          "internalType": "bytes32",
          "name": "previousAdminRole",
          "type": "bytes32"
        },
        {
          "indexed": true,
          "internalType": "bytes32",
          "name": "newAdminRole",
          "type": "bytes32"
        }
      ],
      "name": "RoleAdminChanged",
      "type": "event"
    },
    {
      "anonymous": false,
      "inputs": [
        {
          "indexed": true,
          "internalType": "bytes32",
          "name": "role",
          "type": "bytes32"
        },
        {
          "indexed": true,
          "internalType": "address",
          "name": "account",
          "type": "address"
        },
        {
          "indexed": true,
          "internalType": "address",
          "name": "sender",
          "type": "address"
        }
      ],
      "name": "RoleGranted",
      "type": "event"
    },
    {
      "anonymous": false,
      "inputs": [
        {
          "indexed": true,
          "internalType": "bytes32",
          "name": "role",
          "type": "bytes32"
        },
        {
          "indexed": true,
          "internalType": "address",
          "name": "account",
          "type": "address"
        },
        {
          "indexed": true,
          "internalType": "address",
          "name": "sender",
          "type": "address"
        }
      ],
      "name": "RoleRevoked",
      "type": "event"
    },
    {
      "anonymous": false,
      "inputs": [
        {
          "indexed": true,
          "internalType": "bytes32",
          "name": "txId",
          "type": "bytes32"
        },
        {
          "indexed": false,
          "internalType": "bool",
          "name": "isValid",
          "type": "bool"
        }
      ],
      "name": "ValidationComplete",
      "type": "event"
    },
    {
      "anonymous": false,
      "inputs": [
        {
          "indexed": true,
          "internalType": "bytes32",
          "name": "txId",
          "type": "bytes32"
        },
        {
          "indexed": false,
          "internalType": "address",
          "name": "validator",
          "type": "address"
        },
        {
          "indexed": false,
          "internalType": "uint256",
          "name": "stake",
          "type": "uint256"
        }
      ],
      "name": "ValidationSubmitted",
      "type": "event"
    },
    {
      "inputs": [],
      "name": "DEFAULT_ADMIN_ROLE",
      "outputs": [
        {
          "internalType": "bytes32",
          "name": "",
          "type": "bytes32"
        }
      ],
      "stateMutability": "view",
      "type": "function",
      "constant": true
    },
    {
      "inputs": [],
      "name": "MIN_STAKE",
      "outputs": [
        {
          "internalType": "uint256",
          "name": "",
          "type": "uint256"
        }
      ],
      "stateMutability": "view",
      "type": "function",
      "constant": true
    },
    {
      "inputs": [],
      "name": "VALIDATION_THRESHOLD",
      "outputs": [
        {
          "internalType": "uint256",
          "name": "",
          "type": "uint256"
        }
      ],
      "stateMutability": "view",
      "type": "function",
      "constant": true
    },
    {
      "inputs": [],
      "name": "VALIDATOR_ROLE",
      "outputs": [
        {
          "internalType": "bytes32",
          "name": "",
          "type": "bytes32"
        }
      ],
      "stateMutability": "view",
      "type": "function",
      "constant": true
    },
    {
      "inputs": [
        {
          "internalType": "bytes32",
          "name": "role",
          "type": "bytes32"
        }
      ],
      "name": "getRoleAdmin",
      "outputs": [
        {
          "internalType": "bytes32",
          "name": "",
          "type": "bytes32"
        }
      ],
      "stateMutability": "view",
      "type": "function",
      "constant": true
    },
    {
      "inputs": [
        {
          "internalType": "bytes32",
          "name": "role",
          "type": "bytes32"
        },
        {
          "internalType": "address",
          "name": "account",
          "type": "address"
        }
      ],
      "name": "grantRole",
      "outputs": [],
      "stateMutability": "nonpayable",
      "type": "function"
    },
    {
      "inputs": [
        {
          "internalType": "bytes32",
          "name": "role",
          "type": "bytes32"
        },
        {
          "internalType": "address",
          "name": "account",
          "type": "address"
        }
      ],
      "name": "hasRole",
      "outputs": [
        {
          "internalType": "bool",
          "name": "",
          "type": "bool"
        }
      ],
      "stateMutability": "view",
      "type": "function",
      "constant": true
    },
    {
      "inputs": [
        {
          "internalType": "bytes32",
          "name": "role",
          "type": "bytes32"
        },
        {
          "internalType": "address",
          "name": "account",
          "type": "address"
        }
      ],
      "name": "renounceRole",
      "outputs": [],
      "stateMutability": "nonpayable",
      "type": "function"
    },
    {
      "inputs": [
        {
          "internalType": "bytes32",
          "name": "role",
          "type": "bytes32"
        },
        {
          "internalType": "address",
          "name": "account",
          "type": "address"
        }
      ],
      "name": "revokeRole",
      "outputs": [],
      "stateMutability": "nonpayable",
      "type": "function"
    },
    {
      "inputs": [
        {
          "internalType": "bytes4",
          "name": "interfaceId",
          "type": "bytes4"
        }
      ],
      "name": "supportsInterface",
      "outputs": [
        {
          "internalType": "bool",
          "name": "",
          "type": "bool"
        }
      ],
      "stateMutability": "view",
      "type": "function",
      "constant": true
    },
    {
      "inputs": [
        {
          "internalType": "bytes32",
          "name": "",
          "type": "bytes32"
        }
      ],
      "name": "validationStates",
      "outputs": [
        {
          "internalType": "uint256",
          "name": "totalStake",
          "type": "uint256"
        },
        {
          "internalType": "uint256",
          "name": "approvalStake",
          "type": "uint256"
        },
        {
          "internalType": "uint256",
          "name": "startTime",
          "type": "uint256"
        },
        {
          "internalType": "bool",
          "name": "isComplete",
          "type": "bool"
        }
      ],
      "stateMutability": "view",
      "type": "function",
      "constant": true
    },
    {
      "inputs": [
        {
          "internalType": "address",
          "name": "",
          "type": "address"
        }
      ],
      "name": "validatorStakes",
      "outputs": [
        {
          "internalType": "uint256",
          "name": "",
          "type": "uint256"
        }
      ],
      "stateMutability": "view",
      "type": "function",
      "constant": true
    },
    {
      "inputs": [
        {
          "internalType": "bytes32",
          "name": "txId",
          "type": "bytes32"
        },
        {
          "internalType": "bool",
          "name": "approval",
          "type": "bool"
        }
      ],
      "name": "submitValidation",
      "outputs": [],
      "stateMutability": "nonpayable",
      "type": "function"
    }
  ],
  "bytecode": "0x608060405234801561000f575f80fd5b5061001a5f3361001f565b6100c9565b610029828261002d565b5050565b5f828152602081815260408083206001600160a01b038516845290915290205460ff16610029575f828152602081815260408083206001600160a01b03851684529091529020805460ff191660011790556100853390565b6001600160a01b0316816001600160a01b0316837f2f8788117e7eff1d82e926ec794901d17c78024a50270940304540a733656f0d60405160405180910390a45050565b610af8806100d65f395ff3fe608060405234801561000f575f80fd5b50600436106100cb575f3560e01c80634c7b871011610088578063aa73557811610063578063aa735578146101de578063c49baebe146101fd578063cb1c2b5c14610224578063d547741f14610234575f80fd5b80634c7b8710146101b157806391d14854146101c4578063a217fddf146101d7575f80fd5b806301ffc9a7146100cf57806314552f26146100f75780631a16b4de1461010d578063248a9ca3146101675780632f2ff15d1461018957806336568abe1461019e575b5f80fd5b6100e26100dd366004610892565b610247565b60405190151581526020015b60405180910390f35b6100ff604681565b6040519081526020016100ee565b61014561011b3660046108b9565b600160208190525f9182526040909120805491810154600282015460039092015490919060ff1684565b60408051948552602085019390935291830152151560608201526080016100ee565b6100ff6101753660046108b9565b5f9081526020819052604090206001015490565b61019c6101973660046108eb565b61027d565b005b61019c6101ac3660046108eb565b6102a6565b61019c6101bf366004610915565b610329565b6100e26101d23660046108eb565b61054a565b6100ff5f81565b6100ff6101ec366004610947565b60026020525f908152604090205481565b6100ff7f21702c8af46127c7fa207f89d0b0a8441bb32959a0ac7df790e9ab1a25c9892681565b6100ff683635c9adc5dea0000081565b61019c6102423660046108eb565b610572565b5f6001600160e01b03198216637965db0b60e01b148061027757506301ffc9a760e01b6001600160e01b03198316145b92915050565b5f8281526020819052604090206001015461029781610596565b6102a183836105a3565b505050565b6001600160a01b038116331461031b5760405162461bcd60e51b815260206004820152602f60248201527f416363657373436f6e74726f6c3a2063616e206f6e6c792072656e6f756e636560448201526e103937b632b9903337b91039b2b63360891b60648201526084015b60405180910390fd5b6103258282610626565b5050565b6103537f21702c8af46127c7fa207f89d0b0a8441bb32959a0ac7df790e9ab1a25c989263361054a565b6103915760405162461bcd60e51b815260206004820152600f60248201526e2737ba1030903b30b634b230ba37b960891b6044820152606401610312565b5f828152600160205260409020600381015460ff16156103e95760405162461bcd60e51b815260206004820152601360248201527256616c69646174696f6e20636f6d706c65746560681b6044820152606401610312565b335f90815260026020526040902054683635c9adc5dea000008110156104465760405162461bcd60e51b8152602060048201526012602482015271496e73756666696369656e74207374616b6560701b6044820152606401610312565b82156104655780826001015f82825461045f9190610974565b90915550505b80825f015f8282546104779190610974565b9091555050335f8181526004840160209081526040918290208490558151928352820183905285917f65586f927709161fa53840018659ef9717fe9682f2a187c28291a97e9654edd0910160405180910390a281541561054457815460018301545f91906104e6906064610987565b6104f0919061099e565b9050604681106105425760038301805460ff1916600190811790915560405190815285907fa668712c0b8f59efdf687dfbc672df6d8a1ab624717f5dfd9a794099f3ad48849060200160405180910390a25b505b50505050565b5f918252602082815260408084206001600160a01b0393909316845291905290205460ff1690565b5f8281526020819052604090206001015461058c81610596565b6102a18383610626565b6105a0813361068a565b50565b6105ad828261054a565b610325575f828152602081815260408083206001600160a01b03851684529091529020805460ff191660011790556105e23390565b6001600160a01b0316816001600160a01b0316837f2f8788117e7eff1d82e926ec794901d17c78024a50270940304540a733656f0d60405160405180910390a45050565b610630828261054a565b15610325575f828152602081815260408083206001600160a01b0385168085529252808320805460ff1916905551339285917ff6391f5c32d9c69d2a47ea670b442974b53935d1edc7fd64eb21e047a839171b9190a45050565b610694828261054a565b610325576106a1816106e3565b6106ac8360206106f5565b6040516020016106bd9291906109df565b60408051601f198184030181529082905262461bcd60e51b825261031291600401610a53565b60606102776001600160a01b03831660145b60605f610703836002610987565b61070e906002610974565b67ffffffffffffffff81111561072657610726610a85565b6040519080825280601f01601f191660200182016040528015610750576020820181803683370190505b509050600360fc1b815f8151811061076a5761076a610a99565b60200101906001600160f81b03191690815f1a905350600f60fb1b8160018151811061079857610798610a99565b60200101906001600160f81b03191690815f1a9053505f6107ba846002610987565b6107c5906001610974565b90505b600181111561083c576f181899199a1a9b1b9c1cb0b131b232b360811b85600f16601081106107f9576107f9610a99565b1a60f81b82828151811061080f5761080f610a99565b60200101906001600160f81b03191690815f1a90535060049490941c9361083581610aad565b90506107c8565b50831561088b5760405162461bcd60e51b815260206004820181905260248201527f537472696e67733a20686578206c656e67746820696e73756666696369656e746044820152606401610312565b9392505050565b5f602082840312156108a2575f80fd5b81356001600160e01b03198116811461088b575f80fd5b5f602082840312156108c9575f80fd5b5035919050565b80356001600160a01b03811681146108e6575f80fd5b919050565b5f80604083850312156108fc575f80fd5b8235915061090c602084016108d0565b90509250929050565b5f8060408385031215610926575f80fd5b823591506020830135801515811461093c575f80fd5b809150509250929050565b5f60208284031215610957575f80fd5b61088b826108d0565b634e487b7160e01b5f52601160045260245ffd5b8082018082111561027757610277610960565b808202811582820484141761027757610277610960565b5f826109b857634e487b7160e01b5f52601260045260245ffd5b500490565b5f5b838110156109d75781810151838201526020016109bf565b50505f910152565b7f416363657373436f6e74726f6c3a206163636f756e742000000000000000000081525f8351610a168160178501602088016109bd565b7001034b99036b4b9b9b4b733903937b6329607d1b6017918401918201528351610a478160288401602088016109bd565b01602801949350505050565b602081525f8251806020840152610a718160408501602087016109bd565b601f01601f19169190910160400192915050565b634e487b7160e01b5f52604160045260245ffd5b634e487b7160e01b5f52603260045260245ffd5b5f81610abb57610abb610960565b505f19019056fea2646970667358221220e90bd5ecac2e015e5e945ac8faa79f5868ade079dbb24dc9ebd3e702c0bd711b64736f6c63430008140033",
  "immutableReferences": {},
  "source": "// SPDX-License-Identifier: MIT\r\npragma solidity ^0.8.0;\r\n\r\nimport \"@openzeppelin/contracts/security/ReentrancyGuard.sol\";\r\nimport \"@openzeppelin/contracts/access/AccessControl.sol\";\r\n\r\n/**\r\n * @title MerkleTreeLib\r\n * @dev Library for Merkle tree operations\r\n */\r\nlibrary MerkleTreeLib {\r\n    struct MerkleTree {\r\n        bytes32 root;\r\n        mapping(bytes32 => bool) verified;\r\n    }\r\n\r\n    function verifyProof(\r\n        bytes32 root,\r\n        bytes32 leaf,\r\n        bytes32[] memory proof\r\n    ) internal pure returns (bool) {\r\n        bytes32 computedHash = leaf;\r\n        \r\n        for (uint256 i = 0; i < proof.length; i++) {\r\n            computedHash = hashPair(computedHash, proof[i]);\r\n        }\r\n        \r\n        return computedHash == root;\r\n    }\r\n    \r\n    function hashPair(bytes32 a, bytes32 b) internal pure returns (bytes32) {\r\n        return keccak256(abi.encodePacked(a, b));\r\n    }\r\n}\r\n\r\n/**\r\n * @title RelayTypes\r\n * @dev Core data structures for relay chain operations\r\n */\r\nlibrary RelayTypes {\r\n    struct Transaction {\r\n        bytes32 id;\r\n        address sourceBridge;\r\n        address targetBridge;\r\n        bytes32 originalTxHash;\r\n        bytes metadata;\r\n        bytes32 merkleRoot;\r\n        uint256 timestamp;\r\n        bool isValidated;\r\n        bool isStateUpdated;\r\n        bool isRelayed;\r\n    }\r\n\r\n    struct StateUpdate {\r\n        bytes32 txId;\r\n        bytes32 merkleRoot;\r\n        bytes32[] affectedChains;\r\n        mapping(bytes32 => bool) notificationStatus;\r\n        uint256 updateTime;\r\n        bool isComplete;\r\n    }\r\n\r\n    struct ValidationState {\r\n        uint256 totalStake;\r\n        uint256 approvalStake;\r\n        uint256 startTime;\r\n        bool isComplete;\r\n        mapping(address => uint256) validatorStakes;\r\n    }\r\n}\r\n\r\n/**\r\n * @title ProofOfStakeValidator\r\n * @dev Manages PoS validation for relay chain\r\n */\r\ncontract ProofOfStakeValidator is AccessControl {\r\n    using RelayTypes for RelayTypes.Transaction;\r\n    using RelayTypes for RelayTypes.ValidationState;\r\n    using MerkleTreeLib for MerkleTreeLib.MerkleTree;\r\n\r\n    bytes32 public constant VALIDATOR_ROLE = keccak256(\"VALIDATOR_ROLE\");\r\n    \r\n    mapping(bytes32 => RelayTypes.ValidationState) public validationStates;\r\n    mapping(address => uint256) public validatorStakes;\r\n    \r\n    uint256 public constant MIN_STAKE = 1000 ether;\r\n    uint256 public constant VALIDATION_THRESHOLD = 70; // 70% stake approval needed\r\n    \r\n    event ValidationSubmitted(bytes32 indexed txId, address validator, uint256 stake);\r\n    event ValidationComplete(bytes32 indexed txId, bool isValid);\r\n    \r\n    constructor() {\r\n        _setupRole(DEFAULT_ADMIN_ROLE, msg.sender);\r\n    }\r\n    \r\n    function submitValidation(\r\n        bytes32 txId,\r\n        bool approval\r\n    ) external {\r\n        require(hasRole(VALIDATOR_ROLE, msg.sender), \"Not a validator\");\r\n        \r\n        RelayTypes.ValidationState storage validationState = validationStates[txId];\r\n        require(!validationState.isComplete, \"Validation complete\");\r\n        \r\n        uint256 stake = validatorStakes[msg.sender];\r\n        require(stake >= MIN_STAKE, \"Insufficient stake\");\r\n        \r\n        if (approval) {\r\n            validationState.approvalStake += stake;\r\n        }\r\n        validationState.totalStake += stake;\r\n        validationState.validatorStakes[msg.sender] = stake;\r\n        \r\n        emit ValidationSubmitted(txId, msg.sender, stake);\r\n        \r\n        // Check if validation threshold is met\r\n        if (validationState.totalStake > 0) {\r\n            uint256 approvalPercentage = (validationState.approvalStake * 100) / \r\n                                        validationState.totalStake;\r\n            \r\n            if (approvalPercentage >= VALIDATION_THRESHOLD) {\r\n                validationState.isComplete = true;\r\n                emit ValidationComplete(txId, true);\r\n            }\r\n        }\r\n    }\r\n}\r\n\r\n/**\r\n * @title StateManager\r\n * @dev Handles state updates and Merkle tree management\r\n */\r\ncontract StateManager is ProofOfStakeValidator {\r\n    using MerkleTreeLib for MerkleTreeLib.MerkleTree;\r\n    \r\n    mapping(bytes32 => RelayTypes.StateUpdate) public stateUpdates;\r\n    mapping(bytes32 => bytes32) public chainStates;\r\n    \r\n    event StateUpdateInitiated(bytes32 indexed txId, bytes32 merkleRoot);\r\n    event ChainNotified(bytes32 indexed chainId, bytes32 indexed txId);\r\n    event StateUpdateComplete(bytes32 indexed txId);\r\n    \r\n    function updateState(\r\n        bytes32 txId,\r\n        bytes32[] memory affectedChains,\r\n        bytes memory txData\r\n    ) external onlyRole(DEFAULT_ADMIN_ROLE) {\r\n        RelayTypes.StateUpdate storage update = stateUpdates[txId];\r\n        require(!update.isComplete, \"State update complete\");\r\n        \r\n        bytes32 merkleRoot = createMerkleRoot(txData);\r\n        update.merkleRoot = merkleRoot;\r\n        update.affectedChains = affectedChains;\r\n        update.updateTime = block.timestamp;\r\n        \r\n        emit StateUpdateInitiated(txId, merkleRoot);\r\n        \r\n        for (uint256 i = 0; i < affectedChains.length; i++) {\r\n            notifyChain(affectedChains[i], txId, merkleRoot);\r\n        }\r\n    }\r\n    \r\n    function notifyChain(\r\n        bytes32 chainId,\r\n        bytes32 txId,\r\n        bytes32 merkleRoot\r\n    ) internal {\r\n        chainStates[chainId] = merkleRoot;\r\n        RelayTypes.StateUpdate storage update = stateUpdates[txId];\r\n        update.notificationStatus[chainId] = true;\r\n        \r\n        emit ChainNotified(chainId, txId);\r\n    }\r\n    \r\n    function createMerkleRoot(\r\n        bytes memory data\r\n    ) internal pure returns (bytes32) {\r\n        return keccak256(data);\r\n    }\r\n}\r\n\r\n/**\r\n * @title TransactionRelay\r\n * @dev Manages final transaction relay to receiving blockchain\r\n */\r\ncontract TransactionRelay is StateManager, ReentrancyGuard {\r\n    struct RelayedTransaction {\r\n        bytes32 txId;\r\n        bytes originalMetadata;\r\n        bytes enrichedData;\r\n        uint256 relayTime;\r\n        bool isComplete;\r\n    }\r\n    \r\n    mapping(bytes32 => RelayedTransaction) public relayedTransactions;\r\n    \r\n    event TransactionRelayed(\r\n        bytes32 indexed txId,\r\n        address indexed targetBridge,\r\n        bytes32 merkleRoot\r\n    );\r\n    \r\n    function relayTransaction(\r\n        bytes32 txId,\r\n        address targetBridge,\r\n        bytes memory originalMetadata,\r\n        bytes memory enrichedData\r\n    ) external nonReentrant onlyRole(DEFAULT_ADMIN_ROLE) {\r\n        require(\r\n            validationStates[txId].isComplete,\r\n            \"Validation incomplete\"\r\n        );\r\n        require(\r\n            stateUpdates[txId].isComplete,\r\n            \"State update incomplete\"\r\n        );\r\n        \r\n        RelayedTransaction storage relayedTx = relayedTransactions[txId];\r\n        require(!relayedTx.isComplete, \"Already relayed\");\r\n        \r\n        relayedTx.txId = txId;\r\n        relayedTx.originalMetadata = originalMetadata;\r\n        relayedTx.enrichedData = enrichedData;\r\n        relayedTx.relayTime = block.timestamp;\r\n        relayedTx.isComplete = true;\r\n        \r\n        emit TransactionRelayed(\r\n            txId,\r\n            targetBridge,\r\n            stateUpdates[txId].merkleRoot\r\n        );\r\n    }\r\n}\r\n\r\n/**\r\n * @title ReceivingBlockchainInterface\r\n * @dev Interface for receiving blockchain to process relayed transactions\r\n */\r\ncontract ReceivingBlockchainInterface is ReentrancyGuard {\r\n    struct ReceivedTransaction {\r\n        bytes32 txId;\r\n        bytes32 merkleRoot;\r\n        bytes metadata;\r\n        bytes enrichedData;\r\n        uint256 receiveTime;\r\n        bool isProcessed;\r\n    }\r\n    \r\n    mapping(bytes32 => ReceivedTransaction) public receivedTransactions;\r\n    \r\n    event TransactionReceived(bytes32 indexed txId, bytes32 merkleRoot);\r\n    event TransactionProcessed(bytes32 indexed txId);\r\n    \r\n    function receiveTransaction(\r\n        bytes32 txId,\r\n        bytes32 merkleRoot,\r\n        bytes memory metadata,\r\n        bytes memory enrichedData\r\n    ) external nonReentrant {\r\n        ReceivedTransaction storage receivedTx = receivedTransactions[txId];\r\n        require(!receivedTx.isProcessed, \"Already processed\");\r\n        \r\n        receivedTx.txId = txId;\r\n        receivedTx.merkleRoot = merkleRoot;\r\n        receivedTx.metadata = metadata;\r\n        receivedTx.enrichedData = enrichedData;\r\n        receivedTx.receiveTime = block.timestamp;\r\n        \r\n        emit TransactionReceived(txId, merkleRoot);\r\n        \r\n        processTransaction(txId);\r\n    }\r\n    \r\n    function processTransaction(bytes32 txId) internal {\r\n        ReceivedTransaction storage receivedTx = receivedTransactions[txId];\r\n        receivedTx.isProcessed = true;\r\n        \r\n        emit TransactionProcessed(txId);\r\n    }\r\n}",
  "sourcePath": "C:\\Users\\Bonsu\\Documents\\Blockchain Multi Industrial Service Center\\Blockchain MultiIndustrial Projects\\BlockchainMultiIndustryRepo\\contracts\\relay\\RelayChain.sol",
  "compiler": {
    "name": "solc",
    "version": "0.8.20+commit.a1b79de6.Emscripten.clang"
  },
  "schemaVersion": "3.4.16",
  "updatedAt": "2025-04-16T14:10:43.609Z",
  "networkType": "ethereum",
  "devdoc": {
    "details": "Manages PoS validation for relay chain",
    "events": {
      "RoleAdminChanged(bytes32,bytes32,bytes32)": {
        "details": "Emitted when `newAdminRole` is set as ``role``'s admin role, replacing `previousAdminRole` `DEFAULT_ADMIN_ROLE` is the starting admin for all roles, despite {RoleAdminChanged} not being emitted signaling this. _Available since v3.1._"
      },
      "RoleGranted(bytes32,address,address)": {
        "details": "Emitted when `account` is granted `role`. `sender` is the account that originated the contract call, an admin role bearer except when using {AccessControl-_setupRole}."
      },
      "RoleRevoked(bytes32,address,address)": {
        "details": "Emitted when `account` is revoked `role`. `sender` is the account that originated the contract call:   - if using `revokeRole`, it is the admin role bearer   - if using `renounceRole`, it is the role bearer (i.e. `account`)"
      }
    },
    "kind": "dev",
    "methods": {
      "getRoleAdmin(bytes32)": {
        "details": "Returns the admin role that controls `role`. See {grantRole} and {revokeRole}. To change a role's admin, use {_setRoleAdmin}."
      },
      "grantRole(bytes32,address)": {
        "details": "Grants `role` to `account`. If `account` had not been already granted `role`, emits a {RoleGranted} event. Requirements: - the caller must have ``role``'s admin role. May emit a {RoleGranted} event."
      },
      "hasRole(bytes32,address)": {
        "details": "Returns `true` if `account` has been granted `role`."
      },
      "renounceRole(bytes32,address)": {
        "details": "Revokes `role` from the calling account. Roles are often managed via {grantRole} and {revokeRole}: this function's purpose is to provide a mechanism for accounts to lose their privileges if they are compromised (such as when a trusted device is misplaced). If the calling account had been revoked `role`, emits a {RoleRevoked} event. Requirements: - the caller must be `account`. May emit a {RoleRevoked} event."
      },
      "revokeRole(bytes32,address)": {
        "details": "Revokes `role` from `account`. If `account` had been granted `role`, emits a {RoleRevoked} event. Requirements: - the caller must have ``role``'s admin role. May emit a {RoleRevoked} event."
      },
      "supportsInterface(bytes4)": {
        "details": "See {IERC165-supportsInterface}."
      }
    },
    "title": "ProofOfStakeValidator",
    "version": 1
  },
  "userdoc": {
    "kind": "user",
    "methods": {},
    "version": 1
  }
}