{
  "contractName": "ReceivingBlockchainInterface",
  "abi": [
    {
      "anonymous": false,
      "inputs": [
        {
          "indexed": true,
          "internalType": "bytes32",
          "name": "txId",
          "type": "bytes32"
        }
      ],
      "name": "TransactionProcessed",
      "type": "event"
    },
    {
      "anonymous": false,
      "inputs": [
        {
          "indexed": true,
          "internalType": "bytes32",
          "name": "txId",
          "type": "bytes32"
        },
        {
          "indexed": false,
          "internalType": "bytes32",
          "name": "merkleRoot",
          "type": "bytes32"
        }
      ],
      "name": "TransactionReceived",
      "type": "event"
    },
    {
      "inputs": [
        {
          "internalType": "bytes32",
          "name": "",
          "type": "bytes32"
        }
      ],
      "name": "receivedTransactions",
      "outputs": [
        {
          "internalType": "bytes32",
          "name": "txId",
          "type": "bytes32"
        },
        {
          "internalType": "bytes32",
          "name": "merkleRoot",
          "type": "bytes32"
        },
        {
          "internalType": "bytes",
          "name": "metadata",
          "type": "bytes"
        },
        {
          "internalType": "bytes",
          "name": "enrichedData",
          "type": "bytes"
        },
        {
          "internalType": "uint256",
          "name": "receiveTime",
          "type": "uint256"
        },
        {
          "internalType": "bool",
          "name": "isProcessed",
          "type": "bool"
        }
      ],
      "stateMutability": "view",
      "type": "function",
      "constant": true
    },
    {
      "inputs": [
        {
          "internalType": "bytes32",
          "name": "txId",
          "type": "bytes32"
        },
        {
          "internalType": "bytes32",
          "name": "merkleRoot",
          "type": "bytes32"
        },
        {
          "internalType": "bytes",
          "name": "metadata",
          "type": "bytes"
        },
        {
          "internalType": "bytes",
          "name": "enrichedData",
          "type": "bytes"
        }
      ],
      "name": "receiveTransaction",
      "outputs": [],
      "stateMutability": "nonpayable",
      "type": "function"
    }
  ],
  "bytecode": "0x608060405234801561000f575f80fd5b5060015f5561066f806100215f395ff3fe608060405234801561000f575f80fd5b5060043610610034575f3560e01c8063707f9c9a14610038578063902a0d0914610066575b5f80fd5b61004b610046366004610343565b61007b565b60405161005d9695949392919061039d565b60405180910390f35b610079610074366004610485565b6101c0565b005b600160208190525f91825260409091208054918101546002820180549192916100a3906104f7565b80601f01602080910402602001604051908101604052809291908181526020018280546100cf906104f7565b801561011a5780601f106100f15761010080835404028352916020019161011a565b820191905f5260205f20905b8154815290600101906020018083116100fd57829003601f168201915b50505050509080600301805461012f906104f7565b80601f016020809104026020016040519081016040528092919081815260200182805461015b906104f7565b80156101a65780601f1061017d576101008083540402835291602001916101a6565b820191905f5260205f20905b81548152906001019060200180831161018957829003601f168201915b50505050600483015460059093015491929160ff16905086565b6101c861029f565b5f848152600160205260409020600581015460ff16156102235760405162461bcd60e51b8152602060048201526011602482015270105b1c9958591e481c1c9bd8d95cdcd959607a1b60448201526064015b60405180910390fd5b848155600181018490556002810161023b848261057d565b506003810161024a838261057d565b5042600482015560405184815285907f7f61d80d1e475f0772f5d3825fbc5d7c9f2f1671492e852a6358928442b295b69060200160405180910390a261028f856102f6565b5061029960015f55565b50505050565b60025f54036102f05760405162461bcd60e51b815260206004820152601f60248201527f5265656e7472616e637947756172643a207265656e7472616e742063616c6c00604482015260640161021a565b60025f55565b5f81815260016020819052604080832060058101805460ff191690931790925551909183917f28d52a93845b083fefee66bd925a69c3fe8e212f1399e8436ff1bc48bd3334219190a25050565b5f60208284031215610353575f80fd5b5035919050565b5f81518084525f5b8181101561037e57602081850181015186830182015201610362565b505f602082860101526020601f19601f83011685010191505092915050565b86815285602082015260c060408201525f6103bb60c083018761035a565b82810360608401526103cd818761035a565b6080840195909552505090151560a090910152949350505050565b634e487b7160e01b5f52604160045260245ffd5b5f82601f83011261040b575f80fd5b813567ffffffffffffffff80821115610426576104266103e8565b604051601f8301601f19908116603f0116810190828211818310171561044e5761044e6103e8565b81604052838152866020858801011115610466575f80fd5b836020870160208301375f602085830101528094505050505092915050565b5f805f8060808587031215610498575f80fd5b8435935060208501359250604085013567ffffffffffffffff808211156104bd575f80fd5b6104c9888389016103fc565b935060608701359150808211156104de575f80fd5b506104eb878288016103fc565b91505092959194509250565b600181811c9082168061050b57607f821691505b60208210810361052957634e487b7160e01b5f52602260045260245ffd5b50919050565b601f821115610578575f81815260208120601f850160051c810160208610156105555750805b601f850160051c820191505b8181101561057457828155600101610561565b5050505b505050565b815167ffffffffffffffff811115610597576105976103e8565b6105ab816105a584546104f7565b8461052f565b602080601f8311600181146105de575f84156105c75750858301515b5f19600386901b1c1916600185901b178555610574565b5f85815260208120601f198616915b8281101561060c578886015182559484019460019091019084016105ed565b508582101561062957878501515f19600388901b60f8161c191681555b5050505050600190811b0190555056fea26469706673582212202c8e8128c1219b619a38c016e4ca39d9957c16ff8b87862431ec526dd8e7e57964736f6c63430008140033",
  "immutableReferences": {},
  "source": "// SPDX-License-Identifier: MIT\r\npragma solidity ^0.8.0;\r\n\r\nimport \"@openzeppelin/contracts/security/ReentrancyGuard.sol\";\r\nimport \"@openzeppelin/contracts/access/AccessControl.sol\";\r\n\r\n/**\r\n * @title MerkleTreeLib\r\n * @dev Library for Merkle tree operations\r\n */\r\nlibrary MerkleTreeLib {\r\n    struct MerkleTree {\r\n        bytes32 root;\r\n        mapping(bytes32 => bool) verified;\r\n    }\r\n\r\n    function verifyProof(\r\n        bytes32 root,\r\n        bytes32 leaf,\r\n        bytes32[] memory proof\r\n    ) internal pure returns (bool) {\r\n        bytes32 computedHash = leaf;\r\n        \r\n        for (uint256 i = 0; i < proof.length; i++) {\r\n            computedHash = hashPair(computedHash, proof[i]);\r\n        }\r\n        \r\n        return computedHash == root;\r\n    }\r\n    \r\n    function hashPair(bytes32 a, bytes32 b) internal pure returns (bytes32) {\r\n        return keccak256(abi.encodePacked(a, b));\r\n    }\r\n}\r\n\r\n/**\r\n * @title RelayTypes\r\n * @dev Core data structures for relay chain operations\r\n */\r\nlibrary RelayTypes {\r\n    struct Transaction {\r\n        bytes32 id;\r\n        address sourceBridge;\r\n        address targetBridge;\r\n        bytes32 originalTxHash;\r\n        bytes metadata;\r\n        bytes32 merkleRoot;\r\n        uint256 timestamp;\r\n        bool isValidated;\r\n        bool isStateUpdated;\r\n        bool isRelayed;\r\n    }\r\n\r\n    struct StateUpdate {\r\n        bytes32 txId;\r\n        bytes32 merkleRoot;\r\n        bytes32[] affectedChains;\r\n        mapping(bytes32 => bool) notificationStatus;\r\n        uint256 updateTime;\r\n        bool isComplete;\r\n    }\r\n\r\n    struct ValidationState {\r\n        uint256 totalStake;\r\n        uint256 approvalStake;\r\n        uint256 startTime;\r\n        bool isComplete;\r\n        mapping(address => uint256) validatorStakes;\r\n    }\r\n}\r\n\r\n/**\r\n * @title ProofOfStakeValidator\r\n * @dev Manages PoS validation for relay chain\r\n */\r\ncontract ProofOfStakeValidator is AccessControl {\r\n    using RelayTypes for RelayTypes.Transaction;\r\n    using RelayTypes for RelayTypes.ValidationState;\r\n    using MerkleTreeLib for MerkleTreeLib.MerkleTree;\r\n\r\n    bytes32 public constant VALIDATOR_ROLE = keccak256(\"VALIDATOR_ROLE\");\r\n    \r\n    mapping(bytes32 => RelayTypes.ValidationState) public validationStates;\r\n    mapping(address => uint256) public validatorStakes;\r\n    \r\n    uint256 public constant MIN_STAKE = 1000 ether;\r\n    uint256 public constant VALIDATION_THRESHOLD = 70; // 70% stake approval needed\r\n    \r\n    event ValidationSubmitted(bytes32 indexed txId, address validator, uint256 stake);\r\n    event ValidationComplete(bytes32 indexed txId, bool isValid);\r\n    \r\n    constructor() {\r\n        _setupRole(DEFAULT_ADMIN_ROLE, msg.sender);\r\n    }\r\n    \r\n    function submitValidation(\r\n        bytes32 txId,\r\n        bool approval\r\n    ) external {\r\n        require(hasRole(VALIDATOR_ROLE, msg.sender), \"Not a validator\");\r\n        \r\n        RelayTypes.ValidationState storage validationState = validationStates[txId];\r\n        require(!validationState.isComplete, \"Validation complete\");\r\n        \r\n        uint256 stake = validatorStakes[msg.sender];\r\n        require(stake >= MIN_STAKE, \"Insufficient stake\");\r\n        \r\n        if (approval) {\r\n            validationState.approvalStake += stake;\r\n        }\r\n        validationState.totalStake += stake;\r\n        validationState.validatorStakes[msg.sender] = stake;\r\n        \r\n        emit ValidationSubmitted(txId, msg.sender, stake);\r\n        \r\n        // Check if validation threshold is met\r\n        if (validationState.totalStake > 0) {\r\n            uint256 approvalPercentage = (validationState.approvalStake * 100) / \r\n                                        validationState.totalStake;\r\n            \r\n            if (approvalPercentage >= VALIDATION_THRESHOLD) {\r\n                validationState.isComplete = true;\r\n                emit ValidationComplete(txId, true);\r\n            }\r\n        }\r\n    }\r\n}\r\n\r\n/**\r\n * @title StateManager\r\n * @dev Handles state updates and Merkle tree management\r\n */\r\ncontract StateManager is ProofOfStakeValidator {\r\n    using MerkleTreeLib for MerkleTreeLib.MerkleTree;\r\n    \r\n    mapping(bytes32 => RelayTypes.StateUpdate) public stateUpdates;\r\n    mapping(bytes32 => bytes32) public chainStates;\r\n    \r\n    event StateUpdateInitiated(bytes32 indexed txId, bytes32 merkleRoot);\r\n    event ChainNotified(bytes32 indexed chainId, bytes32 indexed txId);\r\n    event StateUpdateComplete(bytes32 indexed txId);\r\n    \r\n    function updateState(\r\n        bytes32 txId,\r\n        bytes32[] memory affectedChains,\r\n        bytes memory txData\r\n    ) external onlyRole(DEFAULT_ADMIN_ROLE) {\r\n        RelayTypes.StateUpdate storage update = stateUpdates[txId];\r\n        require(!update.isComplete, \"State update complete\");\r\n        \r\n        bytes32 merkleRoot = createMerkleRoot(txData);\r\n        update.merkleRoot = merkleRoot;\r\n        update.affectedChains = affectedChains;\r\n        update.updateTime = block.timestamp;\r\n        \r\n        emit StateUpdateInitiated(txId, merkleRoot);\r\n        \r\n        for (uint256 i = 0; i < affectedChains.length; i++) {\r\n            notifyChain(affectedChains[i], txId, merkleRoot);\r\n        }\r\n    }\r\n    \r\n    function notifyChain(\r\n        bytes32 chainId,\r\n        bytes32 txId,\r\n        bytes32 merkleRoot\r\n    ) internal {\r\n        chainStates[chainId] = merkleRoot;\r\n        RelayTypes.StateUpdate storage update = stateUpdates[txId];\r\n        update.notificationStatus[chainId] = true;\r\n        \r\n        emit ChainNotified(chainId, txId);\r\n    }\r\n    \r\n    function createMerkleRoot(\r\n        bytes memory data\r\n    ) internal pure returns (bytes32) {\r\n        return keccak256(data);\r\n    }\r\n}\r\n\r\n/**\r\n * @title TransactionRelay\r\n * @dev Manages final transaction relay to receiving blockchain\r\n */\r\ncontract TransactionRelay is StateManager, ReentrancyGuard {\r\n    struct RelayedTransaction {\r\n        bytes32 txId;\r\n        bytes originalMetadata;\r\n        bytes enrichedData;\r\n        uint256 relayTime;\r\n        bool isComplete;\r\n    }\r\n    \r\n    mapping(bytes32 => RelayedTransaction) public relayedTransactions;\r\n    \r\n    event TransactionRelayed(\r\n        bytes32 indexed txId,\r\n        address indexed targetBridge,\r\n        bytes32 merkleRoot\r\n    );\r\n    \r\n    function relayTransaction(\r\n        bytes32 txId,\r\n        address targetBridge,\r\n        bytes memory originalMetadata,\r\n        bytes memory enrichedData\r\n    ) external nonReentrant onlyRole(DEFAULT_ADMIN_ROLE) {\r\n        require(\r\n            validationStates[txId].isComplete,\r\n            \"Validation incomplete\"\r\n        );\r\n        require(\r\n            stateUpdates[txId].isComplete,\r\n            \"State update incomplete\"\r\n        );\r\n        \r\n        RelayedTransaction storage relayedTx = relayedTransactions[txId];\r\n        require(!relayedTx.isComplete, \"Already relayed\");\r\n        \r\n        relayedTx.txId = txId;\r\n        relayedTx.originalMetadata = originalMetadata;\r\n        relayedTx.enrichedData = enrichedData;\r\n        relayedTx.relayTime = block.timestamp;\r\n        relayedTx.isComplete = true;\r\n        \r\n        emit TransactionRelayed(\r\n            txId,\r\n            targetBridge,\r\n            stateUpdates[txId].merkleRoot\r\n        );\r\n    }\r\n}\r\n\r\n/**\r\n * @title ReceivingBlockchainInterface\r\n * @dev Interface for receiving blockchain to process relayed transactions\r\n */\r\ncontract ReceivingBlockchainInterface is ReentrancyGuard {\r\n    struct ReceivedTransaction {\r\n        bytes32 txId;\r\n        bytes32 merkleRoot;\r\n        bytes metadata;\r\n        bytes enrichedData;\r\n        uint256 receiveTime;\r\n        bool isProcessed;\r\n    }\r\n    \r\n    mapping(bytes32 => ReceivedTransaction) public receivedTransactions;\r\n    \r\n    event TransactionReceived(bytes32 indexed txId, bytes32 merkleRoot);\r\n    event TransactionProcessed(bytes32 indexed txId);\r\n    \r\n    function receiveTransaction(\r\n        bytes32 txId,\r\n        bytes32 merkleRoot,\r\n        bytes memory metadata,\r\n        bytes memory enrichedData\r\n    ) external nonReentrant {\r\n        ReceivedTransaction storage receivedTx = receivedTransactions[txId];\r\n        require(!receivedTx.isProcessed, \"Already processed\");\r\n        \r\n        receivedTx.txId = txId;\r\n        receivedTx.merkleRoot = merkleRoot;\r\n        receivedTx.metadata = metadata;\r\n        receivedTx.enrichedData = enrichedData;\r\n        receivedTx.receiveTime = block.timestamp;\r\n        \r\n        emit TransactionReceived(txId, merkleRoot);\r\n        \r\n        processTransaction(txId);\r\n    }\r\n    \r\n    function processTransaction(bytes32 txId) internal {\r\n        ReceivedTransaction storage receivedTx = receivedTransactions[txId];\r\n        receivedTx.isProcessed = true;\r\n        \r\n        emit TransactionProcessed(txId);\r\n    }\r\n}",
  "sourcePath": "C:\\Users\\Bonsu\\Documents\\Blockchain Multi Industrial Service Center\\Blockchain MultiIndustrial Projects\\BlockchainMultiIndustryRepo\\contracts\\relay\\RelayChain.sol",
  "compiler": {
    "name": "solc",
    "version": "0.8.20+commit.a1b79de6.Emscripten.clang"
  },
  "schemaVersion": "3.4.16",
  "updatedAt": "2025-04-16T14:10:43.626Z",
  "networkType": "ethereum",
  "devdoc": {
    "details": "Interface for receiving blockchain to process relayed transactions",
    "kind": "dev",
    "methods": {},
    "title": "ReceivingBlockchainInterface",
    "version": 1
  },
  "userdoc": {
    "kind": "user",
    "methods": {},
    "version": 1
  }
}