{
  "contractName": "RequestManager",
  "abi": [
    {
      "inputs": [
        {
          "internalType": "address",
          "name": "_analytics",
          "type": "address"
        }
      ],
      "stateMutability": "nonpayable",
      "type": "constructor"
    },
    {
      "inputs": [],
      "name": "submitRequest",
      "outputs": [
        {
          "internalType": "uint256",
          "name": "",
          "type": "uint256"
        }
      ],
      "stateMutability": "payable",
      "type": "function",
      "payable": true
    }
  ],
  "bytecode": "0x60a060405234801561000f575f80fd5b5060405161024038038061024083398101604081905261002e916100f3565b6001600160a01b0381166100895760405162461bcd60e51b815260206004820181905260248201527f416e616c797469637320616464726573732063616e6e6f74206265207a65726f60448201526064015b60405180910390fd5b5f816001600160a01b03163b116100e25760405162461bcd60e51b815260206004820152601c60248201527f416e616c7974696373206d757374206265206120636f6e7472616374000000006044820152606401610080565b6001600160a01b0316608052610120565b5f60208284031215610103575f80fd5b81516001600160a01b0381168114610119575f80fd5b9392505050565b6080516101096101375f395f603a01526101095ff3fe608060405260043610601b575f3560e01c8063599606c114601f575b5f80fd5b60256037565b60405190815260200160405180910390f35b5f7f00000000000000000000000000000000000000000000000000000000000000006001600160a01b031663599606c1346040518263ffffffff1660e01b815260040160206040518083038185885af11580156095573d5f803e3d5ffd5b50505050506040513d601f19601f8201168201806040525081019060b8919060bd565b905090565b5f6020828403121560cc575f80fd5b505191905056fea2646970667358221220430439765b19321545a0f37563ea5a4ba211d4f255f8f1ffe168eb6f593c00cb64736f6c63430008140033",
  "immutableReferences": {
    "9268": [
      {
        "length": 32,
        "start": 58
      }
    ]
  },
  "source": "// SPDX-License-Identifier: MIT\r\npragma solidity ^0.8.0;\r\nimport \"../interfaces/IUncertaintyAnalytics.sol\";\r\n\r\ncontract RequestManager {\r\n    IUncertaintyAnalytics private immutable analytics;\r\n    \r\n    constructor(address _analytics) {\r\n        require(_analytics != address(0), \"Analytics address cannot be zero\");\r\n        require(_analytics.code.length > 0, \"Analytics must be a contract\");\r\n        \r\n        // Initialize the contract\r\n        analytics = IUncertaintyAnalytics(_analytics);\r\n    }\r\n    \r\n    function submitRequest() external payable returns (uint256) {\r\n        return analytics.submitRequest{value: msg.value}();\r\n    }\r\n}",
  "sourcePath": "C:\\Users\\Bonsu\\Documents\\Blockchain Multi Industrial Service Center\\Blockchain MultiIndustrial Projects\\BlockchainMultiIndustryRepo\\contracts\\RequestManager.sol",
  "compiler": {
    "name": "solc",
    "version": "0.8.20+commit.a1b79de6.Emscripten.clang"
  },
  "schemaVersion": "3.4.16",
  "updatedAt": "2025-04-16T14:10:44.904Z",
  "networkType": "ethereum",
  "devdoc": {
    "kind": "dev",
    "methods": {},
    "version": 1
  },
  "userdoc": {
    "kind": "user",
    "methods": {},
    "version": 1
  }
}