{
  "contractName": "ResponseManager",
  "abi": [
    {
      "inputs": [
        {
          "internalType": "address",
          "name": "_analytics",
          "type": "address"
        }
      ],
      "stateMutability": "nonpayable",
      "type": "constructor"
    },
    {
      "inputs": [
        {
          "internalType": "uint256",
          "name": "_requestId",
          "type": "uint256"
        }
      ],
      "name": "submitResponse",
      "outputs": [],
      "stateMutability": "nonpayable",
      "type": "function"
    }
  ],
  "bytecode": "0x60a060405234801561000f575f80fd5b5060405161023238038061023283398101604081905261002e916100f3565b6001600160a01b0381166100895760405162461bcd60e51b815260206004820181905260248201527f416e616c797469637320616464726573732063616e6e6f74206265207a65726f60448201526064015b60405180910390fd5b5f816001600160a01b03163b116100e25760405162461bcd60e51b815260206004820152601c60248201527f416e616c7974696373206d757374206265206120636f6e7472616374000000006044820152606401610080565b6001600160a01b0316608052610120565b5f60208284031215610103575f80fd5b81516001600160a01b0381168114610119575f80fd5b9392505050565b60805160fd6101355f395f6051015260fd5ff3fe6080604052348015600e575f80fd5b50600436106026575f3560e01c8063bada5cd914602a575b5f80fd5b6039603536600460b1565b603b565b005b60405163bada5cd960e01b8152600481018290527f00000000000000000000000000000000000000000000000000000000000000006001600160a01b03169063bada5cd9906024015f604051808303815f87803b1580156099575f80fd5b505af115801560aa573d5f803e3d5ffd5b5050505050565b5f6020828403121560c0575f80fd5b503591905056fea26469706673582212203deea7a91141568a03f6973c5750627e039d66c7174f2e7c16a61dbeb99c200764736f6c63430008140033",
  "immutableReferences": {
    "9319": [
      {
        "length": 32,
        "start": 81
      }
    ]
  },
  "source": "// SPDX-License-Identifier: MIT\r\npragma solidity ^0.8.0;\r\nimport \"../interfaces/IUncertaintyAnalytics.sol\";\r\n\r\ncontract ResponseManager {\r\n    IUncertaintyAnalytics private immutable analytics;\r\n    \r\n    constructor(address _analytics) {\r\n        require(_analytics != address(0), \"Analytics address cannot be zero\");\r\n        require(_analytics.code.length > 0, \"Analytics must be a contract\");\r\n        analytics = IUncertaintyAnalytics(_analytics);\r\n    }\r\n    \r\n    function submitResponse(uint256 _requestId) external {\r\n        analytics.submitResponse(_requestId);\r\n    }\r\n}",
  "sourcePath": "C:\\Users\\Bonsu\\Documents\\Blockchain Multi Industrial Service Center\\Blockchain MultiIndustrial Projects\\BlockchainMultiIndustryRepo\\contracts\\ResponseManager.sol",
  "compiler": {
    "name": "solc",
    "version": "0.8.20+commit.a1b79de6.Emscripten.clang"
  },
  "schemaVersion": "3.4.16",
  "updatedAt": "2025-04-16T14:10:44.444Z",
  "networkType": "ethereum",
  "devdoc": {
    "kind": "dev",
    "methods": {},
    "version": 1
  },
  "userdoc": {
    "kind": "user",
    "methods": {},
    "version": 1
  }
}