{
  "contractName": "RewardCalculator",
  "abi": [
    {
      "inputs": [],
      "name": "W1_VALIDATION",
      "outputs": [
        {
          "internalType": "uint256",
          "name": "",
          "type": "uint256"
        }
      ],
      "stateMutability": "view",
      "type": "function"
    },
    {
      "inputs": [],
      "name": "W2_EXECUTION",
      "outputs": [
        {
          "internalType": "uint256",
          "name": "",
          "type": "uint256"
        }
      ],
      "stateMutability": "view",
      "type": "function"
    },
    {
      "inputs": [
        {
          "internalType": "bytes32",
          "name": "",
          "type": "bytes32"
        }
      ],
      "name": "auxiliaryRewards",
      "outputs": [
        {
          "internalType": "uint256",
          "name": "componentReward",
          "type": "uint256"
        },
        {
          "internalType": "uint256",
          "name": "criticalityFactor",
          "type": "uint256"
        },
        {
          "internalType": "uint256",
          "name": "totalReward",
          "type": "uint256"
        },
        {
          "internalType": "bool",
          "name": "isPaid",
          "type": "bool"
        }
      ],
      "stateMutability": "view",
      "type": "function"
    },
    {
      "inputs": [
        {
          "internalType": "bytes32",
          "name": "",
          "type": "bytes32"
        }
      ],
      "name": "channelRewards",
      "outputs": [
        {
          "internalType": "uint256",
          "name": "baseReward",
          "type": "uint256"
        },
        {
          "internalType": "uint256",
          "name": "performanceMultiplier",
          "type": "uint256"
        },
        {
          "internalType": "uint256",
          "name": "totalReward",
          "type": "uint256"
        },
        {
          "internalType": "bool",
          "name": "isPaid",
          "type": "bool"
        }
      ],
      "stateMutability": "view",
      "type": "function"
    },
    {
      "inputs": [
        {
          "internalType": "address",
          "name": "",
          "type": "address"
        }
      ],
      "name": "nodeRewards",
      "outputs": [
        {
          "internalType": "uint256",
          "name": "validationReward",
          "type": "uint256"
        },
        {
          "internalType": "uint256",
          "name": "executionReward",
          "type": "uint256"
        },
        {
          "internalType": "uint256",
          "name": "totalReward",
          "type": "uint256"
        },
        {
          "internalType": "bool",
          "name": "isPaid",
          "type": "bool"
        }
      ],
      "stateMutability": "view",
      "type": "function"
    },
    {
      "inputs": [
        {
          "internalType": "address",
          "name": "node",
          "type": "address"
        },
        {
          "internalType": "uint256",
          "name": "validationScore",
          "type": "uint256"
        },
        {
          "internalType": "uint256",
          "name": "executionScore",
          "type": "uint256"
        }
      ],
      "name": "calculateNodeReward",
      "outputs": [
        {
          "internalType": "uint256",
          "name": "",
          "type": "uint256"
        }
      ],
      "stateMutability": "nonpayable",
      "type": "function"
    },
    {
      "inputs": [
        {
          "internalType": "bytes32",
          "name": "channelId",
          "type": "bytes32"
        },
        {
          "internalType": "uint256[]",
          "name": "weights",
          "type": "uint256[]"
        },
        {
          "internalType": "uint256[]",
          "name": "scalingFactors",
          "type": "uint256[]"
        },
        {
          "internalType": "uint256[]",
          "name": "performances",
          "type": "uint256[]"
        }
      ],
      "name": "calculateChannelReward",
      "outputs": [
        {
          "internalType": "uint256",
          "name": "",
          "type": "uint256"
        }
      ],
      "stateMutability": "nonpayable",
      "type": "function"
    },
    {
      "inputs": [
        {
          "internalType": "uint256",
          "name": "baseConstant",
          "type": "uint256"
        },
        {
          "internalType": "uint256[]",
          "name": "performanceFactors",
          "type": "uint256[]"
        },
        {
          "internalType": "uint256",
          "name": "contributionScore",
          "type": "uint256"
        }
      ],
      "name": "calculateNodesReward",
      "outputs": [
        {
          "internalType": "uint256",
          "name": "",
          "type": "uint256"
        }
      ],
      "stateMutability": "pure",
      "type": "function"
    },
    {
      "inputs": [
        {
          "internalType": "bytes32",
          "name": "componentId",
          "type": "bytes32"
        },
        {
          "internalType": "uint256[]",
          "name": "weights",
          "type": "uint256[]"
        },
        {
          "internalType": "uint256[]",
          "name": "criticalityFactors",
          "type": "uint256[]"
        },
        {
          "internalType": "uint256[]",
          "name": "performances",
          "type": "uint256[]"
        }
      ],
      "name": "calculateAuxiliaryReward",
      "outputs": [
        {
          "internalType": "uint256",
          "name": "",
          "type": "uint256"
        }
      ],
      "stateMutability": "nonpayable",
      "type": "function"
    }
  ],
  "bytecode": "0x608060405234801561000f575f80fd5b506108cd8061001d5f395ff3fe608060405234801561000f575f80fd5b5060043610610090575f3560e01c80639604d604116100635780639604d604146101395780639b1ff02414610142578063b732e7431461014b578063ba7fe61414610183578063c746029b14610196575f80fd5b80630cca02fb146100945780633fe3a488146100ba578063770ce3d8146100cd57806386d5219314610126575b5f80fd5b6100a76100a23660046106bb565b6101cf565b6040519081526020015b60405180910390f35b6100a76100c8366004610747565b610320565b6101046100db3660046107ae565b5f6020819052908152604090208054600182015460028301546003909301549192909160ff1684565b60408051948552602085019390935291830152151560608201526080016100b1565b6100a76101343660046107c7565b61037c565b6100a761019081565b6100a761025881565b6101046101593660046107f7565b600160208190525f9182526040909120805491810154600282015460039092015490919060ff1684565b6100a76101913660046106bb565b61040f565b6101046101a43660046107f7565b600260208190525f918252604090912080546001820154928201546003909201549092919060ff1684565b5f825184511480156101e2575081518451145b61022c5760405162461bcd60e51b8152602060048201526016602482015275082e4e4c2f240d8cadccee8d0e640dad2e6dac2e8c6d60531b60448201526064015b60405180910390fd5b5f805b85518110156102ac575f61028a6102788884815181106102515761025161080e565b602002602001015188858151811061026b5761026b61080e565b6020026020010151610521565b86848151811061026b5761026b61080e565b90506102968382610548565b92505080806102a490610836565b91505061022f565b5060405180608001604052808281526020016102c786610553565b815260208082018490525f6040928301819052988952600280825298829020835181559083015160018201559082015197810197909755606001516003909601805460ff19169615159690961790955550929392505050565b5f670de0b6b3a7640000815b845181101561035f5761034b8286838151811061026b5761026b61080e565b91508061035781610836565b91505061032c565b5061037361036d8683610521565b84610521565b95945050505050565b5f8061038a84610258610521565b90505f61039984610190610521565b90505f6103a68383610548565b6040805160808101825294855260208086019485528582018381525f606088018181526001600160a01b039c909c168152918290529190209451855592516001850155915160028401555094516003909101805460ff1916911515919091179055509192915050565b5f82518451148015610422575081518451145b6104675760405162461bcd60e51b8152602060048201526016602482015275082e4e4c2f240d8cadccee8d0e640dad2e6dac2e8c6d60531b6044820152606401610223565b5f805b85518110156104ae575f61048c6102788884815181106102515761025161080e565b90506104988382610548565b92505080806104a690610836565b91505061046a565b5060405180608001604052808281526020016104c9856105a8565b815260208082018490525f60409283018190529889526001808252988290208351815590830151988101989098558101516002880155606001516003909601805460ff19169615159690961790955550929392505050565b5f670de0b6b3a7640000610535838561084e565b61053f9190610865565b90505b92915050565b5f61053f8284610884565b5f81515f0361056357505f919050565b670de0b6b3a76400005f5b83518110156105a15761058d8285838151811061026b5761026b61080e565b91508061059981610836565b91505061056e565b5092915050565b5f81515f036105b857505f919050565b5f805b83518110156105fb576105e7828583815181106105da576105da61080e565b6020026020010151610548565b9150806105f381610836565b9150506105bb565b5082516106089082610865565b9392505050565b634e487b7160e01b5f52604160045260245ffd5b5f82601f830112610632575f80fd5b8135602067ffffffffffffffff8083111561064f5761064f61060f565b8260051b604051601f19603f830116810181811084821117156106745761067461060f565b604052938452858101830193838101925087851115610691575f80fd5b83870191505b848210156106b057813583529183019190830190610697565b979650505050505050565b5f805f80608085870312156106ce575f80fd5b84359350602085013567ffffffffffffffff808211156106ec575f80fd5b6106f888838901610623565b9450604087013591508082111561070d575f80fd5b61071988838901610623565b9350606087013591508082111561072e575f80fd5b5061073b87828801610623565b91505092959194509250565b5f805f60608486031215610759575f80fd5b83359250602084013567ffffffffffffffff811115610776575f80fd5b61078286828701610623565b925050604084013590509250925092565b80356001600160a01b03811681146107a9575f80fd5b919050565b5f602082840312156107be575f80fd5b61053f82610793565b5f805f606084860312156107d9575f80fd5b6107e284610793565b95602085013595506040909401359392505050565b5f60208284031215610807575f80fd5b5035919050565b634e487b7160e01b5f52603260045260245ffd5b634e487b7160e01b5f52601160045260245ffd5b5f6001820161084757610847610822565b5060010190565b808202811582820484141761054257610542610822565b5f8261087f57634e487b7160e01b5f52601260045260245ffd5b500490565b808201808211156105425761054261082256fea2646970667358221220b0a7d8d46b7e99c29c3b8decf440d06ac26c5f9d07af38d0267fb305493b2e0064736f6c63430008140033",
  "immutableReferences": {},
  "source": "// SPDX-License-Identifier: MIT\r\npragma solidity ^0.8.0;\r\n\r\nimport \"@openzeppelin/contracts/security/ReentrancyGuard.sol\";\r\nimport \"@openzeppelin/contracts/access/AccessControl.sol\";\r\nimport \"@openzeppelin/contracts/token/ERC20/IERC20.sol\";\r\n\r\n/**\r\n * @title IRewardCalculator\r\n * @dev Interface for reward calculation functions\r\n */\r\ninterface IRewardCalculator {\r\n    function calculateNodeReward(address node, uint256 validationScore, uint256 executionScore) external returns (uint256);\r\n    function calculateChannelReward(bytes32 channelId, uint256[] memory weights, uint256[] memory scalingFactors, uint256[] memory performances) external returns (uint256);\r\n    function calculateNodesReward(uint256 baseConstant, uint256[] memory performanceFactors, uint256 contributionScore) external view returns (uint256);\r\n    function calculateAuxiliaryReward(bytes32 componentId, uint256[] memory weights, uint256[] memory criticalityFactors, uint256[] memory performances) external returns (uint256);\r\n}\r\n\r\n/**\r\n * @title RewardBase\r\n * @dev Base contract with common reward functionality\r\n */\r\ncontract RewardBase {\r\n    // Precision for fixed-point arithmetic\r\n    uint256 internal constant PRECISION = 1e18;\r\n    \r\n    // Weight constants\r\n    uint256 public constant W1_VALIDATION = 600; // 0.6 * PRECISION\r\n    uint256 public constant W2_EXECUTION = 400;  // 0.4 * PRECISION\r\n\r\n    function multiplyFixedPoint(uint256 a, uint256 b) internal pure returns (uint256) {\r\n        return (a * b) / PRECISION;\r\n    }\r\n    \r\n    function addFixedPoint(uint256 a, uint256 b) internal pure returns (uint256) {\r\n        return a + b;\r\n    }\r\n}\r\n\r\n/**\r\n * @title RewardCalculator\r\n * @dev Handles reward calculations for different components\r\n */\r\ncontract RewardCalculator is RewardBase, IRewardCalculator {\r\n    struct NodeReward {\r\n        uint256 validationReward;\r\n        uint256 executionReward;\r\n        uint256 totalReward;\r\n        bool isPaid;\r\n    }\r\n    \r\n    struct ChannelReward {\r\n        uint256 baseReward;\r\n        uint256 performanceMultiplier;\r\n        uint256 totalReward;\r\n        bool isPaid;\r\n    }\r\n    \r\n    struct AuxiliaryReward {\r\n        uint256 componentReward;\r\n        uint256 criticalityFactor;\r\n        uint256 totalReward;\r\n        bool isPaid;\r\n    }\r\n    \r\n    // Reward mappings\r\n    mapping(address => NodeReward) public nodeRewards;\r\n    mapping(bytes32 => ChannelReward) public channelRewards;\r\n    mapping(bytes32 => AuxiliaryReward) public auxiliaryRewards;\r\n    \r\n    /**\r\n     * @dev Calculates individual node reward\r\n     * Di = w1 * Validation + w2 * Execution\r\n     */\r\n    function calculateNodeReward(\r\n        address node,\r\n        uint256 validationScore,\r\n        uint256 executionScore\r\n    ) external override returns (uint256) {\r\n        uint256 validationComponent = multiplyFixedPoint(validationScore, W1_VALIDATION);\r\n        uint256 executionComponent = multiplyFixedPoint(executionScore, W2_EXECUTION);\r\n        \r\n        uint256 totalReward = addFixedPoint(validationComponent, executionComponent);\r\n        \r\n        nodeRewards[node] = NodeReward({\r\n            validationReward: validationComponent,\r\n            executionReward: executionComponent,\r\n            totalReward: totalReward,\r\n            isPaid: false\r\n        });\r\n        \r\n        return totalReward;\r\n    }\r\n\r\n    function calculatePerformanceMultiplier(\r\n        uint256[] memory performances\r\n    ) internal pure returns (uint256) {\r\n        if (performances.length == 0) return 0;\r\n        \r\n        uint256 sum = 0;\r\n        for (uint256 i = 0; i < performances.length; i++) {\r\n            sum = addFixedPoint(sum, performances[i]);\r\n        }\r\n        return sum / performances.length;\r\n    }\r\n    \r\n    function calculateCriticalityFactor(\r\n        uint256[] memory factors\r\n    ) internal pure returns (uint256) {\r\n        if (factors.length == 0) return 0;\r\n        \r\n        uint256 product = PRECISION;\r\n        for (uint256 i = 0; i < factors.length; i++) {\r\n            product = multiplyFixedPoint(product, factors[i]);\r\n        }\r\n        return product;\r\n    }\r\n\r\n    function calculateChannelReward(\r\n        bytes32 channelId,\r\n        uint256[] memory weights,\r\n        uint256[] memory scalingFactors,\r\n        uint256[] memory performances\r\n    ) external override returns (uint256) {\r\n        require(\r\n            weights.length == scalingFactors.length &&\r\n            weights.length == performances.length,\r\n            \"Array lengths mismatch\"\r\n        );\r\n        \r\n        uint256 totalReward = 0;\r\n        \r\n        for (uint256 i = 0; i < weights.length; i++) {\r\n            uint256 componentReward = multiplyFixedPoint(\r\n                multiplyFixedPoint(weights[i], scalingFactors[i]),\r\n                performances[i]\r\n            );\r\n            totalReward = addFixedPoint(totalReward, componentReward);\r\n        }\r\n        \r\n        channelRewards[channelId] = ChannelReward({\r\n            baseReward: totalReward,\r\n            performanceMultiplier: calculatePerformanceMultiplier(performances),\r\n            totalReward: totalReward,\r\n            isPaid: false\r\n        });\r\n        \r\n        return totalReward;\r\n    }\r\n\r\n    function calculateNodesReward(\r\n        uint256 baseConstant,\r\n        uint256[] memory performanceFactors,\r\n        uint256 contributionScore\r\n    ) external pure override returns (uint256) {\r\n        uint256 performance = PRECISION;\r\n        \r\n        for (uint256 i = 0; i < performanceFactors.length; i++) {\r\n            performance = multiplyFixedPoint(performance, performanceFactors[i]);\r\n        }\r\n        \r\n        return multiplyFixedPoint(\r\n            multiplyFixedPoint(baseConstant, performance),\r\n            contributionScore\r\n        );\r\n    }\r\n\r\n    function calculateAuxiliaryReward(\r\n        bytes32 componentId,\r\n        uint256[] memory weights,\r\n        uint256[] memory criticalityFactors,\r\n        uint256[] memory performances\r\n    ) external override returns (uint256) {\r\n        require(\r\n            weights.length == criticalityFactors.length &&\r\n            weights.length == performances.length,\r\n            \"Array lengths mismatch\"\r\n        );\r\n        \r\n        uint256 totalReward = 0;\r\n        \r\n        for (uint256 i = 0; i < weights.length; i++) {\r\n            uint256 componentReward = multiplyFixedPoint(\r\n                multiplyFixedPoint(weights[i], criticalityFactors[i]),\r\n                performances[i]\r\n            );\r\n            totalReward = addFixedPoint(totalReward, componentReward);\r\n        }\r\n        \r\n        auxiliaryRewards[componentId] = AuxiliaryReward({\r\n            componentReward: totalReward,\r\n            criticalityFactor: calculateCriticalityFactor(criticalityFactors),\r\n            totalReward: totalReward,\r\n            isPaid: false\r\n        });\r\n        \r\n        return totalReward;\r\n    }\r\n}\r\n\r\n/**\r\n * @title RewardDistributor\r\n * @dev Manages the distribution of rewards across different components\r\n */\r\ncontract RewardDistributor is RewardCalculator, ReentrancyGuard, AccessControl {\r\n    IERC20 public rewardToken;\r\n    \r\n    struct DistributionState {\r\n        uint256 channelShare;\r\n        uint256 nodeShare;\r\n        uint256 auxiliaryShare;\r\n        uint256 totalDistributed;\r\n        bool isComplete;\r\n    }\r\n    \r\n    mapping(bytes32 => DistributionState) public distributions;\r\n    \r\n    event RewardDistributed(\r\n        bytes32 indexed distributionId,\r\n        address recipient,\r\n        uint256 amount\r\n    );\r\n    \r\n    constructor(address _rewardToken) {\r\n        rewardToken = IERC20(_rewardToken);\r\n        _setupRole(DEFAULT_ADMIN_ROLE, msg.sender);\r\n    }\r\n    \r\n    function distributeRewards(\r\n        bytes32 distributionId,\r\n        address[] memory recipients,\r\n        uint256[] memory amounts\r\n    ) external nonReentrant onlyRole(DEFAULT_ADMIN_ROLE) {\r\n        require(\r\n            recipients.length == amounts.length,\r\n            \"Recipients and amounts length mismatch\"\r\n        );\r\n        \r\n        DistributionState storage distribution = distributions[distributionId];\r\n        require(!distribution.isComplete, \"Distribution already complete\");\r\n        \r\n        uint256 totalAmount = 0;\r\n        for (uint256 i = 0; i < amounts.length; i++) {\r\n            totalAmount = addFixedPoint(totalAmount, amounts[i]);\r\n        }\r\n        \r\n        require(\r\n            rewardToken.balanceOf(address(this)) >= totalAmount,\r\n            \"Insufficient rewards\"\r\n        );\r\n        \r\n        for (uint256 i = 0; i < recipients.length; i++) {\r\n            require(\r\n                rewardToken.transfer(recipients[i], amounts[i]),\r\n                \"Transfer failed\"\r\n            );\r\n            emit RewardDistributed(distributionId, recipients[i], amounts[i]);\r\n        }\r\n        \r\n        distribution.totalDistributed = totalAmount;\r\n        distribution.isComplete = true;\r\n    }\r\n}",
  "sourcePath": "C:\\Users\\Bonsu\\Documents\\Blockchain Multi Industrial Service Center\\Blockchain MultiIndustrial Projects\\BlockchainMultiIndustryRepo\\contracts\\passchain\\RewardCalculator.sol",
  "compiler": {
    "name": "solc",
    "version": "0.8.20+commit.a1b79de6.Emscripten.clang"
  },
  "schemaVersion": "3.4.16",
  "updatedAt": "2025-04-16T14:10:38.471Z",
  "devdoc": {
    "details": "Handles reward calculations for different components",
    "kind": "dev",
    "methods": {
      "calculateNodeReward(address,uint256,uint256)": {
        "details": "Calculates individual node reward Di = w1 * Validation + w2 * Execution"
      }
    },
    "title": "RewardCalculator",
    "version": 1
  },
  "userdoc": {
    "kind": "user",
    "methods": {},
    "version": 1
  }
}