{
  "contractName": "RewardBase",
  "abi": [
    {
      "inputs": [],
      "name": "W1_VALIDATION",
      "outputs": [
        {
          "internalType": "uint256",
          "name": "",
          "type": "uint256"
        }
      ],
      "stateMutability": "view",
      "type": "function"
    },
    {
      "inputs": [],
      "name": "W2_EXECUTION",
      "outputs": [
        {
          "internalType": "uint256",
          "name": "",
          "type": "uint256"
        }
      ],
      "stateMutability": "view",
      "type": "function"
    }
  ],
  "bytecode": "0x6080604052348015600e575f80fd5b50608c8061001b5f395ff3fe6080604052348015600e575f80fd5b50600436106030575f3560e01c80639604d6041460345780639b1ff02414604e575b5f80fd5b603c61019081565b60405190815260200160405180910390f35b603c6102588156fea26469706673582212203a78b5758c5dccba7188c427c009306ac4471942cc141f9ca1204e8ca90fe51d64736f6c63430008140033",
  "immutableReferences": {},
  "source": "// SPDX-License-Identifier: MIT\npragma solidity ^0.8.0;\n\nimport \"@openzeppelin/contracts/security/ReentrancyGuard.sol\";\nimport \"@openzeppelin/contracts/access/AccessControl.sol\";\nimport \"@openzeppelin/contracts/token/ERC20/IERC20.sol\";\n\n/**\n * @title IRewardCalculator\n * @dev Interface for reward calculation functions\n */\ninterface IRewardCalculator {\n    function calculateNodeReward(address node, uint256 validationScore, uint256 executionScore) external returns (uint256);\n    function calculateChannelReward(bytes32 channelId, uint256[] memory weights, uint256[] memory scalingFactors, uint256[] memory performances) external returns (uint256);\n    function calculateNodesReward(uint256 baseConstant, uint256[] memory performanceFactors, uint256 contributionScore) external view returns (uint256);\n    function calculateAuxiliaryReward(bytes32 componentId, uint256[] memory weights, uint256[] memory criticalityFactors, uint256[] memory performances) external returns (uint256);\n}\n\n/**\n * @title RewardBase\n * @dev Base contract with common reward functionality\n */\ncontract RewardBase {\n    // Precision for fixed-point arithmetic\n    uint256 internal constant PRECISION = 1e18;\n    \n    // Weight constants\n    uint256 public constant W1_VALIDATION = 600; // 0.6 * PRECISION\n    uint256 public constant W2_EXECUTION = 400;  // 0.4 * PRECISION\n\n    function multiplyFixedPoint(uint256 a, uint256 b) internal pure returns (uint256) {\n        return (a * b) / PRECISION;\n    }\n    \n    function addFixedPoint(uint256 a, uint256 b) internal pure returns (uint256) {\n        return a + b;\n    }\n}\n\n/**\n * @title RewardCalculator\n * @dev Handles reward calculations for different components\n */\ncontract RewardCalculator is RewardBase, IRewardCalculator {\n    struct NodeReward {\n        uint256 validationReward;\n        uint256 executionReward;\n        uint256 totalReward;\n        bool isPaid;\n    }\n    \n    struct ChannelReward {\n        uint256 baseReward;\n        uint256 performanceMultiplier;\n        uint256 totalReward;\n        bool isPaid;\n    }\n    \n    struct AuxiliaryReward {\n        uint256 componentReward;\n        uint256 criticalityFactor;\n        uint256 totalReward;\n        bool isPaid;\n    }\n    \n    // Reward mappings\n    mapping(address => NodeReward) public nodeRewards;\n    mapping(bytes32 => ChannelReward) public channelRewards;\n    mapping(bytes32 => AuxiliaryReward) public auxiliaryRewards;\n    \n    /**\n     * @dev Calculates individual node reward\n     * Di = w1 * Validation + w2 * Execution\n     */\n    function calculateNodeReward(\n        address node,\n        uint256 validationScore,\n        uint256 executionScore\n    ) external override returns (uint256) {\n        uint256 validationComponent = multiplyFixedPoint(validationScore, W1_VALIDATION);\n        uint256 executionComponent = multiplyFixedPoint(executionScore, W2_EXECUTION);\n        \n        uint256 totalReward = addFixedPoint(validationComponent, executionComponent);\n        \n        nodeRewards[node] = NodeReward({\n            validationReward: validationComponent,\n            executionReward: executionComponent,\n            totalReward: totalReward,\n            isPaid: false\n        });\n        \n        return totalReward;\n    }\n\n    function calculatePerformanceMultiplier(\n        uint256[] memory performances\n    ) internal pure returns (uint256) {\n        if (performances.length == 0) return 0;\n        \n        uint256 sum = 0;\n        for (uint256 i = 0; i < performances.length; i++) {\n            sum = addFixedPoint(sum, performances[i]);\n        }\n        return sum / performances.length;\n    }\n    \n    function calculateCriticalityFactor(\n        uint256[] memory factors\n    ) internal pure returns (uint256) {\n        if (factors.length == 0) return 0;\n        \n        uint256 product = PRECISION;\n        for (uint256 i = 0; i < factors.length; i++) {\n            product = multiplyFixedPoint(product, factors[i]);\n        }\n        return product;\n    }\n\n    function calculateChannelReward(\n        bytes32 channelId,\n        uint256[] memory weights,\n        uint256[] memory scalingFactors,\n        uint256[] memory performances\n    ) external override returns (uint256) {\n        require(\n            weights.length == scalingFactors.length &&\n            weights.length == performances.length,\n            \"Array lengths mismatch\"\n        );\n        \n        uint256 totalReward = 0;\n        \n        for (uint256 i = 0; i < weights.length; i++) {\n            uint256 componentReward = multiplyFixedPoint(\n                multiplyFixedPoint(weights[i], scalingFactors[i]),\n                performances[i]\n            );\n            totalReward = addFixedPoint(totalReward, componentReward);\n        }\n        \n        channelRewards[channelId] = ChannelReward({\n            baseReward: totalReward,\n            performanceMultiplier: calculatePerformanceMultiplier(performances),\n            totalReward: totalReward,\n            isPaid: false\n        });\n        \n        return totalReward;\n    }\n\n    function calculateNodesReward(\n        uint256 baseConstant,\n        uint256[] memory performanceFactors,\n        uint256 contributionScore\n    ) external pure override returns (uint256) {\n        uint256 performance = PRECISION;\n        \n        for (uint256 i = 0; i < performanceFactors.length; i++) {\n            performance = multiplyFixedPoint(performance, performanceFactors[i]);\n        }\n        \n        return multiplyFixedPoint(\n            multiplyFixedPoint(baseConstant, performance),\n            contributionScore\n        );\n    }\n\n    function calculateAuxiliaryReward(\n        bytes32 componentId,\n        uint256[] memory weights,\n        uint256[] memory criticalityFactors,\n        uint256[] memory performances\n    ) external override returns (uint256) {\n        require(\n            weights.length == criticalityFactors.length &&\n            weights.length == performances.length,\n            \"Array lengths mismatch\"\n        );\n        \n        uint256 totalReward = 0;\n        \n        for (uint256 i = 0; i < weights.length; i++) {\n            uint256 componentReward = multiplyFixedPoint(\n                multiplyFixedPoint(weights[i], criticalityFactors[i]),\n                performances[i]\n            );\n            totalReward = addFixedPoint(totalReward, componentReward);\n        }\n        \n        auxiliaryRewards[componentId] = AuxiliaryReward({\n            componentReward: totalReward,\n            criticalityFactor: calculateCriticalityFactor(criticalityFactors),\n            totalReward: totalReward,\n            isPaid: false\n        });\n        \n        return totalReward;\n    }\n}\n\n/**\n * @title RewardDistributor\n * @dev Manages the distribution of rewards across different components\n */\ncontract RewardDistributor is RewardCalculator, ReentrancyGuard, AccessControl {\n    IERC20 public rewardToken;\n    \n    struct DistributionState {\n        uint256 channelShare;\n        uint256 nodeShare;\n        uint256 auxiliaryShare;\n        uint256 totalDistributed;\n        bool isComplete;\n    }\n    \n    mapping(bytes32 => DistributionState) public distributions;\n    \n    event RewardDistributed(\n        bytes32 indexed distributionId,\n        address recipient,\n        uint256 amount\n    );\n    \n    constructor(address _rewardToken) {\n        rewardToken = IERC20(_rewardToken);\n        _setupRole(DEFAULT_ADMIN_ROLE, msg.sender);\n    }\n    \n    function distributeRewards(\n        bytes32 distributionId,\n        address[] memory recipients,\n        uint256[] memory amounts\n    ) external nonReentrant onlyRole(DEFAULT_ADMIN_ROLE) {\n        require(\n            recipients.length == amounts.length,\n            \"Recipients and amounts length mismatch\"\n        );\n        \n        DistributionState storage distribution = distributions[distributionId];\n        require(!distribution.isComplete, \"Distribution already complete\");\n        \n        uint256 totalAmount = 0;\n        for (uint256 i = 0; i < amounts.length; i++) {\n            totalAmount = addFixedPoint(totalAmount, amounts[i]);\n        }\n        \n        require(\n            rewardToken.balanceOf(address(this)) >= totalAmount,\n            \"Insufficient rewards\"\n        );\n        \n        for (uint256 i = 0; i < recipients.length; i++) {\n            require(\n                rewardToken.transfer(recipients[i], amounts[i]),\n                \"Transfer failed\"\n            );\n            emit RewardDistributed(distributionId, recipients[i], amounts[i]);\n        }\n        \n        distribution.totalDistributed = totalAmount;\n        distribution.isComplete = true;\n    }\n}",
  "sourcePath": "C:\\Users\\Bonsu\\Documents\\CLEANER PRODUCTION\\renewalclimateproject\\ClimateProjectFull\\contracts\\passchain\\RewardCalculator.sol",
  "compiler": {
    "name": "solc",
    "version": "0.8.20+commit.a1b79de6.Emscripten.clang"
  },
  "schemaVersion": "3.4.16",
  "updatedAt": "2025-04-14T09:45:11.289Z",
  "devdoc": {
    "details": "Base contract with common reward functionality",
    "kind": "dev",
    "methods": {},
    "title": "RewardBase",
    "version": 1
  },
  "userdoc": {
    "kind": "user",
    "methods": {},
    "version": 1
  }
}