{
  "contractName": "RewardBase",
  "abi": [
    {
      "inputs": [],
      "name": "W1_VALIDATION",
      "outputs": [
        {
          "internalType": "uint256",
          "name": "",
          "type": "uint256"
        }
      ],
      "stateMutability": "view",
      "type": "function"
    },
    {
      "inputs": [],
      "name": "W2_EXECUTION",
      "outputs": [
        {
          "internalType": "uint256",
          "name": "",
          "type": "uint256"
        }
      ],
      "stateMutability": "view",
      "type": "function"
    }
  ],
  "bytecode": "0x6080604052348015600e575f80fd5b50608c8061001b5f395ff3fe6080604052348015600e575f80fd5b50600436106030575f3560e01c80639604d6041460345780639b1ff02414604e575b5f80fd5b603c61019081565b60405190815260200160405180910390f35b603c6102588156fea26469706673582212205b8af7c38406c1492bb7dc22edf0b6aaea761fa6db70d3067ddf50713294323864736f6c63430008140033",
  "immutableReferences": {},
  "source": "// SPDX-License-Identifier: MIT\r\npragma solidity ^0.8.0;\r\n\r\nimport \"@openzeppelin/contracts/security/ReentrancyGuard.sol\";\r\nimport \"@openzeppelin/contracts/access/AccessControl.sol\";\r\nimport \"@openzeppelin/contracts/token/ERC20/IERC20.sol\";\r\n\r\n/**\r\n * @title IRewardCalculator\r\n * @dev Interface for reward calculation functions\r\n */\r\ninterface IRewardCalculator {\r\n    function calculateNodeReward(address node, uint256 validationScore, uint256 executionScore) external returns (uint256);\r\n    function calculateChannelReward(bytes32 channelId, uint256[] memory weights, uint256[] memory scalingFactors, uint256[] memory performances) external returns (uint256);\r\n    function calculateNodesReward(uint256 baseConstant, uint256[] memory performanceFactors, uint256 contributionScore) external view returns (uint256);\r\n    function calculateAuxiliaryReward(bytes32 componentId, uint256[] memory weights, uint256[] memory criticalityFactors, uint256[] memory performances) external returns (uint256);\r\n}\r\n\r\n/**\r\n * @title RewardBase\r\n * @dev Base contract with common reward functionality\r\n */\r\ncontract RewardBase {\r\n    // Precision for fixed-point arithmetic\r\n    uint256 internal constant PRECISION = 1e18;\r\n    \r\n    // Weight constants\r\n    uint256 public constant W1_VALIDATION = 600; // 0.6 * PRECISION\r\n    uint256 public constant W2_EXECUTION = 400;  // 0.4 * PRECISION\r\n\r\n    function multiplyFixedPoint(uint256 a, uint256 b) internal pure returns (uint256) {\r\n        return (a * b) / PRECISION;\r\n    }\r\n    \r\n    function addFixedPoint(uint256 a, uint256 b) internal pure returns (uint256) {\r\n        return a + b;\r\n    }\r\n}\r\n\r\n/**\r\n * @title RewardCalculator\r\n * @dev Handles reward calculations for different components\r\n */\r\ncontract RewardCalculator is RewardBase, IRewardCalculator {\r\n    struct NodeReward {\r\n        uint256 validationReward;\r\n        uint256 executionReward;\r\n        uint256 totalReward;\r\n        bool isPaid;\r\n    }\r\n    \r\n    struct ChannelReward {\r\n        uint256 baseReward;\r\n        uint256 performanceMultiplier;\r\n        uint256 totalReward;\r\n        bool isPaid;\r\n    }\r\n    \r\n    struct AuxiliaryReward {\r\n        uint256 componentReward;\r\n        uint256 criticalityFactor;\r\n        uint256 totalReward;\r\n        bool isPaid;\r\n    }\r\n    \r\n    // Reward mappings\r\n    mapping(address => NodeReward) public nodeRewards;\r\n    mapping(bytes32 => ChannelReward) public channelRewards;\r\n    mapping(bytes32 => AuxiliaryReward) public auxiliaryRewards;\r\n    \r\n    /**\r\n     * @dev Calculates individual node reward\r\n     * Di = w1 * Validation + w2 * Execution\r\n     */\r\n    function calculateNodeReward(\r\n        address node,\r\n        uint256 validationScore,\r\n        uint256 executionScore\r\n    ) external override returns (uint256) {\r\n        uint256 validationComponent = multiplyFixedPoint(validationScore, W1_VALIDATION);\r\n        uint256 executionComponent = multiplyFixedPoint(executionScore, W2_EXECUTION);\r\n        \r\n        uint256 totalReward = addFixedPoint(validationComponent, executionComponent);\r\n        \r\n        nodeRewards[node] = NodeReward({\r\n            validationReward: validationComponent,\r\n            executionReward: executionComponent,\r\n            totalReward: totalReward,\r\n            isPaid: false\r\n        });\r\n        \r\n        return totalReward;\r\n    }\r\n\r\n    function calculatePerformanceMultiplier(\r\n        uint256[] memory performances\r\n    ) internal pure returns (uint256) {\r\n        if (performances.length == 0) return 0;\r\n        \r\n        uint256 sum = 0;\r\n        for (uint256 i = 0; i < performances.length; i++) {\r\n            sum = addFixedPoint(sum, performances[i]);\r\n        }\r\n        return sum / performances.length;\r\n    }\r\n    \r\n    function calculateCriticalityFactor(\r\n        uint256[] memory factors\r\n    ) internal pure returns (uint256) {\r\n        if (factors.length == 0) return 0;\r\n        \r\n        uint256 product = PRECISION;\r\n        for (uint256 i = 0; i < factors.length; i++) {\r\n            product = multiplyFixedPoint(product, factors[i]);\r\n        }\r\n        return product;\r\n    }\r\n\r\n    function calculateChannelReward(\r\n        bytes32 channelId,\r\n        uint256[] memory weights,\r\n        uint256[] memory scalingFactors,\r\n        uint256[] memory performances\r\n    ) external override returns (uint256) {\r\n        require(\r\n            weights.length == scalingFactors.length &&\r\n            weights.length == performances.length,\r\n            \"Array lengths mismatch\"\r\n        );\r\n        \r\n        uint256 totalReward = 0;\r\n        \r\n        for (uint256 i = 0; i < weights.length; i++) {\r\n            uint256 componentReward = multiplyFixedPoint(\r\n                multiplyFixedPoint(weights[i], scalingFactors[i]),\r\n                performances[i]\r\n            );\r\n            totalReward = addFixedPoint(totalReward, componentReward);\r\n        }\r\n        \r\n        channelRewards[channelId] = ChannelReward({\r\n            baseReward: totalReward,\r\n            performanceMultiplier: calculatePerformanceMultiplier(performances),\r\n            totalReward: totalReward,\r\n            isPaid: false\r\n        });\r\n        \r\n        return totalReward;\r\n    }\r\n\r\n    function calculateNodesReward(\r\n        uint256 baseConstant,\r\n        uint256[] memory performanceFactors,\r\n        uint256 contributionScore\r\n    ) external pure override returns (uint256) {\r\n        uint256 performance = PRECISION;\r\n        \r\n        for (uint256 i = 0; i < performanceFactors.length; i++) {\r\n            performance = multiplyFixedPoint(performance, performanceFactors[i]);\r\n        }\r\n        \r\n        return multiplyFixedPoint(\r\n            multiplyFixedPoint(baseConstant, performance),\r\n            contributionScore\r\n        );\r\n    }\r\n\r\n    function calculateAuxiliaryReward(\r\n        bytes32 componentId,\r\n        uint256[] memory weights,\r\n        uint256[] memory criticalityFactors,\r\n        uint256[] memory performances\r\n    ) external override returns (uint256) {\r\n        require(\r\n            weights.length == criticalityFactors.length &&\r\n            weights.length == performances.length,\r\n            \"Array lengths mismatch\"\r\n        );\r\n        \r\n        uint256 totalReward = 0;\r\n        \r\n        for (uint256 i = 0; i < weights.length; i++) {\r\n            uint256 componentReward = multiplyFixedPoint(\r\n                multiplyFixedPoint(weights[i], criticalityFactors[i]),\r\n                performances[i]\r\n            );\r\n            totalReward = addFixedPoint(totalReward, componentReward);\r\n        }\r\n        \r\n        auxiliaryRewards[componentId] = AuxiliaryReward({\r\n            componentReward: totalReward,\r\n            criticalityFactor: calculateCriticalityFactor(criticalityFactors),\r\n            totalReward: totalReward,\r\n            isPaid: false\r\n        });\r\n        \r\n        return totalReward;\r\n    }\r\n}\r\n\r\n/**\r\n * @title RewardDistributor\r\n * @dev Manages the distribution of rewards across different components\r\n */\r\ncontract RewardDistributor is RewardCalculator, ReentrancyGuard, AccessControl {\r\n    IERC20 public rewardToken;\r\n    \r\n    struct DistributionState {\r\n        uint256 channelShare;\r\n        uint256 nodeShare;\r\n        uint256 auxiliaryShare;\r\n        uint256 totalDistributed;\r\n        bool isComplete;\r\n    }\r\n    \r\n    mapping(bytes32 => DistributionState) public distributions;\r\n    \r\n    event RewardDistributed(\r\n        bytes32 indexed distributionId,\r\n        address recipient,\r\n        uint256 amount\r\n    );\r\n    \r\n    constructor(address _rewardToken) {\r\n        rewardToken = IERC20(_rewardToken);\r\n        _setupRole(DEFAULT_ADMIN_ROLE, msg.sender);\r\n    }\r\n    \r\n    function distributeRewards(\r\n        bytes32 distributionId,\r\n        address[] memory recipients,\r\n        uint256[] memory amounts\r\n    ) external nonReentrant onlyRole(DEFAULT_ADMIN_ROLE) {\r\n        require(\r\n            recipients.length == amounts.length,\r\n            \"Recipients and amounts length mismatch\"\r\n        );\r\n        \r\n        DistributionState storage distribution = distributions[distributionId];\r\n        require(!distribution.isComplete, \"Distribution already complete\");\r\n        \r\n        uint256 totalAmount = 0;\r\n        for (uint256 i = 0; i < amounts.length; i++) {\r\n            totalAmount = addFixedPoint(totalAmount, amounts[i]);\r\n        }\r\n        \r\n        require(\r\n            rewardToken.balanceOf(address(this)) >= totalAmount,\r\n            \"Insufficient rewards\"\r\n        );\r\n        \r\n        for (uint256 i = 0; i < recipients.length; i++) {\r\n            require(\r\n                rewardToken.transfer(recipients[i], amounts[i]),\r\n                \"Transfer failed\"\r\n            );\r\n            emit RewardDistributed(distributionId, recipients[i], amounts[i]);\r\n        }\r\n        \r\n        distribution.totalDistributed = totalAmount;\r\n        distribution.isComplete = true;\r\n    }\r\n}",
  "sourcePath": "C:\\Users\\Bonsu\\Documents\\Blockchain Multi Industrial Service Center\\Blockchain MultiIndustrial Projects\\BlockchainMultiIndustryRepo\\contracts\\passchain\\RewardCalculator.sol",
  "compiler": {
    "name": "solc",
    "version": "0.8.20+commit.a1b79de6.Emscripten.clang"
  },
  "schemaVersion": "3.4.16",
  "updatedAt": "2025-04-16T14:10:38.469Z",
  "devdoc": {
    "details": "Base contract with common reward functionality",
    "kind": "dev",
    "methods": {},
    "title": "RewardBase",
    "version": 1
  },
  "userdoc": {
    "kind": "user",
    "methods": {},
    "version": 1
  }
}