{
  "contractName": "SequencePathRouter",
  "abi": [
    {
      "inputs": [
        {
          "internalType": "address",
          "name": "_nidRegistryAddress",
          "type": "address"
        },
        {
          "internalType": "address",
          "name": "_niasRegistryAddress",
          "type": "address"
        },
        {
          "internalType": "address",
          "name": "_abatlTranslationAddress",
          "type": "address"
        }
      ],
      "stateMutability": "nonpayable",
      "type": "constructor"
    },
    {
      "anonymous": false,
      "inputs": [
        {
          "indexed": true,
          "internalType": "bytes32",
          "name": "pathId",
          "type": "bytes32"
        },
        {
          "indexed": false,
          "internalType": "uint256",
          "name": "disjointPathIndex",
          "type": "uint256"
        }
      ],
      "name": "DisjointPathCreated",
      "type": "event"
    },
    {
      "anonymous": false,
      "inputs": [
        {
          "indexed": true,
          "internalType": "bytes32",
          "name": "nodeId",
          "type": "bytes32"
        },
        {
          "indexed": false,
          "internalType": "uint256",
          "name": "successRate",
          "type": "uint256"
        }
      ],
      "name": "NodePerformanceUpdated",
      "type": "event"
    },
    {
      "anonymous": false,
      "inputs": [
        {
          "indexed": true,
          "internalType": "bytes32",
          "name": "pathId",
          "type": "bytes32"
        },
        {
          "indexed": false,
          "internalType": "bytes32",
          "name": "sourceNID",
          "type": "bytes32"
        },
        {
          "indexed": false,
          "internalType": "bytes32",
          "name": "destinationNIAS",
          "type": "bytes32"
        }
      ],
      "name": "PathCreated",
      "type": "event"
    },
    {
      "anonymous": false,
      "inputs": [
        {
          "indexed": true,
          "internalType": "bytes32",
          "name": "pathId",
          "type": "bytes32"
        },
        {
          "indexed": false,
          "internalType": "bytes32",
          "name": "failedNode",
          "type": "bytes32"
        },
        {
          "indexed": false,
          "internalType": "bytes32[]",
          "name": "newSequence",
          "type": "bytes32[]"
        }
      ],
      "name": "PathRerouted",
      "type": "event"
    },
    {
      "anonymous": false,
      "inputs": [
        {
          "indexed": true,
          "internalType": "bytes32",
          "name": "pathId",
          "type": "bytes32"
        },
        {
          "indexed": false,
          "internalType": "uint8",
          "name": "status",
          "type": "uint8"
        }
      ],
      "name": "PathStatusChanged",
      "type": "event"
    },
    {
      "anonymous": false,
      "inputs": [
        {
          "indexed": true,
          "internalType": "bytes32",
          "name": "pathId",
          "type": "bytes32"
        },
        {
          "indexed": false,
          "internalType": "bytes32[]",
          "name": "pathSequence",
          "type": "bytes32[]"
        }
      ],
      "name": "PathUpdated",
      "type": "event"
    },
    {
      "anonymous": false,
      "inputs": [
        {
          "indexed": true,
          "internalType": "bytes32",
          "name": "pathId",
          "type": "bytes32"
        },
        {
          "indexed": false,
          "internalType": "uint256",
          "name": "endTime",
          "type": "uint256"
        },
        {
          "indexed": false,
          "internalType": "uint256",
          "name": "packetsLost",
          "type": "uint256"
        }
      ],
      "name": "TransmissionCompleted",
      "type": "event"
    },
    {
      "anonymous": false,
      "inputs": [
        {
          "indexed": true,
          "internalType": "bytes32",
          "name": "pathId",
          "type": "bytes32"
        },
        {
          "indexed": false,
          "internalType": "uint256",
          "name": "startTime",
          "type": "uint256"
        }
      ],
      "name": "TransmissionStarted",
      "type": "event"
    },
    {
      "inputs": [],
      "name": "abatlTranslation",
      "outputs": [
        {
          "internalType": "contract ABATLTranslation",
          "name": "",
          "type": "address"
        }
      ],
      "stateMutability": "view",
      "type": "function",
      "constant": true
    },
    {
      "inputs": [
        {
          "internalType": "uint256",
          "name": "",
          "type": "uint256"
        }
      ],
      "name": "allPathIds",
      "outputs": [
        {
          "internalType": "bytes32",
          "name": "",
          "type": "bytes32"
        }
      ],
      "stateMutability": "view",
      "type": "function",
      "constant": true
    },
    {
      "inputs": [
        {
          "internalType": "bytes32",
          "name": "",
          "type": "bytes32"
        },
        {
          "internalType": "uint256",
          "name": "",
          "type": "uint256"
        }
      ],
      "name": "disjointPaths",
      "outputs": [
        {
          "internalType": "bytes32",
          "name": "pathId",
          "type": "bytes32"
        },
        {
          "internalType": "uint256",
          "name": "creationTime",
          "type": "uint256"
        },
        {
          "internalType": "bool",
          "name": "isActive",
          "type": "bool"
        }
      ],
      "stateMutability": "view",
      "type": "function",
      "constant": true
    },
    {
      "inputs": [],
      "name": "niasRegistry",
      "outputs": [
        {
          "internalType": "contract NIASRegistry",
          "name": "",
          "type": "address"
        }
      ],
      "stateMutability": "view",
      "type": "function",
      "constant": true
    },
    {
      "inputs": [],
      "name": "nidRegistry",
      "outputs": [
        {
          "internalType": "contract NIDRegistry",
          "name": "",
          "type": "address"
        }
      ],
      "stateMutability": "view",
      "type": "function",
      "constant": true
    },
    {
      "inputs": [
        {
          "internalType": "bytes32",
          "name": "",
          "type": "bytes32"
        }
      ],
      "name": "nodePacketCount",
      "outputs": [
        {
          "internalType": "uint256",
          "name": "",
          "type": "uint256"
        }
      ],
      "stateMutability": "view",
      "type": "function",
      "constant": true
    },
    {
      "inputs": [
        {
          "internalType": "bytes32",
          "name": "",
          "type": "bytes32"
        }
      ],
      "name": "nodeSuccessRate",
      "outputs": [
        {
          "internalType": "uint256",
          "name": "",
          "type": "uint256"
        }
      ],
      "stateMutability": "view",
      "type": "function",
      "constant": true
    },
    {
      "inputs": [
        {
          "internalType": "bytes32",
          "name": "",
          "type": "bytes32"
        },
        {
          "internalType": "uint256",
          "name": "",
          "type": "uint256"
        }
      ],
      "name": "nodeToActivePaths",
      "outputs": [
        {
          "internalType": "bytes32",
          "name": "",
          "type": "bytes32"
        }
      ],
      "stateMutability": "view",
      "type": "function",
      "constant": true
    },
    {
      "inputs": [
        {
          "internalType": "bytes32",
          "name": "",
          "type": "bytes32"
        }
      ],
      "name": "pathStatus",
      "outputs": [
        {
          "internalType": "uint256",
          "name": "startTime",
          "type": "uint256"
        },
        {
          "internalType": "uint256",
          "name": "endTime",
          "type": "uint256"
        },
        {
          "internalType": "uint256",
          "name": "packetsTotal",
          "type": "uint256"
        },
        {
          "internalType": "uint256",
          "name": "packetsLost",
          "type": "uint256"
        },
        {
          "internalType": "uint16",
          "name": "measuredLatency",
          "type": "uint16"
        },
        {
          "internalType": "uint8",
          "name": "securityLevel",
          "type": "uint8"
        },
        {
          "internalType": "bool",
          "name": "complianceCheck",
          "type": "bool"
        }
      ],
      "stateMutability": "view",
      "type": "function",
      "constant": true
    },
    {
      "inputs": [
        {
          "internalType": "bytes32",
          "name": "",
          "type": "bytes32"
        }
      ],
      "name": "paths",
      "outputs": [
        {
          "internalType": "bytes32",
          "name": "pathId",
          "type": "bytes32"
        },
        {
          "internalType": "bytes32",
          "name": "sourceNID",
          "type": "bytes32"
        },
        {
          "internalType": "bytes32",
          "name": "destinationNIAS",
          "type": "bytes32"
        },
        {
          "internalType": "bool",
          "name": "isActive",
          "type": "bool"
        },
        {
          "internalType": "uint256",
          "name": "creationTime",
          "type": "uint256"
        },
        {
          "internalType": "uint256",
          "name": "lastUpdated",
          "type": "uint256"
        },
        {
          "internalType": "uint8",
          "name": "pathStatus",
          "type": "uint8"
        },
        {
          "internalType": "string",
          "name": "serviceClass",
          "type": "string"
        }
      ],
      "stateMutability": "view",
      "type": "function",
      "constant": true
    },
    {
      "inputs": [
        {
          "internalType": "string",
          "name": "",
          "type": "string"
        },
        {
          "internalType": "uint256",
          "name": "",
          "type": "uint256"
        }
      ],
      "name": "pathsByService",
      "outputs": [
        {
          "internalType": "bytes32",
          "name": "",
          "type": "bytes32"
        }
      ],
      "stateMutability": "view",
      "type": "function",
      "constant": true
    },
    {
      "inputs": [
        {
          "internalType": "bytes32",
          "name": "_pathId",
          "type": "bytes32"
        },
        {
          "internalType": "bytes32",
          "name": "_sourceNID",
          "type": "bytes32"
        },
        {
          "internalType": "bytes32",
          "name": "_destinationNIAS",
          "type": "bytes32"
        },
        {
          "internalType": "bytes32[]",
          "name": "_pathSequence",
          "type": "bytes32[]"
        },
        {
          "internalType": "string",
          "name": "_serviceClass",
          "type": "string"
        }
      ],
      "name": "createPath",
      "outputs": [],
      "stateMutability": "nonpayable",
      "type": "function"
    },
    {
      "inputs": [
        {
          "internalType": "bytes32",
          "name": "_pathId",
          "type": "bytes32"
        },
        {
          "internalType": "bytes32[]",
          "name": "_disjointSequence",
          "type": "bytes32[]"
        }
      ],
      "name": "createDisjointPath",
      "outputs": [],
      "stateMutability": "nonpayable",
      "type": "function"
    },
    {
      "inputs": [
        {
          "internalType": "bytes32",
          "name": "_pathId",
          "type": "bytes32"
        },
        {
          "internalType": "uint256",
          "name": "_packetsTotal",
          "type": "uint256"
        },
        {
          "internalType": "uint8",
          "name": "_securityLevel",
          "type": "uint8"
        }
      ],
      "name": "startTransmission",
      "outputs": [],
      "stateMutability": "nonpayable",
      "type": "function"
    },
    {
      "inputs": [
        {
          "internalType": "bytes32",
          "name": "_pathId",
          "type": "bytes32"
        },
        {
          "internalType": "uint256",
          "name": "_packetsLost",
          "type": "uint256"
        },
        {
          "internalType": "uint16",
          "name": "_measuredLatency",
          "type": "uint16"
        },
        {
          "internalType": "bool",
          "name": "_complianceCheck",
          "type": "bool"
        }
      ],
      "name": "completeTransmission",
      "outputs": [],
      "stateMutability": "nonpayable",
      "type": "function"
    },
    {
      "inputs": [
        {
          "internalType": "bytes32",
          "name": "_pathId",
          "type": "bytes32"
        },
        {
          "internalType": "bytes32",
          "name": "_failedNodeId",
          "type": "bytes32"
        }
      ],
      "name": "reroutePath",
      "outputs": [],
      "stateMutability": "nonpayable",
      "type": "function"
    },
    {
      "inputs": [
        {
          "internalType": "bytes32",
          "name": "_nodeId",
          "type": "bytes32"
        }
      ],
      "name": "getNodePerformance",
      "outputs": [
        {
          "internalType": "uint256",
          "name": "successRate",
          "type": "uint256"
        },
        {
          "internalType": "uint256",
          "name": "packetCount",
          "type": "uint256"
        }
      ],
      "stateMutability": "view",
      "type": "function",
      "constant": true
    },
    {
      "inputs": [
        {
          "internalType": "string",
          "name": "_serviceClass",
          "type": "string"
        }
      ],
      "name": "getPathsByServiceClass",
      "outputs": [
        {
          "internalType": "bytes32[]",
          "name": "",
          "type": "bytes32[]"
        }
      ],
      "stateMutability": "view",
      "type": "function",
      "constant": true
    }
  ],
  "bytecode": "0x608060405234801562000010575f80fd5b506040516200249838038062002498833981016040819052620000339162000091565b5f80546001600160a01b039485166001600160a01b031991821617909155600180549385169382169390931790925560028054919093169116179055620000d8565b80516001600160a01b03811681146200008c575f80fd5b919050565b5f805f60608486031215620000a4575f80fd5b620000af8462000075565b9250620000bf6020850162000075565b9150620000cf6040850162000075565b90509250925092565b6123b280620000e65f395ff3fe608060405234801561000f575f80fd5b5060043610610111575f3560e01c806388cc21501161009e578063a488fdbd1161006e578063a488fdbd14610328578063af30219114610347578063cfb88f541461035a578063e6b712d71461036d578063f31dd9b71461038d575f80fd5b806388cc2150146102dc57806392f3d33a146102ef578063a1554fbe14610302578063a24b5f3814610315575f80fd5b8063331761f4116100e4578063331761f41461021857806369a4112b14610248578063741903671461025b578063772ecfd3146102885780637d752c03146102c9575f80fd5b806304067a26146101155780630cf8ee65146101455780630ecb02181461015a5780631de8504714610184575b5f80fd5b610128610123366004611cde565b6103a0565b60405161013c989796959493929190611d17565b60405180910390f35b610158610153366004611d84565b610472565b005b5f5461016c906001600160a01b031681565b6040516001600160a01b03909116815260200161013c565b6101da610192366004611cde565b600460208190525f91825260409091208054600182015460028301546003840154939094015491939092909161ffff81169060ff620100008204811691630100000090041687565b60408051978852602088019690965294860193909352606085019190915261ffff16608084015260ff1660a0830152151560c082015260e00161013c565b61022b610226366004611dbf565b6105f2565b60408051938452602084019290925215159082015260600161013c565b60025461016c906001600160a01b031681565b61027a610269366004611cde565b60076020525f908152604090205481565b60405190815260200161013c565b6102b4610296366004611cde565b5f908152600760209081526040808320546008909252909120549091565b6040805192835260208301919091520161013c565b60015461016c906001600160a01b031681565b61027a6102ea366004611dbf565b610633565b61027a6102fd366004611e90565b61065e565b610158610310366004611f4f565b610688565b610158610323366004611dbf565b610f90565b61027a610336366004611cde565b60086020525f908152604090205481565b61027a610355366004611cde565b611071565b610158610368366004611fda565b611090565b61038061037b366004612027565b6112aa565b60405161013c919061209a565b61015861039b3660046120b3565b611318565b60036020525f90815260409020805460018201546002830154600584015460068501546007860154600887015460098801805497989697959660ff958616969495939493909216926103f1906120f7565b80601f016020809104026020016040519081016040528092919081815260200182805461041d906120f7565b80156104685780601f1061043f57610100808354040283529160200191610468565b820191905f5260205f20905b81548152906001019060200180831161044b57829003601f168201915b5050505050905088565b5f8381526003602052604081206006015490036104aa5760405162461bcd60e51b81526004016104a19061212f565b60405180910390fd5b5f8381526003602052604090206005015460ff166104da5760405162461bcd60e51b81526004016104a19061215c565b5f8381526003602052604090206008015460ff161561053b5760405162461bcd60e51b815260206004820152601d60248201527f50617468206973206e6f7420696e2070656e64696e672073746174757300000060448201526064016104a1565b5f8381526003602090815260408083206008018054600160ff1990911617905560048083529281902042808255600282018790559301805462ff000019166201000060ff8716021790555191825284917f0b3fde0d2051be85a00170ca978f193e74d26335184e827a2d28bc5d0d65f554910160405180910390a26040516001815283907fa038aab0106d4f1af07cd6b44eef11ea0f1d6c2257aba54a56305b58eb1a5b14906020015b60405180910390a2505050565b6005602052815f5260405f20818154811061060b575f80fd5b5f91825260209091206004909102018054600282015460039092015490935090915060ff1683565b6006602052815f5260405f20818154811061064c575f80fd5b905f5260205f20015f91509150505481565b8151602081840181018051600982529282019185019190912091905280548290811061064c575f80fd5b5f85815260036020526040902060060154156106dc5760405162461bcd60e51b81526020600482015260136024820152725061746820616c72656164792065786973747360681b60448201526064016104a1565b5f5460405163fc35819760e01b8152600481018690526001600160a01b039091169063fc35819790602401602060405180830381865afa158015610722573d5f803e3d5ffd5b505050506040513d601f19601f820116820180604052508101906107469190612188565b6107925760405162461bcd60e51b815260206004820152601960248201527f536f75726365204e494420646f6573206e6f742065786973740000000000000060448201526064016104a1565b5f54604051630840733360e41b8152600481018690526001600160a01b0390911690638407333090602401602060405180830381865afa1580156107d8573d5f803e3d5ffd5b505050506040513d601f19601f820116820180604052508101906107fc9190612188565b6108485760405162461bcd60e51b815260206004820152601860248201527f536f75726365204e4944206973206e6f7420616374697665000000000000000060448201526064016104a1565b60015460405163a3fa4f8760e01b8152600481018590526001600160a01b039091169063a3fa4f8790602401602060405180830381865afa15801561088f573d5f803e3d5ffd5b505050506040513d601f19601f820116820180604052508101906108b39190612188565b6108ff5760405162461bcd60e51b815260206004820152601f60248201527f44657374696e6174696f6e204e49415320646f6573206e6f742065786973740060448201526064016104a1565b6001546040516313115b2360e11b8152600481018590526001600160a01b0390911690632622b64690602401602060405180830381865afa158015610946573d5f803e3d5ffd5b505050506040513d601f19601f8201168201806040525081019061096a9190612188565b6109b65760405162461bcd60e51b815260206004820152601e60248201527f44657374696e6174696f6e204e494153206973206e6f7420616374697665000060448201526064016104a1565b600282511015610a1f5760405162461bcd60e51b815260206004820152602e60248201527f50617468206d7573742068617665206174206c6561737420736f75726365206160448201526d3732103232b9ba34b730ba34b7b760911b60648201526084016104a1565b83825f81518110610a3257610a326121a3565b602002602001015114610a875760405162461bcd60e51b815260206004820152601f60248201527f50617468206d757374207374617274207769746820736f75726365204e49440060448201526064016104a1565b828260018451610a9791906121cb565b81518110610aa757610aa76121a3565b602002602001015114610b085760405162461bcd60e51b815260206004820152602360248201527f50617468206d75737420656e6420776974682064657374696e6174696f6e204e60448201526249415360e81b60648201526084016104a1565b60015b60018351610b1991906121cb565b811015610ce4575f5483516001600160a01b039091169063fc35819790859084908110610b4857610b486121a3565b60200260200101516040518263ffffffff1660e01b8152600401610b6e91815260200190565b602060405180830381865afa158015610b89573d5f803e3d5ffd5b505050506040513d601f19601f82011682018060405250810190610bad9190612188565b610bf95760405162461bcd60e51b815260206004820181905260248201527f496e7465726d656469617465206e6f646520646f6573206e6f7420657869737460448201526064016104a1565b5f5483516001600160a01b0390911690638407333090859084908110610c2157610c216121a3565b60200260200101516040518263ffffffff1660e01b8152600401610c4791815260200190565b602060405180830381865afa158015610c62573d5f803e3d5ffd5b505050506040513d601f19601f82011682018060405250810190610c869190612188565b610cd25760405162461bcd60e51b815260206004820152601f60248201527f496e7465726d656469617465206e6f6465206973206e6f74206163746976650060448201526064016104a1565b80610cdc816121de565b915050610b0b565b50604080516101408101825286815260208082018781528284018781526060840187815260808501889052600160a086018190524260c0870181905260e08701525f610100870181905261012087018990528c81526003808752979020865181559351908401559051600283015551805193949193610d6b93928501929190910190611c81565b5060808201518051610d87916004840191602090910190611c81565b5060a082015160058201805491151560ff1992831617905560c0830151600683015560e0830151600783015561010083015160088301805460ff92909216919092161790556101208201516009820190610de19082612244565b50506040805160e0810182525f8082526020808301828152838501838152606085018481526080860185815260a0870186815260c088018781528f885260049687905289882098518955945160018981019190915593516002890155915160038801555195909301805493519251151563010000000263ff0000001960ff94909416620100000262ffffff1990951661ffff97909716969096179390931791909116939093179055600a8054928301815590527fc65a7bb8d6351c1cf70c95a316cc6a92839c986682d98bc35f958f4883f9d2a8018790555160099150610ec9908390612300565b9081526040516020918190038201902080546001810182555f9182529181209091018690555b8251811015610f4d5760065f848381518110610f0d57610f0d6121a3565b6020908102919091018101518252818101929092526040015f90812080546001810182559082529190200186905580610f45816121de565b915050610eef565b50604080518581526020810185905286917fa7d250a8557d68e1c7c0ab9233bcde3f0c726c8a8661162084502d6b87b97d1c910160405180910390a25050505050565b5f828152600360205260408120600601549003610fbf5760405162461bcd60e51b81526004016104a19061212f565b5f8281526003602052604090206005015460ff16610fef5760405162461bcd60e51b81526004016104a19061215c565b5f610ffa8383611978565b6020808201515f868152600380845260409091208251949550611024949101929190910190611c81565b505f8381526003602090815260409182902042600790910155820151905184917f206bed0a8d892ed8bb72c59cbcfa62a879cb40ffed6291dc718efcb8167deb35916105e591869161231b565b600a8181548110611080575f80fd5b5f91825260209091200154905081565b5f8481526003602052604081206006015490036110bf5760405162461bcd60e51b81526004016104a19061212f565b5f8481526003602052604090206008015460ff166001146111225760405162461bcd60e51b815260206004820152601760248201527f50617468206973206e6f7420696e2070726f677265737300000000000000000060448201526064016104a1565b8061112e576003611131565b60025b5f85815260036020818152604080842060088101805460ff191660ff979097169690961790955560048083528185204260018201558085018a9055908101805461ffff8a1663ff00ffff199091161763010000008915150217905583835294909201805483518184028101840190945280845290918301828280156111d357602002820191905f5260205f20905b8154815260200190600101908083116111bf575b505050505090505f5b815181101561121a576112088282815181106111fa576111fa6121a3565b602002602001015185611b85565b80611212816121de565b9150506111dc565b50604080514281526020810187905287917fba70a009fd72515d5af78a0a7a7914e1ad5ef74ea1cac2220865aa10a3cea8e0910160405180910390a25f8681526003602090815260409182902060080154915160ff909216825287917fa038aab0106d4f1af07cd6b44eef11ea0f1d6c2257aba54a56305b58eb1a5b1491015b60405180910390a2505050505050565b60606009826040516112bc9190612300565b908152604080519182900360209081018320805480830285018301909352828452919083018282801561130c57602002820191905f5260205f20905b8154815260200190600101908083116112f8575b50505050509050919050565b5f8281526003602052604081206006015490036113475760405162461bcd60e51b81526004016104a19061212f565b5f8281526003602052604090206005015460ff166113775760405162461bcd60e51b81526004016104a19061215c565b5f828152600360205260409020600181015460029182015483519192909110156114095760405162461bcd60e51b815260206004820152603760248201527f4469736a6f696e742070617468206d7573742068617665206174206c6561737460448201527f20736f7572636520616e642064657374696e6174696f6e00000000000000000060648201526084016104a1565b81835f8151811061141c5761141c6121a3565b6020026020010151146114825760405162461bcd60e51b815260206004820152602860248201527f4469736a6f696e742070617468206d757374207374617274207769746820736f6044820152671d5c98d94813925160c21b60648201526084016104a1565b80836001855161149291906121cb565b815181106114a2576114a26121a3565b60200260200101511461150c5760405162461bcd60e51b815260206004820152602c60248201527f4469736a6f696e742070617468206d75737420656e642077697468206465737460448201526b696e6174696f6e204e49415360a01b60648201526084016104a1565b60015b6001845161151d91906121cb565b8110156116e8575f5484516001600160a01b039091169063fc3581979086908490811061154c5761154c6121a3565b60200260200101516040518263ffffffff1660e01b815260040161157291815260200190565b602060405180830381865afa15801561158d573d5f803e3d5ffd5b505050506040513d601f19601f820116820180604052508101906115b19190612188565b6115fd5760405162461bcd60e51b815260206004820181905260248201527f496e7465726d656469617465206e6f646520646f6573206e6f7420657869737460448201526064016104a1565b5f5484516001600160a01b0390911690638407333090869084908110611625576116256121a3565b60200260200101516040518263ffffffff1660e01b815260040161164b91815260200190565b602060405180830381865afa158015611666573d5f803e3d5ffd5b505050506040513d601f19601f8201168201806040525081019061168a9190612188565b6116d65760405162461bcd60e51b815260206004820152601f60248201527f496e7465726d656469617465206e6f6465206973206e6f74206163746976650060448201526064016104a1565b806116e0816121de565b91505061150f565b505f8481526003602090815260408083206004018054825181850281018501909352808352919290919083018282801561173f57602002820191905f5260205f20905b81548152602001906001019080831161172b575b50939450600193505050505b6001855161175991906121cb565b8110156118465760015b6001835161177191906121cb565b8110156118335782818151811061178a5761178a6121a3565b60200260200101518683815181106117a4576117a46121a3565b602002602001015103611821576040805162461bcd60e51b81526020600482015260248101919091527f4469736a6f696e7420706174682063616e6e6f7420736861726520696e74657260448201527f6d656469617465206e6f6465732077697468206f726967696e616c207061746860648201526084016104a1565b8061182b816121de565b915050611763565b508061183e816121de565b91505061174b565b5060408051608081018252868152602080820187815242838501526001606084018190525f8a81526005845294852080548083018255908652948390208451600490960201948555905180519394859490936118a6938501920190611c81565b50604082015160028201556060909101516003909101805460ff19169115159190911790555f5b855181101561192b5760065f8783815181106118eb576118eb6121a3565b6020908102919091018101518252818101929092526040015f90812080546001810182559082529190200187905580611923816121de565b9150506118cd565b505f8681526005602052604090205486907f27c5ef52319885b11247752aec685b79c69459f50c1063f4be6f3a327d26b4879061196a906001906121cb565b60405190815260200161129a565b604080516080810182525f808252606060208301819052928201819052918101919091525f838152600560205260408120905b8154811015611b365760015f5b8383815481106119ca576119ca6121a3565b905f5260205f20906004020160010180549050811015611a3f57858484815481106119f7576119f76121a3565b905f5260205f2090600402016001018281548110611a1757611a176121a3565b905f5260205f20015403611a2d575f9150611a3f565b80611a37816121de565b9150506119b8565b50808015611a715750828281548110611a5a57611a5a6121a3565b5f91825260209091206003600490920201015460ff165b15611b2357828281548110611a8857611a886121a3565b905f5260205f2090600402016040518060800160405290815f820154815260200160018201805480602002602001604051908101604052809291908181526020018280548015611af557602002820191905f5260205f20905b815481526020019060010190808311611ae1575b50505091835250506002820154602082015260039091015460ff1615156040909101529350611b7f92505050565b5080611b2e816121de565b9150506119ab565b5060405162461bcd60e51b815260206004820152601d60248201527f4e6f20616c7465726e6174697665207061746820617661696c61626c6500000060448201526064016104a1565b92915050565b5f828152600860205260408120805491611b9e836121de565b90915550505f8281526007602052604081205490818103611bd15782611bc4575f611bc7565b60645b60ff169050611c2f565b5f8481526008602052604090205483611bea575f611bed565b60645b60ff16600160085f8881526020019081526020015f2054611c0e91906121cb565b611c189085612333565b611c22919061234a565b611c2c919061235d565b90505b5f84815260076020526040908190208290555184907f96b29c1594a4c2177a8559b3f73f83ca7609c8c388ae47a676095dbc0ac81b0290611c739084815260200190565b60405180910390a250505050565b828054828255905f5260205f20908101928215611cba579160200282015b82811115611cba578251825591602001919060010190611c9f565b50611cc6929150611cca565b5090565b5b80821115611cc6575f8155600101611ccb565b5f60208284031215611cee575f80fd5b5035919050565b5f5b83811015611d0f578181015183820152602001611cf7565b50505f910152565b5f6101008a835289602084015288604084015287151560608401528660808401528560a084015260ff851660c08401528060e0840152835180828501526101209150611d698183860160208801611cf5565b601f01601f1916929092019091019998505050505050505050565b5f805f60608486031215611d96575f80fd5b8335925060208401359150604084013560ff81168114611db4575f80fd5b809150509250925092565b5f8060408385031215611dd0575f80fd5b50508035926020909101359150565b634e487b7160e01b5f52604160045260245ffd5b604051601f8201601f1916810167ffffffffffffffff81118282101715611e1c57611e1c611ddf565b604052919050565b5f82601f830112611e33575f80fd5b813567ffffffffffffffff811115611e4d57611e4d611ddf565b611e60601f8201601f1916602001611df3565b818152846020838601011115611e74575f80fd5b816020850160208301375f918101602001919091529392505050565b5f8060408385031215611ea1575f80fd5b823567ffffffffffffffff811115611eb7575f80fd5b611ec385828601611e24565b95602094909401359450505050565b5f82601f830112611ee1575f80fd5b8135602067ffffffffffffffff821115611efd57611efd611ddf565b8160051b611f0c828201611df3565b9283528481018201928281019087851115611f25575f80fd5b83870192505b84831015611f4457823582529183019190830190611f2b565b979650505050505050565b5f805f805f60a08688031215611f63575f80fd5b853594506020860135935060408601359250606086013567ffffffffffffffff80821115611f8f575f80fd5b611f9b89838a01611ed2565b93506080880135915080821115611fb0575f80fd5b50611fbd88828901611e24565b9150509295509295909350565b8015158114611fd7575f80fd5b50565b5f805f8060808587031215611fed575f80fd5b8435935060208501359250604085013561ffff8116811461200c575f80fd5b9150606085013561201c81611fca565b939692955090935050565b5f60208284031215612037575f80fd5b813567ffffffffffffffff81111561204d575f80fd5b61205984828501611e24565b949350505050565b5f8151808452602080850194508084015f5b8381101561208f57815187529582019590820190600101612073565b509495945050505050565b602081525f6120ac6020830184612061565b9392505050565b5f80604083850312156120c4575f80fd5b82359150602083013567ffffffffffffffff8111156120e1575f80fd5b6120ed85828601611ed2565b9150509250929050565b600181811c9082168061210b57607f821691505b60208210810361212957634e487b7160e01b5f52602260045260245ffd5b50919050565b60208082526013908201527214185d1a08191bd95cc81b9bdd08195e1a5cdd606a1b604082015260600190565b60208082526012908201527150617468206973206e6f742061637469766560701b604082015260600190565b5f60208284031215612198575f80fd5b81516120ac81611fca565b634e487b7160e01b5f52603260045260245ffd5b634e487b7160e01b5f52601160045260245ffd5b81810381811115611b7f57611b7f6121b7565b5f600182016121ef576121ef6121b7565b5060010190565b601f82111561223f575f81815260208120601f850160051c8101602086101561221c5750805b601f850160051c820191505b8181101561223b57828155600101612228565b5050505b505050565b815167ffffffffffffffff81111561225e5761225e611ddf565b6122728161226c84546120f7565b846121f6565b602080601f8311600181146122a5575f841561228e5750858301515b5f19600386901b1c1916600185901b17855561223b565b5f85815260208120601f198616915b828110156122d3578886015182559484019460019091019084016122b4565b50858210156122f057878501515f19600388901b60f8161c191681555b5050505050600190811b01905550565b5f8251612311818460208701611cf5565b9190910192915050565b828152604060208201525f6120596040830184612061565b8082028115828204841417611b7f57611b7f6121b7565b80820180821115611b7f57611b7f6121b7565b5f8261237757634e487b7160e01b5f52601260045260245ffd5b50049056fea26469706673582212202c95b31ae1d6f0dbd5ae75d7a5c62989b493a365e3333ef42f373f72898f9b6a64736f6c63430008140033",
  "immutableReferences": {},
  "source": "// SPDX-License-Identifier: MIT\npragma solidity ^0.8.17;\n\nimport \"./NIDRegistry.sol\";\nimport \"./NIASRegistry.sol\";\nimport \"./ABATLTranslation.sol\";\n\n/**\n * @title SequencePathRouter\n * @dev Contract for managing routing sequences between NIDs and NIAS\n */\ncontract SequencePathRouter {\n    // Path record structure\n    struct PathRecord {\n        bytes32 pathId;                  // Unique path identifier\n        bytes32 sourceNID;               // Source NID hash\n        bytes32 destinationNIAS;         // Destination NIAS hash\n        bytes32[] pathSequence;          // Complete node sequence for the path\n        bytes32[] originalPath;          // Original path (for record-keeping)\n        bool isActive;                   // Whether the path is active\n        uint256 creationTime;            // When the path was created\n        uint256 lastUpdated;             // Last time the path was updated\n        uint8 pathStatus;                // 0 = Pending, 1 = In Progress, 2 = Completed, 3 = Failed\n        string serviceClass;             // Type of service (e.g., \"VoIP\", \"Streaming\", \"Standard\")\n    }\n    \n    // Path status tracking\n    struct PathStatus {\n        uint256 startTime;               // When transmission started\n        uint256 endTime;                 // When transmission ended or expected to end\n        uint256 packetsTotal;            // Total number of packets in transmission\n        uint256 packetsLost;             // Number of packets lost in transmission\n        uint16 measuredLatency;          // Measured latency in ms\n        uint8 securityLevel;             // Security level of the path\n        bool complianceCheck;            // Whether the path meets QoS requirements\n    }\n\n    // Disjoint path structure \n    struct DisjointPath {\n        bytes32 pathId;                  // Reference to main path ID\n        bytes32[] pathSequence;          // Alternative sequence of nodes\n        uint256 creationTime;            // When the disjoint path was created\n        bool isActive;                   // Whether the disjoint path is active\n    }\n    \n    // Core registries\n    NIDRegistry public nidRegistry;\n    NIASRegistry public niasRegistry;\n    ABATLTranslation public abatlTranslation;\n    \n    // Path storage\n    mapping(bytes32 => PathRecord) public paths;                 // Path ID to path record\n    mapping(bytes32 => PathStatus) public pathStatus;            // Path ID to path status\n    mapping(bytes32 => DisjointPath[]) public disjointPaths;     // Path ID to disjoint paths\n    mapping(bytes32 => bytes32[]) public nodeToActivePaths;      // Node ID to active paths it's part of\n    mapping(bytes32 => uint256) public nodeSuccessRate;          // Node ID to success rate (0-100)\n    mapping(bytes32 => uint256) public nodePacketCount;          // Node ID to packet count processed\n    \n    // Path sequences by service class\n    mapping(string => bytes32[]) public pathsByService;\n    \n    // All path IDs\n    bytes32[] public allPathIds;\n    \n    // Events\n    event PathCreated(bytes32 indexed pathId, bytes32 sourceNID, bytes32 destinationNIAS);\n    event PathUpdated(bytes32 indexed pathId, bytes32[] pathSequence);\n    event PathStatusChanged(bytes32 indexed pathId, uint8 status);\n    event DisjointPathCreated(bytes32 indexed pathId, uint256 disjointPathIndex);\n    event NodePerformanceUpdated(bytes32 indexed nodeId, uint256 successRate);\n    event PathRerouted(bytes32 indexed pathId, bytes32 failedNode, bytes32[] newSequence);\n    event TransmissionStarted(bytes32 indexed pathId, uint256 startTime);\n    event TransmissionCompleted(bytes32 indexed pathId, uint256 endTime, uint256 packetsLost);\n    \n    /**\n     * @dev Constructor\n     * @param _nidRegistryAddress Address of NIDRegistry contract\n     * @param _niasRegistryAddress Address of NIASRegistry contract\n     * @param _abatlTranslationAddress Address of ABATLTranslation contract\n     */\n    constructor(\n        address _nidRegistryAddress,\n        address _niasRegistryAddress,\n        address _abatlTranslationAddress\n    ) {\n        nidRegistry = NIDRegistry(_nidRegistryAddress);\n        niasRegistry = NIASRegistry(_niasRegistryAddress);\n        abatlTranslation = ABATLTranslation(_abatlTranslationAddress);\n    }\n    \n    /**\n     * @dev Create a new path\n     * @param _pathId Unique path identifier\n     * @param _sourceNID Source NID hash\n     * @param _destinationNIAS Destination NIAS hash\n     * @param _pathSequence Complete node sequence for the path\n     * @param _serviceClass Type of service\n     */\n    function createPath(\n        bytes32 _pathId,\n        bytes32 _sourceNID,\n        bytes32 _destinationNIAS,\n        bytes32[] memory _pathSequence,\n        string memory _serviceClass\n    ) public {\n        // Verify path doesn't already exist\n        require(paths[_pathId].creationTime == 0, \"Path already exists\");\n        \n        // Verify source and destination exist and are active\n        require(nidRegistry.nodeExists(_sourceNID), \"Source NID does not exist\");\n        require(nidRegistry.isNodeActive(_sourceNID), \"Source NID is not active\");\n        require(niasRegistry.niasExists(_destinationNIAS), \"Destination NIAS does not exist\");\n        require(niasRegistry.isNIASActive(_destinationNIAS), \"Destination NIAS is not active\");\n        \n        // Verify path sequence starts with source NID and ends with destination NIAS\n        require(_pathSequence.length >= 2, \"Path must have at least source and destination\");\n        require(_pathSequence[0] == _sourceNID, \"Path must start with source NID\");\n        require(_pathSequence[_pathSequence.length - 1] == _destinationNIAS, \"Path must end with destination NIAS\");\n        \n        // Verify all nodes in path exist and are active\n        for (uint i = 1; i < _pathSequence.length - 1; i++) {\n            require(nidRegistry.nodeExists(_pathSequence[i]), \"Intermediate node does not exist\");\n            require(nidRegistry.isNodeActive(_pathSequence[i]), \"Intermediate node is not active\");\n        }\n        \n        // Create path record\n        paths[_pathId] = PathRecord({\n            pathId: _pathId,\n            sourceNID: _sourceNID,\n            destinationNIAS: _destinationNIAS,\n            pathSequence: _pathSequence,\n            originalPath: _pathSequence,\n            isActive: true,\n            creationTime: block.timestamp,\n            lastUpdated: block.timestamp,\n            pathStatus: 0, // Pending\n            serviceClass: _serviceClass\n        });\n        \n        // Initialize path status\n        pathStatus[_pathId] = PathStatus({\n            startTime: 0,\n            endTime: 0,\n            packetsTotal: 0,\n            packetsLost: 0,\n            measuredLatency: 0,\n            securityLevel: 0,\n            complianceCheck: false\n        });\n        \n        // Add path ID to lists\n        allPathIds.push(_pathId);\n        pathsByService[_serviceClass].push(_pathId);\n        \n        // Add path to node's active paths\n        for (uint i = 0; i < _pathSequence.length; i++) {\n            nodeToActivePaths[_pathSequence[i]].push(_pathId);\n        }\n        \n        emit PathCreated(_pathId, _sourceNID, _destinationNIAS);\n    }\n    \n    /**\n     * @dev Create a disjoint path as an alternative route\n     * @param _pathId Path ID to create disjoint path for\n     * @param _disjointSequence Disjoint path sequence\n     */\n    function createDisjointPath(bytes32 _pathId, bytes32[] memory _disjointSequence) public {\n        // Verify path exists and is active\n        require(paths[_pathId].creationTime != 0, \"Path does not exist\");\n        require(paths[_pathId].isActive, \"Path is not active\");\n        \n        // Verify disjoint sequence starts with source NID and ends with destination NIAS\n        bytes32 sourceNID = paths[_pathId].sourceNID;\n        bytes32 destinationNIAS = paths[_pathId].destinationNIAS;\n        \n        require(_disjointSequence.length >= 2, \"Disjoint path must have at least source and destination\");\n        require(_disjointSequence[0] == sourceNID, \"Disjoint path must start with source NID\");\n        require(_disjointSequence[_disjointSequence.length - 1] == destinationNIAS, \"Disjoint path must end with destination NIAS\");\n        \n        // Verify all nodes in path exist and are active\n        for (uint i = 1; i < _disjointSequence.length - 1; i++) {\n            require(nidRegistry.nodeExists(_disjointSequence[i]), \"Intermediate node does not exist\");\n            require(nidRegistry.isNodeActive(_disjointSequence[i]), \"Intermediate node is not active\");\n        }\n        \n        // Verify disjointness - no intermediate nodes overlap with original path\n        bytes32[] memory originalPath = paths[_pathId].originalPath;\n        for (uint i = 1; i < _disjointSequence.length - 1; i++) {\n            for (uint j = 1; j < originalPath.length - 1; j++) {\n                require(_disjointSequence[i] != originalPath[j], \"Disjoint path cannot share intermediate nodes with original path\");\n            }\n        }\n        \n        // Create disjoint path\n        DisjointPath memory disjointPath = DisjointPath({\n            pathId: _pathId,\n            pathSequence: _disjointSequence,\n            creationTime: block.timestamp,\n            isActive: true\n        });\n        \n        // Add disjoint path to list\n        disjointPaths[_pathId].push(disjointPath);\n        \n        // Add disjoint path to node's active paths\n        for (uint i = 0; i < _disjointSequence.length; i++) {\n            nodeToActivePaths[_disjointSequence[i]].push(_pathId);\n        }\n        \n        emit DisjointPathCreated(_pathId, disjointPaths[_pathId].length - 1);\n    }\n    \n    /**\n     * @dev Start transmission on a path\n     * @param _pathId Path ID\n     * @param _packetsTotal Total number of packets in transmission\n     * @param _securityLevel Security level of the path\n     */\n    function startTransmission(bytes32 _pathId, uint256 _packetsTotal, uint8 _securityLevel) public {\n        // Verify path exists and is active\n        require(paths[_pathId].creationTime != 0, \"Path does not exist\");\n        require(paths[_pathId].isActive, \"Path is not active\");\n        require(paths[_pathId].pathStatus == 0, \"Path is not in pending status\");\n        \n        // Update path status\n        paths[_pathId].pathStatus = 1; // In Progress\n        pathStatus[_pathId].startTime = block.timestamp;\n        pathStatus[_pathId].packetsTotal = _packetsTotal;\n        pathStatus[_pathId].securityLevel = _securityLevel;\n        \n        emit TransmissionStarted(_pathId, block.timestamp);\n        emit PathStatusChanged(_pathId, 1);\n    }\n    \n   /**\n     * @dev Complete transmission on a path\n     * @param _pathId Path ID\n     * @param _packetsLost Number of packets lost\n     * @param _measuredLatency Measured latency in ms\n     * @param _complianceCheck Whether the path meets QoS requirements\n     */\n    function completeTransmission(\n        bytes32 _pathId,\n        uint256 _packetsLost,\n        uint16 _measuredLatency,\n        bool _complianceCheck\n    ) public {\n        // Verify path exists and is in progress\n        require(paths[_pathId].creationTime != 0, \"Path does not exist\");\n        require(paths[_pathId].pathStatus == 1, \"Path is not in progress\");\n        \n        // Update path status\n        paths[_pathId].pathStatus = _complianceCheck ? 2 : 3; // Completed or Failed\n        \n        // Update transmission details\n        PathStatus storage status = pathStatus[_pathId];\n        status.endTime = block.timestamp;\n        status.packetsLost = _packetsLost;\n        status.measuredLatency = _measuredLatency;\n        status.complianceCheck = _complianceCheck;\n        \n        // Update node performance metrics\n        bytes32[] memory pathSequence = paths[_pathId].pathSequence;\n        for (uint i = 0; i < pathSequence.length; i++) {\n            updateNodePerformance(pathSequence[i], _complianceCheck);\n        }\n        \n        emit TransmissionCompleted(_pathId, block.timestamp, _packetsLost);\n        emit PathStatusChanged(_pathId, paths[_pathId].pathStatus);\n    }\n    \n    /**\n     * @dev Update node performance metrics\n     * @param _nodeId Node identifier\n     * @param _pathSuccess Whether the path was successful\n     */\n    function updateNodePerformance(bytes32 _nodeId, bool _pathSuccess) internal {\n        // Increment total packet count for the node\n        nodePacketCount[_nodeId]++;\n        \n        // Calculate and update success rate\n        uint256 currentSuccessRate = nodeSuccessRate[_nodeId];\n        uint256 newSuccessRate;\n        \n        if (currentSuccessRate == 0) {\n            // First measurement\n            newSuccessRate = _pathSuccess ? 100 : 0;\n        } else {\n            // Weighted average\n            newSuccessRate = (currentSuccessRate * (nodePacketCount[_nodeId] - 1) + \n                              (_pathSuccess ? 100 : 0)) / nodePacketCount[_nodeId];\n        }\n        \n        nodeSuccessRate[_nodeId] = newSuccessRate;\n        \n        emit NodePerformanceUpdated(_nodeId, newSuccessRate);\n    }\n    \n    /**\n     * @dev Reroute a path if a node fails\n     * @param _pathId Path ID\n     * @param _failedNodeId Node that failed\n     */\n    function reroutePath(bytes32 _pathId, bytes32 _failedNodeId) public {\n        // Verify path exists and is active\n        require(paths[_pathId].creationTime != 0, \"Path does not exist\");\n        require(paths[_pathId].isActive, \"Path is not active\");\n        \n        // Find a disjoint path\n        DisjointPath memory alternativePath = findDisjointPath(_pathId, _failedNodeId);\n        \n        // Update path sequence\n        paths[_pathId].pathSequence = alternativePath.pathSequence;\n        paths[_pathId].lastUpdated = block.timestamp;\n        \n        emit PathRerouted(_pathId, _failedNodeId, alternativePath.pathSequence);\n    }\n    \n    /**\n     * @dev Find a disjoint path avoiding a failed node\n     * @param _pathId Path ID\n     * @param _failedNodeId Node that failed\n     * @return DisjointPath An alternative path\n     */\n    function findDisjointPath(bytes32 _pathId, bytes32 _failedNodeId) internal view returns (DisjointPath memory) {\n        DisjointPath[] storage paths = disjointPaths[_pathId];\n        \n        for (uint i = 0; i < paths.length; i++) {\n            // Check if this disjoint path does not include the failed node\n            bool isValidAlternative = true;\n            for (uint j = 0; j < paths[i].pathSequence.length; j++) {\n                if (paths[i].pathSequence[j] == _failedNodeId) {\n                    isValidAlternative = false;\n                    break;\n                }\n            }\n            \n            // Return the first valid alternative path\n            if (isValidAlternative && paths[i].isActive) {\n                return paths[i];\n            }\n        }\n        \n        // Revert if no alternative path found\n        revert(\"No alternative path available\");\n    }\n    \n    /**\n     * @dev Get performance metrics for a specific node\n     * @param _nodeId Node identifier\n     * @return successRate Node's success rate\n     * @return packetCount Total packets processed by the node\n     */\n    function getNodePerformance(bytes32 _nodeId) public view returns (uint256 successRate, uint256 packetCount) {\n        return (nodeSuccessRate[_nodeId], nodePacketCount[_nodeId]);\n    }\n    \n    /**\n     * @dev Get all paths for a specific service class\n     * @param _serviceClass Service class to query\n     * @return bytes32[] Array of path IDs\n     */\n    function getPathsByServiceClass(string memory _serviceClass) public view returns (bytes32[] memory) {\n        return pathsByService[_serviceClass];\n    }\n}",
  "sourcePath": "C:\\Users\\Bonsu\\Documents\\Blockchain Multi Industrial Service Center\\Blockchain MultiIndustrial Projects\\BlockchainMultiIndustryRepo\\contracts\\N2N\\SequencePathRouter.sol",
  "compiler": {
    "name": "solc",
    "version": "0.8.20+commit.a1b79de6.Emscripten.clang"
  },
  "schemaVersion": "3.4.16",
  "updatedAt": "2025-04-16T14:10:53.487Z",
  "networkType": "ethereum",
  "devdoc": {
    "details": "Contract for managing routing sequences between NIDs and NIAS",
    "kind": "dev",
    "methods": {
      "completeTransmission(bytes32,uint256,uint16,bool)": {
        "details": "Complete transmission on a path",
        "params": {
          "_complianceCheck": "Whether the path meets QoS requirements",
          "_measuredLatency": "Measured latency in ms",
          "_packetsLost": "Number of packets lost",
          "_pathId": "Path ID"
        }
      },
      "constructor": {
        "details": "Constructor",
        "params": {
          "_abatlTranslationAddress": "Address of ABATLTranslation contract",
          "_niasRegistryAddress": "Address of NIASRegistry contract",
          "_nidRegistryAddress": "Address of NIDRegistry contract"
        }
      },
      "createDisjointPath(bytes32,bytes32[])": {
        "details": "Create a disjoint path as an alternative route",
        "params": {
          "_disjointSequence": "Disjoint path sequence",
          "_pathId": "Path ID to create disjoint path for"
        }
      },
      "createPath(bytes32,bytes32,bytes32,bytes32[],string)": {
        "details": "Create a new path",
        "params": {
          "_destinationNIAS": "Destination NIAS hash",
          "_pathId": "Unique path identifier",
          "_pathSequence": "Complete node sequence for the path",
          "_serviceClass": "Type of service",
          "_sourceNID": "Source NID hash"
        }
      },
      "getNodePerformance(bytes32)": {
        "details": "Get performance metrics for a specific node",
        "params": {
          "_nodeId": "Node identifier"
        },
        "returns": {
          "packetCount": "Total packets processed by the node",
          "successRate": "Node's success rate"
        }
      },
      "getPathsByServiceClass(string)": {
        "details": "Get all paths for a specific service class",
        "params": {
          "_serviceClass": "Service class to query"
        },
        "returns": {
          "_0": "bytes32[] Array of path IDs"
        }
      },
      "reroutePath(bytes32,bytes32)": {
        "details": "Reroute a path if a node fails",
        "params": {
          "_failedNodeId": "Node that failed",
          "_pathId": "Path ID"
        }
      },
      "startTransmission(bytes32,uint256,uint8)": {
        "details": "Start transmission on a path",
        "params": {
          "_packetsTotal": "Total number of packets in transmission",
          "_pathId": "Path ID",
          "_securityLevel": "Security level of the path"
        }
      }
    },
    "title": "SequencePathRouter",
    "version": 1
  },
  "userdoc": {
    "kind": "user",
    "methods": {},
    "version": 1
  }
}