{
  "contractName": "SpeculativeTransactionHandler",
  "abi": [
    {
      "anonymous": false,
      "inputs": [
        {
          "indexed": true,
          "internalType": "bytes32",
          "name": "role",
          "type": "bytes32"
        },
        {
          "indexed": true,
          "internalType": "bytes32",
          "name": "previousAdminRole",
          "type": "bytes32"
        },
        {
          "indexed": true,
          "internalType": "bytes32",
          "name": "newAdminRole",
          "type": "bytes32"
        }
      ],
      "name": "RoleAdminChanged",
      "type": "event"
    },
    {
      "anonymous": false,
      "inputs": [
        {
          "indexed": true,
          "internalType": "bytes32",
          "name": "role",
          "type": "bytes32"
        },
        {
          "indexed": true,
          "internalType": "address",
          "name": "account",
          "type": "address"
        },
        {
          "indexed": true,
          "internalType": "address",
          "name": "sender",
          "type": "address"
        }
      ],
      "name": "RoleGranted",
      "type": "event"
    },
    {
      "anonymous": false,
      "inputs": [
        {
          "indexed": true,
          "internalType": "bytes32",
          "name": "role",
          "type": "bytes32"
        },
        {
          "indexed": true,
          "internalType": "address",
          "name": "account",
          "type": "address"
        },
        {
          "indexed": true,
          "internalType": "address",
          "name": "sender",
          "type": "address"
        }
      ],
      "name": "RoleRevoked",
      "type": "event"
    },
    {
      "anonymous": false,
      "inputs": [
        {
          "indexed": true,
          "internalType": "bytes32",
          "name": "txId",
          "type": "bytes32"
        },
        {
          "indexed": false,
          "internalType": "uint256",
          "name": "beta",
          "type": "uint256"
        },
        {
          "indexed": false,
          "internalType": "uint256",
          "name": "epsilon",
          "type": "uint256"
        }
      ],
      "name": "SpeculativeCalculationComplete",
      "type": "event"
    },
    {
      "inputs": [],
      "name": "DEFAULT_ADMIN_ROLE",
      "outputs": [
        {
          "internalType": "bytes32",
          "name": "",
          "type": "bytes32"
        }
      ],
      "stateMutability": "view",
      "type": "function",
      "constant": true
    },
    {
      "inputs": [
        {
          "internalType": "bytes32",
          "name": "role",
          "type": "bytes32"
        }
      ],
      "name": "getRoleAdmin",
      "outputs": [
        {
          "internalType": "bytes32",
          "name": "",
          "type": "bytes32"
        }
      ],
      "stateMutability": "view",
      "type": "function",
      "constant": true
    },
    {
      "inputs": [
        {
          "internalType": "bytes32",
          "name": "role",
          "type": "bytes32"
        },
        {
          "internalType": "address",
          "name": "account",
          "type": "address"
        }
      ],
      "name": "grantRole",
      "outputs": [],
      "stateMutability": "nonpayable",
      "type": "function"
    },
    {
      "inputs": [
        {
          "internalType": "bytes32",
          "name": "role",
          "type": "bytes32"
        },
        {
          "internalType": "address",
          "name": "account",
          "type": "address"
        }
      ],
      "name": "hasRole",
      "outputs": [
        {
          "internalType": "bool",
          "name": "",
          "type": "bool"
        }
      ],
      "stateMutability": "view",
      "type": "function",
      "constant": true
    },
    {
      "inputs": [
        {
          "internalType": "bytes32",
          "name": "",
          "type": "bytes32"
        }
      ],
      "name": "rbfParams",
      "outputs": [
        {
          "internalType": "uint256",
          "name": "beta",
          "type": "uint256"
        },
        {
          "internalType": "uint256",
          "name": "epsilon",
          "type": "uint256"
        },
        {
          "internalType": "bytes",
          "name": "interpolationData",
          "type": "bytes"
        }
      ],
      "stateMutability": "view",
      "type": "function",
      "constant": true
    },
    {
      "inputs": [
        {
          "internalType": "bytes32",
          "name": "role",
          "type": "bytes32"
        },
        {
          "internalType": "address",
          "name": "account",
          "type": "address"
        }
      ],
      "name": "renounceRole",
      "outputs": [],
      "stateMutability": "nonpayable",
      "type": "function"
    },
    {
      "inputs": [
        {
          "internalType": "bytes32",
          "name": "role",
          "type": "bytes32"
        },
        {
          "internalType": "address",
          "name": "account",
          "type": "address"
        }
      ],
      "name": "revokeRole",
      "outputs": [],
      "stateMutability": "nonpayable",
      "type": "function"
    },
    {
      "inputs": [
        {
          "internalType": "bytes4",
          "name": "interfaceId",
          "type": "bytes4"
        }
      ],
      "name": "supportsInterface",
      "outputs": [
        {
          "internalType": "bool",
          "name": "",
          "type": "bool"
        }
      ],
      "stateMutability": "view",
      "type": "function",
      "constant": true
    },
    {
      "inputs": [
        {
          "internalType": "bytes32",
          "name": "txId",
          "type": "bytes32"
        },
        {
          "internalType": "bytes",
          "name": "data",
          "type": "bytes"
        },
        {
          "internalType": "uint256",
          "name": "beta",
          "type": "uint256"
        }
      ],
      "name": "calculateRBFInterpolation",
      "outputs": [
        {
          "internalType": "bytes",
          "name": "",
          "type": "bytes"
        }
      ],
      "stateMutability": "nonpayable",
      "type": "function"
    }
  ],
  "bytecode": "0x608060405234801561000f575f80fd5b5060015f55611094806100215f395ff3fe608060405234801561000f575f80fd5b5060043610610090575f3560e01c80633ba8d66b116100635780633ba8d66b1461011557806391d1485414610137578063a217fddf1461014a578063bbc68a5114610151578063d547741f14610171575f80fd5b806301ffc9a714610094578063248a9ca3146100bc5780632f2ff15d146100ed57806336568abe14610102575b5f80fd5b6100a76100a2366004610bc9565b610184565b60405190151581526020015b60405180910390f35b6100df6100ca366004610bf0565b5f908152600160208190526040909120015490565b6040519081526020016100b3565b6101006100fb366004610c07565b6101ba565b005b610100610110366004610c07565b6101e4565b610128610123366004610bf0565b610267565b6040516100b393929190610c8d565b6100a7610145366004610c07565b610311565b6100df5f81565b61016461015f366004610d22565b61033b565b6040516100b39190610dc3565b61010061017f366004610c07565b61063d565b5f6001600160e01b03198216637965db0b60e01b14806101b457506301ffc9a760e01b6001600160e01b03198316145b92915050565b5f82815260016020819052604090912001546101d581610662565b6101df838361066f565b505050565b6001600160a01b03811633146102595760405162461bcd60e51b815260206004820152602f60248201527f416363657373436f6e74726f6c3a2063616e206f6e6c792072656e6f756e636560448201526e103937b632b9903337b91039b2b63360891b60648201526084015b60405180910390fd5b61026382826106d9565b5050565b600260208190525f91825260409091208054600182015492820180549193929161029090610dd5565b80601f01602080910402602001604051908101604052809291908181526020018280546102bc90610dd5565b80156103075780601f106102de57610100808354040283529160200191610307565b820191905f5260205f20905b8154815290600101906020018083116102ea57829003601f168201915b5050505050905083565b5f9182526001602090815260408084206001600160a01b0393909316845291905290205460ff1690565b606061034561073f565b5f8380602001905181019061035a9190610e0d565b90505f8151116103ac5760405162461bcd60e51b815260206004820152601860248201527f4e6f20696e70757420706f696e74732070726f766964656400000000000000006044820152606401610250565b5f85815260036020526040812084815582516002820181905590919067ffffffffffffffff8111156103e0576103e0610cb4565b604051908082528060200260200182016040528015610409578160200160208202803683370190505b5090505f5b83518110156105a6575f805b85518110156104f8575f6104a287858151811061043957610439610edb565b60200260200101515f015188868151811061045657610456610edb565b60200260200101516020015189858151811061047457610474610edb565b60200260200101515f01518a868151811061049157610491610edb565b602002602001015160200151610796565b90505f6104af828b6107ff565b90506104e1846104dc8a86815181106104ca576104ca610edb565b6020026020010151604001518461081e565b61083c565b9350505080806104f090610f03565b91505061041a565b508083838151811061050c5761050c610edb565b602002602001018181525050604051806060016040528086848151811061053557610535610edb565b60200260200101515f0151815260200186848151811061055757610557610edb565b6020908102919091018101518101518252908101929092525f8381526003860183526040908190208251815592820151600184015501516002909101558061059e81610f03565b91505061040e565b506105b18782610847565b6106085760405162461bcd60e51b815260206004820152602260248201527f52424620696e746572706f6c6174696f6e20646964206e6f7420636f6e766572604482015261676560f01b6064820152608401610250565b806040516020016106199190610f1b565b604051602081830303815290604052935050505061063660015f55565b9392505050565b5f828152600160208190526040909120015461065881610662565b6101df83836106d9565b61066c8133610943565b50565b6106798282610311565b610263575f8281526001602081815260408084206001600160a01b0386168086529252808420805460ff19169093179092559051339285917f2f8788117e7eff1d82e926ec794901d17c78024a50270940304540a733656f0d9190a45050565b6106e38282610311565b15610263575f8281526001602090815260408083206001600160a01b0385168085529252808320805460ff1916905551339285917ff6391f5c32d9c69d2a47ea670b442974b53935d1edc7fd64eb21e047a839171b9190a45050565b60025f54036107905760405162461bcd60e51b815260206004820152601f60248201527f5265656e7472616e637947756172643a207265656e7472616e742063616c6c006044820152606401610250565b60025f55565b5f808386116107ae576107a98685610f5e565b6107b8565b6107b88487610f5e565b90505f8386116107d1576107cc8685610f5e565b6107db565b6107db8487610f5e565b90506107f46107ea838461081e565b6104dc838461081e565b979650505050505050565b5f8061080b838561081e565b90506108168161099c565b949350505050565b5f670de0b6b3a76400006108328385610f71565b6106369190610f9c565b5f6106368284610faf565b5f828152600360205260408120815b8351811015610938575f818152600383016020526040812060020154855186908490811061088657610886610edb565b6020026020010151116108d3578482815181106108a5576108a5610edb565b6020026020010151836003015f8481526020019081526020015f20600201546108ce9190610f5e565b61090c565b5f82815260038401602052604090206002015485518690849081106108fa576108fa610edb565b602002602001015161090c9190610f5e565b90508260010154811115610925575f93505050506101b4565b508061093081610f03565b915050610856565b506001949350505050565b61094d8282610311565b6102635761095a81610a21565b610965836020610a33565b604051602001610976929190610fc2565b60408051601f198184030181529082905262461bcd60e51b825261025091600401610dc3565b5f670de0b6b3a76400008060015b60058111610a1857806109bd838761081e565b6109c79190610f9c565b91506109d4600282611036565b6001036109f9578183116109e8575f6109f2565b6109f28284610f5e565b9250610a06565b610a03838361083c565b92505b80610a1081610f03565b9150506109aa565b50909392505050565b60606101b46001600160a01b03831660145b60605f610a41836002610f71565b610a4c906002610faf565b67ffffffffffffffff811115610a6457610a64610cb4565b6040519080825280601f01601f191660200182016040528015610a8e576020820181803683370190505b509050600360fc1b815f81518110610aa857610aa8610edb565b60200101906001600160f81b03191690815f1a905350600f60fb1b81600181518110610ad657610ad6610edb565b60200101906001600160f81b03191690815f1a9053505f610af8846002610f71565b610b03906001610faf565b90505b6001811115610b7a576f181899199a1a9b1b9c1cb0b131b232b360811b85600f1660108110610b3757610b37610edb565b1a60f81b828281518110610b4d57610b4d610edb565b60200101906001600160f81b03191690815f1a90535060049490941c93610b7381611049565b9050610b06565b5083156106365760405162461bcd60e51b815260206004820181905260248201527f537472696e67733a20686578206c656e67746820696e73756666696369656e746044820152606401610250565b5f60208284031215610bd9575f80fd5b81356001600160e01b031981168114610636575f80fd5b5f60208284031215610c00575f80fd5b5035919050565b5f8060408385031215610c18575f80fd5b8235915060208301356001600160a01b0381168114610c35575f80fd5b809150509250929050565b5f5b83811015610c5a578181015183820152602001610c42565b50505f910152565b5f8151808452610c79816020860160208601610c40565b601f01601f19169290920160200192915050565b838152826020820152606060408201525f610cab6060830184610c62565b95945050505050565b634e487b7160e01b5f52604160045260245ffd5b6040516060810167ffffffffffffffff81118282101715610ceb57610ceb610cb4565b60405290565b604051601f8201601f1916810167ffffffffffffffff81118282101715610d1a57610d1a610cb4565b604052919050565b5f805f60608486031215610d34575f80fd5b8335925060208085013567ffffffffffffffff80821115610d53575f80fd5b818701915087601f830112610d66575f80fd5b813581811115610d7857610d78610cb4565b610d8a601f8201601f19168501610cf1565b91508082528884828501011115610d9f575f80fd5b80848401858401375f84828401015250809450505050604084013590509250925092565b602081525f6106366020830184610c62565b600181811c90821680610de957607f821691505b602082108103610e0757634e487b7160e01b5f52602260045260245ffd5b50919050565b5f6020808385031215610e1e575f80fd5b825167ffffffffffffffff80821115610e35575f80fd5b818501915085601f830112610e48575f80fd5b815181811115610e5a57610e5a610cb4565b610e68848260051b01610cf1565b81815284810192506060918202840185019188831115610e86575f80fd5b938501935b82851015610ecf5780858a031215610ea2575f8081fd5b610eaa610cc8565b8551815286860151878201526040808701519082015284529384019392850192610e8b565b50979650505050505050565b634e487b7160e01b5f52603260045260245ffd5b634e487b7160e01b5f52601160045260245ffd5b5f60018201610f1457610f14610eef565b5060010190565b602080825282518282018190525f9190848201906040850190845b81811015610f5257835183529284019291840191600101610f36565b50909695505050505050565b818103818111156101b4576101b4610eef565b80820281158282048414176101b4576101b4610eef565b634e487b7160e01b5f52601260045260245ffd5b5f82610faa57610faa610f88565b500490565b808201808211156101b4576101b4610eef565b7f416363657373436f6e74726f6c3a206163636f756e742000000000000000000081525f8351610ff9816017850160208801610c40565b7001034b99036b4b9b9b4b733903937b6329607d1b601791840191820152835161102a816028840160208801610c40565b01602801949350505050565b5f8261104457611044610f88565b500690565b5f8161105757611057610eef565b505f19019056fea2646970667358221220cb0de95d49880ff3b156514504906cd8e1eac9a3478189f7fe6b500726ee9d8464736f6c63430008140033",
  "immutableReferences": {},
  "source": "// SPDX-License-Identifier: MIT\r\npragma solidity ^0.8.0;\r\n\r\nimport \"@openzeppelin/contracts/security/ReentrancyGuard.sol\";\r\nimport \"@openzeppelin/contracts/security/Pausable.sol\";\r\nimport \"@openzeppelin/contracts/access/AccessControl.sol\";\r\nimport \"../../library/FixedPointMath.sol\";\r\nimport \"../../library/TransactionTypes.sol\";\r\n\r\n/**\r\n * @title PacechainChannel\r\n * @dev Manages transmission channels between blockchains\r\n */\r\ncontract PacechainChannel is ReentrancyGuard, Pausable, AccessControl {\r\n    using TransactionTypes for TransactionTypes.Channel;\r\n    using FixedPointMath for uint256;\r\n    \r\n    bytes32 public constant CHANNEL_OPERATOR = keccak256(\"CHANNEL_OPERATOR\");\r\n    \r\n    mapping(bytes32 => TransactionTypes.Channel) public channels;\r\n    mapping(bytes32 => TransactionTypes.SpeculativeTx) public speculativeTxs;\r\n    mapping(bytes32 => TransactionTypes.ConfirmableTx) public confirmableTxs;\r\n    \r\n    event ChannelCreated(bytes32 indexed channelId, address sourceBridge, address targetBridge);\r\n    event SpeculativeTxCreated(bytes32 indexed txId, address sender, uint256 anticipatedTime);\r\n    event ConfirmableTxCreated(bytes32 indexed txId, bytes32 speculativeTxId);\r\n    \r\n    constructor() {\r\n        _setupRole(DEFAULT_ADMIN_ROLE, msg.sender);\r\n    }\r\n    \r\n    function createChannel(\r\n        address sourceBridge,\r\n        address targetBridge,\r\n        uint256 confidenceThreshold\r\n    ) external onlyRole(CHANNEL_OPERATOR) returns (bytes32) {\r\n        require(sourceBridge != address(0), \"Invalid source bridge\");\r\n        require(targetBridge != address(0), \"Invalid target bridge\");\r\n        require(confidenceThreshold > 0, \"Invalid threshold\");\r\n\r\n        bytes32 channelId = keccak256(abi.encodePacked(\r\n            sourceBridge,\r\n            targetBridge,\r\n            block.timestamp\r\n        ));\r\n        \r\n        channels[channelId] = TransactionTypes.Channel({\r\n            id: channelId,\r\n            sourceBridge: sourceBridge,\r\n            targetBridge: targetBridge,\r\n            creationTime: block.timestamp,\r\n            isActive: true,\r\n            confidenceThreshold: confidenceThreshold\r\n        });\r\n        \r\n        emit ChannelCreated(channelId, sourceBridge, targetBridge);\r\n        return channelId;\r\n    }\r\n}\r\n\r\n/**\r\n * @title SpeculativeTransactionHandler\r\n * @dev Handles creation and management of speculative transactions\r\n */\r\ncontract SpeculativeTransactionHandler is ReentrancyGuard, AccessControl {\r\n    using TransactionTypes for TransactionTypes.SpeculativeTx;\r\n    \r\n    struct RBFParams {\r\n        uint256 beta;\r\n        uint256 epsilon;\r\n        bytes interpolationData;\r\n    }\r\n    \r\n    mapping(bytes32 => RBFParams) public rbfParams;\r\n    \r\n    event SpeculativeCalculationComplete(bytes32 indexed txId, uint256 beta, uint256 epsilon);\r\n    \r\n    struct RBFPoint {\r\n        uint256 x;\r\n        uint256 y;\r\n        uint256 lambda;\r\n    }\r\n\r\n    struct RBFCalculation {\r\n        uint256 beta;\r\n        uint256 epsilon;\r\n        uint256 pointCount;\r\n        mapping(uint256 => RBFPoint) points;\r\n    }\r\n\r\n    mapping(bytes32 => RBFCalculation) private rbfCalculations;\r\n\r\n    uint256 private constant PRECISION = 1e18;\r\n\r\n    function calculateRBFInterpolation(\r\n        bytes32 txId,\r\n        bytes memory data,\r\n        uint256 beta\r\n    ) external nonReentrant returns (bytes memory) {\r\n        (RBFPoint[] memory inputPoints) = abi.decode(data, (RBFPoint[]));\r\n        require(inputPoints.length > 0, \"No input points provided\");\r\n\r\n        RBFCalculation storage calc = rbfCalculations[txId];\r\n        calc.beta = beta;\r\n        calc.pointCount = inputPoints.length;\r\n\r\n        uint256[] memory virtualPoints = new uint256[](inputPoints.length);\r\n        \r\n        for (uint256 i = 0; i < inputPoints.length; i++) {\r\n            uint256 sum = 0;\r\n            \r\n            for (uint256 j = 0; j < inputPoints.length; j++) {\r\n                uint256 distance = calculateSquaredDistance(\r\n                    inputPoints[i].x,\r\n                    inputPoints[i].y,\r\n                    inputPoints[j].x,\r\n                    inputPoints[j].y\r\n                );\r\n                \r\n                uint256 phi = calculateGaussianRBF(distance, beta);\r\n                sum = addFixedPoint(sum, multiplyFixedPoint(inputPoints[j].lambda, phi));\r\n            }\r\n            \r\n            virtualPoints[i] = sum;\r\n            calc.points[i] = RBFPoint({\r\n                x: inputPoints[i].x,\r\n                y: inputPoints[i].y,\r\n                lambda: sum\r\n            });\r\n        }\r\n\r\n        require(monitorConvergence(txId, virtualPoints), \"RBF interpolation did not converge\");\r\n\r\n        return abi.encode(virtualPoints);\r\n    }\r\n\r\n    function calculateSquaredDistance(\r\n        uint256 x1,\r\n        uint256 y1,\r\n        uint256 x2,\r\n        uint256 y2\r\n    ) internal pure returns (uint256) {\r\n        uint256 dx = x1 > x2 ? x1 - x2 : x2 - x1;\r\n        uint256 dy = y1 > y2 ? y1 - y2 : y2 - y1;\r\n        \r\n        return addFixedPoint(\r\n            multiplyFixedPoint(dx, dx),\r\n            multiplyFixedPoint(dy, dy)\r\n        );\r\n    }\r\n\r\n    function calculateGaussianRBF(\r\n        uint256 distance,\r\n        uint256 beta\r\n    ) internal pure returns (uint256) {\r\n        uint256 exponent = multiplyFixedPoint(beta, distance);\r\n        return exponentialDecay(exponent);\r\n    }\r\n\r\n    function exponentialDecay(uint256 x) internal pure returns (uint256) {\r\n        uint256 result = PRECISION;\r\n        uint256 term = PRECISION;\r\n        \r\n        for (uint256 i = 1; i <= 5; i++) {\r\n            term = multiplyFixedPoint(term, x) / i;\r\n            if (i % 2 == 1) {\r\n                result = result > term ? result - term : 0;\r\n            } else {\r\n                result = addFixedPoint(result, term);\r\n            }\r\n        }\r\n        \r\n        return result;\r\n    }\r\n\r\n    function monitorConvergence(\r\n        bytes32 txId,\r\n        uint256[] memory virtualPoints\r\n    ) internal view returns (bool) {\r\n        RBFCalculation storage calc = rbfCalculations[txId];\r\n        \r\n        for (uint256 i = 0; i < virtualPoints.length; i++) {\r\n            uint256 difference = virtualPoints[i] > calc.points[i].lambda ?\r\n                virtualPoints[i] - calc.points[i].lambda :\r\n                calc.points[i].lambda - virtualPoints[i];\r\n                \r\n            if (difference > calc.epsilon) {\r\n                return false;\r\n            }\r\n        }\r\n        \r\n        return true;\r\n    }\r\n\r\n    function multiplyFixedPoint(uint256 a, uint256 b) internal pure returns (uint256) {\r\n        return (a * b) / PRECISION;\r\n    }\r\n\r\n    function addFixedPoint(uint256 a, uint256 b) internal pure returns (uint256) {\r\n        return a + b;\r\n    }\r\n}\r\n/**\r\n * @title ConfidenceScoreCalculator\r\n * @dev Calculates and manages confidence scores for transactions\r\n */\r\n\r\ncontract ConfidenceScoreCalculator is AccessControl {\r\n    using FixedPointMath for uint256;\r\n\r\n    mapping(address => uint256[]) private transactionFrequencies;\r\n    mapping(address => ScoreComponents) public scoreComponents;\r\n    mapping(address => ReputationData) private reputationStore;\r\n\r\n    uint256 private constant MAX_FREQUENCY_SAMPLES = 100;\r\n    uint256 private constant PRECISION = 1e18;\r\n    \r\n    uint256 private constant OPTIMAL_LOAD = 700 * 1e15;\r\n    uint256 private constant LOAD_SENSITIVITY = 50 * 1e15;\r\n    uint256 private constant DELTA = 800 * 1e15;\r\n    uint256 private constant K = 100 * 1e15;\r\n    uint256 private constant TAU = 10;\r\n    uint256 private constant ALPHA = 600 * 1e15;\r\n    uint256 private constant BETA = 400 * 1e15;\r\n    uint256 private constant LAMBDA = 100 * 1e15;\r\n    uint256 private constant GAMMA = 800 * 1e15;\r\n\r\n    uint256 public constant HIGH_CONFIDENCE_THRESHOLD = 800;\r\n    uint256 public constant LOW_CONFIDENCE_THRESHOLD = 500;\r\n    \r\n    uint256 public constant SENDER_REPUTATION_WEIGHT = 300;\r\n    uint256 public constant TRANSACTION_PATTERN_WEIGHT = 200;\r\n    uint256 public constant ZK_VERIFICATION_WEIGHT = 300;\r\n    uint256 public constant NETWORK_STATE_WEIGHT = 200;\r\n\r\n    struct ScoreComponents {\r\n        uint256 senderReputation;\r\n        uint256 transactionPattern;\r\n        uint256 zkVerification;\r\n        uint256 networkState;\r\n    }\r\n\r\n    struct ReputationData {\r\n        uint256 successfulTx;\r\n        uint256 totalTx;\r\n        uint256 failedAttempts;\r\n    }\r\n\r\n    event ConfidenceScoreCalculated(address indexed sender, uint256 score);\r\n    event ReputationUpdated(address indexed sender, uint256 successfulTx, uint256 totalTx);\r\n\r\n    constructor() {\r\n        _setupRole(DEFAULT_ADMIN_ROLE, msg.sender);\r\n    }\r\n\r\n    function calculateConfidenceScore(\r\n        address sender,\r\n        uint256 txFrequency,\r\n        bool zkProofValid,\r\n        uint256 networkLoad\r\n    ) external view returns (uint256) {\r\n        require(sender != address(0), \"Invalid sender address\");\r\n        \r\n        uint256 senderScore = calculateSenderReputation(sender);\r\n        uint256 patternScore = calculateTransactionPattern(txFrequency);\r\n        uint256 zkScore = calculateZKScore(zkProofValid, txFrequency);\r\n        uint256 networkScore = calculateNetworkScore(networkLoad);\r\n        \r\n        return (senderScore * SENDER_REPUTATION_WEIGHT +\r\n                patternScore * TRANSACTION_PATTERN_WEIGHT +\r\n                zkScore * ZK_VERIFICATION_WEIGHT +\r\n                networkScore * NETWORK_STATE_WEIGHT) / 1000;\r\n    }\r\n\r\n    function calculateSenderReputation(address sender) internal view returns (uint256) {\r\n        ReputationData storage repData = reputationStore[sender];\r\n        \r\n        if (repData.totalTx == 0) return 0;\r\n\r\n        uint256 successRatio = (repData.successfulTx * PRECISION) / repData.totalTx;\r\n        uint256 weightedSuccess = successRatio.multiplyFixedPoint(ALPHA);\r\n        \r\n        uint256 failurePenalty = FixedPointMath.exponentialDecay(\r\n            uint256(repData.failedAttempts).multiplyFixedPoint(LAMBDA)\r\n        );\r\n        uint256 weightedFailure = failurePenalty.multiplyFixedPoint(BETA);\r\n        \r\n        return weightedSuccess.addFixedPoint(weightedFailure);\r\n    }\r\n\r\n    function calculateTransactionPattern(uint256 frequency) internal view returns (uint256) {\r\n        uint256 meanFreq = getMeanFrequency();\r\n        uint256 variance = getVariance();\r\n        \r\n        if (variance == 0) return PRECISION;\r\n        \r\n        uint256 diff = frequency > meanFreq ? \r\n            frequency - meanFreq : \r\n            meanFreq - frequency;\r\n        uint256 diffSquared = diff.multiplyFixedPoint(diff);\r\n        \r\n        uint256 denominator = 2 * variance;\r\n        uint256 exponent = diffSquared / denominator;\r\n        uint256 expValue = FixedPointMath.exponentialDecay(exponent);\r\n        \r\n        return GAMMA.multiplyFixedPoint(expValue);\r\n    }\r\n\r\n    function calculateZKScore(\r\n        bool proofValid,\r\n        uint256 verificationTime\r\n    ) internal pure returns (uint256) {\r\n        if (!proofValid) return 0;\r\n        \r\n        uint256 timeScore;\r\n        if (verificationTime <= TAU) {\r\n            timeScore = PRECISION;\r\n        } else {\r\n            uint256 timeDiff = verificationTime - TAU;\r\n            uint256 exponent = K.multiplyFixedPoint(timeDiff);\r\n            timeScore = PRECISION / (PRECISION + FixedPointMath.exponentialGrowth(exponent));\r\n        }\r\n        \r\n        uint256 proofScore = DELTA.multiplyFixedPoint(PRECISION);\r\n        uint256 timeWeightedScore = (PRECISION - DELTA).multiplyFixedPoint(timeScore);\r\n        \r\n        return proofScore.addFixedPoint(timeWeightedScore);\r\n    }\r\n\r\n    function calculateNetworkScore(uint256 networkLoad) internal pure returns (uint256) {\r\n        if (networkLoad >= PRECISION) return 0;\r\n        \r\n        uint256 resourceRatio = PRECISION - networkLoad;\r\n        uint256 loadDiff = networkLoad > OPTIMAL_LOAD ? \r\n            networkLoad - OPTIMAL_LOAD : \r\n            OPTIMAL_LOAD - networkLoad;\r\n            \r\n        uint256 exponent = LOAD_SENSITIVITY.multiplyFixedPoint(loadDiff);\r\n        uint256 loadFactor = PRECISION / (PRECISION + FixedPointMath.exponentialGrowth(exponent));\r\n        \r\n        return resourceRatio.multiplyFixedPoint(loadFactor);\r\n    }\r\n\r\n    function getMeanFrequency() internal view returns (uint256) {\r\n        uint256[] storage frequencies = transactionFrequencies[msg.sender];\r\n        if (frequencies.length == 0) return 0;\r\n        \r\n        uint256 sum = 0;\r\n        for (uint256 i = 0; i < frequencies.length; i++) {\r\n            sum = sum.addFixedPoint(frequencies[i]);\r\n        }\r\n        return sum / frequencies.length;\r\n    }\r\n    \r\n    function getVariance() internal view returns (uint256) {\r\n        uint256[] storage frequencies = transactionFrequencies[msg.sender];\r\n        if (frequencies.length == 0) return 0;\r\n        \r\n        uint256 mean = getMeanFrequency();\r\n        uint256 sumSquaredDiff = 0;\r\n        \r\n        for (uint256 i = 0; i < frequencies.length; i++) {\r\n            uint256 diff = frequencies[i] > mean ? \r\n                frequencies[i] - mean : \r\n                mean - frequencies[i];\r\n            sumSquaredDiff = sumSquaredDiff.addFixedPoint(diff.multiplyFixedPoint(diff));\r\n        }\r\n        \r\n        return sumSquaredDiff / frequencies.length;\r\n    }\r\n\r\n    function updateTransactionFrequency(uint256 frequency) external {\r\n        uint256[] storage frequencies = transactionFrequencies[msg.sender];\r\n        \r\n        if (frequencies.length >= MAX_FREQUENCY_SAMPLES) {\r\n            // Remove oldest frequency\r\n            for (uint256 i = 0; i < frequencies.length - 1; i++) {\r\n                frequencies[i] = frequencies[i + 1];\r\n            }\r\n            frequencies[frequencies.length - 1] = frequency;\r\n        } else {\r\n            frequencies.push(frequency);\r\n        }\r\n    }\r\n}\r\n\r\ncontract AssetTransferProcessor is ReentrancyGuard, AccessControl {\r\n    struct AssetTransfer {\r\n        bytes32 txId;\r\n        address asset;\r\n        uint256 amount;\r\n        uint256 lockTime;\r\n        bytes32 hashLock;\r\n        bool isCompleted;\r\n    }\r\n    \r\n    mapping(bytes32 => AssetTransfer) public assetTransfers;\r\n    \r\n    event AssetLocked(bytes32 indexed txId, address asset, uint256 amount);\r\n    event AssetReleased(bytes32 indexed txId, address asset, uint256 amount);\r\n    \r\n    function initiateAssetTransfer(\r\n        bytes32 txId,\r\n        address asset,\r\n        uint256 amount,\r\n        bytes32 hashLock\r\n    ) external nonReentrant {\r\n        assetTransfers[txId] = AssetTransfer({\r\n            txId: txId,\r\n            asset: asset,\r\n            amount: amount,\r\n            lockTime: block.timestamp + 1 hours,\r\n            hashLock: hashLock,\r\n            isCompleted: false\r\n        });\r\n        \r\n        emit AssetLocked(txId, asset, amount);\r\n    }\r\n}",
  "sourcePath": "C:\\Users\\Bonsu\\Documents\\Blockchain Multi Industrial Service Center\\Blockchain MultiIndustrial Projects\\BlockchainMultiIndustryRepo\\contracts\\passchain\\PacechainChannel.sol",
  "compiler": {
    "name": "solc",
    "version": "0.8.20+commit.a1b79de6.Emscripten.clang"
  },
  "schemaVersion": "3.4.16",
  "updatedAt": "2025-04-16T14:10:41.866Z",
  "networkType": "ethereum",
  "devdoc": {
    "details": "Handles creation and management of speculative transactions",
    "events": {
      "RoleAdminChanged(bytes32,bytes32,bytes32)": {
        "details": "Emitted when `newAdminRole` is set as ``role``'s admin role, replacing `previousAdminRole` `DEFAULT_ADMIN_ROLE` is the starting admin for all roles, despite {RoleAdminChanged} not being emitted signaling this. _Available since v3.1._"
      },
      "RoleGranted(bytes32,address,address)": {
        "details": "Emitted when `account` is granted `role`. `sender` is the account that originated the contract call, an admin role bearer except when using {AccessControl-_setupRole}."
      },
      "RoleRevoked(bytes32,address,address)": {
        "details": "Emitted when `account` is revoked `role`. `sender` is the account that originated the contract call:   - if using `revokeRole`, it is the admin role bearer   - if using `renounceRole`, it is the role bearer (i.e. `account`)"
      }
    },
    "kind": "dev",
    "methods": {
      "getRoleAdmin(bytes32)": {
        "details": "Returns the admin role that controls `role`. See {grantRole} and {revokeRole}. To change a role's admin, use {_setRoleAdmin}."
      },
      "grantRole(bytes32,address)": {
        "details": "Grants `role` to `account`. If `account` had not been already granted `role`, emits a {RoleGranted} event. Requirements: - the caller must have ``role``'s admin role. May emit a {RoleGranted} event."
      },
      "hasRole(bytes32,address)": {
        "details": "Returns `true` if `account` has been granted `role`."
      },
      "renounceRole(bytes32,address)": {
        "details": "Revokes `role` from the calling account. Roles are often managed via {grantRole} and {revokeRole}: this function's purpose is to provide a mechanism for accounts to lose their privileges if they are compromised (such as when a trusted device is misplaced). If the calling account had been revoked `role`, emits a {RoleRevoked} event. Requirements: - the caller must be `account`. May emit a {RoleRevoked} event."
      },
      "revokeRole(bytes32,address)": {
        "details": "Revokes `role` from `account`. If `account` had been granted `role`, emits a {RoleRevoked} event. Requirements: - the caller must have ``role``'s admin role. May emit a {RoleRevoked} event."
      },
      "supportsInterface(bytes4)": {
        "details": "See {IERC165-supportsInterface}."
      }
    },
    "title": "SpeculativeTransactionHandler",
    "version": 1
  },
  "userdoc": {
    "kind": "user",
    "methods": {},
    "version": 1
  }
}